:100000000C94EC030C943D220C9415220C941404D3
:100010000C9414040C9414040C9414040C94140400
:100020000C9414040C9414040C9414040C941404F0
:100030000C9414040C9414040C9414040C941404E0
:100040000C94A1200C9414040C9414040C94140427
:100050000C9414040C9414040C9414040C941404C0
:100060000C94F6200C94140420D092D0BED181D1EF
:1000700081D182D0B0D0BDD0BED0B2203D3E2031A3
:10008000300020D0A0D0B5D0B7D0B5D180D0B2202C
:100090003D3E203130006B487A0020D093D180D093
:1000A000B0D0BDD0B8D186D0B020D094D09FD0A44D
:1000B0003420006B487A0020D093D180D0B0D0BDDE
:1000C000D0B8D186D0B020D094D09FD0A433200017
:1000D0006B487A0020D093D180D0B0D0BDD0B8D1B9
:1000E00086D0B020D094D09FD0A43220006B487A24
:1000F0000020D093D180D0B0D0BDD0B8D186D0B0C0
:1001000020D094D09FD0A4312000D093D18600205D
:10011000D09ED0BFD0BED180D0B02032D09FD0A74B
:100120002000D093D1860020D09ED0BFD0BED180F9
:10013000D0B020D092D091D09F00D093D186002013
:10014000D09ED0BFD0BED180D0B020D09DD091D095
:100150009F00D093D1860020D09AD0B0D0BBD0B829
:10016000D0B1D180D0BED0B2D0BAD0B020D0BAD029
:10017000B2D0B0D180D186D0B000430020D0A2D080
:10018000B5D0BCD0BFD0B5D180D0B0D182D183D1D1
:1001900080D0B00020D092002E00300020D091D02E
:1001A000B0D182D0B0D180D0B5D18F200020D092F4
:1001B000D0BAD0BB20D0BAD0B0D0BD2E20D180D004
:1001C000B5D0B6D0B8D0BC00D09DD0B5D18200D0CB
:1001D00094D0B00020D0A0D0B5D0B2D0B5D180D1CD
:1001E0008120D18DD0BDD0BAD0BED0B4D0B5D18011
:1001F000D0B000D09DD0B5D18200D094D0B0002036
:1002000021D094D0B5D0BBD0B8D182D0B5D0BBD19D
:100210008C20D18DD0BDD0BAD0BED0B4D0B5D180D5
:10022000D0B0210020D0A2D0BED0BD20D0A2D09B83
:10023000D09320D093D1860020D097D0B0D0B4D026
:10024000B5D180D0B6D0BAD0B020D0A2D09BD093B8
:100250000020D0A3D181D1822E20D09CD0B8D0BD97
:10026000D183D18200300020D0A3D181D1822E2031
:10027000D0A7D0B0D181D0BED0B200300020D09273
:10028000D181D0B5D0B3D0BE20D0BAD0B0D0BDD0FF
:10029000B0D0BBD0BED0B200D0BAD093D1860020AF
:1002A000D09CD0B0D0BAD1812E20D0A7D0B0D181EF
:1002B000D182D0BED182D0B02000D0BAD093D18626
:1002C0000020D09CD0B8D0BD2E20D0A7D0B0D181F6
:1002D000D182D0BED182D0B02000204154542D52C2
:1002E00058204F6E2F4F6666004F6666004F6E00B7
:1002F00020D090D0A0D0A320D09FD0A0D09C00D060
:1003000092D0BAD0BB00D092D18BD0BAD0BB002053
:10031000D09CD0BED189D0BDD0BED181D182D18C6C
:1003200020D0A3D09C00D09DD0B8D0B7D0BAD0B048
:10033000D18F00D092D18BD181D0BED0BAD0B0D1E4
:100340008F00D093D1860020D0A1D0B4D0B2D0B845
:10035000D0B320D09FD0A7200020D092D18BD0B195
:10036000D0BED18020D092D091D09F2FD09DD0915F
:10037000D09F00D09DD091D09F00D092D091D09F9F
:100380000020D0A8D0B0D0B320D093D1860020D008
:1003900092D18BD0B12E20D09AD090D09DD090D039
:1003A0009B2030203C3D3E20003000D09DD091D09D
:1003B0009F00D092D091D09F0030003000200020CC
:1003C00000200020D09D0020D09200300020003A74
:1003D0000020002E002000206572722000430020C3
:1003E0000030002E002000D09D00D0920020002E72
:1003F00000200030003000300020000044445F4402
:10040000440000060F090F06000000000000000075
:1004100000006F00000007000700147F147F148C99
:1004200092FF9262231308646236495620500000FE
:10043000070000001C2241000041221C0014083E5D
:10044000081408083E080800503000000808080892
:1004500008006060000020100804023E5149453E3B
:1004600000427F400042615149462141454B3118CD
:1004700014127F1027454545393C4A4949300171DE
:100480000905033649494936064949291E003636C9
:100490000000005636000008142241001414141401
:1004A00014004122140802015109063E415D494EE3
:1004B0007E0909097E7F494949363E414141227FF3
:1004C0004141413E7F494949417F090909013E4176
:1004D00049497A7F0808087F00417F410020404158
:1004E0003F017F081422417F404040407F020C02C0
:1004F0007F7F0408107F3E4141413E7F0909090684
:100500003E4151215E7F0919294646494949310139
:10051000017F01013F4040403F0F3040300F3F40DE
:1005200030403F631408146307087008076151499D
:10053000454300007F4100020408102000417F0075
:100540000004020102044040404040000003040057
:1005500020545454787F4844443838444444203824
:100560004444487F3854545418087E0901020C5200
:1005700052523E7F0804047800447D4000204044ED
:100580003D00007F10284400417F40007C04180497
:10059000787C0804047838444444387C14141408E3
:1005A000081414187C7C080404084854545420048B
:1005B0003F4440203C4040207C1C2040201C3C40CC
:1005C00030403C44281028440C5050503C44645463
:1005D0004C44000836414100007F0000414136088C
:1005E0000004020408047E1111117E7F4949493339
:1005F0007F494949367F01010103E0514F41FF7FA7
:100600004949494177087F087741494949367F1070
:1006100008047F7C2112097C7F0814224120413F7D
:10062000017F7F020C027F7F0808087F3E41414125
:100630003E7F0101017F7F090909063E41414122B8
:1006400001017F010147281008071C227F221C633B
:10065000140814637F404040FF070808087F7F406C
:100660007F407F7F407F40FF017F4848307F483098
:10067000007F007F484830224149493E7F083E4183
:100680003E462919097F20545454783C4A4A49313E
:100690007C545428007C04040C00E0544C44FC3886
:1006A000545454186C107C106C44545428007C2012
:1006B00010087C78422412787C1028440020443CA6
:1006C000047C7C0810087C7C1010107C3844444466
:1006D000387C0404047C7C1414140838444444001A
:1006E00004047C04040C5050503C3048FE48304414
:1006F000281028447C40407CC00C1010107C7C40AA
:100700007C407C7C407C40FC047C5050207C5050E1
:10071000207C7C5050200028445454387C103844AD
:1007200038085434147C3855545518005EBCE261C6
:100730003FDD83C29C7E20A3FD1F41009D23BE465A
:10074000DB65F88C11AF32CA57E974AED5808D14D1
:100750002001A1C8817FDB40A6AF20554430444131
:1007600042203230323620D0B3D0BED0B42E003149
:100770003630783134005365747570004F6B00D09B
:10078000A0D0B5D0B7D0B5D180D0B22E2E00204F9A
:100790006B00D092D0BED181D181D182D0B0D0BDFA
:1007A0002E2E0001020408102040800102040810CF
:1007B0002001020408102000000000230026002968
:1007C00000040404040404040402020202020203FA
:1007D000030303030300652211241FBECFEFD8E0FB
:1007E000DEBFCDBF24E0AAE7B1E001C01D92AD3F5E
:1007F000B207E1F711E0A0E0B1E0EAEAF3E602C0F7
:1008000005900D92AA37B107D9F713E0CCEED3E0EB
:1008100004C02197FE010E94AE2FCB3ED107C9F73D
:100820000E94A7230C94D3310C94000020917A02EB
:1008300081E0213208F046C0809156028111FCCF40
:100840009091790232E03093560231E030935502B4
:100850003FEF30935402109253022093520249E525
:1008600052E0A2E3B2E0FA013E2F341B321788F1C6
:100870001092310220913102990F922B9093310204
:1008800090913002913041F51092300290913102F6
:100890009093BB009091BC0093FDF8CF95EC9093A2
:1008A000BC00909156029230E1F3909154029F3F28
:1008B00049F080915402803289F080915402803353
:1008C00079F084E01092580210927A021092570246
:1008D000089531913D93C8CF95EEE1CF82E0F2CFFC
:1008E00083E0F0CF91E090935702809379021092C9
:1008F000580210927A020895909156029111FCCFFD
:1009000091E090935602909355022FEF209354025A
:1009100010925302260F209352029093310290912D
:100920003102880F892B809331028091300281300F
:1009300011F510923002809131028093BB008091BA
:10094000BC0083FDF8CF85EC8093BC0080915602FB
:100950008130E1F380915302861710F460915302C5
:1009600022E332E0A8E0B2E0F9018E2F821B861765
:1009700020F0862F089585EEE7CF81918D93F5CFF6
:100980008F929F92AF92BF92CF92DF92EF92FF929F
:10099000CF93611571058105910521F461E070E047
:1009A00080E090E024E0660F771F881F991F2A954A
:1009B000D1F76115710521E08207910508F44EC059
:1009C0006115710528E08207910508F44BC0611597
:1009D000710520E48207910508F048C020E430E06A
:1009E000C3E06901F12CE12CA7010E940430490108
:1009F0005A0180918000807F80938000C861C093FD
:100A00008100C901019790938700809386008091AF
:100A1000810087708093070260E074E284EF90E0C9
:100A2000A70196010E94DA2FAA24BB24CA01B901AA
:100A3000A50194010E94DA2F60E472E48FE090E057
:100A40000E940430CA01B901CF91FF90EF90DF906E
:100A5000CF90BF90AF909F908F90089521E030E0AD
:100A6000C1E0BFCF28E030E0C2E0BBCF20E031E002
:100A7000C4E0B7CF8091050290910602891B990BC3
:100A800008952091B4022817190668F12091B30245
:100A90002617170640F11092BD041092BC04109264
:100AA000BF041092BE04FB0123E0F595E7952A955B
:100AB000E1F7880F991F880F991FE80FF91F6770DA
:100AC000772781E090E0A0E0B0E004C0880F991F94
:100AD000AA1FBB1F6A95D2F7E355FD4F442321F0AF
:100AE0002285822B82870895809592858923FACF6B
:100AF000DF92EF92FF920F931F93CF93DF937C01CE
:100B0000EB018A01D22E1092BD041092BC04109207
:100B1000BF041092BE044617570724F48D2FEA0134
:100B2000062F182F8091B4028E151F04C8F0C0172D
:100B3000D10761F44D2DBE01C701DF91CF911F9107
:100B40000F91FF90EF90DF900C9441050C171D075B
:100B50003CF04D2DBE01C7010E9441052196F6CF04
:100B6000DF91CF911F910F91FF90EF90DF9008954B
:100B700008950895109206021092050210925802EC
:100B800010927A021092560281E0809355021092E0
:100B90003002449A459AE9EBF0E080818E7F8083B1
:100BA00080818D7F808388E48093B80085E4809382
:100BB000BC0088EB95E0909304028093030289EBDC
:100BC00095E090930202809301020895CF92DF9204
:100BD000EF92FF920F931F93CF93DF937C016A01F3
:100BE00010E000E00C151D0581F0EB01D701ED913F
:100BF000FC910190F081E02D6991C7010995892B45
:100C000021F00F5F1F4FBE01EDCFC801DF91CF91E3
:100C10001F910F91FF90EF90DF90CF900895880F74
:100C2000991F880F991F05970197F1F708953FB70E
:100C3000F8948091D6019091D701A091D801B091FC
:100C4000D90126B5A89B05C02F3F19F00196A11D1B
:100C5000B11D3FBFBA2FA92F982F8827BC01CD0106
:100C6000620F711D811D911D42E0660F771F881F65
:100C7000991F4A95D1F708958F929F92AF92BF9294
:100C8000CF92DF92EF92FF926B017C010E941706D8
:100C90004B015C01C114D104E104F104B9F00E94DC
:100CA0001706681979098A099B09683E734081050E
:100CB000910580F381E0C81AD108E108F10828EE17
:100CC000820E23E0921EA11CB11CE4CFFF90EF9096
:100CD000DF90CF90BF90AF909F908F9008952FB7E7
:100CE000F8946091D2017091D3018091D4019091D8
:100CF000D5012FBF08952091000190E4299F900114
:100D000011248E50822B80937C0080917A00806425
:100D100080937A0080917A0086FDFCCF80917800E4
:100D2000909179000895E0E0615098F0DC018D9198
:100D30008E27E82FEF70F0E0E55DF84F9491E82FF3
:100D4000E295EF70F0E0E55CF84FE491E927CD0122
:100D5000EBCF8E2F08950F931F93CF93DF93FC015A
:100D60001081C181D281F8948981812B89838A8104
:100D7000012F009580238A8383E090E00E940F0674
:100D80008981802389838AE090E00E940F06C881D0
:100D9000789485E390E00E940F06C12381E009F476
:100DA00080E0DF91CF911F910F9108951F93CF9312
:100DB000DF93FC011081C181D281912F909560FF5A
:100DC00016C0F8948A8189238A838981812B89833B
:100DD0008AE090E00E940F068A81182B1A8378948B
:100DE00087E390E0DF91CF911F910C940F06F89468
:100DF0008A8189238A838981812B898381E490E098
:100E00000E940F068A81182B1A83789485E090E05F
:100E1000E9CFDF92EF92FF920F931F93CF93DF936F
:100E2000EC01D62EE42E08E010E0FF24F39461E0FC
:100E30008D2D8F2109F460E0CE010E94D606FF0CB3
:100E400001501109A1F7E11010C0F894E981FA816D
:100E500091818881809589238183E981FA819281BA
:100E600088818095892382837894DF91CF911F9127
:100E70000F91FF90EF90DF900895EF92FF920F9304
:100E80001F93CF93DF938C017B0140E065E50E94C7
:100E90000907E70188E0E80EF11C699140E0C8010C
:100EA0000E940907CE15DF05C1F7DF91CF911F9191
:100EB0000F91FF90EF900895FF920F931F93CF93A0
:100EC000DF93FC010081C181D281F8948981F02EE9
:100ED000F0948F21898378941DE7115029F182E0E5
:100EE00090E00E940F0688818023B9F3F8948A81EC
:100EF0008F218A838981802B8983789480EE91E089
:100F00000E940F06F89489818F21898386E490E0FE
:100F10000E940F068881082311E009F010E0789400
:100F20008AE991E00E940F06812FDF91CF911F91F6
:100F30000F91FF900895AF92BF92CF92DF92EF9200
:100F4000FF920F931F93CF93DF938B01BC0180918E
:100F50009102909192020E943D0740E06EEB8091D9
:100F60009102909192020E940907E801680189E0CC
:100F7000C80ED11CA0909102B090920288E0E82E99
:100F8000F12C10E001E0C5010E94AB068111102B8D
:100F9000000F81E0E81AF108B1F71993CC16DD06CD
:100FA00049F780919102909192020E945C0791E032
:100FB000813009F090E0892FDF91CF911F910F913F
:100FC000FF90EF90DF90CF90BF90AF9008950F9378
:100FD0001F93CF93DF93CDB7DEB729970FB6F89461
:100FE000DEBF0FBECDBF8C01FC018081803181F15D
:100FF00080919102909192020E945C0781110CC035
:1010000080E029960FB6F894DEBF0FBECDBFDF910A
:10101000CF911F910F910895BE016F5F7F4FC8015F
:101020000E949B07882361F368E0CE0101960E942D
:10103000930699858913E4CF8D818F3359F020F47D
:101040008F31F1F689E0DDCF8F3531F08F37C1F682
:101050008CE0D7CF8AE0D5CF8BE0D3CF85ED8093DE
:10106000BC008091BC0084FDFCCF10925602089514
:101070002091AE01260F3327331F21323105ECF4C6
:1010800020915602FC0190E080E0243069F082E07B
:101090000895A091AE012191AC0142575E4FA40F7B
:1010A000B52FB11D2C930196861798F38091AE0150
:1010B000680F6093AE0180E0089581E0089508957F
:1010C000E091060280910502E81730F4F0E0E85F55
:1010D000FD4F808190E008958FEF9FEF08959091EC
:1010E0000602809105022FEF3FEF981748F4E92F91
:1010F000F0E0E85FFD4F208130E09F5F90930602B3
:10110000C9010895CF92DF92EF92FF920F931F9340
:10111000CF93DF937C01CB018A01209157022223D8
:1011200089F0EB016B01C40ED51ECC15DD0569F00D
:101130006991D701ED91FC910190F081E02DC701FB
:101140000995F3CF642F0E943808C801DF91CF9131
:101150001F910F91FF90EF90DF90CF900895CF9364
:10116000DF930F92CDB7DEB7698320915702222318
:10117000F9F020917A02203258F021E030E0FC01B1
:101180003383228390E080E00F90DF91CF91089528
:1011900080915802E82FF0E0E75AFD4F9981908343
:1011A0008F5F8093580280937A0281E090E0ECCFC9
:1011B00061E0CE0101960E943808F7CFCF9388E610
:1011C0000E94720460E08BE792E00E94AF0860E842
:1011D0008BE792E00E94AF0880912902CAE06C2F51
:1011E0000E94F02E8295807F682F690F8BE792E036
:1011F0000E94AF0880912A026C2F0E94F02E8295E7
:10120000807F682F690F8BE792E00E94AF08809182
:101210002B026C2F0E94F02E8295807F682F690F21
:101220008BE792E00E94AF0880912C026C2F0E9405
:10123000F02E8295807F682F690F8BE792E00E94E5
:10124000AF0880912D026C2F0E94F02E8295807F36
:10125000682F690F8BE792E00E94AF0880912E0201
:101260008E516C2F0E94F02E8295807F682F690F1F
:101270008BE792E00E94AF080E941604882329F0B1
:1012800010922F0280E0CF91089581E080932F0289
:1012900088E60E94720460E08BE792E00E94AF084B
:1012A000809128026C2F0E94F02E8295807F682FFB
:1012B000690F8BE792E00E94AF080E94160481112B
:1012C000DFCF81E0E0CF682F8BE792E00C94AF088E
:1012D000BF92CF92DF92EF92FF920F931F93CF9323
:1012E000DF938C017B01E40EF51EEB01B9906801E0
:1012F0008FEFC81AD80A8091FC040E947204812FD3
:1013000090E00E946309C80199270E9463096B2D30
:101310008BE792E00E94AF080E9416046AE070E03A
:1013200080E090E00E943C06BE018601CE15DF05FC
:10133000E1F6DF91CF911F910F91FF90EF90DF9039
:10134000CF90BF9008958093BB0084E88093BC0049
:101350008091BC0087FFFCCF9091B900987F81E01D
:10136000983231F0983129F0903419F080E00895E6
:101370000895089584EA8093BC008091BC0087FFA3
:10138000FCCF8091B900887F19F080EC0C94A30900
:1013900080E008955F926F927F928F929F92AF92BA
:1013A000BF92CF92DF92EF92FF920F931F93CF9352
:1013B000DF93CDB7DEB7582E742E652EB62E922E43
:1013C0000E94BA09852D0E94A3098D2D0E94A309B0
:1013D0008C2D0E94A3098B2D83708A2990E08110A7
:1013E0009CE0892B0E94A309862D0E94A309872DCA
:1013F0000E94A3098CE0F694E794D794C7948A9549
:10140000D1F78C2D807FC82E892D8F708C290E945A
:10141000A309812F0E94A309802F0E94A30984E9B8
:101420008093BC008091BC0084FDFCCFDF91CF9104
:101430001F910F91FF90EF90DF90CF90BF90AF90F2
:101440009F908F907F906F905F9008954F925F92E2
:101450006F927F928F929F92AF92BF92CF92DF92C4
:10146000EF92FF920F931F93CF93C82FC090F30476
:10147000D090F404E090F504F090F604CB01BA01AA
:10148000A70196010E94043049015A0125E0F69413
:10149000E794D794C7942A95D1F735E09695879528
:1014A000779567953A95D1F747E0660F771F881FC4
:1014B000991F4A95D1F7A70196010E94043029018E
:1014C0003A018B019C01B501A401552766277727B6
:1014D000E7E0440F551F661F771FEA95D1F752507A
:1014E00061097109440D551D661D771D812CA12CC4
:1014F0008C2F0E94CA09CF911F910F91FF90EF90FE
:10150000DF90CF90BF90AF909F908F907F906F9023
:101510005F904F9008958F92AF92CF92DF92EF92AB
:10152000FF920F931F9388248394443051056105E3
:10153000710509F0812C4450510961097E4F97E0F3
:10154000440F551F661F771F9A95D1F7A22EC12C05
:10155000D12C7601C39400E010E098010E94CA09E2
:101560001F910F91FF90EF90DF90CF90AF908F90F1
:101570000895CF93DF93D82FC62F0E94BA098D2FDD
:101580000E94A3098C2F0E94A30984E98093BC00C8
:101590008091BC0084FDFCCFDF91CF910895CF9363
:1015A000C82F60E880E18C0F0E94B90AEC2FF0E0B0
:1015B000EE0FFF1FE552FB4F11821082CF9108956D
:1015C0004F925F926F927F92AF92BF92CF92DF92D3
:1015D000EF92FF920F931F93CF93DF93D82F082F93
:1015E00010E0F801EE0FFF1FEE0FFF1FE951FB4F58
:1015F0004080518062807380411451046104710401
:1016000089F48D2FDF91CF911F910F91FF90EF9073
:10161000DF90CF90BF90AF907F906F905F904F9092
:101620000C94CF0A5801AA0CBB1CF501E552FB4FE4
:10163000C080D180F12CE12C05521B4FF801C681EE
:10164000A3019201C701B6010E94E02E9B01AC01EB
:10165000EC2FF0E0E05BFE4FA081B0E00E94F92F9C
:101660009B01AC0120583447424D5A412130334A46
:10167000414E514108F43FC06091350170913601EF
:101680008091370190913801A30192010E940430AA
:1016900069017A0184E0C816D104E104F10408F478
:1016A000B0CFE6E0CE16D104E104F10408F470C036
:1016B000C0E0FDE2CF16F1E0DF06E104F10430F016
:1016C000CF5FF694E794D794C794F3CFC11103C0CA
:1016D000E894C0F8C0E0A3019201C701B6010E94DE
:1016E000E02E9B01AC01EC2FF0E0E05BFE4FA0810F
:1016F000B0E00E94F92F2AE1D11122E2AB01BC0136
:10170000822F0E94260AF501E552FB4F80819181CC
:10171000B0E0A0E08C159D05AE05BF0521F4F801F1
:1017200086818C1731F12C2F2295207FB701A601DD
:101730008D2F880F880F880F865D0E948B0AF80115
:10174000618580E0D11180E2682B6C6480E18D0FAF
:101750000E94B90AF501E552FB4FD182C082F8011F
:10176000C6838091FB0490E2D11190E8892B80938D
:10177000FB04DF91CF911F910F91FF90EF90DF90CD
:10178000CF90BF90AF907F906F905F904F900895F3
:1017900084E0C82ED12CE12CF12C9ACF2F923F92CD
:1017A0004F925F926F927F928F929F92AF92BF9271
:1017B000CF92DF92EF92FF920F931F93CF93DF931D
:1017C00000D000D00F92CDB7DEB749015A012701F2
:1017D00038011092FB04C090EB04D090EC04E09030
:1017E000ED04F090EE040091E7041091E8042091DC
:1017F000E9043091EA04061717072807390759F05A
:101800006093E7047093E8048093E9049093EA04FA
:1018100080E00E94E00AC814D904EA04FB0471F4D1
:101820008091EF049091F004A091F104B091F20442
:1018300084159505A605B70509F403C18092EB044C
:101840009092EC04A092ED04B092EE044092EF046A
:101850005092F0046092F1047092F20481149104A9
:10186000A104B10419F481E00E94CF0A8091EF0431
:101870009091F004A091F104B091F204892B8A2B8D
:101880008B2B19F482E00E94CF0A4090EB04509019
:10189000EC046090ED047090EE0441145104610476
:1018A000710409F473C1C814D904EA04FB0409F4EF
:1018B000A5C0C090DD04D090DE04F12CE12C209175
:1018C000E2042983A3019201C701B6010E94E02E20
:1018D0009B01AC018981E82FF0E0E05BFE4FA08125
:1018E000B0E00E94F92F4B015C01DC01CB01805874
:1018F0009447A24DBA418130934AA14EB14108F4B8
:1019000046C0609135017091360180913701909108
:101910003801A30192010E94043069017A0181E03B
:1019200044E0C416D104E104F10408F488C086E060
:10193000C816D104E104F10408F4A4C019829DE2A0
:10194000C91691E0D906E104F10440F029812F5F26
:101950002983F694E794D794C794F1CF4981411134
:1019600003C0E894C0F81982A3019201C701B6012F
:101970000E94E02E9B01AC018981E82FF0E0E05B42
:10198000FE4FA081B0E00E94F92F4B015C01B50130
:10199000A40182E20E94260A8091DD049091DE0477
:1019A000B0E0A0E08C159D05AE05BF0529F480913F
:1019B000E20499818917D1F029812295207FB7010E
:1019C000A60182E30E948B0A6091E5046C6681E1C6
:1019D0000E94B90AD092DE04C092DD0429812093CE
:1019E000E2048091FB0480688093FB048092F704FA
:1019F0009092F804A092F904B092FA04C090EF0417
:101A0000D090F004E090F104F090F204C114D104FD
:101A1000E104F104B1F08090F7049090F804A090F4
:101A2000F904B090FA04C501B401A70196010E941F
:101A30000430283031054105510550F582E00E94FF
:101A4000CF0A6091FB04662319F081EB0E94B90A6A
:101A50008091FB040F900F900F900F900F90DF91EB
:101A6000CF911F910F91FF90EF90DF90CF90BF909B
:101A7000AF909F908F907F906F905F904F903F902E
:101A80002F90089504E0C02ED12CE12CF12C69CFC9
:101A90001D82213431054105510560F08D818F5F34
:101AA0008D83CC0CDD1CEE1CFF1C5695479537959D
:101AB0002795EFCFC501B401A70196010E9404301C
:101AC00029833A834B835C832FEF3FEF4FE050E055
:101AD0000E94102F56016701E12CF12C00E010E06C
:101AE0000E943D2F29013A019D819295907F9D830F
:101AF000C12CD12C7601C3944114510461047104AA
:101B000031F0CC24CA94DC2CFFE0EF2EF12CC30181
:101B1000B20127E0660F771F881F991F2A95D1F71A
:101B2000A70196010E94043049015A018B019C01D2
:101B300049815A816B817C81552766277727E7E0A9
:101B4000440F551F661F771FEA95D1F75250610960
:101B50007109480D591D6A1D7B1D812CAD808AE3DA
:101B60000E94CA096CE445284628472809F06CE021
:101B70008091E604682B606282E10E94B90A81E0EC
:101B800090E09093E0048093DF045BCF8090EF04BB
:101B90009090F004A090F104B090F20481149104AC
:101BA000A104B10409F44DCFC090DF04D090E0044B
:101BB000F12CE12C2091E3042983A5019401C701B4
:101BC000B6010E94E02E9B01AC018981E82FF0E074
:101BD000E05BFE4FA081B0E00E94F92F8B019C01D9
:101BE00000581447224D3A410130134A214E3141E9
:101BF00008F443C06091350170913601809137013E
:101C000090913801A50194010E94043069017A0184
:101C100084E0C816D104E104F10408F40FCF96E083
:101C2000C916D104E104F10408F458C019822DE268
:101C3000C21621E0D206E104F10440F049814F5F71
:101C40004983F694E794D794C794F1CF89818111A1
:101C500003C0E894C0F81982A5019401C701B60138
:101C60000E94E02E9B01AC019981E92FF0E0E05B3E
:101C7000FE4FA081B0E00E94F92FAB01BC0182E2CF
:101C80000E94260A8091DF049091E004B0E0A0E079
:101C90008C159D05AE05BF0531F48091E3042981C3
:101CA000821709F4CECE29812295207FB701A601A3
:101CB0008AE30E948B0A6091E6046C6682E10E94CE
:101CC000B90AD092E004C092DF0449814093E30452
:101CD0008091FB0480688093FB04B3CE84E0C82E1F
:101CE000D12CE12CF12CB5CF682F8BE792E00C942E
:101CF000AF088091B1020E94720480E00C94740ECF
:101D0000CF93DF93EC010E941604188282E090E0EA
:101D1000DF91CF910C940F060E94740E8091C20443
:101D20008F5F8093C204803158F082EC94E00E946F
:101D3000800E8091B1020E94720480E40C94740EB3
:101D400008950F931F93CF93DF938C01EB010E94B3
:101D5000790E81E20E94740E80E00E94740E8091E0
:101D6000B40290E0081719070CF4C8010E94740E21
:101D700082E20E94740E80E00E94740E8091B20292
:101D800090E0C817D9070CF4CE010E94740E82ECC3
:101D900094E0DF91CF911F910F910C94800ECF931F
:101DA000DF936091B20270E08091B40290E00E94F3
:101DB000A10E8091B1020E94720480E40E94740E10
:101DC000C7EBD2E089910E948C0E84E0C73BD80714
:101DD000C9F782EC94E0DF91CF910C94800ECF9301
:101DE000C82F0E94790E81E80E94740E8C2F0E94E9
:101DF000740E82EC94E0CF910C94800E0F931F939D
:101E0000E42F0130110541F10230110509F444C0FD
:101E1000012BF9F4DC01A15FBD4F4D915C9111974D
:101E2000240F352F311D220F331F220F331F12961F
:101E30004D915C9103E0559547950A95E1F7240F84
:101E4000351FE20FF32FF11DE80FF91F8285682B74
:101E500062871F910F910895DC01A15FBD4F4D91E5
:101E60005C911197240F352F311D220F331F220F44
:101E7000331F12964D915C91A3E055954795AA9515
:101E8000E1F7240F351FE20FF32FF11DE80FF91FC3
:101E9000609582856823DCCFDC01A15FBD4F4D9149
:101EA0005C911197240F352F311D220F331F220F04
:101EB000331F12964D915C9173E0559547957A9535
:101EC000E1F7820F931F840F951FE80FF92FF11D83
:101ED000BFCF2F923F924F925F926F927F928F92DD
:101EE0009F92AF92BF92CF92DF92EF92FF920F93A9
:101EF0001F93CF93DF93CDB7DEB72E970FB6F8942D
:101F0000DEBF0FBECDBF9E878D87FC01E25FFD4F18
:101F1000808190E0ED85FE85EF5EFD4F2D853E854D
:101F2000245F3D4F79016D30E9F52D853E85215FB8
:101F30003D4FD9011D921C9221E060E04D855E85E8
:101F4000455F5D4FDA017C917723C9F14D855E8550
:101F5000435F5D4FDA013C910D851E85015F1D4F8A
:101F6000D8014D915C91B6E03B9F400D511D11246D
:101F7000AD85BE8517963C913417150609F0FCF423
:101F800020813181D8011D921C92280F391F318385
:101F900020834D855E854D5E5D4F20812770DA017F
:101FA0002C930FC020E06A3049F620813181280F40
:101FB000391F3183208321E0D7012C93BECF21111B
:101FC000E8CF20813181820F931FED85FE85268128
:101FD00030E02F5F3F4F281739070CF460E0D7013E
:101FE0008C91882349F1772339F1603229F5ED8509
:101FF000FE85E15FFD4F80819181892B09F03FC013
:102000001C9281E090E02E960FB6F894DEBF0FBED2
:10201000CDBFDF91CF911F910F91FF90EF90DF9097
:10202000CF90BF90AF909F908F907F906F905F9078
:102030004F903F902F90089567FF48C0ED85FE8533
:10204000EC5EFD4F603C98F48081813D29F461395C
:10205000D9F5608360EC13C0803D29F46138A1F5A7
:10206000608365E90CC0823E21F4603869F56083C5
:10207000C8CF803849F5643939F560836DE2ED8564
:10208000FE85E15FFD4FFA83E983208131814D8533
:102090005E85435F5D4F5C834B83DA018C91F90170
:1020A00046E0849FE00DF11D1124CF01F7FD07C02C
:1020B000AD85BE8517964C914217130654F4E981FD
:1020C000FA81918380839DCF6083D9CF6111D7CF6F
:1020D00098CFF0EEF60FF98725E0F29FC0011124AA
:1020E000AC01455F5B4F1A01C12C60586C878D8530
:1020F0009E85865F9D4F9B878A87AD85BE85AD5E39
:10210000BD4FBE83AD83ED85FE85EA5EFD4FF8874A
:10211000EF83F5E060E0CF1661F02985F10120360C
:1021200038F0FC85F03108F05FC0F101E551FF4F58
:102130006491AA85BB858C9181116095EB81FC81AE
:102140009081913009F059C0A981BA818D919C91FB
:1021500097FD35C0ED85FE852781281719067CF18E
:10216000AD81BE818C91EF81F885008110E020E087
:1021700040E0882301F1E62EF12CB70101C0660F83
:102180008A95EAF720E040E08D859E850E94FE0E4C
:10219000AF81B8850C9110E0ED81FE81808128E04F
:1021A00030E0281B3109B70102C0759567952A9563
:1021B000E2F720E041E08D859E850E94FE0EEB81D6
:1021C000FC818081A981BA812D913C911197820F68
:1021D000932F911D8D939C93C394BFEF2B1A3B0AB1
:1021E000E6E0CE1296CF0DCF2985F101203A18F402
:1021F000E555F1099DCF35979BCF792F30E020E051
:10220000812C912C5401E62FF0E0872F891BAF0120
:10221000022E02C0559547950A94E2F74170552762
:102220008717F1F0412C512C32014394082E04C041
:10223000440C551C661C771C0A94D2F741155105B5
:1022400031F084289528A628B7288F5FE9CF4094DD
:1022500050946094709484209520A620B720F5CFE8
:102260002F5F3F4F782F790F2830310571F6E12C21
:10227000A981BA818D919C91EB81FC812081E2162C
:1022800008F09DCF8E0D911D97FD47C0AD85BE8591
:1022900017962C91281719060CF43FC0D12CF12C5D
:1022A000ED81FE812081AB81BC818C91D816B0F587
:1022B000B8E0DB9EC00111242401350104C07694EE
:1022C0006794579447948A95D2F7EF81F8850081F7
:1022D00010E0211109C02E2D4D2D642D8D859E8578
:1022E0000E94FE0ED394DCCF6F2D70E088E090E06A
:1022F000821B910902C0759567958A95E2F7842D36
:1023000001C0880F2A95EAF7682B2E2D4D2D8D855B
:102310009E850E94FE0EF42CE5CFF12CAD81BE818E
:102320008C918823B9F0EF81F885008110E06F2D42
:1023300070E028E030E0281B310902C075956795F0
:102340002A95E2F72E2DAB81BC814C918D859E851F
:102350000E94FE0EE3948CCF0F931F93CF93DF93D5
:102360008C01D0E0C0E0F801EC0FFD1F6491662302
:1023700041F08DEA92E00E94690F892B11F02196BD
:10238000F2CFCE01DF91CF911F910F910895AF92BF
:10239000BF92CF92DF92EF92FF920F931F93CF9352
:1023A000DF9328E0829FC0011124F12CE12C9C01D5
:1023B00025503C4F690188E0A82EB12CF601EE0DA6
:1023C000FF1D64918091BC049091BD04019690938F
:1023D000BD048093BC042091B4022817190664F050
:1023E0008091C00481111AC010E000E020E040E0BC
:1023F0008DEA92E00E94FE0E3FEFE31AF30A88E0B6
:10240000E816F104D9F6DF91CF911F910F91FF905B
:10241000EF90DF90CF90BF90AF900895C62FD0E09F
:10242000BE0101C0660F8A95EAF710E000E020E0E7
:1024300040E08DEA92E00E94FE0E8091C00495017A
:10244000281B3109BE0102C0759567952A95E2F7F0
:1024500020E041E0CDCFFF920F931F93CF93DF9306
:1024600000D0CDB7DEB7ECE0F1E010E000E0819104
:10247000080F111D81E0E233F807C9F746E250E08A
:102480006CE071E082E090E00E9468090F5F1F4FEE
:102490001A83098342E050E0BE016F5F7F4F90E0F6
:1024A00080E00E946809E2E0F1E08CE091E010E059
:1024B00000E02191020F111D8E179F07D1F7809127
:1024C0000D019CE0F92E8F9DC00111244AE050E0DF
:1024D00062E071E08A960E9468090F5F1F4F1A83BD
:1024E000098380910D018F9DC001112442E050E0CD
:1024F000BE016F5F7F4F88960E9468090F900F9012
:10250000DF91CF911F910F91FF90089580911C0151
:1025100090911D01A0911E01B0911F018093F304C1
:102520009093F404A093F504B093F60480E00E9425
:10253000E00A81E00C94E00ACF93DF93809183015D
:102540009091840127E0289FE001299FD00D11245C
:1025500085E10E947B06DE01A80FB91FAA0FBB1FF1
:1025600094E0B695A7959A95E1F7B0938401A0936E
:1025700083012091200130E00E9426302FEF33E0CC
:1025800040E050E00E94DA2F20938A01DF91CF9142
:102590000895CF93DF938FE00E947B06809188019E
:1025A00090918901EC01CC0FDD1FC80FD91F8FE07E
:1025B0000E947B062196C80FD91FCC0FDD1FCC0FC0
:1025C000DD1F44E0D695C7954A95E1F7D093890180
:1025D000C093880180E10E947B06809186019091E2
:1025E0008701EC01CC0FDD1FC80FD91F80E10E94CD
:1025F0007B062196C80FD91FCC0FDD1FCC0FDD1F26
:1026000074E0D695C7957A95E1F7D0938701C0938A
:102610008601DF91CF910895DC01ED91FD918081DC
:10262000ED91FD919081ED91FD916C9163708E2300
:1026300009F064609F2309F06860E9E2F3E1E60FC6
:10264000F11D659565956D936D917D918D919D9130
:10265000099423C01AC012C016C010C01EC009C001
:1026600014C013C006C019C009C00DC007C00DC0FA
:1026700014C062507040804090400BC06150704068
:102680008040904006C06E5F01C06F5F7F4F8F4FEC
:102690009F4F9E938E937E936E930895089590E03E
:1026A00080E00895BF92CF92DF92EF92FF920F9356
:1026B0001F93CF93DF93EC01B62EC72E8D8581112A
:1026C00005C0CE010E945C0781110EC01B861D86CD
:1026D0001C8680E0DF91CF911F910F91FF90EF90CA
:1026E000DF90CF90BF90089540E060EFCE010E9450
:1026F000090701E0E12CD12C11E0CE010E94AB06CC
:10270000F82ECE010E94AB0691E0F91218C081307C
:1027100099F51134D8F2DB86D11002C081E08D87A3
:102720008B81882399F22396EB2DFC2DCF010896FF
:1027300029912193E817F907D9F781E0CBCF2E2D06
:1027400030E0F8120EC08B851817A0F4FE01E20FDE
:10275000F31F8381802381F4F12C193008F41C8746
:10276000D12EFE01E20FF31F8381902F90958923D4
:1027700083830AC08113F0CFFE01EE0DF11D83812A
:10278000802B8383FF24F3946F2DCE010E94D60605
:102790001F5F000F11F4E39401E087E08E1508F04D
:1027A000ACCFB7CF4F925F926F927F928F929F92F2
:1027B000AF92BF92CF92DF92EF92FF920F931F934F
:1027C000CF93DF93CDB7DEB761970FB6F894DEBF36
:1027D0000FBECDBF0E946F066B017C01209182016C
:1027E00080917E0190917F01A0918001B091810143
:1027F000A7012111E4C09601281B390B4A0B5B0B82
:10280000DA01C901883E9340A105B10508F45AC018
:1028100010928D0280919102909192020E945C0729
:1028200040E06CEC80919102909192020E94090725
:1028300040918B0264E480919102909192020E94F7
:10284000090780918D02882391F1E0918C02E95073
:102850000EEE12E0E33038F4F0E0EE0FFF1FE45C20
:10286000FE4F0081118180918E02882309F441C0BE
:1028700080918B0281113DC00E946F064B015C016B
:102880002801110F660877088091910290919202B9
:102890000E94AB06813059F00E946F0664197509D9
:1028A00086099709681579058A059B0568F381E013
:1028B00080938201C0927E01D0927F01E0928001DC
:1028C000F092810161960FB6F894DEBF0FBECDBFC6
:1028D000DF91CF911F910F91FF90EF90DF90CF90FC
:1028E000BF90AF909F908F907F906F905F904F9030
:1028F0000895B801110F880B990B0E943C06D7CFA1
:1029000067E0CE010A960E949306998989137EC0DA
:1029100080919102909192020E945C07882309F4B1
:1029200075C0BE016F5F7F4FCE010A960E949B0764
:10293000882309F46BC068E0CE0101960E949306DB
:102940009985891363C06A8170E0762F6627770FB7
:10295000770F770F298148E0249F90011124262BBF
:10296000372B8A858031D1F4688570E08F81AB0187
:10297000481B5109CA019695982F882797958795E6
:102980000E94FC2ECB014097B90153E0660F771FE0
:102990005A95E1F760789C01260F371F213854EED5
:1029A0003507A4F1B901330F880B990B0E94DA3077
:1029B00020E030E040E05CE30E9466312BC09601ED
:1029C000281B390B4A0B5B0BDA01C9018A3F9105C1
:1029D000A105B10508F476CFE0919102F091920241
:1029E0001386158614861286118610861782168223
:1029F000158214821382BE01665F7F4F809191021F
:102A0000909192020E94521381117ACF60E070E09F
:102A10008EEF92EC20E030E040E05FE30E94363041
:102A20000E94A23080912301680F6093850110926B
:102A3000820140CF0F931F93CF93DF938091F001DA
:102A4000882359F0109228020E94DE081092F001AB
:102A5000DF91CF911F910F9108950E946F06009111
:102A60007A0110917B0120917C0130917D01601BE6
:102A7000710B820B930B693E73408105910520F425
:102A8000012B022B032B21F70E946F0660937A0122
:102A900070937B0180937C0190937D0188E60E9476
:102AA000720460E08BE792E00E94AF080E94160477
:102AB000882319F010922F02CBCF81E080932F0250
:102AC00067E088E60E947C0410920602809305026B
:102AD000873008F461C08BE792E00E946F08D82F1E
:102AE000982F92959770CAE08D2F8F709C9F800DC4
:102AF0001124809328028BE792E00E946F08982FA0
:102B000092959F708F709C9F800D11248093290255
:102B10008BE792E00E946F08982F929593708F70C8
:102B20009C9F800D112480932A028BE792E00E94E3
:102B30006F08982F92959F708F709C9F800D112425
:102B400080932B028BE792E00E946F08982F92955A
:102B50009F708F709C9F800D112480932C028BE7B7
:102B600092E00E946F08982F92959F708F709C9FA3
:102B7000800D112480932D028BE792E00E946F0854
:102B8000982F9F70925E82958F708C9F900D11246C
:102B900090932E02D7FF5CCF10922A021092290246
:102BA00010922802DF91CF911F910F910C94DE08B3
:102BB000CF93DF93EC018091FC040E9472048D2F6F
:102BC00090E00E946309CE0199270E9463090E9448
:102BD000160461E08091FC040E947C0410920602BD
:102BE00080930502882321F08BE792E00E946F0812
:102BF000DF91CF910895EF92FF920F931F93CF93A0
:102C0000DF938B01040F151F7C012FEFE21AF20AEC
:102C1000EB010E94D8158993C701BE010C171D074F
:102C200099F7DF91CF911F910F91FF90EF90089549
:102C3000DF92EF92FF920F931F93CF93DF9300D019
:102C4000CDB7DEB71A82198280910D012CE0829FE8
:102C5000C001112442E050E0BE016F5F7F4F8896B3
:102C60000E94FB15F12CE12C10E000E08CE0D82E46
:102C700080910D0197018D9D200D311D1124C901F9
:102C80008A960E94D815080F111D3FEFE31AF30A28
:102C90008AE0E816F10461F70F5F1F4F89819A817E
:102CA00008171907B1F480910D018D9DC001112401
:102CB0004AE050E062E071E08A960E94FB150F90B6
:102CC0000F90DF91CF911F910F91FF90EF90DF90C8
:102CD00008950E942B12F3CF7F928F929F92AF9212
:102CE000BF92CF92DF92EF92FF920F931F93CF93F9
:102CF000DF938C017A011092BD041092BC041092F3
:102D0000BF041092BE0422E430E0623471051CF46A
:102D10009B0162E470E0E016F1060CF4D5C0621786
:102D2000730751F50E151F0599F441E0B80182E4CF
:102D300090E0DF91CF911F910F91FF90EF90DF9086
:102D4000CF90BF90AF909F908F907F900C94410553
:102D500021E0A701B80182E490E0DF91CF911F91BB
:102D60000F91FF90EF90DF90CF90BF90AF909F902A
:102D70008F907F900C9478050E151F0509F0ADC05B
:102D80008091B3028017110674F4DF91CF911F91E7
:102D90000F91FF90EF90DF90CF90BF90AF909F90FA
:102DA0008F907F9008956F5F7F4FF12CE12C37FD5E
:102DB00007C0E090B402F12C2E153F050CF4790108
:102DC00077FDE3CFC091B402D0E06C177D070CF41F
:102DD000EB01EC16FD06CCF641E0B801C7010E94FC
:102DE00041058FEFE81AF80AF4CFA7014F5F5F4F54
:102DF000F02FF770A42FA770E8E0EA1BE83009F481
:102E0000E0E07801A3E0F594E794AA95E1F7DE2DE0
:102E10006B01861797070CF46C01821793070CF46B
:102E20009C0137FD20E0C22F8FEF90E0A82E0F2EDF
:102E300001C0AA0C0A94EAF79C0102C035952795B7
:102E4000EA95E2F7B22E041B150B085F1F4F02C074
:102E5000959587950A95E2F7782E01C0770CFA953B
:102E6000EAF747018FEF881A980ACC151D0411F074
:102E70000CF08BCF8091B20290E0D23071F08E15C1
:102E80009F0548F010E000E02C2F4D2F672D8DEAB4
:102E900092E00E94FE0ECF5FE8CF8E159F0548F0AE
:102EA00010E000E02C2F42E06A2D8DEA92E00E94B3
:102EB000FE0E8091B2028815190468F310E000E05C
:102EC0002C2F482D6B2DE3CF902F812F8701E92EDA
:102ED000F82E6217730709F43BCF8091B40290E09B
:102EE0004091CE04442309F480CF6B0186179707E5
:102EF0000CF46C01821793070CF49C0137FD20E061
:102F0000C22F8C2F90E0C816D9060CF43ECF21E0DA
:102F1000A701B8010E947805CF5FF3CF10928C0112
:102F20006091030170910401809105019091060167
:102F300020EA36E841E050E00E9404308091270109
:102F40008217130609F018F481E080938C018091B8
:102F500026018217130609F018F482E080938C0191
:102F6000809125018217130609F018F483E08093FD
:102F70008C01809124018217130609F018F484E073
:102F800080938C0120918C0181E090E0A0E0B0E082
:102F900004C0880F991FAA1FBB1F2A95D2F78093E0
:102FA0008D012091FF01222359F020912B01222332
:102FB00039F02091DA01211103C0806280938D01E4
:102FC00080913001882329F080918D018064809365
:102FD0008D0180913101882329F080918D018068D5
:102FE00080938D012C9820918D0187E090E030E056
:102FF0004091B0004F774093B000A901082E02C065
:10300000559547950A94E2F740FF07C02B9A2D9AF1
:103010002D98019768F72C9A08952B98F8CF4F9226
:103020005F926F927F928F929F92AF92BF92EF9238
:10303000FF920F931F9320910201E0901001F090F6
:10304000110100911201109113016091030170911F
:10305000040180910501909106013091FF016E0DF0
:103060007F1D801F911F332339F12223E1F020912E
:1030700018013091190140911A0150911B01620F02
:10308000731F841F951F0E94CE0B1F910F91FF90FD
:10309000EF90BF90AF909F908F907F906F905F90D8
:1030A0004F900C948E17209114013091150140918E
:1030B000160150911701E3CF80902C0190902D01C3
:1030C000A0902E01B0902F012223B9F0409018015A
:1030D0005090190160901A0170901B01A301920198
:1030E000280D391D4A1D5B1D640D751D861D971D1C
:1030F000680D791D8A1D9B1DC6CF4090140150900C
:1031000015016090160170901701E8CF8091E601DB
:103110008823A9F18091E50181110CC080918B0178
:10312000882389F1809180008F7C809380001092A9
:103130008B0129C080918B01811125C080910002F3
:10314000811121C02091290184E1289F900111243F
:10315000032E000C440B550B60E472E48FE090E00A
:103160000E940430CA01B9010E94C004809180000D
:103170008F7C80618093800081E080938B018091BF
:10318000E501882359F208954091B5025091B602A5
:1031900070E060E087EB92E00E94BD2F8091BE045A
:1031A00087708093C00408958F929F92AF92BF92D0
:1031B000CF92DF92EF92FF920F931F93CF93DF9303
:1031C000CDB7DEB7A1970FB6F894DEBF0FBECDBF67
:1031D0006B017C0119A2423008F44AE08E010F5DB8
:1031E0001F4F842E912CB12CA12CC701B601A50133
:1031F00094010E9404306A307CF5605DF8016293AE
:103200008F01C814D904EA04FB0418F590E080E0AB
:10321000309761F001900020E9F73197AF01401B32
:10322000510BB8018DEA92E00E94E605A1960FB617
:10323000F894DEBF0FBECDBFDF91CF911F910F91EC
:10324000FF90EF90DF90CF90BF90AF909F908F90C6
:10325000089569017A01C9CF695CD0CF682F70E009
:1032600090E080E04AE00C94D418CF92DF92EF9285
:10327000FF92CF93DF936B017C016DE28DEA92E0C8
:103280000E94690FEC0166277727CB016C197D0935
:103290008E099F094AE00E94D4188C0F9D1FDF9170
:1032A000CF91FF90EF90DF90CF9008959C01BC01EB
:1032B000990F880B990B37FD0C9435194AE00C9443
:1032C000D41842E050E066E771E08DEA92E00C9499
:1032D000E605CF93DF930E94AC11EC010E946119C7
:1032E0008C0F9D1FDF91CF910895CF93DF930E94A4
:1032F0002E19EC010E9461198C0F9D1FDF91CF9157
:103300000895CF93DF930E945619EC010E94611932
:103310008C0F9D1FDF91CF910895CF93DF934AE0EB
:103320000E94D418EC010E9461198C0F9D1FDF913F
:10333000CF910895CF92DF92EF92FF92CF93DF93D8
:103340000E94C4181092BD041092BC041092BF04D5
:103350001092BE041092C00483E08093BA0488E106
:103360008093BB04C0910002CC2309F42BC18FEFE2
:103370000E94EF0ECB3109F45AC508F081C0C73066
:1033800009F4A5C490F5C33009F437C470F4C13012
:1033900009F400C3C23009F40DC4DF91CF91FF904E
:1033A000EF90DF90CF900C94CF0EC53009F46FC42E
:1033B00008F442C480913001882309F485C486E072
:1033C00093E00E94691981E08093BA0488E08093B9
:1033D000BB048091BE0487708093C004809100027A
:1033E0000E942E1980EF92E021C4C73109F4C9C4AC
:1033F00040F5C53109F488C408F0ADC4C43169F69C
:103400008091070124E6829FC00111240E94811946
:1034100081E08093BA0488E08093BB048091BE046D
:1034200087708093C004809100020E942E1981EC65
:1034300092E00E94AC1180E00E94C7118AEB92E0FA
:10344000D9C3C93109F4D9C408F4B9C48091290198
:103450002AE0829FC00111240E94811981E080939B
:10346000BA0488E08093BB048091BE048770809387
:10347000C004809100020E942E1984E292E0BAC337
:10348000C93609F492C508F058C0C53609F405C517
:1034900008F5CC3109F4E1C4C43609F07ECF80913F
:1034A0000F01882309F4F6C48FEC91E00E9469199A
:1034B00081E08093BA0488E08093BB048091BE04CD
:1034C00087708093C004809100020E942E198DEABB
:1034D00091E0ACC3C73609F43AC508F415C582E0DB
:1034E0008093BA0480E18093BB048091BE0487700E
:1034F0008093C004609114017091150180911601B0
:10350000909117010E948D1981E08093BA0488E0A0
:103510008093BB048091BE0487708093C004809127
:1035200000020E942E198FE391E00E94AC1180E00E
:103530000E94C7118AE391E05DC3CD3609F4AFC59F
:1035400018F5CB3609F48DC508F45DC580912601C8
:1035500024E6829FC00111240E94811981E080939A
:10356000BA0488E08093BB048091BE048770809386
:10357000C004809100020E942E1984ED90E00E9408
:10358000AC1180ED90E036C3CF3609F4C4C508F421
:10359000A4C5C03709F001CF8091EE010E947519D2
:1035A00081E08093BA0488E08093BB048091BE04DC
:1035B00087708093C004809100020E942E1988E6D3
:1035C00090E018C38091030190910401A09105013E
:1035D000B091060180389649A849B10520F489EFD9
:1035E00093E00E94AC1160910301709104018091FD
:1035F000050190910601F0E4CF2EF2E4DF2EFFE00A
:10360000EF2EF12CA70196010E940430CA01B901E6
:103610004AE00E94D41889E290E09093BD04809320
:10362000BC041092BF041092BE041092C0046091BA
:103630000301709104018091050190910601A70199
:1036400096010E940430603A76488140910520F44A
:1036500087EF93E00E94AC11609103017091040127
:10366000809105019091060120E432E44FE050E0A2
:103670000E940430603177428105910520F485EF86
:1036800093E00E94AC11609103017091040180915C
:1036900005019091060120E432E44FE050E00E94E1
:1036A0000430E8EECE2EE3E0DE2EE12CF12CA70173
:1036B00096010E940430CA01B9014AE00E94D41860
:1036C00082E08093BA0480E18093BB0484E690E0BA
:1036D0009093BD048093BC0487E090E09093BF0476
:1036E0008093BE048093C004609103017091040133
:1036F0008091050190910601A70196010E94043076
:10370000643671058105910520F483EF93E00E94F2
:10371000AC116091030170910401809105019091B9
:10372000060128EE33E040E050E00E9404302AE039
:1037300030E040E050E00E940430CA01B9014AE0A4
:103740000E94D41881E08093BA0488E08093BB047F
:103750001092BD041092BC0488E190E09093BF04E5
:103760008093BE041092C004D0918A01D43620F414
:1037700081EF93E00E94AC11CAE08D2F6C2F0E9464
:10378000F02E90E00E9456198FEE93E00E94AC114B
:1037900080918A016C2F0E94F02E892F90E00E9468
:1037A00056198DEE93E00E94AC118091FF018823A1
:1037B00009F487C080912B01882309F47FC08AEE29
:1037C00093E00E94AC114091880150918901E091F1
:1037D0008601F09187014E175F0769F19A012E0F5C
:1037E0003F1FA4E6B0E00E9426304E1B5F0B9A01FB
:1037F00050E040E00E94DA2F7901283E334024F463
:1038000085EE93E00E94AC11C70164E670E00E946F
:10381000FC2EEC01CB010E94561983EE93E00E942E
:10382000AC11CA30D10524F481EE93E00E94AC11B2
:10383000CE010E945619609188017091890190E033
:1038400080E0615071098109910937E0660F771FA7
:10385000881F991F3A95D1F74EEFC42E43E0D42E1E
:10386000E12CF12CA70196010E94DA2FB9016E5BC1
:103870007F4F4AE150E087E190E00E946C16609132
:1038800086017091870190E080E0615071098109A3
:10389000910957E0660F771F881F991F5A95D1F736
:1038A000A70196010E94DA2FB9016E5B7F4F4FE1AD
:1038B00050E08CE190E00E946C166FCD87EE93E0B3
:1038C00080CFC091850182E38C0F853608F053C00C
:1038D000C7FD04C08FED93E00E94AC118C2FCC0F7C
:1038E000990B0E94561981E00E94C7118DED93E05B
:1038F0000E94AC118091F601882309F43FC085ED48
:1039000093E00E94AC118FEF0E94EF0E80912A028B
:103910008A3020F481ED93E00E94AC1180912A025C
:103920000E942E198091280280FF2EC08FEC93E018
:103930000E94AC11809129028A3020F48BEC93E034
:103940000E94AC11809129020E942E1980910201DF
:103950008823E9F087EC93E00E94AC1180910D017F
:103960008A3020F481EC93E00E94AC1180910D012B
:103970000E942E1912CD87ED93E0BACF83ED93E02C
:103980000E94AC1181E0C0CF8DEC93E0D1CF83ECED
:1039900093E0E2CF80910D018A3020F48FEB93E029
:1039A0000E94AC1180910D010E942E1982E080933B
:1039B000BA0480E18093BB0489E290E09093BD0457
:1039C0008093BC0487E090E09093BF048093BE0492
:1039D0008093C0048091030190910401A09105019E
:1039E000B091060180389649A849B10520F48DEBC5
:1039F00093E00E94AC1160910301709104018091E9
:103A000005019091060120E4C22E22E4D22E2FE07F
:103A1000E22EF12CA70196010E940430CA01B901DF
:103A20004AE00E94D41884E490E09093BD0480930F
:103A3000BC0487E090E09093BF048093BE04809321
:103A4000C00460910301709104018091050190917F
:103A50000601A70196010E940430603A7648814031
:103A6000910520F48BEB93E00E94AC11609103016F
:103A700070910401809105019091060120E432E4E7
:103A80004FE050E00E94043060317742810591059B
:103A900020F489EB93E00E94AC11609103017091D6
:103AA0000401809105019091060120E432E44FE089
:103AB00050E00E94043028EE33E040E050E00E94E5
:103AC0000430CA01B9014AE00E94D41881E0809311
:103AD000BA0488E08093BB048CE690E09093BD0428
:103AE0008093BC041092BF041092BE041092C004D4
:103AF00080910201882309F45AC082EB93E00E946E
:103B0000AC118CE690E09093BD048093BC048EE0F1
:103B100090E09093BF048093BE0486E08093C0043D
:103B2000609103017091040180910501909106015B
:103B300028EE33E040E050E00E9404306436710526
:103B40008105910520F489EA93E00E94AC1160910F
:103B5000030170910401809105019091060128EE06
:103B600033E040E050E00E9404302AE030E040E0E2
:103B700050E00E940430CA01B9014AE00E94D41802
:103B80001092BD041092BC0488E190E09093BF04B1
:103B90008093BE041092C004809100020E942E19EE
:103BA0008EE893E00E94AC1180910E01E1CE8BEA89
:103BB00093E0A5CFE0910C01F0E0EE0FFF1FEE5B6C
:103BC000FE4F20813181AAE0B0E00E9426300E94A1
:103BD0008D1981E08093BA0488E08093BB048091C2
:103BE000BE0487708093C004809100020E942E1949
:103BF00081E893E00E94AC11D0CB80910201882330
:103C0000C1F08AE793E00E94691981E08093BA04C9
:103C100088E08093BB048091BE0487708093C004C9
:103C2000809100020E942E1989E593E00E94691993
:103C3000B4CB83E793E0E7CF60912C0170912D0125
:103C400080912E0190912F0197FF1DC00E94351980
:103C50000E94611981E08093BA0488E08093BB04DC
:103C60008091BE0487708093C004809100020E94FE
:103C70002E1987E493E00E94AC1180E00E94C711E6
:103C800082E493E0D3CF4AE00E94D418E1CF809140
:103C90002B018823B1F083E393E00E94691981E04E
:103CA0008093BA0488E08093BB048091BE0487703F
:103CB0008093C004809100020E942E198FE093E04F
:103CC000B5CF86E293E0E9CF8FEF92E07ACB809197
:103CD00031018823B1F08DEE92E00E94691981E0F4
:103CE0008093BA0488E08093BB048091BE048770FF
:103CF0008093C004809100020E942E198AED92E008
:103D000095CF89EE92E0E9CF209108013091090129
:103D100040910A0150910B01A4E6B0E00E94F92FF6
:103D20000E948D1981E08093BA0488E08093BB04DF
:103D30008091BE0487708093C004809100020E942D
:103D40002E198FE992E00E94AC1180E00E94C71109
:103D500088E992E04FCF80910E010E94751981E0B1
:103D60008093BA0488E08093BB048091BE0487707E
:103D70008093C004809100020E942E198DE792E08A
:103D800039CF80912A028A3020F48BE792E00E949A
:103D9000AC1180912A020E94751981E08093BA04C7
:103DA00088E08093BB048091BE0487708093C00438
:103DB000809100020E942E1987E692E01BCF80912D
:103DC00029028A3020F485E692E00E94AC118091AD
:103DD00029020E94751981E08093BA0488E08093DB
:103DE000BB048091BE0487708093C0048091000260
:103DF0000E942E1981E592E0FDCE809128012AE0F3
:103E0000829FC00111240E94811981E08093BA042D
:103E100088E08093BB048091BE0487708093C004C7
:103E2000809100020E942E1988E392E0E3CE8091F7
:103E300022010E94751981E08093BA0488E0809382
:103E4000BB048091BE0487708093C00480910002FF
:103E50000E942E198FEF91E0CDCE80912101882311
:103E6000B1F08AEF91E00E94691981E08093BA0471
:103E700088E08093BB048091BE0487708093C00467
:103E8000809100020E942E1984ED91E0CFCE83EF45
:103E900091E0E9CF88EC91E009CB809120010E946C
:103EA000751981E08093BA0488E08093BB04809107
:103EB000BE0487708093C004809100020E942E1976
:103EC0008CE991E00E94AC11D0918A01D43620F4A3
:103ED0008AE991E00E94AC11CAE08D2F6C2F0E94FC
:103EE000F02E90E00E94561988E991E00E94AC11F2
:103EF00080918A016C2F0E94F02E892F90E00E9401
:103F0000561984E991E076CE80912301082E000CA9
:103F1000990B0E94811981E08093BA0488E0809314
:103F2000BB048091BE0487708093C004809100021E
:103F30000E942E198CE791E00E94AC1181E00E9452
:103F4000C71180E00E94C7118AE791E053CE82E05A
:103F50008093BA0480E18093BB048091BE04877093
:103F60008093C00460911C0170911D0180911E011D
:103F700090911F010E948D1981E08093BA0488E01E
:103F80008093BB048091BE0487708093C0048091AD
:103F900000020E942E1987E591E00E94AC1180E09A
:103FA0000E94C71182E591E025CE82E08093BA0499
:103FB00080E18093BB048091BE0487708093C0042D
:103FC000609118017091190180911A0190911B0163
:103FD0000E948D1981E08093BA0488E08093BB042D
:103FE0008091BE0487708093C004809100020E947B
:103FF0002E1987E291E00E94AC1180E00E94C71167
:1040000082E291E0F7CD82E08093BA0480E1809370
:10401000BB048091BE0487708093C004609110013E
:104020007091110180911201909113010E948D19DC
:1040300081E08093BA0488E08093BB048091BE0441
:1040400087708093C004809100020E942E198FE037
:1040500091E00E94AC1180E00E94C7118AE091E0DB
:10406000C9CD8091270124E6829FC00111240E94BE
:10407000811981E08093BA0488E08093BB04809129
:10408000BE0487708093C004809100020E942E19A4
:1040900081EF90E00E94AC118DEE90E0ABCD80916D
:1040A000250124E6829FC00111240E94811981E02C
:1040B0008093BA0488E08093BB048091BE0487702B
:1040C0008093C004809100020E942E1987EB90E03B
:1040D0000E94AC1183EB90E08DCD8091240124E609
:1040E000829FC00111240E94811981E08093BA044B
:1040F00088E08093BB048091BE0487708093C004E5
:10410000809100020E942E198AE990E00E94AC1171
:1041100086E990E06FCD8091EF010E94751981E0F2
:104120008093BA0488E08093BB048091BE048770BA
:104130008093C004809100020E942E1982E890E0D2
:1041400059CD1F921FB61F9211248F939F93AF9347
:10415000BF938091D2019091D301A091D401B091ED
:10416000D5010196A11DB11D8093D2019093D30179
:10417000A093D401B093D5018091D10193E0980F21
:104180009D37E8F49093D1018091D6019091D701A9
:10419000A091D801B091D9010196A11DB11D8093C4
:1041A000D6019093D701A093D801B093D901BF91C4
:1041B000AF919F918F911F901FBE1F9018958A57A6
:1041C0008093D1018091D2019091D301A091D4012B
:1041D000B091D5010196A11DB11D8093D20190939C
:1041E000D301A093D401B093D501CECF1F920F92EB
:1041F0000FB60F9211242F933F934F935F936F93BA
:104200007F938F939F93AF93BF93EF93FF9380918F
:10421000B900887F803609F44AC0F0F5883209F485
:10422000A7C018F5803109F49BC0B8F4882309F4BD
:10423000F9C0883009F494C0FF91EF91BF91AF911C
:104240009F918F917F916F915F914F913F912F91AE
:104250000F900FBE0F901F901895883109F488C0F9
:10426000803251F78093540214C0803409F49DC009
:1042700040F48033B9F38833F9F68093540285EC27
:10428000B0C0803509F485C0883509F496C08834FB
:1042900099F60E942E08D0CF883909F48CC038F5E1
:1042A000883729F050F4883611F0803729F683E0FA
:1042B000809356021092D00157C0883809F47BC011
:1042C000803919F0803809F0B7CF8091D001803261
:1042D00008F071C0E091D00181E08E0F8093D00191
:1042E0008091BB00F0E0E055FE4F80833DC0803BF5
:1042F00039F0E0F4803A09F479C0883A09F09CCFAB
:1043000084E0809356021092AF011092AE01E091CA
:104310000302F091040209958091AE0181110FC052
:1043200081E08093AE0110928E0109C0803C09F4B7
:10433000A6CF883C09F4A3CF883B09F07DCFE0915C
:10434000AF0181E08E0F8093AF01F0E0E257FE4FA6
:1043500080818093BB009091AF018091AE0129C014
:10436000809131028093BB0085EC8093BC0064CFC8
:104370009091530280915202981758F5E0915302A0
:1043800081E08E0F80935302F0E0EE5CFD4F808160
:10439000E9CFE091530281E08E0F80935302809128
:1043A000BB00F0E0EE5CFD4F808390915302809162
:1043B00052029817C8F285E8D8CFE091530281E005
:1043C0008E0F809353028091BB00F0E0EE5CFD4FB6
:1043D00080838091550281115CCF81E0809330020F
:1043E00084EA8093BC001092560226CF85EC80931D
:1043F000BC00109256028091D001803230F4E091DE
:10440000D001F0E0E055FE4F10826091D00170E0E5
:10441000E0910102F091020280EB91E00995109287
:10442000D0010ACF1092540234CF1F920F920FB6D0
:104430000F9211242F933F934F935F936F937F932A
:104440008F939F93AF93BF93EF93FF9380918902D4
:1044500090918A020E940C13FF91EF91BF91AF914E
:104460009F918F917F916F915F914F913F912F918C
:104470000F900FBE0F901F9018951F920F920FB6BE
:104480000F9211242F933F934F935F936F937F93DA
:104490008F939F93AF93BF93EF93FF938091870286
:1044A000909188020E940C13FF91EF91BF91AF9100
:1044B0009F918F917F916F915F914F913F912F913C
:1044C0000F900FBE0F901F9018950E94BA05109282
:1044D0007E0210927D0288EE93E0A0E0B0E080932F
:1044E0007F0290938002A0938102B09382028CE5B8
:1044F00091E090937C0280937B0280E58093FC04A2
:104500001092DC041092DB041092DE041092DD04A1
:104510001092E0041092DF041092E1041092E20481
:104520001092E3048091390190913A01A0913B01EE
:104530008093E4049093E504A093E6041092E704CA
:104540001092E8041092E9041092EA041092EB042D
:104550001092EC041092ED041092EE041092EF040D
:104560001092F0041092F1041092F20480E89FED92
:10457000A7E1B0E18093F3049093F404A093F504D1
:10458000B093F60452985A9A53985B9AE3ECF7E08A
:10459000E491F0E0EE0FFF1FE954F84F85919491FC
:1045A0009093D0048093CF04E5EAF7E0E491E093A0
:1045B000D304E4ECF7E0E491F0E0EE0FFF1FE954E0
:1045C000F84F859194919093D2048093D104E6EAB8
:1045D000F7E0E491E093D4041092D6041092D7044B
:1045E0001092D8041092D90480ED97E00E940F0633
:1045F000E091CF04F091D00490818091D30498236E
:1046000081E009F480E0E091D104F091D20490813E
:104610002091D404922309F082602FEC34E080933F
:10462000D5043093880220938702809169008C7FA3
:10463000816080936900E89A91E09093DA04309366
:104640008A022093890280916900837F846080932D
:104650006900E99A82E08093DA041092B002109225
:10466000AF022EE631E03093AE022093AD022CE390
:104670002093B10223E02093B2022FE12093B302F2
:104680002FE72093B40220E032E03093B60220936B
:10469000B5021092B7041092B8041092B904909326
:1046A000BA0428E02093BB041092BD041092BC040D
:1046B0001092BF041092BE041092C0041092C20463
:1046C0008093C3041092CE0438984698E1EBF7E04B
:1046D000E491E0939F02EFECF7E0E491F0E0EE0F5D
:1046E000FF1FE954F84F259134913093A102209394
:1046F000A0021092AA021092AC021092AB02109289
:10470000A9021092A8021092A7021092A60210927B
:10471000A5021092A4021092A3021092A2022FE905
:1047200032E0309392022093910210928F02109205
:10473000900210928B0289E080938C0290938D02FC
:1047400090938E0210929E0210929D020895CDB712
:10475000DEB760970FB6F894DEBF0FBECDBFF894FA
:1047600082E880937A0083E084BD85BD90916E00DD
:10477000916090936E0091E0909380002BE02093E5
:1047800081009093B00094E09093B1001092C1002A
:10479000789498E49093B80056985E98219A209A5D
:1047A00094B59F7794BD5E98909180009F77909389
:1047B00080002998289855985D9857985F9894B5E7
:1047C0009F7D94BD5D985F9854985C983998479800
:1047D0003A9898B198B9229A249A259A239A2C98B3
:1047E0002D989091B0009F779093B0002B985C9A91
:1047F00080930001E0919102F09192021386158658
:1048000014861286118610861782168215821482EB
:10481000138210928F021092900211E0BE016F5F1E
:104820007F4F80919102909192020E9452138823AF
:1048300009F45FC067E0CE0101960E949306988557
:104840008913ECCF80918B02811128C08091910255
:10485000909192020E945C07BE016F5F7F4F809132
:104860009102909192020E943D0740E064EB80919A
:104870009102909192020E94090780919102909179
:1048800092020E94AB06082F8091910290919202B1
:104890000E945C07011102C010938B0200918C02F0
:1048A000CE0101960E94E7078017C0F480918C0228
:1048B00080938C0280918F028F5F80938F02898119
:1048C000883231F080F4803119F0823209F0A6CFBD
:1048D000809190028F5F80939002A0CFCE010196CD
:1048E0000E94E707E5CF8B3399F3823409F096CF26
:1048F000EFCF1A82198242E050E0BE016F5F7F4F16
:1049000090E080E00E94FB15F2E0EF2EF12C10E029
:1049100000E0C7010E94D815080F111D2FEFE21A01
:10492000F20A38E2E316F104A1F70F5F1F4F898105
:104930009A810817190709F009C146E250E06CE0B6
:1049400071E082E090E00E94FB150E9418168091B1
:1049500022018093320183E08093E4048093E50494
:104960008093E60460E880E10E94B90A60E881E192
:104970000E94B90A60E882E10E94B90A80E096E4E8
:10498000A3ECB3E28093350190933601A0933701F5
:10499000B093380162ED87EB0E94B90A0E9486123B
:1049A0000E940F180E949C120E94C9120E94D213EA
:1049B0000E941A154C9903C084E6809300020E945D
:1049C000BA050E94790E0BE417E0F80184910E9469
:1049D0008C0E0F5F1F4FF7E00A351F07B1F782EC0F
:1049E00094E00E94800E0E94790E8AED0E948C0E47
:1049F00082E00E948C0E88EA0E948C0E8FE10E9459
:104A00008C0E82EC94E00E94800E1092BD041092F5
:104A1000BC041092BF041092BE041092C0046091B6
:104A2000B20270E08091B40290E00E94A10E0E9458
:104A3000C4180E94CF0E0E94C4181092BD04109298
:104A4000BC041092BF041092BE041092C00483E014
:104A50008093BA0488E18093BB048091000284367D
:104A600009F077C086E797E00E9469190E94CF0E8F
:104A70004C9BFECF68EE73E080E090E00E943C0625
:104A80000E949A19E4E62E2E312C8091E6018111C4
:104A90003EC04E9974C08091E0018F5F8093E00129
:104AA0008091E0018B3098F18AE08093E001809161
:104AB000DF01811103C081E08093DF018091E80173
:104AC000811133C011E01093E8010E940F18109378
:104AD000E901809100028150833038F51092000284
:104AE00064E670E080E090E00E943C0668EE73E0CF
:104AF00080E090E00E94C004809180008F7C806103
:104B0000809380001093DA01289A0E948E1780917A
:104B1000E80181110AC04D9976C08091E7018F5F4D
:104B20008B3008F0B4C08093E7018091FF018823A7
:104B300009F4CAC08091E9018111D4C0809180003C
:104B40008F778093800029982898CCC00E942B12E0
:104B5000FCCE8FE697E00E94691981E08093BA0449
:104B600088E08093BB048091BE0487708093C0046A
:104B70008AE597E00E9469190E94CF0E7BCF809151
:104B8000E8011092E001882311F28091DF0188236F
:104B900061F00E946F066093DB017093DC018093EB
:104BA000DD019093DE011092DF010E946F06C0903C
:104BB000DB01D090DC01E090DD01F090DE016C19AA
:104BC0007D098E099F09623371058105910508F4FD
:104BD0009ECF1092E8018091DA01882379F08091CC
:104BE00080008F7C8093800064E670E080E090E03D
:104BF0000E943C061092DA010E948E170E940F1844
:104C00001092E9014DCF1092E7018091E6018823CF
:104C100009F48BCF8091E501882381F00E946F0613
:104C20006093E1017093E2018093E3019093E401CA
:104C30001092E5010E940F180E9486180E946F06CC
:104C4000C090E101D090E201E090E301F090E40136
:104C5000AB01BC014C195D096E097F0980912801E7
:104C6000AAE08A9FC0011124092E000CAA0BBB0BDD
:104C7000481759076A077B0708F457CF1092E601D7
:104C80001092E9010E940F180E9486184ECF8AE008
:104C90008093E7018091E501811107C081E0809355
:104CA000E5010E940F180E9486188091E60181118B
:104CB0003CCF8091E501882309F437CF81E08093D0
:104CC000E6018093E901DECF8091E901882351F06C
:104CD000809180008F7780938000299A8091FF01D6
:104CE000811128CF809101014C9B02C00C94852E2C
:104CF000882361F0109201010E946F066093EA011F
:104D00007093EB018093EC019093ED018091DA04B4
:104D1000823008F059C1F8948FEC94E00E940C1393
:104D20006091D6047091D7048091D8049091D904F1
:104D300078942091320130E050E040E00E94DA2F78
:104D400069017A0180912101882341F0F094E09477
:104D5000D094C094C11CD11CE11CF11C8090F201C4
:104D60009090F301A090F401B090F5018C149D0493
:104D7000AE04BF0409F459C04C9B57C01091000207
:104D80008FEF810F883018F481E08093F10140901B
:104D9000F7015090F8016090F9017090FA0148EE27
:104DA000440E43E0541E611C711C0E946F0646169F
:104DB00057066806790638F11A3109F49EC408F0DE
:104DC00040C1163009F49FC308F00EC1123009F437
:104DD00020C308F0FBC0112309F42FC2113009F4DD
:104DE000F7C280910F01811103C091E09093F60109
:104DF00090910002992329F0882319F081E0809393
:104E0000F6010E949A190E946F066093F701709351
:104E1000F8018093F9019093FA01C092F201D092C7
:104E2000F301E092F401F092F5018091FF01339BD0
:104E300066C7811109C081E08093FF010E948E172F
:104E40000E940F180E949A190E949C1280910002E1
:104E500081115DC0F090FF01FF2009F449C7309235
:104E60003401209233010E946F068090FB019090E4
:104E7000FC01A090FD01B090FE01AB01BC014819FE
:104E800059096A097B098091330190913401B0E09E
:104E9000A0E084179507A607B707C8F50E946F061C
:104EA0008090F7019090F801A090F901B090FA017C
:104EB000681979098A099B09613177428105910551
:104EC000A0F08091F601882381F0F1100EC00E94BD
:104ED0006F066093F7017093F8018093F901909346
:104EE000FA011092F6010E942B120E94C9120E9430
:104EF000D2130E941A150E949A190E946F0660939D
:104F0000FB017093FC018093FD019093FE0180E012
:104F100090E0892B09F4B9CD0E940000B3CDF8943C
:104F200004C784E18093000234C065567109810989
:104F30009109633873408105910558F5809100020D
:104F40009FEF980F983040F59091F101992321F14E
:104F50001092F1011092000290910E01911109C07E
:104F600080910002813011F0843619F48F5F8093B4
:104F7000000280910F01882361F0992351F0809104
:104F800000028731D0F4843108F018C78250823093
:104F9000C0F00E949A19BACE91E0980F9730D1F2E2
:104FA0008C51873420F484E180930002D5CF909314
:104FB0000002913788F284E6F7CF8B51823048F7B0
:104FC000FDC610920002E5CFF894AACE143009F481
:104FD00046C208F43DC280912B0191E0892780935D
:104FE0002B010E948E17FDCE163109F418C378F4F8
:104FF000143109F48FC208F0BCC2173009F0F1CEA9
:105000008091310191E0892780933101EACF1831F5
:1050100009F44BC308F429C3809128018C149D0422
:10502000AE04BF040CF05EC38F3F19F08F5F809316
:105030002801809128018A3008F48AE080932801B1
:10504000D0CE193609F474C408F069C0153609F4D5
:10505000A1C378F41C3109F48AC308F46BC3143675
:1050600009F0BFCE80910F0191E0892780930F0155
:10507000B8CE173609F4CFC308F4ADC3809114013C
:1050800090911501A0911601B09117018C149D0407
:10509000AE04BF040CF030C4813EF6E39F07FFEC82
:1050A000AF07B105A8F4E0910C01F0E0EE0FFF1F8F
:1050B000EE5BFE4F20813181820F931FA11DB11D38
:1050C0008093140190931501A0931601B0931701DA
:1050D0008091140190911501A0911601B0911701D2
:1050E000813E36E393073FECA307B10520F080EE45
:1050F00096E3AFECB0E0803A4AE994074EECA4079F
:10510000B10520F480EA9AE9AEECB0E08093140196
:1051100090931501A0931601B093170128C11D3675
:1051200009F418C500F51B3609F4DCC408F46BC497
:1051300080912601909127018C149D04AE04BF0438
:105140000CF0F6C420912501821718F48F5F80932C
:10515000260180912601981708F4F5C481E0890F93
:10516000809326013ECF1F3609F440C508F41AC5C6
:10517000103709F036CE8091EE018C149D04AE04F8
:10518000BF040CF0AAC58A3018F48F5F8093EE013B
:105190008091EE018A3009F024CE0E94C41810924A
:1051A000BD041092BC041092BF041092BE04109271
:1051B000C00482E08093BA0480E18093BB0482E95A
:1051C00097E00E94AC110E94CF0E2CE0A22E21E0AD
:1051D000B22E912C812CC4010E94C42FD5018D9335
:1051E0005D01BFEF8B1A9B0AE6E28E16910499F7D8
:1051F00082E0A82E81E0B82E97E2892E912CC4017E
:105200000E94C42FD5018D935D01BFEF8B1A9B0ABD
:10521000E1E38E16910499F70E942B128EE897E035
:105220000E94AC110E94CF0E68EE73E080E090E027
:105230000E943C060C940000D4CD80910F01811196
:10524000D0CD409003015090040160900501709012
:105250000601209108013091090140910A01509105
:105260000B0160EA76E881E090E00E94E02E6D8715
:105270007E878F87988BA0910701B0E020EA36E8FF
:1052800041E050E00E94F92F69877A878B879C87DD
:105290008C149D04AE04BF040CF06CC08D859E85FB
:1052A000AF85B88984159505A605B70550F1E0913D
:1052B0000C01F0E0EE0FFF1FEE5BFE4F208131810D
:1052C000AAE0B0E00E9426304B015C01C301B201AC
:1052D000A50194010E940430480C591C6A1C7B1CD7
:1052E000611571058105910521F0461A570A680A72
:1052F000790A409203015092040160920501709274
:1053000006018091030190910401A0910501B091E3
:10531000060129853A854B855C8582179307A4078A
:10532000B50760F489859A85AB85BC8580930301B8
:1053300090930401A0930501B093060180910301AD
:1053400090910401A0910501B09106012D853E8543
:105350004F855889281739074A075B0740F420937F
:1053600003013093040140930501509306010E940C
:105370000F1837CDC814D904EA04FB0414F62985A4
:105380003A854B855C85421653066406750650F2D5
:10539000E0910C01F0E0EE0FFF1FEE5BFE4F20816D
:1053A0003181AAE0B0E00E9426304B015C01C301CC
:1053B000B201A50194010E940430611571058105B7
:1053C000910509F092CF481859086A087B0891CFD7
:1053D00080910D0190910E018C149D04AE04BF04C8
:1053E0007CF4891718F48F5F80930D0180910D0173
:1053F000981708F4892F80930D010E941816B7CFD3
:10540000C814D904EA04FB048CF7882379F381508B
:10541000EBCF80910C018C149D04AE04BF0434F4D6
:10542000863078F48F5F80930C01DBCCC814D904EC
:10543000EA04FB0434F4882309F4D3CC815080932C
:105440000C0180910C01873008F4CBCC86E0EBCFC7
:105450008091020191E089278093020188CF809199
:105460002C0190912D01A0912E01B0912F018C144F
:105470009D04AE04BF04BCF5893B3BE09307A10546
:10548000B1055CF4C296A11DB11D80932C019093CF
:105490002D01A0932E01B0932F0180912C019091AA
:1054A0002D01A0912E01B0912F01893B5BE0950762
:1054B000A105B10524F088EB9BE0A0E0B0E08834C2
:1054C000E4EF9E07EFEFAE07BE0724F488E494EF05
:1054D000AFEFBFEF80932C0190932D01A0932E018D
:1054E000B0932F0144CFC814D904EA04FB04ACF6EE
:1054F000883444EF94074FEFA407B40774F2C297BF
:10550000A109B109C2CF8091300191E08927809330
:10551000300167CD809107018C149D04AE04BF0457
:10552000FCF48F5F80930701409107018FE04F30BB
:10553000A0F08091080190910901A0910A01B09119
:105540000B0150E070E060E00197A109B109481734
:1055500059076A077B0708F4CA018093070141CC09
:10556000C814D904EA04FB04FCF68F30E8F2815039
:10557000D9CF8091080190910901A0910A01B091C1
:105580000B018C149D04AE04BF04DCF58D32F1E0F8
:105590009F07A105B10558F40196A11DB11D809387
:1055A000080190930901A0930A01B0930B01409167
:1055B00008015091090160910A0170910B018091DD
:1055C000070190E0B0E0A0E00196A11DB11D4817D1
:1055D00059076A077B0760F0DB01CA018D3221E0C1
:1055E0009207A105B10520F08CE291E0A0E0B0E0C7
:1055F0008093080190930901A0930A01B0930B01D5
:10560000F0CBC814D904EA04FB048CF68F30910562
:10561000A105B10560F20197A109B109C0CF809140
:105620000E018C149D04AE04BF047CF48E31B8F4DA
:105630008F5F80930E0180910E0190910D0189176B
:1056400008F0CFCB80930D01CCCBC814D904EA0469
:10565000FB042CF4882379F3815080930E01809110
:105660000E018F3140F38EE1E4CF80912A028C1439
:105670009D04AE04BF0484F4883138F48F5F8093B6
:105680002A0280912A02883118F087E180932A0249
:1056900081E08093F001A5CBC814D904EA04FB048F
:1056A00084F78823A9F38150EACF809129028C14D2
:1056B0009D04AE04BF046CF48C3338F48F5F809388
:1056C0002902809129028C3318F38BE380932902FD
:1056D000DFCFC814D904EA04FB049CF78823C1F285
:1056E0008150EDCFC814D904EA04FB040CF0A1CC1E
:1056F000823008F49ECC81509ACC809129018C1480
:105700009D04AE04BF046CF48F3F19F08F5F80934B
:105710002901809129018A3008F48AE080932901C7
:1057200060CBC814D904EA04FB049CF7823088F3E8
:105730008150EDCF809122018C149D04AE04BF04F2
:105740006CF48F3F19F08F5F8093220180912201CA
:10575000811101C081E08093220143CBC814D90498
:10576000EA04FB049CF7823088F38150EDCF8091EE
:105770002101882359F010922101F094E094D094F3
:10578000C094C11CD11CE11CF11C2BCB81E0809387
:105790002101F3CF809120018C149D04AE04BF043D
:1057A0006CF48F3F19F08F5F80932001809120016E
:1057B000843668F08F3F61F48EEF0AC0C814D904B4
:1057C000EA04FB049CF7843688F38150EDCF84E62D
:1057D0008093200106CB809123018C149D04AE049C
:1057E000BF0484F48F311CF48F5F80932301809178
:1057F00023018F310CF08EE1823E0CF482EE809317
:105800002301EFCAC814D904EA04FB0484F7823EDA
:1058100074F38150EACF80911C0190911D01A091F9
:105820001E01B0911F018C149D04AE04BF040CF046
:1058300048C0813C3EE0930736E1A30732E0B3075E
:10584000A8F4E0910C01F0E0EE0FFF1FEE5BFE4FBD
:1058500020813181820F931FA11DB11D80931C01F6
:1058600090931D01A0931E01B0931F0180911C0114
:1058700090911D01A0911E01B0911F01813C5EE03D
:10588000950756E1A50752E0B50720F080EC9EE0B1
:10589000A6E1B2E08038E1EB9E07EFE4AE07E1E07D
:1058A000BE0720F480E891EBAFE4B1E080931C01E7
:1058B00090931D01A0931E01B0931F010E948612B8
:1058C00056CDC814D904EA04FB0484F6803841EBB1
:1058D00094074FE4A40741E0B40740F2E0910C01C3
:1058E000F0E0EE0FFF1FEE5BFE4F20813181821B47
:1058F000930BA109B109B2CFC814D904EA04FB047F
:105900000CF0E6CB803A2AE992072EECA207B1050B
:1059100008F4DECBE0910C01F0E0EE0FFF1FEE5B30
:10592000FE4F20813181821B930BA109B109C8CBA5
:105930008091180190911901A0911A01B0911B0159
:105940008C149D04AE04BF040CF043C0813E56E3AA
:1059500095075FECA507B105A8F4E0910C01F0E014
:10596000EE0FFF1FEE5BFE4F20813181820F931FF0
:10597000A11DB11D8093180190931901A0931A01E4
:10598000B0931B018091180190911901A0911A0107
:10599000B0911B01813EF6E39F07FFECAF07B10515
:1059A00020F080EE96E3AFECB0E0803A2AE992076F
:1059B0002EECA207B10520F480EA9AE9AEECB0E043
:1059C0008093180190931901A0931A01B0931B01C1
:1059D000CECCC814D904EA04FB04A4F6803AEAE960
:1059E0009E07EEECAE07B10568F2E0910C01F0E025
:1059F000EE0FFF1FEE5BFE4F20813181821B930B68
:105A0000A109B109B7CF8091100190911101A09126
:105A10001201B09113018C149D04AE04BF040CF06C
:105A200046C0813034EB930734ECA30734E0B3076E
:105A3000A8F4E0910C01F0E0EE0FFF1FEE5BFE4FCB
:105A400020813181820F931FA11DB11D8093100110
:105A500090931101A0931201B09313018091100152
:105A600090911101A0911201B0911301813054EB7A
:105A7000950754ECA50754E0B50720F080E094EBBF
:105A8000A4ECB4E08038E3EC9E07E9ECAE07E1E07B
:105A9000BE0720F480E893ECA9ECB1E080931001FC
:105AA00090931101A0931201B093130160CCC8141C
:105AB000D904EA04FB0494F6803843EC940749ECDB
:105AC000A40741E0B40750F2E0910C01F0E0EE0FC2
:105AD000FF1FEE5BFE4F20813181821B930BA109DA
