:100000000C94F6010C94F11F0C94C91F0C941E0261
:100010000C941E020C941E020C941E020C941E02E0
:100020000C941E020C941E020C941E020C941E02D0
:100030000C941E020C941E020C941E020C941E02C0
:100040000C94551E0C941E020C941E020C941E025D
:100050000C941E020C941E020C941E020C941E02A0
:100060000C94AA1E0C941E02000000000000006FF9
:1000700000000007000700147F147F148C92FF9289
:1000800062231308646236495620500000070000BE
:10009000001C2241000041221C0014083E081408E4
:1000A000083E0808005030000008080808080060F2
:1000B00060000020100804023E5149453E00427F86
:1000C000400042615149462141454B311814127F8D
:1000D0001027454545393C4A494930017109050316
:1000E0003649494936064949291E0036360000007E
:1000F0005636000008142241001414141414004150
:1001000022140802015109063E415D494E7E09094B
:10011000097E7F494949363E414141227F41414163
:100120003E7F494949417F090909013E4149497AD0
:100130007F0808087F00417F41002040413F017F48
:10014000081422417F404040407F020C027F7F0420
:1001500008107F3E4141413E7F090909063E415159
:10016000215E7F09192946464949493101017F012C
:10017000013F4040403F0F3040300F3F4030403F54
:100180006314081463070870080761514945430068
:10019000007F4100020408102000417F000004029B
:1001A0000102044040404040000003040020545439
:1001B00054787F48444438384444442038444448C0
:1001C0007F3854545418087E0901020C5252523E92
:1001D0007F0804047800447D40002040443D000036
:1001E0007F10284400417F40007C041804787C087C
:1001F00004047838444444387C1414140808141453
:10020000187C7C080404084854545420043F44409B
:10021000203C4040207C1C2040201C3C4030403C86
:1002200044281028440C5050503C4464544C440022
:100230000836414100007F000041413608000402B9
:100240000408047E1111117E7F494949337F4949D1
:1002500049367F01010103E0514F41FF7F49494980
:100260004177087F087741494949367F1008047F64
:100270007C2112097C7F0814224120413F017F7FAD
:10028000020C027F7F0808087F3E4141413E7F010A
:1002900001017F7F090909063E4141412201017F99
:1002A000010147281008071C227F221C6314081430
:1002B000637F404040FF070808087F7F407F407F02
:1002C0007F407F40FF017F4848307F4830007F00FB
:1002D0007F484830224149493E7F083E413E4629F9
:1002E00019097F20545454783C4A4A49317C54546B
:1002F00028007C04040C00E0544C44FC3854545452
:10030000186C107C106C44545428007C2010087C1D
:1003100078422412787C1028440020443C047C7CE1
:100320000810087C7C1010107C38444444387C044D
:1003300004047C7C14141408384444440004047CF1
:1003400004040C5050503C3048FE483044281028DB
:10035000447C40407CC00C1010107C7C407C407C75
:100360007C407C40FC047C5050207C5050207C7CA5
:100370005050200028445454387C103844380854D5
:1003800034147C3855545518005EBCE2613FDD835F
:10039000C29C7E20A3FD1F41009D23BE46DB65F865
:1003A0008C11AF32CA57E974AED5808D142001A1EB
:1003B000C8817FDB40A6AF01020408102040800105
:1003C000020408102001020408102000000000238D
:1003D00000260029000404040404040404020202A8
:1003E00002020203030303030300192011241FBEAA
:1003F000CFEFD8E0DEBFCDBF26E0A0E4B3E001C080
:100400001D92A33CB207E1F713E0A0E0B1E0E8E6FB
:10041000FEE502C005900D92A034B107D9F711E0B6
:10042000C6EFD1E004C02197FE010E940D2DC53F0B
:10043000D107C9F70E945B210C94322F0C94000065
:100440002091400481E0213208F046C080911C04D4
:100450008111FCCF90913F0432E030931C0431E0D5
:1004600030931B043FEF30931A0410921904209329
:1004700018044FE154E0A8EFB3E0FA013E2F341B1B
:10048000321788F11092F7032091F703990F922BFE
:100490009093F7039091F603913041F51092F60393
:1004A0009091F7039093BB009091BC0093FDF8CF1F
:1004B00095EC9093BC0090911C049230E1F39091E4
:1004C0001A049F3F49F080911A04803289F080918C
:1004D0001A04803379F084E010921E0410924004D4
:1004E00010921D04089531913D93C8CF95EEE1CF50
:1004F00082E0F2CF83E0F0CF91E090931D048093EF
:100500003F0410921E0410924004089590911C0420
:100510009111FCCF91E090931C0490931B042FEF5A
:1005200020931A0410921904260F20931804909314
:10053000F7039091F703880F892B8093F70380913D
:10054000F603813011F51092F6038091F703809342
:10055000BB008091BC0083FDF8CF85EC8093BC008C
:1005600080911C048130E1F380911904861710F406
:100570006091190428EF33E0AEECB3E0F9018E2F5F
:10058000821B861720F0862F089585EEE7CF819194
:100590008D93F5CF8F929F92AF92BF92CF92DF92C1
:1005A000EF92FF92CF93611571058105910521F4BA
:1005B00061E070E080E090E024E0660F771F881F24
:1005C000991F2A95D1F76115710521E082079105E0
:1005D00008F44EC06115710528E08207910508F402
:1005E0004BC06115710520E48207910508F048C0F1
:1005F00020E430E0C3E06901F12CE12CA7010E9466
:10060000632D49015A0180918000807F8093800092
:10061000C861C0938100C9010197909387008093BE
:1006200086008091810087708093CD0360E074E242
:1006300084EF90E0A70196010E94392DAA24BB24E3
:10064000CA01B901A50194010E94392D60E472E448
:100650008FE090E00E94632DCA01B901CF91FF9015
:10066000EF90DF90CF90BF90AF909F908F900895C4
:1006700021E030E0C1E0BFCF28E030E0C2E0BBCFF6
:1006800020E031E0C4E0B7CF8091CB039091CC0360
:10069000891B990B089520917A042817190668F18F
:1006A000209179042617170640F1109283061092C4
:1006B00082061092850610928406FB0123E0F595D0
:1006C000E7952A95E1F7880F991F880F991FE80F82
:1006D000F91F6770772781E090E0A0E0B0E004C0E8
:1006E000880F991FAA1FBB1F6A95D2F7ED58FB4FC1
:1006F000442321F02285822B82870895809592855C
:100700008923FACFDF92EF92FF920F931F93CF933B
:10071000DF937C01EB018A01D22E109283061092A6
:10072000820610928506109284064617570724F415
:100730008D2FEA01062F182F80917A048E151F0441
:10074000C8F0C017D10761F44D2DBE01C701DF917C
:10075000CF911F910F91FF90EF90DF900C944B037E
:100760000C171D073CF04D2DBE01C7010E944B0325
:100770002196F6CFDF91CF911F910F91FF90EF90CF
:10078000DF900895089508951092CC031092CB0342
:1007900010921E041092400410921C0481E0809379
:1007A0001B041092F603449A459AE9EBF0E080812D
:1007B0008E7F808380818D7F808388E48093B800E2
:1007C00085E48093BC0082EC93E09093CA0380930D
:1007D000C90383EC93E09093C8038093C703089503
:1007E000CF92DF92EF92FF920F931F93CF93DF93FD
:1007F0007C016A0110E000E00C151D0581F0EB01A1
:10080000D701ED91FC910190F081E02D6991C70134
:100810000995892B21F00F5F1F4FBE01EDCFC80155
:10082000DF91CF911F910F91FF90EF90DF90CF90CC
:100830000895880F991F880F991F05970197F1F761
:1008400008953FB7F89480919C0390919D03A091E7
:100850009E03B0919F0326B5A89B05C02F3F19F0BA
:100860000196A11DB11D3FBFBA2FA92F982F882730
:10087000BC01CD01620F711D811D911D42E0660F0B
:10088000771F881F991F4A95D1F708958F929F92DD
:10089000AF92BF92CF92DF92EF92FF926B017C01F9
:1008A0000E9421044B015C01C114D104E104F10454
:1008B000B9F00E942104681979098A099B09683EE8
:1008C00073408105910580F381E0C81AD108E108E1
:1008D000F10828EE820E23E0921EA11CB11CE4CF89
:1008E000FF90EF90DF90CF90BF90AF909F908F9050
:1008F00008952FB7F89460919803709199038091AF
:100900009A0390919B032FBF08952091000190E4DA
:10091000299F900111248E50822B80937C0080911E
:100920007A00806480937A0080917A0086FDFCCF03
:1009300080917800909179000895E0E0615098F0FE
:10094000DC018D918E27E82FEF70F0E0E857FC4F27
:100950009491E82FE295EF70F0E0E856FC4FE491B7
:10096000E927CD01EBCF8E2F08950F931F93CF93DF
:10097000DF93FC011081C181D281F8948981812BA0
:1009800089838A81012F009580238A8383E090E008
:100990000E9419048981802389838AE090E00E9463
:1009A0001904C881789485E390E00E941904C1235A
:1009B00081E009F480E0DF91CF911F910F910895BC
:1009C0001F93CF93DF93FC011081C181D281912FBE
:1009D000909560FF16C0F8948A8189238A83898163
:1009E000812B89838AE090E00E9419048A81182B68
:1009F0001A83789487E390E0DF91CF911F910C9454
:100A00001904F8948A8189238A838981812B8983B7
:100A100081E490E00E9419048A81182B1A8378944B
:100A200085E090E0E9CFDF92EF92FF920F931F9362
:100A3000CF93DF93EC01D62EE42E08E010E0FF24E4
:100A4000F39461E08D2D8F2109F460E0CE010E94C6
:100A5000E004FF0C01501109A1F7E11010C0F89457
:100A6000E981FA8191818881809589238183E98157
:100A7000FA81928188818095892382837894DF919D
:100A8000CF911F910F91FF90EF90DF900895EF921B
:100A9000FF920F931F93CF93DF938C017B0140E074
:100AA00065E50E941305E70188E0E80EF11C6991F5
:100AB00040E0C8010E941305CE15DF05C1F7DF91A4
:100AC000CF911F910F91FF90EF900895FF920F9398
:100AD0001F93CF93DF93FC010081C181D281F894F1
:100AE0008981F02EF0948F21898378941DE711502D
:100AF00029F182E090E00E94190488818023B9F3F3
:100B0000F8948A818F218A838981802B89837894C4
:100B100080EE91E00E941904F89489818F218983E5
:100B200086E490E00E9419048881082311E009F00E
:100B300010E078948AE991E00E941904812FDF91F6
:100B4000CF911F910F91FF900895AF92BF92CF92D6
:100B5000DF92EF92FF920F931F93CF93DF938B015E
:100B6000BC0180915704909158040E94470540E0D1
:100B70006EEB80915704909158040E941305E80190
:100B8000680189E0C80ED11CA0905704B0905804A9
:100B900088E0E82EF12C10E001E0C5010E94B504C8
:100BA0008111102B000F81E0E81AF108B1F71993B9
:100BB000CC16DD0649F780915704909158040E94A5
:100BC000660591E0813009F090E0892FDF91CF91A7
:100BD0001F910F91FF90EF90DF90CF90BF90AF905B
:100BE00008950F931F93CF93DF93CDB7DEB7299767
:100BF0000FB6F894DEBF0FBECDBF8C01FC01808123
:100C0000803181F180915704909158040E946605CB
:100C100081110CC080E029960FB6F894DEBF0FBE9C
:100C2000CDBFDF91CF911F910F910895BE016F5FEE
:100C30007F4FC8010E94A505882361F368E0CE01BB
:100C400001960E949D0499858913E4CF8D818F338D
:100C500059F020F48F31F1F689E0DDCF8F3531F096
:100C60008F37C1F68CE0D7CF8AE0D5CF8BE0D3CFDA
:100C700085ED8093BC008091BC0084FDFCCF109278
:100C80001C04089520917403260F3327331F21324B
:100C90003105ECF420911C04FC0190E080E024304C
:100CA00069F082E00895A09174032191AC014C5A3F
:100CB0005C4FA40FB52FB11D2C930196861798F3A6
:100CC00080917403680F6093740380E0089581E05D
:100CD00008950895E091CC038091CB03E81730F498
:100CE000F0E0E253FC4F808190E008958FEF9FEF9A
:100CF00008959091CC038091CB032FEF3FEF98178D
:100D000048F4E92FF0E0E253FC4F208130E09F5F90
:100D10009093CC03C9010895CF92DF92EF92FF9296
:100D20000F931F93CF93DF937C01CB018A01209116
:100D30001D04222389F0EB016B01C40ED51ECC15D6
:100D4000DD0569F06991D701ED91FC910190F08189
:100D5000E02DC7010995F3CF642F0E944206C80118
:100D6000DF91CF911F910F91FF90EF90DF90CF9087
:100D70000895CF93DF930F92CDB7DEB769832091AB
:100D80001D042223F9F020914004203258F021E084
:100D900030E0FC013383228390E080E00F90DF910C
:100DA000CF91089580911E04E82FF0E0E15EFB4FA3
:100DB000998190838F5F80931E048093400481E02B
:100DC00090E0ECCF61E0CE0101960E944206F7CFA1
:100DD000CF9388E60E947C0260E081E494E00E9468
:100DE000B90660E881E494E00E94B9068091EF03BF
:100DF000CAE06C2F0E944F2C8295807F682F690F6C
:100E000081E494E00E94B9068091F0036C2F0E9467
:100E10004F2C8295807F682F690F81E494E00E94B7
:100E2000B9068091F1036C2F0E944F2C8295807F30
:100E3000682F690F81E494E00E94B9068091F20363
:100E40006C2F0E944F2C8295807F682F690F81E460
:100E500094E00E94B9068091F3036C2F0E944F2CFE
:100E60008295807F682F690F81E494E00E94B90623
:100E70008091F4038E516C2F0E944F2C8295807FBD
:100E8000682F690F81E494E00E94B9060E94200255
:100E9000882329F01092F50380E0CF91089581E036
:100EA0008093F50388E60E947C0260E081E494E090
:100EB0000E94B9068091EE036C2F0E944F2C829500
:100EC000807F682F690F81E494E00E94B9060E9438
:100ED00020028111DFCF81E0E0CF682F81E494E030
:100EE0000C94B906BF92CF92DF92EF92FF920F93CC
:100EF0001F93CF93DF938C017B01E40EF51EEB0172
:100F0000B99068018FEFC81AD80A8091C2060E9472
:100F10007C02812F90E00E946D07C80199270E94F2
:100F20006D076B2D81E494E00E94B9060E942002B7
:100F30006AE070E080E090E00E944604BE01860115
:100F4000CE15DF05E1F6DF91CF911F910F91FF9054
:100F5000EF90DF90CF90BF9008958093BB0084E81E
:100F60008093BC008091BC0087FFFCCF9091B900BA
:100F7000987F81E0983231F0983129F0903419F05F
:100F800080E008950895089584EA8093BC008091DC
:100F9000BC0087FFFCCF8091B900887F19F080ECFE
:100FA0000C94AD0780E008955F926F927F928F92CC
:100FB0009F92AF92BF92CF92DF92EF92FF920F93E8
:100FC0001F93CF93DF93CDB7DEB7582E742E652EC7
:100FD000B62E922E0E94C407852D0E94AD078D2D3E
:100FE0000E94AD078C2D0E94AD078B2D83708A293E
:100FF00090E081109CE0892B0E94AD07862D0E9415
:10100000AD07872D0E94AD078CE0F694E794D79446
:10101000C7948A95D1F78C2D807FC82E892D8F702B
:101020008C290E94AD07812F0E94AD07802F0E945E
:10103000AD0784E98093BC008091BC0084FDFCCFA7
:10104000DF91CF911F910F91FF90EF90DF90CF90A4
:10105000BF90AF909F908F907F906F905F9008951A
:101060004F925F926F927F928F929F92AF92BF92B8
:10107000CF92DF92EF92FF920F931F93CF93C82FDF
:10108000C090B906D090BA06E090BB06F090BC06BE
:10109000CB01BA01A70196010E94632D49015A01B3
:1010A00025E0F694E794D794C7942A95D1F735E0D4
:1010B00096958795779567953A95D1F747E0660FAE
:1010C000771F881F991F4A95D1F7A70196010E94A3
:1010D000632D29013A018B019C01B501A40155271B
:1010E00066277727E7E0440F551F661F771FEA95AD
:1010F000D1F7525061097109440D551D661D771DC8
:10110000812CA12C8C2F0E94D407CF911F910F917D
:10111000FF90EF90DF90CF90BF90AF909F908F9017
:101120007F906F905F904F9008958F92AF92CF9283
:10113000DF92EF92FF920F931F93882483944430A1
:1011400051056105710509F0812C4450510961096F
:101150007E4F97E0440F551F661F771F9A95D1F772
:10116000A22EC12CD12C7601C39400E010E098018E
:101170000E94D4071F910F91FF90EF90DF90CF90C6
:10118000AF908F900895CF93DF93D82FC62F0E94F2
:10119000C4078D2F0E94AD078C2F0E94AD0784E9F4
:1011A0008093BC008091BC0084FDFCCFDF91CF9187
:1011B0000895CF93C82F60E880E18C0F0E94C30888
:1011C000EC2FF0E0EE0FFF1FEF55F94F1182108268
:1011D000CF9108954F925F926F927F92AF92BF929C
:1011E000CF92DF92EF92FF920F931F93CF93DF93F3
:1011F000D82F082F10E0F801EE0FFF1FEE0FFF1F92
:10120000E355F94F4080518062807380411451044E
:101210006104710489F48D2FDF91CF911F910F919B
:10122000FF90EF90DF90CF90BF90AF907F906F9046
:101230005F904F900C94D9085801AA0CBB1CF50183
:10124000EF55F94FC080D180F12CE12C0F55194F8B
:10125000F801C681A3019201C701B6010E943F2C8B
:101260009B01AC01EC2FF0E0E95AFE4FA081B0E009
:101270000E94582D9B01AC0120583447424D5A41E1
:101280002130334A414E514108F43FC060913C0146
:1012900070913D0180913E0190913F01A301920127
:1012A0000E94632D69017A0184E0C816D104E1042B
:1012B000F10408F4B0CFE6E0CE16D104E104F10465
:1012C00008F470C0C0E0FDE2CF16F1E0DF06E104F3
:1012D000F10430F0CF5FF694E794D794C794F3CF3E
:1012E000C11103C0E894C0F8C0E0A3019201C70196
:1012F000B6010E943F2C9B01AC01EC2FF0E0E95AB3
:10130000FE4FA081B0E00E94582D2AE1D11122E2C7
:10131000AB01BC01822F0E943008F501EF55F94F57
:1013200080819181B0E0A0E08C159D05AE05BF05E0
:1013300021F4F80186818C1731F12C2F2295207F22
:10134000B701A6018D2F880F880F880F865D0E9438
:101350009508F801618580E0D11180E2682B6C640A
:1013600080E18D0F0E94C308F501EF55F94FD1823E
:10137000C082F801C6838091C10690E2D11190E845
:10138000892B8093C106DF91CF911F910F91FF9020
:10139000EF90DF90CF90BF90AF907F906F905F9075
:1013A0004F90089584E0C82ED12CE12CF12C9ACFD7
:1013B0002F923F924F925F926F927F928F929F9265
:1013C000AF92BF92CF92DF92EF92FF920F931F9353
:1013D000CF93DF9300D000D00F92CDB7DEB7490195
:1013E0005A01270138011092C106C090B106D09071
:1013F000B206E090B306F090B4060091AD061091ED
:10140000AE062091AF063091B006061717072807E1
:10141000390759F06093AD067093AE068093AF061E
:101420009093B00680E00E94EA08C814D904EA0448
:10143000FB0471F48091B5069091B606A091B706B1
:10144000B091B80684159505A605B70509F403C142
:101450008092B1069092B206A092B306B092B40602
:101460004092B5065092B6066092B7067092B806E2
:1014700081149104A104B10419F481E00E94D908F7
:101480008091B5069091B606A091B706B091B806C6
:10149000892B8A2B8B2B19F482E00E94D90840906B
:1014A000B1065090B2066090B3067090B406411435
:1014B00051046104710409F473C1C814D904EA0425
:1014C000FB0409F4A5C0C090A306D090A406F12C9B
:1014D000E12C2091A8062983A3019201C701B6013E
:1014E0000E943F2C9B01AC018981E82FF0E0E95A72
:1014F000FE4FA081B0E00E94582D4B015C01DC0141
:10150000CB0180589447A24DBA418130934AA14EF5
:10151000B14108F446C060913C0170913D01809159
:101520003E0190913F01A30192010E94632D690148
:101530007A0181E044E0C416D104E104F10408F426
:1015400088C086E0C816D104E104F10408F4A4C000
:1015500019829DE2C91691E0D906E104F10440F038
:1015600029812F5F2983F694E794D794C794F1CF0C
:101570004981411103C0E894C0F81982A301920186
:10158000C701B6010E943F2C9B01AC018981E82F65
:10159000F0E0E95AFE4FA081B0E00E94582D4B01C7
:1015A0005C01B501A40182E20E9430088091A3068B
:1015B0009091A406B0E0A0E08C159D05AE05BF0596
:1015C00029F48091A80699818917D1F02981229563
:1015D000207FB701A60182E30E9495086091AB06C7
:1015E0006C6681E10E94C308D092A406C092A30653
:1015F00029812093A8068091C10680688093C10646
:101600008092BD069092BE06A092BF06B092C00620
:10161000C090B506D090B606E090B706F090B80638
:10162000C114D104E104F104B1F08090BD069090A2
:10163000BE06A090BF06B090C006C501B401A701C8
:1016400096010E94632D283031054105510550F562
:1016500082E00E94D9086091C106662319F081EBEF
:101660000E94C3088091C1060F900F900F900F90B9
:101670000F90DF91CF911F910F91FF90EF90DF902E
:10168000CF90BF90AF909F908F907F906F905F9022
:101690004F903F902F90089504E0C02ED12CE12C64
:1016A000F12C69CF1D82213431054105510560F0CF
:1016B0008D818F5F8D83CC0CDD1CEE1CFF1C56953D
:1016C000479537952795EFCFC501B401A70196013E
:1016D0000E94632D29833A834B835C832FEF3FEF76
:1016E0004FE050E00E946F2C56016701E12CF12C75
:1016F00000E010E00E949C2C29013A019D81929506
:10170000907F9D83C12CD12C7601C3944114510448
:101710006104710431F0CC24CA94DC2CFFE0EF2E7C
:10172000F12CC301B20127E0660F771F881F991FB4
:101730002A95D1F7A70196010E94632D49015A010C
:101740008B019C0149815A816B817C8155276627D9
:101750007727E7E0440F551F661F771FEA95D1F7FB
:10176000525061097109480D591D6A1D7B1D812C5C
:10177000AD808AE30E94D4076CE4452846284728B8
:1017800009F06CE08091AC06682B606282E10E94F7
:10179000C30881E090E09093A6068093A5065BCFF6
:1017A0008090B5069090B606A090B706B090B806A7
:1017B00081149104A104B10409F44DCFC090A50691
:1017C000D090A606F12CE12C2091A9062983A50131
:1017D0009401C701B6010E943F2C9B01AC01898195
:1017E000E82FF0E0E95AFE4FA081B0E00E94582DAA
:1017F0008B019C0100581447224D3A410130134A95
:10180000214E314108F443C060913C0170913D018B
:1018100080913E0190913F01A50194010E94632DAA
:1018200069017A0184E0C816D104E104F10408F4E6
:101830000FCF96E0C916D104E104F10408F458C0B2
:1018400019822DE2C21621E0D206E104F10440F033
:1018500049814F5F4983F694E794D794C794F1CFB9
:101860008981811103C0E894C0F81982A50194010F
:10187000C701B6010E943F2C9B01AC019981E92F61
:10188000F0E0E95AFE4FA081B0E00E94582DAB0174
:10189000BC0182E20E9430088091A5069091A606C4
:1018A000B0E0A0E08C159D05AE05BF0531F4809138
:1018B000A9062981821709F4CECE29812295207F9D
:1018C000B701A6018AE30E9495086091AC066C6698
:1018D00082E10E94C308D092A606C092A506498163
:1018E0004093A9068091C10680688093C106B3CE5B
:1018F00084E0C82ED12CE12CF12CB5CF682F81E4E7
:1019000094E00C94B906809177040E947C0280E0F8
:101910000C947E0CCF93DF93EC010E94200218827E
:1019200082E090E0DF91CF910C9419040E947E0C2C
:10193000809188068F5F80938806803158F088E810
:1019400096E00E948A0C809177040E947C0280E4D9
:101950000C947E0C08950F931F93CF93DF938C010B
:10196000EB010E94830C81E20E947E0C80E00E94C9
:101970007E0C80917A0490E0081719070CF4C801D6
:101980000E947E0C82E20E947E0C80E00E947E0C0F
:101990008091780490E0C817D9070CF4CE010E941A
:1019A0007E0C88E896E0DF91CF911F910F910C9407
:1019B0008A0CCF93DF936091780470E080917A0471
:1019C00090E00E94AB0C809177040E947C0280E43E
:1019D0000E947E0CCDE7D4E089910E94960C86E0AF
:1019E000CD37D807C9F788E896E0DF91CF910C94FE
:1019F0008A0CCF93C82F0E94830C81E80E947E0C32
:101A00008C2F0E947E0C88E896E0CF910C948A0C73
:101A10000F931F93E42F0130110541F1023011059E
:101A200009F444C0012BF9F4DC01A15FBD4F4D91D5
:101A30005C911197240F352F311D220F331F220F78
:101A4000331F12964D915C9103E0559547950A9589
:101A5000E1F7240F351FE20FF32FF11DE80FF91FF7
:101A60008285682B62871F910F910895DC01A15F29
:101A7000BD4F4D915C911197240F352F311D220FD1
:101A8000331F220F331F12964D915C91A3E05595A1
:101A90004795AA95E1F7240F351FE20FF32FF11DAB
:101AA000E80FF91F609582856823DCCFDC01A15F18
:101AB000BD4F4D915C911197240F352F311D220F91
:101AC000331F220F331F12964D915C9173E0559591
:101AD00047957A95E1F7820F931F840F951FE80FC2
:101AE000F92FF11DBFCF2F923F924F925F926F92CD
:101AF0007F928F929F92AF92BF92CF92DF92EF929E
:101B0000FF920F931F93CF93DF93CDB7DEB72E973E
:101B10000FB6F894DEBF0FBECDBF9E878D87FC0148
:101B2000E25FFD4F808190E0ED85FE85EF5EFD4F29
:101B30002D853E85245F3D4F79016D30E9F52D857A
:101B40003E85215F3D4FD9011D921C9221E060E04E
:101B50004D855E85455F5D4FDA017C917723C9F144
:101B60004D855E85435F5D4FDA013C910D851E8595
:101B7000015F1D4FD8014D915C91B6E03B9F400D38
:101B8000511D1124AD85BE8517963C91341715065D
:101B900009F0FCF420813181D8011D921C92280F9C
:101BA000391F318320834D855E854D5E5D4F2081D9
:101BB0002770DA012C930FC020E06A3049F62081AB
:101BC0003181280F391F3183208321E0D7012C93E5
:101BD000BECF2111E8CF20813181820F931FED8587
:101BE000FE85268130E02F5F3F4F281739070CF420
:101BF00060E0D7018C91882349F1772339F1603275
:101C000029F5ED85FE85E15FFD4F80819181892B6E
:101C100009F03FC01C9281E090E02E960FB6F89438
:101C2000DEBF0FBECDBFDF91CF911F910F91FF900F
:101C3000EF90DF90CF90BF90AF909F908F907F906C
:101C40006F905F904F903F902F90089567FF48C02E
:101C5000ED85FE85EC5EFD4F603C98F48081813D12
:101C600029F46139D9F5608360EC13C0803D29F413
:101C70006138A1F5608365E90CC0823E21F46038CB
:101C800069F56083C8CF803849F5643939F56083D8
:101C90006DE2ED85FE85E15FFD4FFA83E9832081EA
:101CA00031814D855E85435F5D4F5C834B83DA01F7
:101CB0008C91F90146E0849FE00DF11D1124CF01C4
:101CC000F7FD07C0AD85BE8517964C9142171306E8
:101CD00054F4E981FA81918380839DCF6083D9CFC9
:101CE0006111D7CF98CFF0EEF60FF98725E0F29F7C
:101CF000C0011124AC0148595F4F1A01C12C605832
:101D00006C878D859E85865F9D4F9B878A87AD8575
:101D1000BE85AD5EBD4FBE83AD83ED85FE85EA5EBB
:101D2000FD4FF887EF83F5E060E0CF1661F029857D
:101D3000F101203638F0FC85F03108F05FC0F10188
:101D4000E551FF4F6491AA85BB858C918111609507
:101D5000EB81FC819081913009F059C0A981BA8151
:101D60008D919C9197FD35C0ED85FE8527812817C3
:101D700019067CF1AD81BE818C91EF81F8850081DF
:101D800010E020E040E0882301F1E62EF12CB701BD
:101D900001C0660F8A95EAF720E040E08D859E85B8
:101DA0000E94080DAF81B8850C9110E0ED81FE8195
:101DB000808128E030E0281B3109B70102C0759509
:101DC00067952A95E2F720E041E08D859E850E9487
:101DD000080DEB81FC818081A981BA812D913C9114
:101DE0001197820F932F911D8D939C93C394BFEFF6
:101DF0002B1A3B0AE6E0CE1296CF0DCF2985F101D2
:101E0000203A18F4E555F1099DCF35979BCF792FEE
:101E100030E020E0812C912C5401E62FF0E0872F58
:101E2000891BAF01022E02C0559547950A94E2F72F
:101E3000417055278717F1F0412C512C3201439402
:101E4000082E04C0440C551C661C771C0A94D2F75B
:101E50004115510531F084289528A628B7288F5FB1
:101E6000E9CF409450946094709484209520A620EB
:101E7000B720F5CF2F5F3F4F782F790F28303105EE
:101E800071F6E12CA981BA818D919C91EB81FC8145
:101E90002081E21608F09DCF8E0D911D97FD47C061
:101EA000AD85BE8517962C91281719060CF43FC0F6
:101EB000D12CF12CED81FE812081AB81BC818C91F4
:101EC000D816B0F5B8E0DB9EC0011124240135011D
:101ED00004C076946794579447948A95D2F7EF811B
:101EE000F885008110E0211109C02E2D4D2D642DA3
:101EF0008D859E850E94080DD394DCCF6F2D70E0F8
:101F000088E090E0821B910902C0759567958A95DB
:101F1000E2F7842D01C0880F2A95EAF7682B2E2D51
:101F20004D2D8D859E850E94080DF42CE5CFF12C5A
:101F3000AD81BE818C918823B9F0EF81F885008155
:101F400010E06F2D70E028E030E0281B310902C05E
:101F5000759567952A95E2F72E2DAB81BC814C9142
:101F60008D859E850E94080DE3948CCF682F83E7B2
:101F700094E00C94730DFF920F931F93CF93DF9314
:101F800000D0CDB7DEB7E3E1F1E010E000E08191F1
:101F9000080F111D81E0E933F807C9F746E250E068
:101FA00063E171E082E090E00E9472070F5F1F4FD3
:101FB0001A83098342E050E0BE016F5F7F4F90E0DB
:101FC00080E00E947207E9E0F1E083E191E010E037
:101FD00000E02191020F111D8E179F07D1F780910C
:101FE00014019CE0F92E8F9DC00111244AE050E0BD
:101FF00069E071E08A960E9472070F5F1F4F1A8393
:102000000983809114018F9DC001112442E050E0AA
:10201000BE016F5F7F4F88960E9472070F900F90EE
:10202000DF91CF911F910F91FF900895809123012F
:1020300090912401A0912501B09126018093B906C9
:102040009093BA06A093BB06B093BC0680E00E94B2
:10205000EA0881E00C94EA08CF93DF93809149036A
:1020600090914A0327E0289FE001299FD00D112479
:1020700085E10E948504DE01A80FB91FAA0FBB1FCE
:1020800094E0B695A7959A95E1F7B0934A03A0938B
:1020900049032091270130E00E94852D2FEF33E086
:1020A00040E050E00E94392D20935003DF91CF9102
:1020B0000895CF93DF938FE00E94850480914E03B3
:1020C00090914F03EC01CC0FDD1FC80FD91F8FE09B
:1020D0000E9485042196C80FD91FCC0FDD1FCC0F9D
:1020E000DD1F44E0D695C7954A95E1F7D0934F039D
:1020F000C0934E0380E10E94850480914C0390912F
:102100004D03EC01CC0FDD1FC80FD91F80E10E94E9
:1021100085042196C80FD91FCC0FDD1FCC0FDD1F02
:1021200074E0D695C7957A95E1F7D0934D03C093A7
:102130004C03DF91CF910895DC01ED91FD918081F9
:10214000ED91FD919081ED91FD916C9163708E23E5
:1021500009F064609F2309F06860E9EBF0E1E60FA5
:10216000F11D659565956D936D917D918D919D9115
:10217000099423C01AC012C016C010C01EC009C0E6
:1021800014C013C006C019C009C00DC007C00DC0DF
:1021900014C062507040804090400BC0615070404D
:1021A0008040904006C06E5F01C06F5F7F4F8F4FD1
:1021B0009F4F9E938E937E936E930895089590E023
:1021C00080E00895BF92CF92DF92EF92FF920F933B
:1021D0001F93CF93DF93EC01B62EC72E8D8581110F
:1021E00005C0CE010E94660581110EC01B861D86AA
:1021F0001C8680E0DF91CF911F910F91FF90EF90AF
:10220000DF90CF90BF90089540E060EFCE010E9434
:10221000130501E0E12CD12C11E0CE010E94B504A0
:10222000F82ECE010E94B50491E0F91218C0813059
:1022300099F51134D8F2DB86D11002C081E08D8788
:102240008B81882399F22396EB2DFC2DCF010896E4
:1022500029912193E817F907D9F781E0CBCF2E2DEB
:1022600030E0F8120EC08B851817A0F4FE01E20FC3
:10227000F31F8381802381F4F12C193008F41C872B
:10228000D12EFE01E20FF31F8381902F90958923B9
:1022900083830AC08113F0CFFE01EE0DF11D83810F
:1022A000802B8383FF24F3946F2DCE010E94E004E2
:1022B0001F5F000F11F4E39401E087E08E1508F032
:1022C000ACCFB7CF4F925F926F927F928F929F92D7
:1022D000AF92BF92CF92DF92EF92FF920F931F9334
:1022E000CF93DF93CDB7DEB761970FB6F894DEBF1B
:1022F0000FBECDBF0E947904C0904503D090460325
:10230000E0904703F09048036C197D098E099F09FE
:10231000693873418105910508F458C080914403E0
:10232000811154C010925304809157049091580425
:102330000E94660540E06CEC80915704909158042F
:102340000E9413054091510464E4809157049091D8
:1023500058040E94130580915304882391F1E09161
:102360005204E9500EEE12E0E33038F4F0E0EE0FE4
:10237000FF1FED5BFE4F0081118180915404882383
:1023800009F481C08091510481117DC00E947904BB
:102390004B015C012801110F6608770880915704F2
:1023A000909158040E94B504813059F00E9479043C
:1023B0006419750986099709681579058A059B05C9
:1023C00068F381E080935304809344030E9479046E
:1023D0006C197D098E099F0961347F418105910542
:1023E000D8F1809144038823B9F1E0915704F0912A
:1023F0005804138615861486128611861086178255
:102400001682158214821382BE01665F7F4F80910F
:102410005704909158040E94E21081113BC060E083
:1024200070E08EEF92EC20E030E040E05FE30E944D
:10243000952D0E94012E80912A01680F60934B0315
:102440000E94790460934503709346038093470389
:10245000909348031092440361960FB6F894DEBF40
:102460000FBECDBFDF91CF911F910F91FF90EF90E5
:10247000DF90CF90BF90AF909F908F907F906F90A4
:102480005F904F900895B801110F880B990B0E942F
:10249000460497CF67E0CE010A960E949D04998971
:1024A0008913BDCF80915704909158040E9466050E
:1024B000882309F4B4CFBE016F5F7F4FCE010A9627
:1024C0000E94A505882309F4AACF68E0CE010196F1
:1024D0000E949D0499858913A2CF6A8170E0762FAE
:1024E0006627770F770F770F298158E0259F900196
:1024F0001124262B372B8A858031D1F4688570E032
:102500008F81AB01481B5109CA019695982F8827E6
:10251000979587950E945B2CCB014097B90153E0BA
:10252000660F771F5A95E1F760789C01260F371FD9
:10253000213854EE35070CF472CFB901330F880BF4
:10254000990B0E94392E20E030E040E05CE30E94CD
:10255000C52E69CF0F931F93CF93DF938091B6035E
:10256000882359F01092EE030E94E8061092B603F9
:10257000DF91CF911F910F9108950E9479040091EE
:102580004003109141032091420330914303601BAB
:10259000710B820B930B693E73408105910520F40A
:1025A000012B022B032B21F70E9479046093400337
:1025B00070934103809342039093430388E60E9403
:1025C0007C0260E081E494E00E94B9060E9420024F
:1025D000882319F01092F503CBCF81E08093F503A7
:1025E00067E088E60E9486021092CC038093CB03BA
:1025F000873008F461C081E494E00E947906D82F06
:10260000982F92959770CAE08D2F8F709C9F800DA8
:1026100011248093EE0381E494E00E947906982FC0
:1026200092959F708F709C9F800D11248093EF0373
:1026300081E494E00E947906982F929593708F70B0
:102640009C9F800D11248093F00381E494E00E940C
:102650007906982F92959F708F709C9F800D112402
:102660008093F10381E494E00E947906982F92957B
:102670009F708F709C9F800D11248093F20381E4E2
:1026800094E00E947906982F92959F708F709C9F7E
:10269000800D11248093F30381E494E00E94790675
:1026A000982F9F70925E82958F708C9F900D112451
:1026B0009093F403D7FF5CCF1092F0031092EF03D6
:1026C0001092EE03DF91CF911F910F910C94E806C9
:1026D000CF93DF93EC018091C2060E947C028D2F84
:1026E00090E00E946D07CE0199270E946D070E941D
:1026F000200261E08091C2060E9486021092CC0303
:102700008093CB03882321F081E494E00E94790632
:10271000DF91CF910895EF92FF920F931F93CF9384
:10272000DF938B01040F151F7C012FEFE21AF20AD1
:10273000EB010E9468138993C701BE010C171D07A6
:1027400099F7DF91CF911F910F91FF90EF9008952E
:10275000DF92EF92FF920F931F93CF93DF9300D0FE
:10276000CDB7DEB71A821982809114012CE0829FC6
:10277000C001112442E050E0BE016F5F7F4F889698
:102780000E948B13F12CE12C10E000E08CE0D82E9D
:102790008091140197018D9D200D311D1124C901D7
:1027A0008A960E946813080F111D3FEFE31AF30A7F
:1027B0008AE0E816F10461F70F5F1F4F89819A8163
:1027C00008171907B1F4809114018D9DC0011124DF
:1027D0004AE050E069E071E08A960E948B130F9006
:1027E0000F90DF91CF911F910F91FF90EF90DF90AD
:1027F00008950E94BB0FF3CF2F923F924F925F92AA
:102800006F927F928F929F92AF92BF92CF92DF9200
:10281000EF92FF920F931F93CF93DF93EC0141E070
:102820006CE170E00E944B0341E068E170E0CE0192
:102830000E944B0341E06AE170E0CE0102960E94E3
:102840004B0341E06AE170E0CE0102970E944B0326
:1028500010E000E082E0C82ED12C9DE1492E512CE1
:102860002AE1222E312C78018FEFE81AF80A520162
:10287000AE18BF0847018C0E9D1E41E0B501C40192
:102880000E944B033E016E187F0841E0B501C30171
:102890000E944B03580188E1A80EB11C41E0B5012C
:1028A000C4010E944B0341E0B501C3010E944B03E8
:1028B000055E1F4F41E0B8015601AC0EBD1EC501BB
:1028C0000E944B0341E0B8018E010C191D09C8019B
:1028D0000E944B0341018E189F0841E0B401C501DD
:1028E0000E944B0341E0B401C8010E944B0382E007
:1028F000E816F10499F4DF91CF911F910F91FF90A9
:10290000EF90DF90CF90BF90AF909F908F907F908F
:102910006F905F904F903F902F90089581E0C81A7C
:10292000D10801E010E09FCFAF92BF92DF92EF920B
:10293000FF920F931F93CF93DF938C011092830626
:1029400010928206109285061092840662347105F8
:10295000C4F06234710521F0CB0162E470E013C071
:1029600021E0A80164E070E082E490E0DF91CF9183
:102970001F910F91FF90EF90DF90BF90AF900C945C
:10298000820382E490E020917A0430E04091940642
:102990004423D1F07901821793070CF47C0162176C
:1029A00073070CF49B0137FD20E0C22F8C2F90E0C1
:1029B000E816F9060CF467C021E0A80164E070E0B5
:1029C0000E948203CF5FF2CFA8014F5F5F4F542F69
:1029D000577048E0451B483009F440E053E0159536
:1029E00007955A95E1F7D02F7901821793070CF4D8
:1029F0007C01621773070CF49B0137FD20E0C22FA6
:102A00006FEF70E002C0759567954A95E2F7D62E94
:102A1000CE151F0409F0BCF510E000E02C2F40E0BB
:102A200060EF83E794E00E94080DAA24A394B12CE0
:102A3000809178048A151B044CF010E000E02C2FE4
:102A40004A2D6FEF83E794E00E94080DA5014F5FC8
:102A50005F4F81E090E0D23011F082E090E0A81664
:102A600019067CF0809178048417150644F010E074
:102A700000E02C2F6D2D83E794E00E94080DCF5FBE
:102A8000C7CF5A01D5CFDF91CF911F910F91FF9002
:102A9000EF90DF90BF90AF90089510925203609135
:102AA0000A0170910B0180910C0190910D0120EAB7
:102AB00036E841E050E00E94632D80912E0182179C
:102AC000130609F018F481E08093520380912D01E0
:102AD0008217130609F018F482E080935203809164
:102AE0002C018217130609F018F483E08093520337
:102AF00080912B018217130609F018F484E080936B
:102B000052032091520381E090E0A0E0B0E004C0C5
:102B1000880F991FAA1FBB1F2A95D2F780935303D2
:102B20002091C503222359F020913201222339F04C
:102B30002091A003211103C08062809353038091F0
:102B40003701882329F080915303806480935303D5
:102B500080913801882329F0809153038068809305
:102B600053032C982091530387E090E030E040918C
:102B7000B0004F774093B000A901082E02C05595D0
:102B800047950A94E2F740FF07C02B9A2D9A2D989B
:102B9000019768F72C9A08952B98F8CF4F925F927F
:102BA0006F927F928F929F92AF92BF92EF92FF921D
:102BB0000F931F9320910901E0901701F0901801E5
:102BC0000091190110911A0160910A0170910B0195
:102BD00080910C0190910D013091C5036E0D7F1D08
:102BE000801F911F332339F12223E1F020911F012F
:102BF000309120014091210150912201620F731FF9
:102C0000841F951F0E94D8091F910F91FF90EF908C
:102C1000BF90AF909F908F907F906F905F904F90FC
:102C20000C944D1520911B0130911C0140911D0108
:102C300050911E01E3CF8090330190903401A09019
:102C40003501B09036012223B9F040901F01509019
:102C500020016090210170902201A3019201280DB2
:102C6000391D4A1D5B1D640D751D861D971D680D60
:102C7000791D8A1D9B1DC6CF40901B0150901C01E1
:102C800060901D0170901E01E8CF8091AC038823F5
:102C9000A9F18091AB0381110CC08091510388236D
:102CA00089F1809180008F7C809380001092510385
:102CB00029C080915103811125C08091C6038111E3
:102CC00021C02091300184E1289F90011124032E1E
:102CD000000C440B550B60E472E48FE090E00E941E
:102CE000632DCA01B9010E94CA02809180008F7CC5
:102CF00080618093800081E0809351038091AB03D9
:102D0000882359F2089540917B0450917C0470E02F
:102D100060E08DE794E00E941C2D8091840687700E
:102D2000809386060895009769F0FC0101900020C9
:102D3000E9F73197AF01481B590BBC0183E794E0D9
:102D40000C94F00390E080E00895CF93DF930E940D
:102D50009316EC018DE791E00E9493168C0F9D1F56
:102D6000DF91CF9108950C9493168F929F92AF921A
:102D7000BF92CF92DF92EF92FF920F931F93CF9368
:102D8000DF93CDB7DEB7A1970FB6F894DEBF0FBEC5
:102D9000CDBF6B017C0119A2423008F44AE08E01DC
:102DA0000F5D1F4F842E912CB12CA12CC701B601B1
:102DB000A50194010E94632D6A3014F5605DF8014D
:102DC00062938F01C814D904EA04FB04B0F4CF0164
:102DD0000E949316A1960FB6F894DEBF0FBECDBF2A
:102DE000DF91CF911F910F91FF90EF90DF90CF90E7
:102DF000BF90AF909F908F90089569017A01D6CFD0
:102E0000695CDDCF682F70E090E080E04AE00C94D0
:102E1000B516CF92DF92EF92FF92CF93DF936C01C2
:102E2000092E000CEE08FF0897FF17C08DE20E94E4
:102E3000B60FEC0166277727CB016C197D098E0947
:102E40009F094AE00E94B5168C0F9D1FDF91CF911C
:102E5000FF90EF90DF90CF9008954AE0C701B60150
:102E6000DF91CF91FF90EF90DF90CF900C94B5164B
:102E7000CF93DF934AE00E94B516EC018DE791E015
:102E80000E9493168C0F9D1FDF91CF910895CF93D1
:102E9000DF930E940217EC018DE791E00E949316E8
:102EA0008C0F9D1FDF91CF910895CF93DF930E94E8
:102EB0000917EC018DE791E00E9493168C0F9D1F7E
:102EC000DF91CF910895CF92DF92EF92FF92CF934F
:102ED0000E94831610928306109282061092850635
:102EE000109284061092860683E08093800688E123
:102EF00080938106C091C603CC2309F41FC18FEFD4
:102F00000E94F90CCB3109F45EC508F080C0C730CF
:102F100009F4B0C488F5C33009F436C468F4C1308C
:102F200009F4FFC2C23009F40CC4CF91FF90EF90B6
:102F3000DF90CF900C94D90CC53009F47BC408F411
:102F400042C480913701882309F491C484EF91E051
:102F50000E94A51681E08093800688E08093810618
:102F6000809184068770809386068091C6030E94B4
:102F7000021789EE91E021C4C73109F4CEC440F5AF
:102F8000C53109F494C408F0B2C4C43171F680911B
:102F90000E0124E6829FC00111240E94551781E092
:102FA0008093800688E080938106809184068770F4
:102FB000809386068091C6030E94021787E092E004
:102FC0000E94B31680EF0E94B60F83E192E0D9C34E
:102FD000C93109F4DEC408F4BEC4809130012AE08E
:102FE000829FC00111240E94551781E080938006C2
:102FF00088E080938106809184068770809386069E
:103000008091C6030E9402178DE492E0BAC3C936CC
:1030100009F497C508F051C0C53609F40AC508F58A
:10302000CC3109F4E6C4C43609F07FCF8091160193
:10303000882309F4FBC489E692E00E94A51681E08A
:103040008093800688E08093810680918406877053
:10305000809386068091C6030E9402178EE792E055
:10306000ACC3C73609F43FC508F41BC582E08093A2
:10307000800680E18093810680918406877080932A
:10308000860660911B0170911C0180911D01909139
:103090001E010E94381781E08093800688E08093AB
:1030A0008106809184068770809386068091C6038E
:1030B0000E94021781EB92E03CC5CD3609F4ABC506
:1030C000F8F4CB3609F48BC508F462C580912D0164
:1030D00024E6829FC00111240E94551781E080934D
:1030E000800688E0809381068091840687708093B3
:1030F00086068091C6030E94021783ED92E088C580
:10310000CF3609F4BCC508F4A0C5C03709F00DCF0F
:103110008091B4030E94471781E08093800688E085
:1031200080938106809184068770809386068091C3
:10313000C6030E9402178FEF92E023C380910A0119
:1031400090910B01A0910C01B0910D01803896492E
:10315000A849B10520F481ED92E00E94B316609178
:103160000A0170910B0180910C0190910D01F0E426
:10317000CF2EF2E4DF2EFFE0EF2EF12CA701960117
:103180000E94632DCA01B9014AE00E94B51689E286
:1031900090E09093830680938206109285061092A9
:1031A00084061092860660910A0170910B0180914D
:1031B0000C0190910D01A70196010E94632D603AC8
:1031C00076488140910520F48CE093E00E94B3168C
:1031D00060910A0170910B0180910C0190910D0199
:1031E00020E432E44FE050E00E94632D60317742EA
:1031F0008105910520F48CE093E00E94B316609164
:103200000A0170910B0180910C0190910D0120E455
:1032100032E44FE050E00E94632DE8EECE2EE3E072
:10322000DE2EE12CF12CA70196010E94632DCA012C
:10323000B9014AE00E94B51682E08093800680E1E1
:103240008093810684E690E09093830680938206C3
:1032500087E090E0909385068093840680938606AD
:1032600060910A0170910B0180910C0190910D0108
:10327000A70196010E94632D6436710581059105B1
:1032800020F48CE093E00E94B31660910A017091E3
:103290000B0180910C0190910D0128EE33E040E08C
:1032A00050E00E94632D2AE030E040E050E00E94B0
:1032B000632DCA01B9014AE00E94B51681E08093EE
:1032C000800688E080938106109283061092820621
:1032D00088E190E09093850680938406109286069C
:1032E00080915003843620F481ED92E00E94B31661
:1032F00080915003CAE06C2F0E944F2C90E00E94F6
:1033000009178DE393E00E94B316809150036C2F50
:103310000E944F2C892F90E00E94091781ED92E0C6
:103320000E94B3168091C503882309F480C0809160
:103330003201882309F478C080E891E00E94B31636
:1033400040914E0350914F03E0914C03F0914D0397
:103350004E175F0771F19A012E0F3F1FA4E6B0E0F0
:103360000E94852D4E1B5F0B9A0150E040E00E94A9
:10337000392D7901283E334024F481ED92E00E94FA
:10338000B316C70164E670E00E945B2C7C01CB01A0
:103390000E9409178DE393E00E94B3162AE0E2161B
:1033A000F10424F48CE093E00E94B316C7010E945C
:1033B000091760914E0370914F0390E080E06150D7
:1033C00071098109910937E0660F771F881F991FDE
:1033D0003A95D1F74EEFC42E43E0D42EE12CF12CD8
:1033E000A70196010E94392DB90187E190E00E9462
:1033F000941460914C0370914D0390E080E0615013
:1034000071098109910957E0660F771F881F991F7D
:103410005A95D1F7A70196010E94392DB9018CE187
:1034200090E00E94941481CD80E991E087CF809153
:103430004B0392E3980F953608F064C087FD04C0F3
:1034400081ED92E00E94B31680914B03082E000C90
:10345000990B0E94091784E390E00E94FC1388E313
:1034600090E0909383068093820688E190E09093A9
:103470008506809384061092860682E891E00E9479
:10348000B3168091BC03882309F43FC081ED92E01C
:103490000E94B3168FEF0E94F90C8091F0038A30DE
:1034A00020F481ED92E00E94B3168091F0030E9417
:1034B00002178091EE0380FF2EC08AE891E00E94FF
:1034C000B3168091EF038A3020F48CE093E00E94E1
:1034D000B3168091EF030E9402178091090188239F
:1034E000E9F08CE891E00E94B316809114018A30D3
:1034F00020F481ED92E00E94B316809114010E94A5
:10350000021713CD84E891E0BACF8DE393E00E94D7
:10351000B31688E0C0CF81ED92E0D1CF8FE891E083
:10352000E2CF809114018A3020F481ED92E00E9474
:10353000B316809114010E94021782E080938006E6
:1035400080E18093810689E290E0909383068093E6
:10355000820687E090E090938506809384068093AE
:10356000860680910A0190910B01A0910C01B09107
:103570000D0180389649A849B10520F481ED92E00B
:103580000E94B31660910A0170910B0180910C01A9
:1035900090910D0120E4C22E22E4D22E2FE0E22EE3
:1035A000F12CA70196010E94632DCA01B9014AE0DE
:1035B0000E94B51684E490E090938306809382067F
:1035C00087E090E09093850680938406809386063A
:1035D00060910A0170910B0180910C0190910D0195
:1035E000A70196010E94632D603A764881409105BB
:1035F00020F48CE093E00E94B31660910A01709170
:103600000B0180910C0190910D0120E432E44FE018
:1036100050E00E94632D603177428105910520F4CE
:103620008CE093E00E94B31660910A0170910B0147
:1036300080910C0190910D0120E432E44FE050E0C4
:103640000E94632D28EE33E040E050E00E94632D9D
:10365000CA01B9014AE00E94B51681E08093800654
:1036600088E0809381068CE690E0909383068093B7
:10367000820610928506109284061092860680912A
:103680000901882309F45AC082E991E00E94B31627
:103690008CE690E090938306809382068EE090E023
:1036A000909385068093840686E0809386066091D9
:1036B0000A0170910B0180910C0190910D0128EE8F
:1036C00033E040E050E00E94632D643671058105CF
:1036D000910520F48CE093E00E94B31660910A01FA
:1036E00070910B0180910C0190910D0128EE33E057
:1036F00040E050E00E94632D2AE030E040E050E0DE
:103700000E94632DCA01B9014AE00E94B5161092C9
:1037100083061092820688E190E09093850680935C
:103720008406109286068091C6030E9402178AE9D9
:1037300091E00E94B31680911501E1CE86E991E0F7
:10374000A5CFE0911301F0E0EE0FFF1FE75BFE4F06
:1037500020813181AAE0B0E00E94852D0E943817B7
:1037600081E08093800688E08093810680918406C2
:103770008770809386068091C6030E9402178BEAA9
:1037800091E00E94B316D1CB809109018823C1F04A
:1037900082E991E00E94A51681E08093800688E08E
:1037A000809381068091840687708093860680913D
:1037B000C6030E94021785EB91E00E94A516B5CBC7
:1037C00086E991E0E7CFC0903301D0903401E090DA
:1037D0003501F09036014AE0C701B601F7FE0BC093
:1037E0008DE20E94B60F66277727CB016C197D0901
:1037F0008E099F094AE00E94B5168DE791E00E946C
:10380000931681E08093800688E080938106809102
:1038100084068770809386068091C6030E940217F3
:1038200086EC91E00E94B31680EF0E94B60F87E508
:1038300092E0C3CF809132018823B1F084ED91E012
:103840000E94A51681E08093800688E0809381061F
:10385000809184068770809386068091C6030E94BB
:1038600002178BED91E0A9CF87ED91E0E9CF86EECD
:1038700091E06ECB809138018823B1F086EE91E023
:103880000E94A51681E08093800688E080938106DF
:10389000809184068770809386068091C6030E947B
:1038A000021788EF91E089CF84EF91E0E9CF209172
:1038B0000F01309110014091110150911201A4E6C5
:1038C000B0E00E94582D0E94381781E08093800656
:1038D00088E08093810680918406877080938606B5
:1038E0008091C6030E94021787E192E069CB809124
:1038F00015010E94471781E08093800688E080933D
:103900008106809184068770809386068091C60325
:103910000E94021783E292E034CF8091F0038A3054
:1039200020F48CE093E00E94B3168091F0030E9493
:10393000471781E08093800688E08093810680911C
:1039400084068770809386068091C6030E940217C2
:1039500080E392E016CF8091EF038A3020F48CE070
:1039600093E00E94B3168091EF030E94471781E015
:103970008093800688E0809381068091840687701A
:10398000809386068091C6030E94021787E392E027
:10399000F8CE80912F012AE0829FC00111240E945D
:1039A000551781E08093800688E08093810680919E
:1039B00084068770809386068091C6030E94021752
:1039C0008DE392E0DECE809129010E94471781E0CD
:1039D0008093800688E080938106809184068770BA
:1039E000809386068091C6030E9402178AE592E0C2
:1039F000C8CE809128018823B1F089E692E00E9428
:103A0000A51681E08093800688E0809381068091EE
:103A100084068770809386068091C6030E940217F1
:103A200080E792E0CACE8DE692E0E9CF8DE692E0A3
:103A300004CB809127010E94471781E08093800684
:103A400088E0809381068091840687708093860643
:103A50008091C6030E9402178DE892E00E94B3167F
:103A600080915003843620F48CE093E00E94B316DA
:103A700080915003CAE06C2F0E944F2C90E00E946E
:103A800009178DE393E00E94B316809150036C2FC9
:103A90000E944F2C892F90E00E94091785E992E03F
:103AA00070CE80912A01082E000C990B0E945517A8
:103AB00081E08093800688E080938106809184066F
:103AC0008770809386068091C6030E94021787E95B
:103AD00092E00E94B31680EF0E94B60F80E590E05E
:103AE0000E94FC1322CA82E08093800680E18093CA
:103AF00081068091840687708093860660912301F9
:103B00007091240180912501909126010E9438171F
:103B100081E08093800688E080938106809184060E
:103B20008770809386068091C6030E94021785EAFB
:103B300092E00E94B31680EF0E94B60F87E592E0F4
:103B400020CE82E08093800680E180938106809180
:103B5000840687708093860660911F017091200112
:103B600080912101909122010E94381781E0809379
:103B7000800688E080938106809184068770809318
:103B800086068091C6030E9402178AEB92E0D1CF8D
:103B900082E08093800680E1809381068091840694
:103BA000877080938606609117017091180180914B
:103BB000190190911A010E94381781E080938006C4
:103BC00088E08093810680918406877080938606C2
:103BD0008091C6030E94021783EC92E0AACF8091E5
:103BE0002E0124E6829FC00111240E94551781E016
:103BF0008093800688E08093810680918406877098
:103C0000809386068091C6030E94021789EC92E099
:103C10000E94B316DAC980912C0124E6829FC0016C
:103C200011240E94551781E08093800688E08093DC
:103C30008106809184068770809386068091C603F2
:103C40000E9402178DED92E0E3CF80912B0124E6D4
:103C5000829FC00111240E94551781E08093800645
:103C600088E0809381068091840687708093860621
:103C70008091C6030E94021787EE92E0C9CF80911F
:103C8000B5030E94471781E08093800688E0809307
:103C90008106809184068770809386068091C60392
:103CA0000E94021781EF92E06CCD1F921FB61F9207
:103CB00011248F939F93AF93BF938091980390911A
:103CC0009903A0919A03B0919B030196A11DB11D88
:103CD0008093980390939903A0939A03B0939B03C6
:103CE0008091970393E0980F9D37E8F490939703A2
:103CF00080919C0390919D03A0919E03B0919F039E
:103D00000196A11DB11D80939C0390939D03A093E8
:103D10009E03B0939F03BF91AF919F918F911F908E
:103D20001FBE1F9018958A57809397038091980320
:103D300090919903A0919A03B0919B030196A11DC4
:103D4000B11D8093980390939903A0939A03B09325
:103D50009B03CECF1F920F920FB60F9211242F9379
:103D60003F934F935F936F937F938F939F93AF9303
:103D7000BF93EF93FF938091B900887F803609F459
:103D80004AC0F0F5883209F4A7C018F5803109F46B
:103D90009BC0B8F4882309F4F9C0883009F494C0B2
:103DA000FF91EF91BF91AF919F918F917F916F9113
:103DB0005F914F913F912F910F900FBE0F901F90E9
:103DC0001895883109F488C0803251F780931A041D
:103DD00014C0803409F49DC040F48033B9F38833B3
:103DE000F9F680931A0485ECB0C0803509F485C0DB
:103DF000883509F496C0883499F60E943806D0CFE9
:103E0000883909F48CC038F5883729F050F48836A1
:103E100011F0803729F683E080931C0410929603FA
:103E200057C0883809F47BC0803919F0803809F010
:103E3000B7CF80919603803208F071C0E09196036D
:103E400081E08E0F809396038091BB00F0E0EA58EA
:103E5000FC4F80833DC0803B39F0E0F4803A09F4A8
:103E600079C0883A09F09CCF84E080931C041092BA
:103E7000750310927403E091C903F091CA03099588
:103E80008091740381110FC081E0809374031092BC
:103E9000540309C0803C09F4A6CF883C09F4A3CFA1
:103EA000883B09F07DCFE091750381E08E0F809310
:103EB0007503F0E0EC5AFC4F80818093BB00909139
:103EC00075038091740329C08091F7038093BB0030
:103ED00085EC8093BC0064CF909119048091180404
:103EE000981758F5E091190481E08E0F809319041A
:103EF000F0E0E850FC4F8081E9CFE091190481E0C7
:103F00008E0F809319048091BB00F0E0E850FC4FC5
:103F1000808390911904809118049817C8F285E85D
:103F2000D8CFE091190481E08E0F8093190480911D
:103F3000BB00F0E0E850FC4F808380911B048111AE
:103F40005CCF81E08093F60384EA8093BC001092FA
:103F50001C0426CF85EC8093BC0010921C04809139
:103F60009603803230F4E0919603F0E0EA58FC4F7B
:103F700010826091960370E0E091C703F091C8034E
:103F800086E793E00995109296030ACF10921A04DF
:103F900034CF1F920F920FB60F9211242F933F939D
:103FA0004F935F936F937F938F939F93AF93BF9341
:103FB000EF93FF9380914F04909150040E949C10C6
:103FC000FF91EF91BF91AF919F918F917F916F91F1
:103FD0005F914F913F912F910F900FBE0F901F90C7
:103FE00018951F920F920FB60F9211242F933F93A3
:103FF0004F935F936F937F938F939F93AF93BF93F1
:10400000EF93FF9380914D0490914E040E949C1079
:10401000FF91EF91BF91AF919F918F917F916F91A0
:104020005F914F913F912F910F900FBE0F901F9076
:1040300018950E94C403109244041092430488EE21
:1040400093E0A0E0B0E08093450490934604A093F1
:104050004704B093480483E691E090934204809330
:10406000410480E58093C2061092A2061092A10638
:104070001092A4061092A3061092A6061092A5060E
:104080001092A7061092A8061092A90680914001EE
:1040900090914101A09142018093AA069093AB06B2
:1040A000A093AC061092AD061092AE061092AF0629
:1040B0001092B0061092B1061092B2061092B3069A
:1040C0001092B4061092B5061092B6061092B7067A
:1040D0001092B80680E89FEDA7E1B0E18093B906A1
:1040E0009093BA06A093BB06B093BC0652985A9A16
:1040F00053985B9AE7EDF3E0E491F0E0EE0FFF1FD9
:10410000E553FC4F85919491909396068093950684
:10411000E9EBF3E0E491E0939906E8EDF3E0E49154
:10412000F0E0EE0FFF1FE553FC4F859194919093C3
:10413000980680939706EAEBF3E0E491E0939A0601
:1041400010929C0610929D0610929E0610929F0659
:1041500080ED97E00E941904E0919506F091960693
:10416000908180919906982381E009F480E0E091A4
:104170009706F0919806908120919A06922309F073
:10418000826025E936E080939B0630934E042093AD
:104190004D04809169008C7F816080936900E89A6A
:1041A00091E09093A0063093500420934F048091A7
:1041B0006900837F846080936900E99A82E080933C
:1041C000A006109276041092750425E731E0309332
:1041D0007404209373042CE32093770423E020934A
:1041E00078042FE1209379042FE720937A0420E0CC
:1041F00032E030937C0420937B0410927D06109271
:104200007E0610927F069093800628E02093810618
:1042100010928306109282061092850610928406F0
:104220001092860610928806809389061092940652
:1042300038984698E5ECF3E0E491E0936504E3EE0A
:10424000F3E0E491F0E0EE0FFF1FE553FC4F259102
:104250003491309367042093660410927004109296
:1042600072041092710410926F0410926E041092F6
:104270006D0410926C0410926B0410926A041092F8
:1042800069041092680425E634E0309358042093C2
:10429000570410925504109256041092510489E06C
:1042A00080935204909353049093540410926404A6
:1042B000109263040895CDB7DEB760970FB6F894F7
:1042C000DEBF0FBECDBFF89482E880937A0083E012
:1042D00084BD85BD90916E00916090936E0091E0D9
:1042E000909380002BE0209381009093B00094E0A5
:1042F0009093B1001092C100789456985E98219ADC
:10430000209A94B59F7794BD5E98909180009F7796
:10431000909380002998289855985D9857985F98B1
:1043200094B59F7D94BD5D985F9854985C9839983A
:1043300047983A9898B198B9229A249A259A239A3C
:104340002C982D989091B0009F779093B0002B9867
:104350005C9A809300010E94C4030E94830C08EAC7
:1043600013E0F80184910E94960C0F5F1F4FF3E059
:10437000073B1F07B1F788E896E00E948A0C0E946D
:10438000830C8AED0E94960C82E00E94960C88EACB
:104390000E94960C8FE10E94960C88E896E00E949D
:1043A0008A0C109283061092820610928506109253
:1043B0008406109286066091780470E080917A04F9
:1043C00090E00E94AB0C0E9483160E94D90CE091F1
:1043D0005704F091580413861586148612861186A8
:1043E0001086178216821582148213821092550449
:1043F0001092560411E0BE016F5F7F4F8091570409
:10440000909158040E94E210882309F45FC067E08D
:10441000CE0101960E949D0498858913ECCF80916E
:104420005104811128C080915704909158040E9432
:104430006605BE016F5F7F4F8091570490915804CD
:104440000E94470540E064EB809157049091580426
:104450000E94130580915704909158040E94B5045E
:10446000082F80915704909158040E94660501110D
:1044700002C01093510400915204CE0101960E9493
:10448000F1058017C0F4809152048093520480910A
:1044900055048F5F809355048981883231F080F410
:1044A000803119F0823209F0A6CF809156048F5FD7
:1044B00080935604A0CFCE0101960E94F105E5CF6E
:1044C0008B3399F3823409F096CFEFCF1A82198299
:1044D00042E050E0BE016F5F7F4F90E080E00E94BD
:1044E0008B1302E0E02EF12C10E000E0C7010E94E7
:1044F0006813080F111D2FEFE21AF20A38E2E316D3
:10450000F104A1F70F5F1F4F89819A8108171907DE
:1045100009F0CFC046E250E063E171E082E090E054
:104520000E948B130E94A813809129018093390166
:104530001092AA061092AB061092AC0660E880E1D9
:104540000E94C30860E881E10E94C30860E882E13C
:104550000E94C30880E096E4A3ECB3E280933C01A0
:1045600090933D01A0933E01B0933F0162ED87EB34
:104570000E94C3080E9416100E94CE150E942C10A3
:104580000E9459100E9462110E94AA124C9903C005
:1045900084E68093C6030E948316109283061092CD
:1045A000820610928506109284061092860683E099
:1045B0008093800688E1809381068091C6038436CB
:1045C00009F07AC08EE093E00E94A5160E94D90CF3
:1045D0004C9BFECF68EE73E080E090E00E944604C2
:1045E0000E94631718EE212E13E0312E04E610E02E
:1045F0008091AC0381113EC04E9974C08091A60396
:104600008F5F8093A6038091A6038B3098F18AE098
:104610008093A6038091A503811103C081E080935C
:10462000A5038091AE03811133C0FF24F394F0926F
:10463000AE030E94CE15F092AF038091C603815065
:10464000833030F51092C60364E670E080E090E0BD
:104650000E94460468EE73E080E090E00E94CA0287
:10466000809180008F7C806180938000F092A00315
:104670000E944D158091AE0381110AC04D9976C0FC
:104680008091AD038F5F8B3008F0B4C08093AD0391
:104690008091C503882309F4CAC08091AF038111BA
:1046A000D5C0809180008F77809380002998289AC8
:1046B000CDC00E94BB0F36CF81E091E00E94A516CD
:1046C00081E08093800688E0809381068091840653
:1046D00087708093860684E193E00E94A5160E946D
:1046E000D90C78CF8091AE031092A603882311F2E3
:1046F0008091A503882361F00E9479046093A1034F
:104700007093A2038093A3039093A4031092A50334
:104710000E947904C090A103D090A203E090A3036B
:10472000F090A4036C197D098E099F09623371050D
:104730008105910508F49ECF1092AE038091A003ED
:10474000882379F0809180008F7C8093800064E6DC
:1047500070E080E090E00E9446041092A0030E9466
:104760004D150E94CE151092AF034DCF1092AD03A0
:104770008091AC03882309F48BCF8091AB0388230D
:1047800081F00E9479046093A7037093A80380933B
:10479000A9039093AA031092AB030E94CE150E9426
:1047A00045160E947904C090A703D090A803E0901A
:1047B000A903F090AA03AB01BC014C195D096E0975
:1047C0007F0980912F012AE0829FC0011124092EC8
:1047D000000CAA0BBB0B481759076A077B0708F4A4
:1047E00057CF1092AC031092AF030E94CE150E94D7
:1047F00045164ECF8AE08093AD038091AB038111C3
:1048000007C081E08093AB030E94CE150E9445163D
:104810008091AC0381113CCF8091AB03882309F4D4
:1048200037CF81E08093AC038093AF03DECF8091DC
:10483000AF03882359F02898809180008F77809368
:104840008000299A8091C503811127CF80910801AA
:104850004C99F0C7882361F0109208010E947904F6
:104860006093B0037093B1038093B2039093B3034A
:104870008091A006823008F040C1F89485E996E066
:104880000E949C1060919C0670919D0680919E06EE
:1048900090919F0678942091390130E050E040E0FB
:1048A0000E94392D69017A0190912801992341F0E4
:1048B000F094E094D094C094C11CD11CE11CF11C74
:1048C0008090B8039090B903A090BA03B090BB0356
:1048D0008C149D04AE04BF0409F444C04C9B42C038
:1048E0008091C6032FEF280F283018F421E0209381
:1048F000B7038A3109F49AC408F03CC1863009F440
:104900009BC308F00AC1823009F41CC308F0F7C049
:10491000882309F42BC2813009F4F3C20E94790480
:104920006093BD037093BE038093BF039093C00355
:1049300080911601811103C091E09093BC03909186
:10494000C603992329F0882319F081E08093BC03E2
:104950000E946317C092B803D092B903E092BA03E1
:10496000F092BB038091C503339B5EC7811109C0E0
:1049700081E08093C5030E944D150E94CE150E94D0
:1049800063170E942C108091C60381115BC0809137
:10499000C503882309F443C710933B0100933A01F0
:1049A0000E947904C090C103D090C203E090C30379
:1049B000F090C403AB01BC014C195D096E097F097D
:1049C00080913A0190913B01B0E0A0E084179507F7
:1049D000A607B707B8F50E947904C090BD03D09030
:1049E000BE03E090BF03F090C0036C197D098E09EF
:1049F0009F09613177428105910590F08091BC0358
:104A0000882371F00E9479046093BD037093BE0304
:104A10008093BF039093C0031092BC030E94BB0F0E
:104A20000E9459100E9462110E94AA120E946317EC
:104A30000E9479046093C1037093C2038093C303FF
:104A40009093C40380E090E0892B09F4D1CD0E94BB
:104A50000000C8CD84E18093C60334C06556710957
:104A600081099109633873408105910558F580915A
:104A7000C6039FEF980F983040F59091B7039923A4
:104A800021F11092B7031092C60390911501911174
:104A900009C08091C603813011F0843619F48F5F0C
:104AA0008093C60380911601882361F0992351F009
:104AB0008091C6038731D0F4843108F0DEC682507D
:104AC0008230C0F00E946317D3CE91E0980F9830E7
:104AD000D1F28C51873420F484E18093C603D5CF82
:104AE0009093C603913788F284E6F7CF8B518230DA
:104AF00048F7C3C61092C603E5CFF894C3CE8430FE
:104B000009F446C208F43DC28091320191E0892740
:104B1000809332010E944D1501CF863109F418C3EC
:104B200078F4843109F48FC208F0BCC2873009F0F0
:104B3000F5CE8091380191E0892780933801EACF42
:104B4000883109F44BC308F429C380912F018C14D8
:104B50009D04AE04BF040CF05EC38F3F19F08F5F5D
:104B600080932F0180912F018A3008F48AE080938E
:104B70002F01D4CE893609F472C408F069C0853695
:104B800009F49FC378F48C3109F48AC308F46BC329
:104B9000843609F0C3CE8091160191E08927809375
:104BA0001601BCCE873609F4CDC308F4ABC380919F
:104BB0001B0190911C01A0911D01B0911E018C144C
:104BC0009D04AE04BF040CF02EC4813EF6E39F07A3
:104BD000FFECAF07B105A8F4E0911301F0E0EE0F90
:104BE000FF1FE75BFE4F20813181820F931FA11DC4
:104BF000B11D80931B0190931C01A0931D01B093E4
:104C00001E0180911B0190911C01A0911D01B0918A
:104C10001E01813E36E393073FECA307B10520F068
:104C200080EE96E3AFECB0E0803A4AE994074EECB0
:104C3000A407B10520F480EA9AE9AEECB0E08093D5
:104C40001B0190931C01A0931D01B0931E0128C16C
:104C50008D3609F416C500F58B3609F4DAC408F46C
:104C600069C480912D0190912E018C149D04AE0495
:104C7000BF040CF0F4C420912C01821718F48F5F4C
:104C800080932D0180912D01981708F4F3C481E0E1
:104C9000890F80932D013ECF8F3609F43EC508F46D
:104CA00018C5803709F03ACE8091B4038C149D0466
:104CB000AE04BF040CF0A8C58A3018F48F5F80934F
:104CC000B4038091B4038A3009F028CE0E94831681
:104CD0001092830610928206109285061092840626
:104CE0001092860682E08093800680E180938106A0
:104CF00084E393E00E94B3160E94D90C23E1A22E14
:104D000021E0B22E912C812CC4010E94232DD501CB
:104D10008D935D01BFEF8B1A9B0AE6E28E1691041C
:104D200099F789E0A82E81E0B82E97E2892E912C80
:104D3000C4010E94232DD5018D935D01BFEF8B1A15
:104D40009B0AE1E38E16910499F70E94BB0F80E362
:104D500093E00E94B3160E94D90C68EE73E080E0E5
:104D600090E00E9446040C940000D8CD809116017A
:104D70008111D4CD40900A0150900B0160900C013C
:104D800070900D0120910F0130911001409111019F
:104D90005091120160EA76E881E090E00E943F2C99
:104DA00069877A878B879C87A0910E01B0E020EA03
:104DB00036E841E050E00E94582D6D877E878F874E
:104DC000988B8C149D04AE04BF040CF06CC08985D4
:104DD0009A85AB85BC8584159505A605B70550F168
:104DE000E0911301F0E0EE0FFF1FE75BFE4F208123
:104DF0003181AAE0B0E00E94852D4B015C01C30126
:104E0000B201A50194010E94632D480C591C6A1C33
:104E10007B1C611571058105910521F0461A570A21
:104E2000680A790A40920A0150920B0160920C01C3
:104E300070920D0180910A0190910B01A0910C01DB
:104E4000B0910D012D853E854F85588982179307B6
:104E5000A407B50760F48D859E85AF85B8898093DA
:104E60000A0190930B01A0930C01B0930D01809166
:104E70000A0190910B01A0910C01B0910D012985BF
:104E80003A854B855C85281739074A075B0740F44C
:104E900020930A0130930B0140930C0150930D01B4
:104EA0000E94CE153BCDC814D904EA04FB0414F6C5
:104EB0002D853E854F855889421653066406750632
:104EC00050F2E0911301F0E0EE0FFF1FE75BFE4FA1
:104ED00020813181AAE0B0E00E94852D4B015C0168
:104EE000C301B201A50194010E94632D61157105F2
:104EF0008105910509F092CF481859086A087B0886
:104F000091CF80911401909115018C149D04AE04F1
:104F1000BF047CF4891718F48F5F8093140180918B
:104F20001401981708F4892F809314010E94A81384
:104F3000B7CFC814D904EA04FB048CF7882379F3AB
:104F40008150EBCF809113018C149D04AE04BF04FB
:104F500034F4863078F48F5F80931301DFCCC8146B
:104F6000D904EA04FB0434F4882309F4D7CC815033
:104F70008093130180911301873008F4CFCC86E031
:104F8000EBCF8091090191E089278093090188CFB7
:104F90008091330190913401A0913501B091360197
:104FA0008C149D04AE04BF04BCF5893B3BE0930721
:104FB000A105B1055CF4C296A11DB11D809333011A
:104FC00090933401A0933501B09336018091330161
:104FD00090913401A0913501B0913601893B5BE09D
:104FE0009507A105B10524F088EB9BE0A0E0B0E0B7
:104FF0008834E4EF9E07EFEFAE07BE0724F488E4A1
:1050000094EFAFEFBFEF8093330190933401A093FF
:105010003501B093360144CFC814D904EA04FB0427
:10502000ACF6883444EF94074FEFA407B40774F24A
:10503000C297A109B109C2CF8091370191E08927B8
:105040008093370167CD80910E018C149D04AE04CE
:10505000BF04FCF48F5F80930E0140910E018FE03E
:105060004F30A0F080910F0190911001A09111019B
:10507000B091120150E070E060E00197A109B10920
:10508000481759076A077B0708F4CA0180930E0185
:1050900045CCC814D904EA04FB04FCF68F30E8F2CE
:1050A0008150D9CF80910F0190911001A0911101F1
:1050B000B09112018C149D04AE04BF04DCF58D3256
:1050C000F1E09F07A105B10558F40196A11DB11D9E
:1050D00080930F0190931001A0931101B0931201DE
:1050E00040910F01509110016091110170911201D6
:1050F00080910E0190E00196092E000CAA0BBB0BCB
:10510000481759076A077B0760F0DB01CA018D3237
:1051100021E09207A105B10520F08CE291E0A0E02A
:10512000B0E080930F0190931001A0931101B09310
:105130001201F4CBC814D904EA04FB048CF68F30B6
:105140009105A105B10560F20197A109B109C0CF90
:10515000809115018C149D04AE04BF047CF48E3143
:10516000B8F48F5F8093150180911501909114011F
:10517000891708F0D3CB80931401D0CBC814D9047D
:10518000EA04FB042CF4882379F381508093150101
:10519000809115018F3140F38EE1E4CF8091F003CF
:1051A0008C149D04AE04BF0484F4883138F48F5FFE
:1051B0008093F0038091F003883118F087E18093A9
:1051C000F00381E08093B603A9CBC814D904EA04A4
:1051D000FB0484F78823A9F38150EACF8091EF0381
:1051E0008C149D04AE04BF046CF48C3338F48F5FD0
:1051F0008093EF038091EF038C3318F38BE380935C
:10520000EF03DFCFC814D904EA04FB049CF788231A
:10521000C1F28150EDCFC814D904EA04FB040CF0AC
:10522000A1CC823008F49ECC81509ACC8091300180
:105230008C149D04AE04BF046CF48F3F19F08F5F93
:1052400080933001809130018A3008F48AE08093A5
:10525000300164CBC814D904EA04FB049CF7823003
:1052600088F38150EDCF809129018C149D04AE0408
:10527000BF046CF48F3F19F08F5F809329018091F8
:105280002901811101C081E08093290147CBC81415
:10529000D904EA04FB049CF7823088F38150EDCFF7
:1052A000992359F010922801F094E094D094C0947E
:1052B000C11CD11CE11CF11C31CB81E08093280181
:1052C000F3CF809127018C149D04AE04BF046CF4CD
:1052D0008F3F19F08F5F80932701809127018436DB
:1052E00068F08F3F61F48EEF0AC0C814D904EA0455
:1052F000FB049CF7843688F38150EDCF84E68093DD
:1053000027010CCB80912A018C149D04AE04BF04AC
:1053100084F48F311CF48F5F80932A0180912A01DD
:105320008F310CF08EE1823E0CF482EE80932A01E4
:10533000F5CAC814D904EA04FB0484F7823E74F366
:105340008150EACF8091230190912401A091250101
:10535000B09126018C149D04AE04BF040CF048C02B
:10536000813C3EE0930736E1A30732E0B307A8F49F
:10537000E0911301F0E0EE0FFF1FE75BFE4F20818D
:105380003181820F931FA11DB11D80932301909342
:105390002401A0932501B0932601809123019091CF
:1053A0002401A0912501B0912601813C5EE0950782
:1053B00056E1A50752E0B50720F080EC9EE0A6E19B
:1053C000B2E08038E1EB9E07EFE4AE07E1E0BE0714
:1053D00020F480E891EBAFE4B1E080932301909357
:1053E0002401A0932501B09326010E94161058CDE8
:1053F000C814D904EA04FB0484F6803841EB94070E
:105400004FE4A40741E0B40740F2E0911301F0E05B
:10541000EE0FFF1FE75BFE4F20813181821B930B54
:10542000A109B109B2CFC814D904EA04FB040CF0F5
:10543000E8CB803A2AE992072EECA207B10508F4DE
:10544000E0CBE0911301F0E0EE0FFF1FE75BFE4FB2
:1054500020813181821B930BA109B109CACB8091B4
:105460001F0190912001A0912101B09122018C1483
:105470009D04AE04BF040CF043C0813E56E3950783
:105480005FECA507B105A8F4E0911301F0E0EE0F81
:10549000FF1FE75BFE4F20813181820F931FA11D0B
:1054A000B11D80931F0190932001A0932101B0931F
:1054B000220180911F0190912001A0912101B091C2
:1054C0002201813EF6E39F07FFECAF07B10520F014
:1054D00080EE96E3AFECB0E0803A2AE992072EEC3A
:1054E000A207B10520F480EA9AE9AEECB0E080931F
:1054F0001F0190932001A0932101B0932201D0CCF1
:10550000C814D904EA04FB04A4F6803AEAE99E0729
:10551000EEECAE07B10568F2E0911301F0E0EE0F9A
:10552000FF1FE75BFE4F20813181821B930BA10996
:10553000B109B7CF8091170190911801A09119017D
:10554000B0911A018C149D04AE04BF040CF046C047
:10555000813034EB930734ECA30734E0B307A8F4AD
:10556000E0911301F0E0EE0FFF1FE75BFE4F20819B
:105570003181820F931FA11DB11D8093170190935C
:105580001801A0931901B0931A018091170190910D
:105590001801A0911901B0911A01813054EB9507BF
:1055A00054ECA50754E0B50720F080E094EBA4ECA0
:1055B000B4E08038E3EC9E07E9ECAE07E1E0BE071B
:1055C00020F480E893ECA9ECB1E08093170190936C
:1055D0001801A0931901B0931A0162CCC814D90420
:1055E000EA04FB0494F6803843EC940749ECA407E2
:1055F00041E0B40750F2E0911301F0E0EE0FFF1F1D
:10560000E75BFE4F20813181821B930BA109B10919
:10561000B4CF80912E018C149D04AE04BF04A4F479
:1056200090912D01891718F48F5F80932E0180913E
:105630002E01803190F090912D01891710F08FEF9D
:10564000890F80932E0166CAC814D904EA04FB04AA
:1056500074F7803160F38150E8CF80E1F2CFC81455
:10566000D904EA04FB040CF00DCB981708F00ACB20
:10567000815006CB90912C01891708F40ACB8FEF4B
:1056800007CB80912C0190912D018C149D04AE04C8
:10569000BF0484F420912B01821718F48F5F80934C
:1056A0002C0180912C01981770F081E0890F809374
:1056B0002C0130CAC814D904EA04FB0494F79817E3
:1056C00080F78150ECCF90912B01891780F38FEFF9
:1056D000EDCF80912B0190912C018C149D04AE0490
:1056E000BF0474F48D3F18F48F5F80932B01809179
:1056F0002B01981770F081E0890F80932B010ACA63
:10570000C814D904EA04FB0494F7981780F7815071
:10571000ECCF8D3F90F38CEFF0CF8091B5038C14DC
:105720009D04AE04BF040CF064C08A3018F48F5F8F
:105730008093B5038091B5038A3009F0EFC80E94C9
:10574000831610928306109282061092850610929C
:1057500084061092860682E08093800680E1809322
:10576000810686E293E00E94B3160E94D90C53E1B1
:10577000A52E51E0B52E912C812CD5017D905D0197
:10578000C4010E94232D781621F0672DC4010E94C8
:105790002B2DBFEF8B1A9B0AE6E28E16910469F758
:1057A00039E0A32E31E0B32E47E2842E912CD501AF
:1057B0007D905D01C4010E94232D781621F0672D94
:1057C000C4010E942B2DBFEF8B1A9B0AE1E38E16BA
:1057D000910469F780E393E00E94B3160E94D90C0C
:1057E00068EE73E080E090E00E9446041092C603E9
:1057F00095C8C814D904EA04FB040CF09BCF882395
:1058000009F48CC8815094CFC814D904EA04FB046D
:105810000CF057CA882309F481C8815050CA3092CD
:105820003B0120923A01BCC8882309F4AAC810920F
:10583000C503A1C881111CC881E0809308010E94A2
:105840007904C090B003D090B103E090B203F0901F
:10585000B3036C197D098E099F09683E43E0740704
:105860008105910508F4FAC88091C603811142C9E7
:1058700080911601882309F4EDC887E1ECC8DB01AB
:105880008F939F930E94582DBF91AF91A29F800D3F
:10589000911DA39F900DB29F900D11240895991B07
:1058A00079E004C0991F961708F0961B881F7A9517
:1058B000C9F78095089597FB072E16F4009407D03A
:1058C00077FD09D00E94F92C07FC05D03EF4909595
:1058D00081959F4F0895709561957F4F0895E89445
:1058E000DF93CF93FC01DB010E94852D7F936F93A3
:1058F000E9019A01AC01BF93AF933F932F93DF016E
:105900000E94852D26F46C1B7D0B820B930B9E0150
:10591000EB01FC010E94132DAF91BF912F913F919C
:105920000E94132DBE01CF01F9012F913F91CF911C
:10593000DF910895689401C0E8948F929F92CF936D
:10594000DF930E94A82CDF91CF919F908F900895B4
:1059500088249924F401E401B0E49F93AA279A15BE
:105960008B049C04ED05FE05CF05D007A10798F434
:10597000AD2FDC2FCF2FFE2FE92D982C892E982FBD
:10598000872F762F652F542F432F322F2227B85081
:1059900031F7BF9127C01B2EBF91BB27220F331FAA
:1059A000441F551F661F771F881F991F881C991C4D
:1059B000EE1FFF1FCC1FDD1FAA1FBB1F8A149B04F5
:1059C000EC05FD05CE05DF05A007B10748F08A18F4
:1059D0009B08EC09FD09CE09DF09A00BB10B216082
:1059E0001A94E1F62EF49401AF01BE01CD01000C32
:1059F0000895AA1BBB1B51E107C0AA1FBB1FA61716
:105A0000B70710F0A61BB70B881F991F5A95A9F767
:105A100080959095BC01CD010895EE0FFF1F059074
:105A2000F491E02D09940E94852D460F571FC81F41
:105A3000D91F08F431960895DC0101C06D934150DF
:105A40005040E0F70895F999FECF92BD81BDF89AD4
:105A5000992780B50895262FF999FECF1FBA92BDD8
:105A600081BD20BD0FB6F894FA9AF99A0FBE01963F
:105A70000895052E97FB1EF400940E94502D57FDAB
:105A800007D00E94632D07FC03D04EF40C94502DD8
:105A900050954095309521953F4F4F4F5F4F08955A
:105AA00090958095709561957F4F8F4F9F4F08958A
:105AB0000E94852DA59F900DB49F900DA49F800DF1
:105AC000911D11240895A1E21A2EAA1BBB1BFD01F2
:105AD0000DC0AA1FBB1FEE1FFF1FA217B307E407CD
