:100000000C94FE010C9454200C942C200C94260289
:100010000C9426020C9426020C9426020C942602C0
:100020000C9426020C9426020C9426020C942602B0
:100030000C9426020C9426020C9426020C942602A0
:100040000C94B61E0C9426020C9426020C942602E4
:100050000C9426020C9426020C9426020C94260280
:100060000C940D1F0C9426020044445F444400008D
:10007000060F090F06000000000000000000006FDE
:1000800000000007000700147F147F148C92FF9279
:1000900062231308646236495620500000070000AE
:1000A000001C2241000041221C0014083E081408D4
:1000B000083E0808005030000008080808080060E2
:1000C00060000020100804023E5149453E00427F76
:1000D000400042615149462141454B311814127F7D
:1000E0001027454545393C4A494930017109050306
:1000F0003649494936064949291E0036360000006E
:10010000563600000814224100141414141400413F
:1001100022140802015109063E415D494E7E09093B
:10012000097E7F494949363E414141227F41414153
:100130003E7F494949417F090909013E4149497AC0
:100140007F0808087F00417F41002040413F017F38
:10015000081422417F404040407F020C027F7F0410
:1001600008107F3E4141413E7F090909063E415149
:10017000215E7F09192946464949493101017F011C
:10018000013F4040403F0F3040300F3F4030403F44
:100190006314081463070870080761514945430058
:1001A000007F4100020408102000417F000004028B
:1001B0000102044040404040000003040020545429
:1001C00054787F48444438384444442038444448B0
:1001D0007F3854545418087E0901020C5252523E82
:1001E0007F0804047800447D40002040443D000026
:1001F0007F10284400417F40007C041804787C086C
:1002000004047838444444387C1414140808141442
:10021000187C7C080404084854545420043F44408B
:10022000203C4040207C1C2040201C3C4030403C76
:1002300044281028440C5050503C4464544C440012
:100240000836414100007F000041413608000402A9
:100250000408047E1111117E7F494949337F4949C1
:1002600049367F01010103E0514F41FF7F49494970
:100270004177087F087741494949367F1008047F54
:100280007C2112097C7F0814224120413F017F7F9D
:10029000020C027F7F0808087F3E4141413E7F01FA
:1002A00001017F7F090909063E4141412201017F89
:1002B000010147281008071C227F221C6314081420
:1002C000637F404040FF070808087F7F407F407FF2
:1002D0007F407F40FF017F4848307F4830007F00EB
:1002E0007F484830224149493E7F083E413E4629E9
:1002F00019097F20545454783C4A4A49317C54545B
:1003000028007C04040C00E0544C44FC3854545441
:10031000186C107C106C44545428007C2010087C0D
:1003200078422412787C1028440020443C047C7CD1
:100330000810087C7C1010107C38444444387C043D
:1003400004047C7C14141408384444440004047CE1
:1003500004040C5050503C3048FE483044281028CB
:10036000447C40407CC00C1010107C7C407C407C65
:100370007C407C40FC047C5050207C5050207C7C95
:100380005050200028445454387C103844380854C5
:1003900034147C3855545518005EBCE2613FDD834F
:1003A000C29C7E20A3FD1F41009D23BE46DB65F855
:1003B0008C11AF32CA57E974AED5808D142001A1DB
:1003C000C8817FDB40A6AF010204081020408001F5
:1003D000020408102001020408102000000000237D
:1003E0000026002900040404040404040402020298
:1003F000020202030303030303007C2011241FBE37
:10040000CFEFD8E0DEBFCDBF14E0A0E0B1E0E4E381
:10041000F0E602C005900D92AA3BB107D9F728E09B
:10042000AAEBB4E001C01D92AD33B207E1F711E0D1
:10043000CEEFD1E004C02197FE010E940230CD3FF3
:10044000D107C9F70E94BE210C9418300C9400000B
:100450002091BA0581E0213208F044C080919605D0
:100460008111FCCF8091B90592E09093960591E0BF
:10047000909395059FEF9093940510929305209388
:100480009205A9E9B5E0E2E7F5E090E0291331C073
:100490001092710590917105880F892B80937105D9
:1004A00080917005813049F5109270058091710539
:1004B0008093BB008091BC0083FDF8CF85EC8093D6
:1004C000BC00809196058230E1F3809194058F3FC6
:1004D000B1F0809194058032A1F080919405803331
:1004E00091F084E0109298051092BA051092970549
:1004F00008953D9131939F5FC9CF85EEE0CF80E0B5
:10050000F1CF82E0EFCF83E0EDCF91E090939705BC
:100510008093B905109298051092BA0508959091AC
:1005200096059111FCCF91E09093960590939505D7
:100530002FEF2093940510929305260F2093920598
:100540009093710590917105880F892B80937105A7
:10055000809170058130F9F41092700580917105D9
:100560008093BB008091BC0083FDF8CF85EC809325
:10057000BC00809196058130E1F380919305861748
:1005800010F460919305A2E7B5E0E8E4F5E080E0BF
:10059000861303C0089585EEEACF9D9191938F5FF6
:1005A000F7CF8F929F92AF92BF92CF92DF92EF924E
:1005B000FF92CF93611571058105910521F461E0EA
:1005C00070E080E090E024E0660F771F881F991F9D
:1005D0002A95D1F76115710521E08207910508F48C
:1005E0004EC06115710528E08207910508F44BC0E3
:1005F0006115710520E48207910508F048C020E4E8
:1006000030E0C3E06901F12CE12CA7010E94652DC7
:1006100049015A0180918000807F80938000C861E9
:10062000C0938100C9010197909387008093860051
:100630008091810087708093470560E074E284EFC9
:1006400090E0A70196010E943B2DAA24BB24CA0179
:10065000B901A50194010E943B2D60E472E48FE092
:1006600090E00E94652DCA01B901CF91FF90EF90F3
:10067000DF90CF90BF90AF909F908F90089521E032
:1006800030E0C1E0BFCF28E030E0C2E0BBCF20E0E7
:1006900031E0C4E0B7CF8091450590914605891BB4
:1006A000990B08952091F4052817190668F12091F7
:1006B000F3052617170640F11092FD071092FC076C
:1006C0001092FF071092FE07FB0123E0F595E795D6
:1006D0002A95E1F7880F991F880F991FE80FF91FD6
:1006E0006770772781E090E0A0E0B0E004C0880F59
:1006F000991FAA1FBB1F6A95D2F7E351FA4F4423F3
:1007000021F02285822B8287089580959285892306
:10071000FACFDF92EF92FF920F931F93CF93DF9365
:100720007C01EB018A01D22E1092FD071092FC078A
:100730001092FF071092FE074617570724F48D2FDB
:10074000EA01062F182F8091F4058E151F04C8F0BA
:10075000C017D10761F44D2DBE01C701DF91CF91C4
:100760001F910F91FF90EF90DF900C9452030C17A4
:100770001D073CF04D2DBE01C7010E94520321967A
:10078000F6CFDF91CF911F910F91FF90EF90DF9007
:100790000895089508951092460510924505109207
:1007A00098051092BA051092960581E08093950500
:1007B00010927005449A459AE9EBF0E080818E7FB3
:1007C000808380818D7F808388E48093B80085E476
:1007D0008093BC0089EC93E090934405809343059B
:1007E0008AEC93E090934205809341050895AF927F
:1007F000BF92CF92DF92EF92FF920F931F93CF930E
:10080000DF936C017B018B01040F151FEB015E016F
:10081000AE18BF08C017D10759F06991D601ED9104
:10082000FC910190F081E02DC6010995892B79F7A3
:10083000C501DF91CF911F910F91FF90EF90DF9055
:10084000CF90BF90AF900895880F991F880F991F80
:1008500005970197F1F708953FB7F8948091160531
:1008600090911705A0911805B091190526B5A89B80
:1008700005C02F3F19F00196A11DB11D3FBFBA2F32
:10088000A92F982F8827BC01CD01620F711D811DF2
:10089000911D42E0660F771F881F991F4A95D1F777
:1008A00008958F929F92AF92BF92CF92DF92EF9274
:1008B000FF926B017C010E942C044B015C01C1146E
:1008C000D104E104F104B9F00E942C0468197909FB
:1008D0008A099B09683E73408105910580F381E098
:1008E000C81AD108E108F10828EE820E23E0921E12
:1008F000A11CB11CE4CFFF90EF90DF90CF90BF9090
:10090000AF909F908F9008952FB7F8946091120543
:100910007091130580911405909115052FBF0895CE
:100920002091000190E4299F900111248E50822B88
:1009300080937C0080917A00806480937A0080911B
:100940007A0086FDFCCF809178009091790008951F
:10095000DC0180E0615090F09D919827E92FEF70C5
:10096000F0E0E856FC4F2491E92FE295EF70F0E0BB
:10097000E855FC4FE491822F8E27ECCF08950F931A
:100980001F93CF93DF93FC011081C181D281F89432
:100990008981812B89838A81012F009580238A8315
:1009A00083E090E00E9424048981802389838AE087
:1009B00090E00E942404C881789485E390E00E942E
:1009C0002404C12381E009F480E0DF91CF911F91DD
:1009D0000F9108951F93CF93DF93FC011081C18184
:1009E000D281912F909560FF16C0F8948A81892357
:1009F0008A838981812B89838AE090E00E94240484
:100A00008A81182B1A83789487E390E0DF91CF9145
:100A10001F910C942404F8948A8189238A83898104
:100A2000812B898381E490E00E9424048A81182B21
:100A30001A83789485E090E0E9CFDF92EF92FF92FD
:100A40000F931F93CF93DF93EC01D62EE42E08E093
:100A500010E0FF24F39461E08D2D8F2109F460E014
:100A6000CE010E94EA04FF0C01501109A1F7E11028
:100A700010C0F894E981FA81918188818095892359
:100A80008183E981FA81928188818095892382839B
:100A90007894DF91CF911F910F91FF90EF90DF90AD
:100AA0000895EF92FF920F931F93CF93DF938C01E2
:100AB0007B0140E065E50E941D05E70188E0E80E46
:100AC000F11C699140E0C8010E941D05CE15DF05AB
:100AD000C1F7DF91CF911F910F91FF90EF90089593
:100AE000FF920F931F93CF93DF93FC011081C1817D
:100AF000D281F8948981012F00958023898378948D
:100B00008DE7F82EFA94FF2061F182E090E00E94D8
:100B1000240488818123B1F3F8948A8180238A8315
:100B20008981812B8983789480EE91E00E9424044E
:100B3000F89489818023898386E490E00E942404CC
:100B400088811823C1E009F0C0E078948AE991E037
:100B50000E9424048C2FDF91CF911F910F91FF9061
:100B60000895C0E0F7CFAF92BF92CF92DF92EF929D
:100B7000FF920F931F93CF93DF938B01BC01809162
:100B8000D1059091D2050E94510540E06EEB809115
:100B9000D1059091D2050E941D05E801680189E008
:100BA000C80ED11CA090D105B090D20588E0E82EE7
:100BB000F12C10E001E0C5010E94BF048111102B4F
:100BC000000F81E0E81AF108B1F71993CC16DD06A1
:100BD00049F78091D1059091D2050E94700591E06E
:100BE000813009F090E0892FDF91CF911F910F9113
:100BF000FF90EF90DF90CF90BF90AF9008950F934C
:100C00001F93CF93DF93CDB7DEB729970FB6F89434
:100C1000DEBF0FBECDBF8C018091D1059091D20572
:100C20000E947005811102C080E01FC0BE016F5F8D
:100C30007F4FC8010E94B3058823B1F368E0CE015D
:100C400001960E94A80499858913EECF8D818F3378
:100C5000B9F020F48F3141F789E007C08F3521F0DA
:100C60008F3711F78CE001C08BE029960FB6F8940E
:100C7000DEBF0FBECDBFDF91CF911F910F910895C1
:100C80008AE0F3CF85ED8093BC008091BC0084FDA9
:100C9000FCCF1092960508952091EE04260F33277D
:100CA000331F21323105ECF420919605FC0190E0D0
:100CB00080E0243069F082E00895A091EE04219153
:100CC000AC0142535B4FA40FB52FB11D2C9301967D
:100CD000861798F38091EE04680F6093EE0480E02D
:100CE000089581E008950895E091460580914505B5
:100CF000E81730F4F0E0E85BFA4F808190E0089567
:100D00008FEF9FEF089590914605809145052FEF55
:100D10003FEF981748F4E92FF0E0E85BFA4F2081A5
:100D200030E09F5F90934605C9010895CF92DF920E
:100D3000EF92FF920F931F93CF93DF937C01CB0130
:100D40008A0120919705222389F0EB016B01C40EE3
:100D5000D51ECC15DD0569F06991D701ED91FC91A7
:100D60000190F081E02DC7010995F3CF642F0E9417
:100D70004C06C801DF91CF911F910F91FF90EF902A
:100D8000DF90CF900895CF93DF931F92CDB7DEB75A
:100D90006983209197052223F9F02091BA0520322A
:100DA00058F021E030E0FC013383228390E080E0C2
:100DB0000F90DF91CF91089580919805E82FF0E092
:100DC000E756FA4F998190838F5F809398058093BF
:100DD000BA0581E090E0ECCF61E0CE0101960E947F
:100DE0004C06F7CFCF9388E60E94850260E08BEB3C
:100DF00095E00E94C30660E88BEB95E00E94C30675
:100E000080916905CAE06C2F0E94442F8295807FF3
:100E1000682F690F8BEB95E00E94C30680916A05ED
:100E20006C2F0E94442F8295807F682F690F8BEB77
:100E300095E00E94C30680916B056C2F0E94442FA1
:100E40008295807F682F690F8BEB95E00E94C30627
:100E500080916C056C2F0E94442F8295807F682FB3
:100E6000690F8BEB95E00E94C30680916D056C2F96
:100E70000E94442F8295807F682F690F8BEB95E04D
:100E80000E94C30680916E058E516C2F0E94442FE4
:100E90008295807F682F690F8BEB95E00E94C306D7
:100EA0000E942802882329F010926F0580E0CF91DC
:100EB000089581E080936F0588E60E94850260E0D6
:100EC0008BEB95E00E94C306809168056C2F0E9411
:100ED000442F8295807F682F690F8BEB95E00E94ED
:100EE000C3060E9428028111DFCF81E0E0CF682F86
:100EF0008BEB95E00C94C306AF92BF92DF92EF921A
:100F0000FF920F931F93CF93DF938B01040F151F55
:100F1000EB015C01A61AB70A7501EC0EFD1ED99013
:100F200080913C080E9485028F2D90E00E947707F7
:100F3000C70199270E9477076D2D8BEB95E00E94E2
:100F4000C3060E9428026AE070E080E090E00E9400
:100F50005104C017D10701F7DF91CF911F910F9175
:100F6000FF90EF90DF90BF90AF9008958093BB000B
:100F700084E88093BC008091BC0087FFFCCF9091F7
:100F8000B900987F81E0983231F0983129F090349F
:100F900019F080E008950895089584EA8093BC00D4
:100FA0008091BC0087FFFCCF8091B900887F19F049
:100FB00080EC0C94B60780E008955F926F927F9268
:100FC0008F929F92AF92BF92CF92DF92EF92FF9259
:100FD0000F931F93CF93DF93CDB7DEB7582E742EA8
:100FE000652EB62E922E0E94CD07852D0E94B60743
:100FF0008D2D0E94B6078C2D0E94B6078B2D837015
:10100000A82A80E081108CE08A290E94B607862DEC
:101010000E94B607872D0E94B6078CE0F694E794ED
:10102000D794C7948A95D1F78C2D807FC82E892DAF
:101030008F708C290E94B607812F0E94B607802FDF
:101040000E94B60784E98093BC008091BC0084FDB7
:10105000FCCFDF91CF911F910F91FF90EF90DF9028
:10106000CF90BF90AF909F908F907F906F905F9048
:1010700008954F925F926F927F928F929F92AF925C
:10108000BF92CF92DF92EF92FF920F931F93CF9375
:10109000C82FC0903308D0903408E0903508F09005
:1010A0003608CB01BA01A70196010E94652D4901BE
:1010B0005A0125E0F694E794D794C7942A95D1F77E
:1010C00035E096958795779567953A95D1F747E0FE
:1010D000660F771F881F991F4A95D1F7A7019601C0
:1010E0000E94652D29013A018B019C01B501A401E3
:1010F000552766277727E7E0440F551F661F771FA0
:10110000EA95D1F7525061097109440D551D661DCC
:10111000771D812CA12C8C2F0E94DD07CF911F9170
:101120000F91FF90EF90DF90CF90BF90AF909F9086
:101130008F907F906F905F904F9008958F92AF92B5
:10114000CF92DF92EF92FF920F931F9388248394A4
:10115000443051056105710509F0812C4450510955
:1011600061097E4F97E0440F551F661F771F9A95C0
:10117000D1F7A22EC12CD12C7601C39400E010E04F
:1011800098010E94DD071F910F91FF90EF90DF9073
:10119000CF90AF908F900895CF93DF93D82FC62F25
:1011A0000E94CD078D2F0E94B6078C2F0E94B60794
:1011B00084E98093BC008091BC0084FDFCCFDF916A
:1011C000CF910895CF93C82F60E880E18C0F0E94E3
:1011D000CC08EC2FF0E0EE0FFF1FE55EF74F118219
:1011E0001082CF9108954F925F926F927F92AF924B
:1011F000BF92CF92DF92EF92FF920F931F93CF9304
:10120000DF93D82F082F10E0F801EE0FFF1FEE0F2D
:10121000FF1FE95DF74F4080518062807380411469
:1012200051046104710489F48D2FDF91CF911F91D6
:101230000F91FF90EF90DF90CF90BF90AF907F9095
:101240006F905F904F900C94E2085801AA0CBB1C61
:10125000F501E55EF74FC080D180F12CE12C055EF1
:10126000174FF801C681A3019201C701B6010E9480
:10127000342F9B01AC01EC2FF0E0E95AFE4FA08126
:10128000B0E00E945A2D9B01AC0120583447424DDA
:101290005A412130334A414E514108F43FC06091D8
:1012A0003C0170913D0180913E0190913F01A3016D
:1012B00092010E94652D69017A0184E0C816D1046B
:1012C000E104F10408F4B0CFE6E0CE16D104E10465
:1012D000F10408F470C0C0E0FDE2CF16F1E0DF06D3
:1012E000E104F10430F0CF5FF694E794D794C7940B
:1012F000F3CFC11103C0E894C0F8C0E0A30192018C
:10130000C701B6010E94342F9B01AC01EC2FF0E025
:10131000E95AFE4FA081B0E00E945A2D2AE1D11176
:1013200022E2AB01BC01822F0E943908F501E55E83
:10133000F74F80819181B0E0A0E08C159D05AE054E
:10134000BF0521F4F80186818C1731F12C2F2295ED
:10135000207FB701A6018D2F880F880F880F865D2B
:101360000E949E08F801618580E0D11180E26C64E2
:10137000682B80E18D0F0E94CC08F501E55EF74FE8
:10138000D182C082F801C68380913B0890E2D111DE
:1013900090E8892B80933B08DF91CF911F910F91AB
:1013A000FF90EF90DF90CF90BF90AF907F906F90C5
:1013B0005F904F90089584E0C82ED12CE12CF12C41
:1013C0009ACF2F923F924F925F926F927F928F921D
:1013D0009F92AF92BF92CF92DF92EF92FF920F93C4
:1013E0001F93CF93DF9300D000D01F92CDB7DEB70D
:1013F00049015A012701380110923B08C0902B087F
:10140000D0902C08E0902D08F0902E08009127082D
:10141000109128082091290830912A0806171707EB
:101420002807390759F0609327087093280880939C
:10143000290890932A0880E00E94F308C814D90470
:10144000EA04FB0471F480912F0890913008A09178
:101450003108B091320884159505A605B70509F441
:1014600003C180922B0890922C08A0922D08B09274
:101470002E0840922F0850923008609231087092E6
:10148000320881149104A104B10419F481E00E948E
:10149000E20880912F0890913008A0913108B09116
:1014A0003208892B8A2B8B2B19F482E00E94E208E8
:1014B00040902B0850902C0860902D0870902E08BA
:1014C000411451046104710409F473C1C814D904AE
:1014D000EA04FB0409F4A5C0C0901D08D0901E08C2
:1014E000F12CE12C209122082983A3019201C7014C
:1014F000B6010E94342F9B01AC018981E82FF0E0F6
:10150000E95AFE4FA081B0E00E945A2D4B015C01C8
:10151000DC01CB0180589447A24DBA418130934AF7
:10152000A14EB14108F446C060913C0170913D016B
:1015300080913E0190913F01A30192010E94652D8F
:1015400069017A0181E044E0C416D104E104F104A8
:1015500008F488C086E0C816D104E104F10408F458
:10156000A4C019829DE2C91691E0D906E104F104F4
:1015700040F029812F5F2983F694E794D794C7948C
:10158000F1CF4981411103C0E894C0F81982A30149
:101590009201C701B6010E94342F9B01AC018981E1
:1015A000E82FF0E0E95AFE4FA081B0E00E945A2DEA
:1015B0004B015C01B501A40182E20E9439088091CF
:1015C0001D0890911E08B0E0A0E08C159D05AE05A9
:1015D000BF0529F48091220899818917D1F02981CA
:1015E0002295207FB701A60182E30E949E086091A8
:1015F00025086C6681E10E94CC08D0921E08C0923A
:101600001D0829812093220880913B0880688093DF
:101610003B088092370890923808A0923908B0921F
:101620003A08C0902F08D0903008E0903108F09030
:101630003208C114D104E104F104B1F080903708FC
:1016400090903808A0903908B0903A08C501B401CC
:10165000A70196010E94652D2830310541055105ED
:1016600050F582E00E94E20860913B08662319F081
:1016700081EB0E94CC0880913B080F900F900F9057
:101680000F900F90DF91CF911F910F91FF90EF90EE
:10169000DF90CF90BF90AF909F908F907F906F9092
:1016A0005F904F903F902F90089504E0C02ED12C72
:1016B000E12CF12C69CF1D82213431054105510502
:1016C00060F08D818F5F8D83CC0CDD1CEE1CFF1CC8
:1016D0005695479537952795EFCFC501B401A701DA
:1016E00096010E94652D29833A834B835C832FEFFB
:1016F0003FEF4FE050E00E94642F56016701E12C5C
:10170000F12C00E010E00E94912F29013A019D8107
:101710009295907F9D83C12CD12C7601C394411466
:1017200051046104710431F0CC24CA94DC2CFFE034
:10173000EF2EF12CC301B20127E0660F771F881F3F
:10174000991F2A95D1F7A70196010E94652D49019D
:101750005A018B019C0149815A816B817C815527FB
:1017600066277727E7E0440F551F661F771FEA9526
:10177000D1F7525061097109480D591D6A1D7B1D31
:10178000812CAD808AE30E94DD078CE44528462841
:10179000472809F08CE0609126086062682B82E19E
:1017A0000E94CC0881E090E09093200880931F086D
:1017B0005BCF80902F0890903008A0903108B090B7
:1017C000320881149104A104B10409F44DCFC090F2
:1017D0001F08D0902008F12CE12C209123082983A8
:1017E000A5019401C701B6010E94342F9B01AC01F1
:1017F0008981E82FF0E0E95AFE4FA081B0E00E9415
:101800005A2D8B019C0100581447224D3A4101305A
:10181000134A214E314108F443C060913C0170915C
:101820003D0180913E0190913F01A50194010E94EC
:10183000652D69017A0184E0C816D104E104F10440
:1018400008F40FCF96E0C916D104E104F10408F4BE
:1018500058C019822DE2C21621E0D206E104F1043B
:1018600040F049814F5F4983F694E794D794C79439
:10187000F1CF8981811103C0E894C0F81982A501D4
:101880009401C701B6010E94342F9B01AC019981DC
:10189000E92FF0E0E95AFE4FA081B0E00E945A2DF6
:1018A000AB01BC0182E20E94390880911F0890912F
:1018B0002008B0E0A0E08C159D05AE05BF0531F411
:1018C000809123082981821709F4CECE298122959F
:1018D000207FB701A6018AE30E949E086091260836
:1018E0006C6682E10E94CC08D0922008C0921F084A
:1018F00049814093230880913B08806880933B088E
:10190000B3CE84E0C82ED12CE12CF12CB5CF682FBA
:101910008BEB95E00C94C3068091F1050E94850243
:1019200080E00C94870CCF93DF93EC010E94280297
:10193000188282E090E0DF91CF910C9424040E9401
:10194000870C809102088F5F80930208803158F0E5
:1019500082E098E00E94930C8091F1050E9485023C
:1019600080E40C94870C08950F931F93CF93DF931B
:101970008C01EB010E948C0C81E20E94870C80E0BC
:101980000E94870C8091F40590E0081719070CF469
:10199000C8010E94870C82E20E94870C80E00E94AE
:1019A000870C8091F20590E0C817D9070CF4CE019E
:1019B0000E94870C82E098E0DF91CF911F910F91F8
:1019C0000C94930CCF93DF936091F20570E08091BB
:1019D000F40590E00E94B40C8091F1050E9485020C
:1019E00080E40E94870CC7EFD5E089910E949F0C8C
:1019F00087E0C73FD807C9F782E098E0DF91CF9131
:101A00000C94930CCF93C82F0E948C0C81E80E94F9
:101A1000870C8C2F0E94870C82E098E0CF910C9469
:101A2000930C0F931F930130110551F102301105F2
:101A300009F448C0012B09F5FC01E15FFD4F01905D
:101A4000F081E02D2E0F3F2F311D220F331F220F6B
:101A5000331FFC01EF5EFD4F0190F081E02D13E09C
:101A6000F595E7951A95E1F7E20FF31FE40FF11DE5
:101A7000E80FF91F8285682B62871F910F910895E7
:101A8000FC01E15FFD4F0190F081E02D2E0F3F2F13
:101A9000311D220F331F220F331FFC01EF5EFD4F5C
:101AA0000190F081E02DA3E0F595E795AA95E1F787
:101AB000E20FF31FE40FF11DE80FF91F6095828517
:101AC0006823DACFFC01E15FFD4F0190F081E02D4A
:101AD0002E0F3F2F311D220F331F220F331FFC010A
:101AE000EF5EFD4F0190F081E02D73E0F595E795F5
:101AF0007A95E1F7820F931FE80FF91FE40FF11DAC
:101B0000BBCF2F923F924F925F926F927F928F92B4
:101B10009F92AF92BF92CF92DF92EF92FF920F937C
:101B20001F93CF93DF93CDB7DEB767970FB6F894C7
:101B3000DEBF0FBECDBF9F8B8E8BF62EFC01E25F0A
:101B4000FD4F208130E03396845F9D4F6C014DE066
:101B500064133DC08E899F89815F9D4FDC011D927A
:101B60001C9281E0F12C4E895F89455F5D4FDA015F
:101B70006C916623D1F14E895F89435F5D4FDA0135
:101B80009C910E891F89015F1D4FD8014D915C9179
:101B9000B6E09B9F400D511D1124AE89BF89179659
:101BA0009C919417150609F004F580819181D80164
:101BB0001D921C92820F931F918380834E895F89AF
:101BC0004D5E5D4F80818770DA018C9310C0BAE062
:101BD00080E06B13C8CF80819181820F931F918326
:101BE000808381E0D6018C93BDCF8111E7CF8081C6
:101BF0009181280F391FEE89FF89868190E0019637
:101C0000821793070CF4F12CD6018C91882359F19B
:101C1000662349F1B0E2FB1226C0EE89FF89E15F3D
:101C2000FD4F80819181892B09F048C0F601108217
:101C300081E090E067960FB6F894DEBF0FBECDBF8F
:101C4000DF91CF911F910F91FF90EF90DF90CF9098
:101C5000BF90AF909F908F907F906F905F904F90CC
:101C60003F902F900895F7FE50C0EE89FF89EC5EFB
:101C7000FD4F2FEB2F15C0F08081813D39F431E904
:101C8000F31241C0F082E0ECFE2E18C0803D39F422
:101C900041E8F41238C0F082F5E9FF2E0FC0823E11
:101CA00029F450E8F5122FC0F082C2CF803859F5E0
:101CB00064E9F61228C0F082ADE2FA2E8E899F897F
:101CC000815F9D4F9A838983DC012D913C91EE8940
:101CD000FF89E35FFD4FFB87EA878081A90166E00A
:101CE000869F400D511D1124CA0157FD07C0AE89C2
:101CF000BF8917964C91421713065CF4E981FA816B
:101D00009183808395CFF082D9CFFF2009F490CFC3
:101D1000D5CFF0EEFF0DF9878F2F90E0AC01415049
:101D2000510925E0249FB001259F700D11247F8764
:101D30006E8760557109798B688B8F96289FD001CB
:101D4000299FB00D1124BD87AC87AB5EB109BB8B59
:101D5000AA8BD12CC12CEA85FB85FC83EB832E89D1
:101D60003F892D5E3D4F3E832D834E895F894A5EBC
:101D70005D4F58874F8355E060E0C516B9F069851F
:101D8000EA89FB89603668F080E88F0DEC85FD8577
:101D9000803138F07985E889F989703A10F0EE855C
:101DA000FF85E858FF4FEC0DFD1D6491EE89FF891A
:101DB000E65FFD4F808181116095AB81BC819C9174
:101DC000913009F053C0EE89FF89E15FFD4F8081BA
:101DD000918197FD35C0EE89FF8927812817190663
:101DE0007CF1AD81BE818C91EF81F885008110E09E
:101DF00020E040E0882301F1A62EB12CB50101C0FE
:101E0000660F8A95EAF720E040E08E899F890E945C
:101E1000110DAF81B8850C9110E0ED81FE818081BC
:101E200028E030E0281B3109B50102C0759567959F
:101E30002A95E2F720E041E08E899F890E94110DEA
:101E4000EA85FB858081A981BA812D913C9111970A
:101E5000820F932F911D8D939C93BFEFCB1ADB0ABA
:101E6000E6E0CE16D10409F086CFE2CE30E020E0E5
:101E700080E0812C912C5401E62FF0E0AF01022E7E
:101E800002C0559547950A94E2F741705527692F8E
:101E9000680F8617F1F0412C512C32014394082E23
:101EA00004C0440C551C661C771C0A94D2F74115DB
:101EB000510531F084289528A628B7288F5FE9CFEF
:101EC000409450946094709484209520A620B7206C
:101ED000F5CF2F5F3F4F2830310581F6312C4E89E9
:101EE0005F89415F5D4F5D8B4C8BAC89BD898D9166
:101EF0009C91EB81FC812081321608F0A1CF830DEB
:101F0000911D97FD47C0AE89BF8917962C91281760
:101F100019060CF43FC0212CE12CED81FE812081BB
:101F2000AB81BC818C912816B0F5B8E02B9EC00126
:101F300011242401350104C0769467945794479482
:101F40008A95D2F7EF81F885008110E0211109C050
:101F5000232D422D642D8E899F890E94110D23947B
:101F6000DCCF6E2D70E088E090E0821B910902C00A
:101F7000759567958A95E2F7842D01C0880F2A959B
:101F8000EAF7682B232D422D8E899F890E94110D1F
:101F9000E42CE5CFE12CAD81BE818C918823B9F092
:101FA000EF81F885008110E06E2D70E028E030E0D0
:101FB000281B310902C0759567952A95E2F7232DF4
:101FC000AB81BC814C918E899F890E94110D339405
:101FD0008CCFAF92BF92CF92DF92EF92FF920F938E
:101FE0001F93CF93DF9328E0829FC0011124F12C2F
:101FF000E12C9C0128593F4F690188E0A82EB12CA3
:10200000F601EE0DFF1D64918091FC079091FD0794
:1020100001969093FD078093FC072091F405281703
:10202000190664F08091000881111AC010E000E0E8
:1020300020E040E08DEE95E00E94110D3FEFE31AA5
:10204000F30A88E0E816F104D9F6DF91CF911F91E9
:102050000F91FF90EF90DF90CF90BF90AF900895D9
:10206000C62FD0E0BE0101C0660F8A95EAF710E0E6
:1020700000E020E040E08DEE95E00E94110D80919F
:1020800000089501281B3109BE0102C075956795AE
:102090002A95E2F720E041E0CDCFFF920F931F9306
:1020A000CF93DF9300D0CDB7DEB7E3E1F1E010E0EE
:1020B00000E08191080F111D81E0E933F807C9F7AD
:1020C00046E250E063E171E082E090E00E947C072C
:1020D0000F5F1F4F1A83098342E050E0BE016F5F1C
:1020E0007F4F90E080E00E947C07E9E0F1E083E12F
:1020F00091E010E000E02191020F111D8E179F0763
:10210000D1F7809114019CE0F92E8F9DC00111241C
:102110004AE050E069E071E08A960E947C070F5F18
:102120001F4F1A830983809114018F9DC0011124D0
:1021300042E050E0BE016F5F7F4F88960E947C07AF
:102140000F900F90DF91CF911F910F91FF90089505
:102150008091230190912401A0912501B091260145
:102160008093330890933408A0933508B0933608D1
:1021700080E00E94F30881E00C94F308CF93DF9392
:102180008091C3049091C40427E0289FE001299F17
:10219000D00D112485E10E949004DE01A80FB91F23
:1021A000AA0FBB1F94E0B695A7959A95E1F7B09357
:1021B000C404A093C3042091270130E00E94872D1E
:1021C0002FEF33E040E050E00E943B2D2093CA0403
:1021D000DF91CF910895CF93DF938FE00E94900419
:1021E0008091C8049091C904EC01CC0FDD1FC80F89
:1021F000D91F8FE00E9490042196C80FD91FCC0FE1
:10220000DD1FCC0FDD1F44E0D695C7954A95E1F759
:10221000D093C904C093C80480E10E9490048091C7
:10222000C6049091C704EC01CC0FDD1FC80FD91F65
:1022300080E10E9490042196C80FD91FCC0FDD1FAA
:10224000CC0FDD1F74E0D695C7957A95E1F7D09352
:10225000C704C093C604DF91CF910895DC01ED91CE
:10226000FD918081ED91FD919081ED91FD916C91B9
:1022700063708E2309F064609F2309F06860EBE4CB
:10228000F1E1E60FF11D659565956D936D917D9179
:102290008D919D91099423C01AC012C016C010C020
:1022A0001EC009C014C013C006C019C009C00DC0AB
:1022B00007C00DC014C062507040804090400BC0F9
:1022C000615070408040904006C06E5F01C06F5FFB
:1022D0007F4F8F4F9F4F9E938E937E936E93089563
:1022E000089590E080E00895BF92CF92DF92EF9240
:1022F000FF920F931F93CF93DF93EC01B62EC72E5F
:102300008D85811105C0CE010E94700581110EC01E
:102310001B861D861C8680E0DF91CF911F910F9157
:10232000FF90EF90DF90CF90BF90089540E060EF76
:10233000CE010E941D0501E0E12CD12C11E0CE015F
:102340000E94BF04F82ECE010E94BF0491E0F91252
:1023500018C0813099F51134D8F2DB86D11002C053
:1023600081E08D878B81882399F22396EB2DFC2DBC
:10237000CF01089629912193E817F907D9F781E051
:10238000CBCFEE2DF0E0F8120FC08B851817A0F41C
:10239000DE01AE0FBF1F13968C91802379F4F12CD0
:1023A000193008F41C87D12EEC0FFD1F8381902F6C
:1023B0009095892383830AC08113F1CFFE01EE0D2E
:1023C000F11D8381802B8383FF24F3946F2DCE0135
:1023D0000E94EA041F5F000F11F4E39401E087E01C
:1023E0008E1508F0ACCFB7CF4F925F926F927F926D
:1023F0008F929F92AF92BF92CF92DF92EF92FF9215
:102400000F931F93CF93DF93CDB7DEB761970FB6CE
:10241000F894DEBF0FBECDBF0E9484046B017C0127
:102420008091C204811170C08091BE049091BF045C
:10243000A091C004B091C104A7019601281B390BDB
:102440004A0B5B0BDA01C901883E9340A105B10537
:1024500008F45AC01092CD058091D1059091D20513
:102460000E94700540E06CEC8091D1059091D205FE
:102470000E941D054091CB0564E48091D1059091A7
:10248000D2050E941D058091CD05882391F1E09130
:10249000CC05E9500EEE12E0E33038F4F0E0EE0F38
:1024A000FF1FED5BFE4F008111818091CE058823D7
:1024B00009F490C08091CB0581118CC00E948404E6
:1024C0004B015C012801110F660877088091D10546
:1024D0009091D2050E94BF04813059F00E9484047B
:1024E0006419750986099709681579058A059B0598
:1024F00068F381E08093C204C092BE04D092BF040E
:10250000E092C004F092C1048091C204882309F4CF
:102510004AC08091BE049091BF04A091C004B091C4
:10252000C104A7019601281B390B4A0B5B0BDA018A
:10253000C9018A3F9105A105B105A8F1E091D10536
:10254000F091D205138615861486128611861086A0
:1025500017821682158214821382BE01665F7F4F36
:102560008091D1059091D2050E947411811139C0DA
:1025700060E070E08EEF92EC20E030E040E05FE35E
:102580000E94972D0E94032E80912A01680F60936C
:10259000C5041092C204C092BE04D092BF04E0925F
:1025A000C004F092C10461960FB6F894DEBF0FBE6E
:1025B000CDBFDF91CF911F910F91FF90EF90DF90F2
:1025C000CF90BF90AF909F908F907F906F905F90D3
:1025D0004F900895B801110F880B990B0E94510478
:1025E00088CF67E0CE010A960E94A80499898913D2
:1025F000BFCF8091D1059091D2050E9470058823AC
:1026000009F4B6CFBE016F5F7F4FCE010A960E94DC
:10261000B305882309F4ACCF68E0CE0101960E948F
:10262000A80499858913A4CF6A8170E0762F662764
:10263000770F770F770F298148E0249F90011124AD
:10264000262B372B8A858031D1F4688570E08F8105
:10265000AB01481B5109CA019695982F8827979579
:1026600087950E94502FCB014097B90153E0660F28
:10267000771F5A95E1F760789C01260F371F2138A4
:1026800054EE35070CF474CFB901330F880B990B56
:102690000E943B2E20E030E040E05CE30E94C72E29
:1026A0006BCF0F931F93CF93DF93809130058823D7
:1026B00059F0109268050E94F20610923005DF91E1
:1026C000CF911F910F9108950E9484040091BA0444
:1026D0001091BB042091BC043091BD04601B710BB0
:1026E000820B930B693E73408105910520F4012B09
:1026F000022B032B21F70E9484046093BA04709389
:10270000BB048093BC049093BD0488E60E948502BC
:1027100060E08BEB95E00E94C3060E9428028823AC
:1027200091F010926F0580916F05882341F210920D
:102730006A051092690510926805DF91CF911F918B
:102740000F910C94F20681E080936F0567E088E6B4
:102750000E948F021092460580934505873018F33A
:102760008BEB95E00E948306D82F982F9295977057
:10277000CAE08D2F8F709C9F800D11248093680577
:102780008BEB95E00E948306982F92959F708F7037
:102790009C9F800D1124809369058BEB95E00E942E
:1027A0008306982F929593708F709C9F800D1124B3
:1027B00080936A058BEB95E00E948306982F929593
:1027C0009F708F709C9F800D112480936B058BEB05
:1027D00095E00E948306982F92959F708F709C9F22
:1027E000800D112480936C058BEB95E00E9483068D
:1027F000982F92959F708F709C9F800D11248093CD
:102800006D058BEB95E00E948306982F9F70925E7A
:1028100082958F708C9F900D112490936E05D7FF39
:102820004ECF81CFCF93DF93EC0180913C080E9483
:1028300085028D2F90E00E947707CE0199270E9494
:1028400077070E94280261E080913C080E948F0275
:102850001092460580934505882339F08BEB95E06F
:102860000E948306DF91CF91089580E0FBCFEF9225
:10287000FF920F931F93CF93DF938B01040F151FCC
:10288000EB017C01E61AF70AC7018C0F9D1F0E941D
:1028900012148993C017D107B9F7DF91CF911F9117
:1028A0000F91FF90EF900895DF92EF92FF920F93B8
:1028B0001F93CF93DF9300D0CDB7DEB71A82198272
:1028C000809114012CE0829FC001112442E050E06D
:1028D000BE016F5F7F4F88960E943714F12CE12C68
:1028E00010E000E08CE0D82E8091140197018D9DBE
:1028F000200D311D1124C9018A960E941214080F5F
:10290000111D3FEFE31AF30A8AE0E816F10461F7BC
:102910000F5F1F4F89819A8108171907B1F48091C1
:1029200014018D9DC00111244AE050E069E071E07E
:102930008A960E9437140F900F90DF91CF911F91CC
:102940000F91FF90EF90DF9008950E944D10F3CF0C
:102950007F928F929F92AF92BF92CF92DF92EF922F
:10296000FF920F931F93CF93DF938C017A01109204
:10297000FD071092FC071092FF071092FE0782E4F9
:1029800090E0623471051CF0CB0162E470E0E01667
:10299000F1060CF4D9C08617970779F50E151F05B7
:1029A000C1F441E0B80182E490E0DF91CF911F9142
:1029B0000F91FF90EF90DF90CF90BF90AF909F90DE
:1029C0008F907F900C945203902F812F8701E92ED6
:1029D000F82E21E0A701B80182E490E0DF91CF91C9
:1029E0001F910F91FF90EF90DF90CF90BF90AF902D
:1029F0009F908F907F900C9489030E151F0509F00E
:102A0000ACC02091F3052017110674F4DF91CF912B
:102A10001F910F91FF90EF90DF90CF90BF90AF90FC
:102A20009F908F907F9008950196F12CE12C77FD77
:102A300007C0E090F405F12C6E157F050CF47B01C6
:102A400097FDE4CFC091F405D0E08C179D070CF4FE
:102A5000EC01EC16FD06D4F641E0B801C7010E9476
:102A600052038FEFE81AF80AF4CFA7014F5F5F4FC8
:102A7000F02FF770A42FA770E8E0EA1BE83009F404
:102A8000E0E07801A3E0F594E794AA95E1F7DE2D64
:102A90006C01281739070CF46901261737070CF465
:102AA000B90177FD60E0C62F8FEF90E0A82E0F2EC2
:102AB00001C0AA0C0A94EAF79C0102C0359527953B
:102AC000EA95E2F7B22E041B150B085F1F4F02C0F8
:102AD000959587950A95E2F7782E01C0770CFA95BF
:102AE000EAF747018FEF881A980ACC151D0411F0F8
:102AF0000CF08CCF8091F20590E0D33071F48E15FC
:102B00009F0548F010E000E02C2F43E0672D8DEE8C
:102B100095E00E94110DCF5FE8CF8E159F0548F01C
:102B200010E000E02C2F4D2F6A2D8DEE95E00E94D5
:102B3000110D8091F2058815190468F310E000E08A
:102B40002C2F482D6B2DE3CF8617970709F43CCF28
:102B5000302F212F8701E32EF22E2091F40530E053
:102B600040910E08442309F480CF6C0128173907DF
:102B70000CF46901261737070CF4B90177FD60E002
:102B8000C62F8C2F90E0C816D9060CF43FCF21E059
:102B9000A701B8010E948903CF5FF3CF1092CC0444
:102BA00060910A0170910B0180910C0190910D01CF
:102BB00020EA36E841E050E00E94652D80912E0128
:102BC0008217130609F018F481E08093CC048091F9
:102BD0002D018217130609F018F482E08093CC04CB
:102BE00080912C018217130609F018F483E080937A
:102BF000CC0480912B018217130609F018F484E0AD
:102C00008093CC042091CC0481E090E0A0E0B0E07F
:102C100004C0880F991FAA1FBB1F2A95D2F7809363
:102C2000CD0420913F05222359F020913201222327
:102C300039F020911A05211103C080628093CD04E0
:102C400080913701882329F08091CD04806480939E
:102C5000CD0480913801882329F08091CD048068CB
:102C60008093CD042C982091CD0487E090E030E053
:102C70004091B0004F774093B000A901082E02C0E8
:102C8000559547950A94E2F740FF07C02B9A2D9A75
:102C90002D98019768F72C9A08952B98F8CF4F92AA
:102CA0005F926F927F928F929F92AF92BF92EF92BC
:102CB000FF920F931F9320910901E0901701F0906C
:102CC00018010091190110911A0160910A01709187
:102CD0000B0180910C0190910D0130913F056E0D1B
:102CE0007F1D801F911F332339F12223E1F02091B2
:102CF0001F01309120014091210150912201620F6A
:102D0000731F841F951F0E94E1091F910F91FF906F
:102D1000EF90BF90AF909F908F907F906F905F905B
:102D20004F900C94CE1520911B0130911C014091C5
:102D30001D0150911E01E3CF80903301909034012A
:102D4000A0903501B09036012223B9F040901F01C8
:102D5000509020016090210170902201A301920106
:102D6000280D391D4A1D5B1D640D751D861D971D9F
:102D7000680D791D8A1D9B1DC6CF40901B01509088
:102D80001C0160901D0170901E01E8CF8091260506
:102D9000882349F180912505882329F18091CB046E
:102DA000811121C08091400581111DC02091300109
:102DB00084E1289F90011124032E000C440B550B35
:102DC00060E472E48FE090E00E94652DCA01B901D1
:102DD0000E94D102809180008F7C8061809380006E
:102DE00081E08093CB048091250581110BC08091F7
:102DF000CB04882339F0809180008F7C8093800001
:102E00001092CB0408954091F5055091F60570E0BD
:102E100060E087EF95E00E9411308091FE07877097
:102E2000809300080895FC0101900020E9F7319794
:102E3000AF01481B590BBC018DEE95E00C94F703D4
:102E40008F929F92AF92BF920F931F93CF93DF9376
:102E5000CDB7DEB7A1970FB6F894DEBF0FBECDBFDA
:102E600019A2423008F44AE08E010F5D1F4F842EF4
:102E7000912CB12CA12CA50194010E94652DE62F67
:102E8000B901CA01EA30F4F4E05DD801EE938D0196
:102E9000232B242B252B79F790E080E0109719F055
:102EA000CD010E941317A1960FB6F894DEBF0FBE96
:102EB000CDBFDF91CF911F910F91BF90AF909F90A9
:102EC0008F900895E95CE1CF682F70E090E080E09A
:102ED0004AE00C942017CF92DF92EF92FF92CF93AB
:102EE000DF936B017C016DE28DEE95E00E94810D18
:102EF000EC0166277727CB016C197D098E099F09A4
:102F00004AE00E9420178C0F9D1FDF91CF91FF9008
:102F1000EF90DF90CF9008959C01BC01990F880B32
:102F2000990B37FD0C946B174AE00C942017CF9344
:102F3000DF934AE00E942017EC018DE791E00E94A8
:102F400013178C0F9D1FDF91CF910895CF93DF93BF
:102F50000E941317EC018DE791E00E9413178C0F6C
:102F60009D1FDF91CF9108950C941317CF93DF939A
:102F70000E946417EC018DE791E00E9413178C0FFB
:102F80009D1FDF91CF910895CF93DF930E948C17FF
:102F9000EC018DE791E00E9413178C0F9D1FDF91CC
:102FA000CF910895CF92DF92EF92FF92CF930E943C
:102FB00003171092FD071092FC071092FF07109262
:102FC000FE071092000883E08093FA0788E180935F
:102FD000FB07C0914005CC2309F41FC18FEF0E946D
:102FE000020DCB3109F44DC508F080C0C73009F49B
:102FF0009FC488F5C33009F42FC468F4C13009F4C4
:10300000F8C2C23009F405C4CF91FF90EF90DF9071
:10301000CF900C94E20CC53009F46AC408F43BC4A8
:1030200080913701882309F480C489E192E00E94ED
:10303000A61781E08093FA0788E08093FB078091D0
:10304000FE07877080930008809140050E946417F6
:1030500089E292E01AC4C73109F4BDC440F5C53114
:1030600009F483C408F0A1C4C43171F680910E0143
:1030700024E6829FC00111240E94C41781E080933E
:10308000FA0788E08093FB078091FE0787708093A2
:103090000008809140050E9464178AE492E00E9433
:1030A000B41780E00E94E90F83E692E0D2C3C931F1
:1030B00009F4CDC408F4ADC4809130012AE0829FA8
:1030C000C00111240E94C41781E08093FA0788E0B0
:1030D0008093FB078091FE078770809300088091A2
:1030E00040050E94641781EE92E0B3C3C93609F42B
:1030F00087C508F051C0C53609F4F9C408F5CC31CC
:1031000009F4D5C4C43609F07FCF80911601882315
:1031100009F4EAC48AE193E00E94A61781E0809353
:10312000FA0788E08093FB078091FE078770809301
:103130000008809140050E94641785E493E0A5C3D0
:10314000C73609F42FC508F40AC582E08093FA0750
:1031500080E18093FB078091FE07877080930008D1
:1031600060911B0170911C0180911D0190911E01C5
:103170000E94971781E08093FA0788E08093FB070D
:103180008091FE07877080930008809140050E941F
:1031900064178CEA93E02CC5CD3609F49DC5F8F48C
:1031A000CB3609F47BC508F452C580912D0124E685
:1031B000829FC00111240E94C41781E08093FA0706
:1031C00088E08093FB078091FE078770809300085A
:1031D000809140050E94641782E094E078C5CF3664
:1031E00009F4AEC508F492C5C03709F00DCF80913F
:1031F0002E050E94B61781E08093FA0788E080933D
:10320000FB078091FE07877080930008809140053E
:103210000E94641781E694E01CC380910A0190919A
:103220000B01A0910C01B0910D0180389649A8497D
:10323000B10520F48CEF93E00E94B41760910A016D
:1032400070910B0180910C0190910D01F0E4CF2E53
:10325000F2E4DF2EFFE0EF2EF12CA70196010E9491
:10326000652DCA01B9014AE00E94201789E290E069
:103270009093FD078093FC071092FF071092FE07C2
:103280001092000860910A0170910B0180910C016D
:1032900090910D01A70196010E94652D603A764834
:1032A0008140910520F48FE594E00E94B41760916D
:1032B0000A0170910B0180910C0190910D0120E4A5
:1032C00032E44FE050E00E94652D60317742810585
:1032D000910520F48FE594E00E94B41760910A01F3
:1032E00070910B0180910C0190910D0120E432E46A
:1032F0004FE050E00E94652DE8EECE2EE3E0DE2E9A
:10330000E12CF12CA70196010E94652DCA01B9019B
:103310004AE00E94201782E08093FA0780E18093C0
:10332000FB0784E690E09093FD078093FC0787E01D
:1033300090E09093FF078093FE07809300086091D0
:103340000A0170910B0180910C0190910D01A70170
:1033500096010E94652D643671058105910520F462
:103360008FE594E00E94B41760910A0170910B01FF
:1033700080910C0190910D0128EE33E040E050E087
:103380000E94652D2AE030E040E050E00E94652D6B
:10339000CA01B9014AE00E94201781E08093FA0730
:1033A00088E08093FB071092FD071092FC0788E1EC
:1033B00090E09093FF078093FE07109200088091A1
:1033C000CA04843620F48CEF93E00E94B4178091F5
:1033D000CA04CAE06C2F0E94442F90E00E948C1710
:1033E00083EA94E00E94B4178091CA046C2F0E9473
:1033F000442F892F90E00E948C178CEF93E00E945D
:10340000B41780913F05882309F488C08091320168
:10341000882309F480C08BE891E00E94B4174091A2
:10342000C8045091C904E091C604F091C7044E1736
:103430005F0771F19A012E0F3F1FA4E6B0E00E94D2
:10344000872D4E1B5F0B9A0150E040E00E943B2D00
:103450007901283E334024F48CEF93E00E94B417A6
:10346000C70164E670E00E94502F7C01CB010E94EE
:103470008C1783EA94E00E94B4172AE0E216F10464
:1034800024F48FE594E00E94B417C7010E948C17C2
:103490006091C8047091C90490E080E061507109A6
:1034A0008109910937E0660F771F881F991F3A95A8
:1034B000D1F74EEFC42E43E0D42EE12CF12CA7011E
:1034C00096010E943B2DB9016E5B7F4F4AE150E0AF
:1034D00087E190E00E94A8146091C6047091C7042F
:1034E00090E080E0615071098109910957E0660F11
:1034F000771F881F991F5A95D1F7A70196010E943F
:103500003B2DB9016E5B7F4F4FE150E08CE190E0C5
:103510000E94A81479CD8FE891E07FCF8091C504F7
:1035200092E3980F953608F055C087FD04C08CEFE4
:1035300093E00E94B4178091C504082E000C990BEB
:103540000E948C1781E00E94E90F80E891E00E94C0
:10355000B41780913605882309F43FC08CEF93E0BF
:103560000E94B4178FEF0E94020D80916A058A3085
:1035700020F48CEF93E00E94B41780916A050E94BA
:1035800064178091680580FF2EC088E891E00E9452
:10359000B417809169058A3020F48FE594E00E9489
:1035A000B417809169050E946417809109018823EE
:1035B000E9F08AE891E00E94B417809114018A3002
:1035C00020F48CEF93E00E94B417809114010E94C4
:1035D00064171ACD82E891E0BACF83EA94E00E94A2
:1035E000B41781E0C0CF8CEF93E0D1CF8EE891E0AB
:1035F000E2CF809114018A3020F48CEF93E00E9496
:10360000B417809114010E94641782E08093FA0736
:1036100080E18093FB0789E290E09093FD0780931F
:10362000FC0787E090E09093FF078093FE0780936C
:10363000000880910A0190910B01A0910C01B091BA
:103640000D0180389649A849B10520F48CEF93E02C
:103650000E94B41760910A0170910B0180910C01D6
:1036600090910D0120E4C22E22E4D22E2FE0E22E12
:10367000F12CA70196010E94652DCA01B9014AE00B
:103680000E94201784E490E09093FD078093FC074C
:1036900087E090E09093FF078093FE0780930008F7
:1036A00060910A0170910B0180910C0190910D01C4
:1036B000A70196010E94652D603A764881409105E8
:1036C00020F48FE594E00E94B41760910A01709194
:1036D0000B0180910C0190910D0120E432E44FE048
:1036E00050E00E94652D603177428105910520F4FC
:1036F0008FE594E00E94B41760910A0170910B016C
:1037000080910C0190910D0120E432E44FE050E0F3
:103710000E94652D28EE33E040E050E00E94652DC8
:10372000CA01B9014AE00E94201781E08093FA079C
:1037300088E08093FB078CE690E09093FD078093F0
:10374000FC071092FF071092FE071092000880916C
:103750000901882309F45AC08BEC93E00E94B41746
:103760008CE690E09093FD078093FC078EE090E05C
:103770009093FF078093FE0786E080930008609196
:103780000A0170910B0180910C0190910D0128EEBE
:1037900033E040E050E00E94652D643671058105FC
:1037A000910520F48FE594E00E94B41760910A011E
:1037B00070910B0180910C0190910D0128EE33E086
:1037C00040E050E00E94652D2AE030E040E050E00B
:1037D0000E94652DCA01B9014AE00E94201710928B
:1037E000FD071092FC0788E190E09093FF0780931B
:1037F000FE0710920008809140050E94641782E93C
:1038000091E00E94B41780911501E1CE88EB93E01E
:10381000A5CFE0911301F0E0EE0FFF1FE75BFE4F35
:1038200020813181AAE0B0E00E94872D0E94971785
:1038300081E08093FA0788E08093FB078091FE0780
:10384000877080930008809140050E9464178DEA7C
:1038500091E00E94B417D8CB809109018823C1F070
:103860008BEC93E00E94A61781E08093FA0788E032
:103870008093FB078091FE078770809300088091FA
:1038800040050E9464178AEB91E00E94A617BCCB0A
:1038900088EB93E0E7CF6091330170913401809120
:1038A00035019091360197FF1FC00E946B178DE77D
:1038B00091E00E94131781E08093FA0788E08093DB
:1038C000FB078091FE078770809300088091400578
:1038D0000E94641784ED91E00E94B41780E00E947A
:1038E000E90F80EF92E0D1CF4AE00E942017DFCFAE
:1038F000809132018823B1F086EE91E00E94A617F4
:1039000081E08093FA0788E08093FB078091FE07AF
:10391000877080930008809140050E94641782E0C0
:1039200092E0B3CF85EF91E0E9CF82E292E07FCBE6
:10393000809138018823B1F088E392E00E94A617B5
:1039400081E08093FA0788E08093FB078091FE076F
:10395000877080930008809140050E9464178BE374
:1039600092E093CF86E492E0E9CF20910F0130916D
:1039700010014091110150911201A4E6B0E00E94A3
:103980005A2D0E94971781E08093FA0788E0809370
:10399000FB078091FE0787708093000880914005A7
:1039A0000E9464178AE692E07ACB809115010E940A
:1039B000B61781E08093FA0788E08093FB07809137
:1039C000FE07877080930008809140050E9464176D
:1039D00085E892E03ECF80916A058A3020F48FE539
:1039E00094E00E94B41780916A050E94B61781E0A6
:1039F0008093FA0788E08093FB078091FE07877029
:103A000080930008809140050E94641780EA92E04C
:103A100020CF809169058A3020F48FE594E00E94E0
:103A2000B417809169050E94B61781E08093FA0768
:103A300088E08093FB078091FE07877080930008E1
:103A4000809140050E94641784EB92E002CF809140
:103A50002F012AE0829FC00111240E94C41781E037
:103A60008093FA0788E08093FB078091FE078770B8
:103A700080930008809140050E94641788EC92E0D2
:103A8000E8CE809129010E94B61781E08093FA0761
:103A900088E08093FB078091FE0787708093000881
:103AA000809140050E94641785EF92E0D2CE80910C
:103AB00028018823B1F08AE193E00E94A61781E0F3
:103AC0008093FA0788E08093FB078091FE07877058
:103AD00080930008809140050E94641786E293E07D
:103AE000D4CE8FE193E0E9CF8FE193E015CB8091C5
:103AF00027010E94B61781E08093FA0788E080933F
:103B0000FB078091FE078770809300088091400535
:103B10000E94641780E693E00E94B4178091CA0463
:103B2000843620F48FE594E00E94B4178091CA0493
:103B3000CAE06C2F0E94442F90E00E948C1783EA09
:103B400094E00E94B4178091CA046C2F0E94442F05
:103B5000892F90E00E948C178AE891E07ACE8091BC
:103B60002A01082E000C990B0E94C41781E0809353
:103B7000FA0788E08093FB078091FE0787708093A7
:103B80000008809140050E94641781E793E00E943D
:103B9000B41781E00E94E90F80E00E94E90F80E8FD
:103BA00091E057CE82E08093FA0780E18093FB0793
:103BB0008091FE07877080930008609123017091C7
:103BC000240180912501909126010E94971781E0A0
:103BD0008093FA0788E08093FB078091FE07877047
:103BE00080930008809140050E94641789E893E063
:103BF0000E94B41780E00E94E90F80EF92E029CE86
:103C000082E08093FA0780E18093FB078091FE07B2
:103C100087708093000860911F017091200180914E
:103C20002101909122010E94971781E08093FA0769
:103C300088E08093FB078091FE07877080930008DF
:103C4000809140050E9464178FEB93E0D1CF82E012
:103C50008093FA0780E18093FB078091FE078770CD
:103C600080930008609117017091180180911901EB
:103C700090911A010E94971781E08093FA0788E0DB
:103C80008093FB078091FE078770809300088091E6
:103C900040050E94641782ED93E0AACF80912E0127
:103CA00024E6829FC00111240E94C41781E0809302
:103CB000FA0788E08093FB078091FE078770809366
:103CC0000008809140050E94641785EE93E00E94F1
:103CD000B4178EEF93E0BDCD80912C0124E6829F36
:103CE000C00111240E94C41781E08093FA0788E084
:103CF0008093FB078091FE07877080930008809176
:103D000040050E9464178BE194E0E1CF80912B0184
:103D100024E6829FC00111240E94C41781E0809391
:103D2000FA0788E08093FB078091FE0787708093F5
:103D30000008809140050E94641784E394E0C7CF97
:103D400080912F050E94B61781E08093FA0788E0E2
:103D50008093FB078091FE07877080930008809115
:103D600040050E9464178DE494E073CD1F920F927A
:103D70000FB60F9211248F939F93AF93BF938091AF
:103D8000120590911305A0911405B09115050196A7
:103D9000A11DB11D8093120590931305A0931405E6
:103DA000B09315058091110593E0980F9D37F0F4BD
:103DB000909311058091160590911705A091180513
:103DC000B09119050196A11DB11D80931605909320
:103DD0001705A0931805B0931905BF91AF919F9156
:103DE0008F910F900FBE0F901F9018958A57809358
:103DF00011058091120590911305A0911405B091C1
:103E000015050196A11DB11D809312059093130510
:103E1000A0931405B0931505CDCF1F920F920FB646
:103E20000F9211242F933F934F935F936F937F9340
:103E30008F939F93AF93BF93EF93FF938091B900BC
:103E4000887F803609F44AC0F0F5883209F4A7C0AB
:103E500018F5803109F49BC0B8F4882309F4F9C03F
:103E6000883009F494C0FF91EF91BF91AF919F9179
:103E70008F917F916F915F914F913F912F910F9013
:103E80000FBE0F901F901895883109F488C08032BA
:103E900051F78093940514C0803409F49DC040F418
:103EA0008033B9F38833F9F68093940585ECB0C07C
:103EB000803509F485C0883509F496C0883499F6B0
:103EC0000E944206D0CF883909F48CC038F5883773
:103ED00029F050F4883611F0803729F683E080937A
:103EE00096051092100557C0883809F47BC08039B8
:103EF00019F0803809F0B7CF80911005803208F0B2
:103F000071C0E091100581E08E0F809310058091C3
:103F1000BB00F0E0E051FB4F80833DC0803B39F0B7
:103F2000E0F4803A09F479C0883A09F09CCF84E043
:103F3000809396051092EF041092EE04E0914305F1
:103F4000F091440509958091EE0481110FC081E044
:103F50008093EE041092CE0409C0803C09F4A6CFF1
:103F6000883C09F4A3CF883B09F07DCFE091EF04B2
:103F700081E08E0F8093EF04F0E0E253FB4F8081ED
:103F80008093BB009091EF048091EE0429C0809152
:103F900071058093BB0085EC8093BC0064CF909149
:103FA000930580919205981758F5E091930581E06B
:103FB0008E0F80939305F0E0EE58FA4F8081E9CFA1
:103FC000E091930581E08E0F809393058091BB0073
:103FD000F0E0EE58FA4F808390919305809192051E
:103FE0009817C8F285E8D8CFE091930581E08E0F4D
:103FF000809393058091BB00F0E0EE58FA4F8083E8
:104000008091950581115CCF81E08093700584EAF1
:104010008093BC001092960526CF85EC8093BC005F
:104020001092960580911005803230F4E0911005D1
:10403000F0E0E051FB4F10826091100570E0E091DC
:104040004105F091420580EF94E00995109210052A
:104050000ACF1092940534CF1F920F920FB60F9291
:1040600011242F933F934F935F936F937F938F937D
:104070009F93AF93BF93EF93FF938091C905909166
:10408000CA050E942E11FF91EF91BF91AF919F91B0
:104090008F917F916F915F914F913F912F910F90F1
:1040A0000FBE0F901F9018951F920F920FB60F9290
:1040B00011242F933F934F935F936F937F938F932D
:1040C0009F93AF93BF93EF93FF938091C705909118
:1040D000C8050E942E11FF91EF91BF91AF919F9162
:1040E0008F917F916F915F914F913F912F910F90A1
:1040F0000FBE0F901F9018950E94CB031092BE0523
:104100001092BD0588EE93E0A0E0B0E08093BF057B
:104110009093C005A093C105B093C20583E691E0DA
:104120009093BC058093BB0580E580933C0810927A
:104130001C0810921B0810921E0810921D08109265
:10414000200810921F081092210810922208109245
:1041500023088091400190914101A09142018093F8
:10416000240890932508A0932608109227081092FF
:1041700028081092290810922A0810922B081092F1
:104180002C0810922D0810922E0810922F081092D1
:104190003008109231081092320880E89FEDA7E1B4
:1041A000B0E18093330890933408A0933508B0931E
:1041B000360852985A9A53985B9AE7EEF3E0E491E6
:1041C000F0E0EE0FFF1FE552FC4F85919491909324
:1041D000100880930F08E9ECF3E0E491E0931308F2
:1041E000E8EEF3E0E491F0E0EE0FFF1FE552FC4F44
:1041F000859194919093120880931108EAECF3E072
:10420000E491E09314081092160810921708109287
:1042100018081092190880ED97E00E942404E0919C
:104220000F08F0911008908180911308982381E085
:1042300009F480E0E0911108F0911208908120913A
:104240001408922309F082602FE038E0809315086B
:104250003093C8052093C705809169008C7F8160E9
:1042600080936900E89A91E090931A083093CA0508
:104270002093C90580916900837F846080936900E1
:10428000E99A82E080931A081092F0051092EF05E7
:1042900025E731E03093EE052093ED052CE32093E4
:1042A000F10523E02093F2052FE12093F3052FE79A
:1042B0002093F40520E032E03093F6052093F505D5
:1042C0001092F7071092F8071092F9079093FA07E7
:1042D00028E02093FB071092FD071092FC07109234
:1042E000FF071092FE0710920008109202088093B8
:1042F000030810920E0838984698E5EDF3E0E49133
:10430000E093DF05E3EFF3E0E491F0E0EE0FFF1F51
:10431000E552FC4F259134913093E1052093E0055F
:104320001092EA051092EC051092EB051092E90547
:104330001092E8051092E7051092E6051092E50547
:104340001092E4051092E3051092E2052FED35E09E
:104350003093D2052093D1051092CF051092D0054D
:104360001092CB0589E08093CC059093CD05909376
:10437000CE051092DE051092DD050895CF93DF93F0
:10438000CDB7DEB760970FB6F894DEBF0FBECDBFD6
:10439000F89482E880937A0083E084BD85BD909193
:1043A0006E00916090936E0091E0909380002BE0FE
:1043B000209381009093B00094E09093B10010920C
:1043C000C100789456985E98219A209A94B59F7768
:1043D00094BD5E98909180009F779093800029987B
:1043E000289855985D9857985F9894B59F7D94BD8F
:1043F0005D985F9854985C98399847983A9898B126
:1044000098B9229A249A259A239A2C982D989091BB
:10441000B0009F779093B0002B985C9A8093000136
:104420000E94CB030E948C0C08EB13E087ECE82E73
:1044300083E0F82EF80184910E949F0C0F5F1F4FBC
:10444000E016F106B9F782E098E00E94930C0E9412
:104450008C0C8AED0E949F0C82E00E949F0C88EADF
:104460000E949F0C8FE10E949F0C82E098E00E94C6
:10447000930C1092FD071092FC071092FF07109208
:10448000FE07109200086091F20570E08091F4053B
:1044900090E00E94B40C0E9403170E94E20CE0918D
:1044A000D105F091D20513861586148612861186E1
:1044B0001086178216821582148213821092CF05FD
:1044C0001092D00501E0BE016F5F7F4F8091D10552
:1044D0009091D2050E947411882309F469C067E0A5
:1044E000CE0101960E94A80498858913ECCF809193
:1044F000CB05811128C08091D1059091D2050E94F1
:104500007005BE016F5F7F4F8091D1059091D205FC
:104510000E94510540E064EB8091D1059091D20555
:104520000E941D058091D1059091D2050E94BF0483
:10453000182F8091D1059091D2050E94700511111C
:1045400002C00093CB051091CC058981803111F414
:104550000C941F2DCE0101960E94FF058117C0F417
:104560008091CC058093CC058091CF058F5F80939F
:10457000CF058981883231F0A8F4803119F0823278
:1045800009F0A1CF8091D0058F5F8093D0059BCF9C
:104590008981803111F48CE0E5CFCE0101960E9433
:1045A000FF05E0CF8B3371F3823409F08CCFEACF73
:1045B0001A82198242E050E0BE016F5F7F4F90E0A7
:1045C00080E00E94371412E0E12EF12C10E000E0B0
:1045D000C7010E941214080F111DFFEFEF1AFF0A06
:1045E00028E2E216F104A1F70F5F1F4F89819A813B
:1045F0000817190709F01BC246E250E063E171E0B9
:1046000082E090E00E9437140E94541480912901A6
:104610008093390183E08093240880932508809358
:10462000260860E880E10E94CC0860E881E10E94F1
:10463000CC0860E882E10E94CC0880E096E4A3EC1C
:10464000B3E280933C0190933D01A0933E01B0936F
:104650003F0162ED87EB0E94CC080E94A8100E94E7
:104660004F160E94BE100E94EB100E94F4110E948F
:1046700051134C9903C084E6809340050E940317B0
:104680001092FD071092FC071092FF071092FE0790
:104690001092000883E08093FA0788E18093FB077B
:1046A00080914005843609F0C5C18BE794E00E94F3
:1046B000A6170E94E20C4C9BFECF68EE73E080E0F0
:1046C00090E00E9451040E94D217B8EE2B2EB3E066
:1046D0003B2E1AE08091260581113EC04E99C0C143
:1046E000809120058F5F80932005809120058B307D
:1046F00098F11093200580911F05811103C081E07E
:1047000080931F0580912805811153C001E000931B
:1047100028050E944F16009329058091400581507D
:10472000833008F046C01092400564E670E080E0F7
:1047300090E00E94510468EE73E080E090E00E94F7
:10474000D102809180008F7C8061809380000093F3
:104750001A05289A0E94CE1580912805811129C03A
:104760004D99C7C1809127058F5F80932705809160
:1047700027058B30F0F010932705809125058111D6
:1047800007C081E0809325050E944F160E94C6163F
:104790008091260581110DC080912505882349F05F
:1047A00081E080932605809329050E944F160E9480
:1047B000C61680913F0581110AC080912905882382
:1047C00031F0809180008F7780938000299A8091CA
:1047D0003F05882359F080912905811107C08091F8
:1047E00080008F7780938000299828988091080115
:1047F0004C9B02C00C94802C882361F0109208011D
:104800000E94840460932A0570932B0580932C05E5
:1048100090932D0580911A08823008F0DCC1F8943D
:104820008FE098E00E942E11609116087091170891
:10483000809118089091190878942091390130E0FE
:1048400050E040E00E943B2D69017A0180912801EF
:10485000882341F0F094E094D094C094C11CD11C02
:10486000E11CF11C8090320590903305A090340536
:10487000B09035058C149D04AE04BF0409F459C0F2
:104880004C9B57C0009140058FEF800F883018F483
:1048900081E0809331054090370550903805609055
:1048A000390570903A0558EE450E53E0551E611CCF
:1048B000711C0E948404461657066806790638F172
:1048C0000A3109F41DC508F0C3C1063009F41EC43D
:1048D00008F091C1023009F4A0C308F07EC10023A2
:1048E00009F4B2C2013009F477C380911601811135
:1048F00003C091E09093360590914005992329F0EB
:10490000882319F081E0809336050E94D2170E9417
:10491000840460933705709338058093390590932C
:104920003A05C0923205D0923305E0923405F092F8
:10493000350580913F05339902C00C94172D8111E4
:1049400009C081E080933F050E94CE150E944F165A
:104950000E94D2170E94BE108091400581115FC055
:1049600000913F05002309F4C6C724E630E03093E8
:104970003B0120933A010E948404C0903B05D090F3
:104980003C05E0903D05F0903E05AB01BC014C19A3
:104990005D096E097F0980913A0190913B01B0E079
:1049A000A0E084179507A607B707C8F50E948404FE
:1049B000C0903705D0903805E0903905F0903A0561
:1049C0006C197D098E099F09613177428105910536
:1049D000A0F080913605882381F001110EC00E945D
:1049E000840460933705709338058093390590935C
:1049F0003A05109236050E944D100E94EB100E945D
:104A0000F4110E9451130E94D2170E9484046093F3
:104A10003B0570933C0580933D0590933E0540E037
:104A200050E0452B09F456CE0E94000052CE0E9461
:104A30004D10EACD81E091E00E94A61781E08093BD
:104A4000FA0788E08093FB078091FE0787708093C8
:104A5000000881E894E00E94A6170E94E20C2DCE87
:104A60008091280510922005882309F43ECE80917C
:104A70001F05882361F00E94840460931B057093D6
:104A80001C0580931D0590931E0510921F058091B3
:104A90001F0581112ACE0E948404C0901B05D0906E
:104AA0001C05E0901D05F0901E056C197D098E090E
:104AB0009F09623371058105910508F416CE1092A5
:104AC000280580911A05882379F0809180008F7CD9
:104AD0008093800064E670E080E090E00E945104E2
:104AE00010921A050E94CE150E944F1610922905A9
:104AF000FCCD1092270580912605882309F437CE36
:104B000080912505882381F00E948404609321050B
:104B10007093220580932305909324051092250518
:104B20000E944F160E94C6168091250581111FCE46
:104B30000E948404C0902105D0902205E0902305B6
:104B4000F0902405AB01BC014C195D096E097F0989
:104B500080912F01819FC0011124092E000CAA0B06
:104B6000BB0B481759076A077B0708F400CE109261
:104B70002605109229050E944F160E94C616F7CDF1
:104B8000F894CEC624E115C71092400514C78F5F74
:104B9000873099F080934005809140058D5187348E
:104BA00018F484E18093400580914005813708F432
:104BB0001BC784E68093400517C710924005ECCFD1
:104BC0008B51823008F02FC787E1809340052BC7B7
:104BD0001092400528C7F89427CE043009F442C249
:104BE00008F439C28091320191E089278093320123
:104BF0000E94CE157ACE063109F414C378F404313C
:104C000009F48BC208F0B8C2073009F06ECE80916B
:104C1000380191E0892780933801EACF083109F4FF
:104C200047C308F425C380912F018C149D04AE0462
:104C3000BF040CF05AC38F3F19F08F5F80932F0190
:104C400080912F018A3008F48AE080932F014DCEA5
:104C5000093609F470C408F069C0053609F49DC32B
:104C600078F40C3109F486C308F467C3043609F0FC
:104C70003CCE8091160191E089278093160135CEB4
:104C8000073609F4CBC308F4A9C380911B019091A6
:104C90001C01A0911D01B0911E018C149D04AE0455
:104CA000BF040CF02CC4813EF6E39F07FFECAF0776
:104CB000B105A8F4E0911301F0E0EE0FFF1FE75BF0
:104CC000FE4F20813181820F931FA11DB11D809362
:104CD0001B0190931C01A0931D01B0931E018091B4
:104CE0001B0190911C01A0911D01B0911E01813EFC
:104CF00036E393073FECA307B10520F080EE96E37F
:104D0000AFECB0E0803A4AE994074EECA407B10555
:104D100020F480EA9AE9AEECB0E080931B01909316
:104D20001C01A0931D01B0931E0124C10D3609F48E
:104D300014C500F50B3609F4D8C408F467C4809193
:104D40002D0190912E018C149D04AE04BF040CF033
:104D5000F2C420912C01821718F48F5F80932D01EB
:104D600080912D01981708F4F1C481E0890F809398
:104D70002D013ECF0F3609F43CC508F416C50037A7
:104D800009F0B3CD80912E058C149D04AE04BF04B0
:104D90000CF0A6C58A3018F48F5F80932E058091A1
:104DA0002E058A3009F0A1CD0E9403171092FD074D
:104DB0001092FC071092FF071092FE071092000855
:104DC00082E08093FA0780E18093FB0785EA94E014
:104DD0000E94B4170E94E20C23E1822E21E0922E61
:104DE000B12CA12CC5010E94252DD4018D934D011C
:104DF000BFEFAB1ABB0AE6E2AE16B10499F789E041
:104E0000882E81E0982E97E2A92EB12CC5010E9430
:104E1000252DD4018D934D01BFEFAB1ABB0AE1E301
:104E2000AE16B10499F70E944D1086EB94E00E94F3
:104E3000B4170E94E20C68EE73E080E090E00E94FC
:104E400051040C94000051CD8091160181114DCD7B
:104E500040900A0150900B0160900C0170900D0180
:104E600020910F01309110014091110150911201D8
:104E700060EA76E881E090E00E94342F6D877E87BB
:104E80008F87988BA0910E01B0E020EA36E841E0D0
:104E900050E00E945A2D69877A878B879C878C14F3
:104EA0009D04AE04BF040CF068C08D859E85AF855F
:104EB000B88984159505A605B70550F1E091130151
:104EC000F0E0EE0FFF1FE75BFE4F20813181AAE08B
:104ED000B0E00E94872D4B015C01C301B201A50126
:104EE00094010E94652D480C591C6A1C7B1C61159D
:104EF00071058105910521F0461A570A680A790A59
:104F000040920A0150920B0160920C0170920D01C7
:104F100080910A0190910B01A0910C01B0910D01BB
:104F200029853A854B855C8582179307A407B507C9
:104F300040F420930A0130930B0140930C015093ED
:104F40000D0180910A0190910B01A0910C01B0918B
:104F50000D012D853E854F855889281739074A0749
:104F60005B0740F420930A0130930B0140930C013E
:104F700050930D010E944F16B8CCC814D904EA040E
:104F8000FB0434F629853A854B855C854216530629
:104F90006406750608F4BCCFE0911301F0E0EE0F53
:104FA000FF1FE75BFE4F20813181AAE0B0E00E9445
:104FB000872D4B015C01C301B201A50194010E9440
:104FC000652D611571058105910509F095CF48188A
:104FD00059086A087B0894CF8091140190911501BB
:104FE0008C149D04AE04BF047CF4891718F48F5F01
:104FF0008093140180911401981708F4892F8093ED
:1050000014010E945414B6CFC814D904EA04FB0456
:105010008CF7882379F38150EBCF809113018C14A6
:105020009D04AE04BF0474F4863018F48F5F80933F
:10503000130180911301873008F457CC86E08093E8
:10504000130153CCC814D904EA04FB0494F7882351
:1050500081F38150ECCF8091090191E08927809301
:10506000090188CF8091330190913401A0913501DD
:10507000B09136018C149D04AE04BF04BCF5893B8D
:105080003BE09307A105B1055CF4C296A11DB11DDB
:105090008093330190933401A0933501B09336018E
:1050A0008091330190913401A0913501B091360186
:1050B000893B5BE09507A105B10524F088EB9BE0F7
:1050C000A0E0B0E08834E4EF9E07EFEFAE07BE0744
:1050D00024F488E494EFAFEFBFEF80933301909313
:1050E0003401A0933501B093360144CFC814D904DC
:1050F000EA04FB04ACF6883444EF94074FEFA407AE
:10510000B40774F2C297A109B109C2CF80913701E7
:1051100091E08927809337016BCD80910E018C142B
:105120009D04AE04BF04FCF48F5F80930E01409198
:105130000E018FE04F30A0F080910F01909110018F
:10514000A0911101B091120150E070E060E0019770
:10515000A109B109481759076A077B0708F4CA0172
:1051600080930E01C2CBC814D904EA04FB04FCF6F8
:105170008F30E8F28150D9CF80910F0190911001CA
:10518000A0911101B09112018C149D04AE04BF04D2
:10519000DCF58D32F1E09F07A105B10558F40196C9
:1051A000A11DB11D80930F0190931001A0931101D7
:1051B000B093120140910F015091100160911101C3
:1051C0007091120180910E0190E00196092E000C61
:1051D000AA0BBB0B481759076A077B0760F0DB0176
:1051E000CA018D3221E09207A105B10520F08CE2C1
:1051F00091E0A0E0B0E080930F0190931001A093A4
:105200001101B093120171CBC814D904EA04FB0454
:105210008CF68F309105A105B10560F20197A109C7
:10522000B109C0CF809115018C149D04AE04BF0458
:10523000B4F48E3118F48F5F8093150180911501BD
:105240008F3118F08EE180931501809115019091B6
:105250001401891708F049CB8093140146CBC81478
:10526000D904EA04FB0454F7882341F38150E4CFC6
:1052700080916A058C149D04AE04BF0484F48831C7
:1052800018F48F5F80936A0580916A05883118F061
:1052900087E180936A0581E08093300526CBC814AE
:1052A000D904EA04FB0484F7882371F38150EACF20
:1052B000809169058C149D04AE04BF046CF48C339A
:1052C00018F48F5F80936905809169058C3318F31A
:1052D0008BE380936905DFCFC814D904EA04FB048B
:1052E0009CF7882389F38150EDCFC814D904EA04D0
:1052F000FB040CF0A5CC823008F4A2CC81509ECCEB
:10530000809130018C149D04AE04BF046CF48F3F77
:1053100019F08F5F80933001809130018A3008F45A
:105320008AE080933001E1CAC814D904EA04FB047E
:105330009CF7823088F38150EDCF809129018C1445
:105340009D04AE04BF046CF48F3F19F08F5F80930F
:10535000290180912901811101C081E080932901F7
:10536000C4CAC814D904EA04FB049CF7823088F349
:105370008150EDCF80912801882359F010922801A7
:10538000F094E094D094C094C11CD11CE11CF11C99
:10539000ACCA81E080932801F3CF809127018C145F
:1053A0009D04AE04BF047CF48F3F19F08F5F80939F
:1053B000270180912701843678F08F3F09F48EEF22
:1053C0008093270192CAC814D904EA04FB048CF71D
:1053D000843678F38150EBCF84E6F2CF80912A01B6
:1053E0008C149D04AE04BF0484F48F311CF48F5FD1
:1053F00080932A0180912A018F310CF08EE1823E48
:105400000CF482EE80932A0170CAC814D904EA040D
:10541000FB0484F7823E74F38150EACF809123012C
:1054200090912401A0912501B09126018C149D0436
:10543000AE04BF040CF048C0813C3EE0930736E167
:10544000A30732E0B307A8F4E0911301F0E0EE0FF8
:10545000FF1FE75BFE4F20813181820F931FA11D4B
:10546000B11D8093230190932401A0932501B09353
:1054700026018091230190912401A0912501B091F2
:105480002601813C5EE0950756E1A50752E0B5078D
:1054900020F080EC9EE0A6E1B2E08038E1EB9E07D0
:1054A000EFE4AE07E1E0BE0720F480E891EBAFE463
:1054B000B1E08093230190932401A0932501B09340
:1054C00026010E94A81056CDC814D904EA04FB0492
:1054D00084F6803841EB94074FE4A40741E0B40719
:1054E00040F2E0911301F0E0EE0FFF1FE75BFE4F8B
:1054F00020813181821B930BA109B109B2CFC8145D
:10550000D904EA04FB040CF0EACB803A2AE99207BA
:105510002EECA207B10508F4E2CBE0911301F0E014
:10552000EE0FFF1FE75BFE4F20813181821B930B43
:10553000A109B109CCCB80911F0190912001A091CC
:105540002101B09122018C149D04AE04BF040CF023
:1055500043C0813E56E395075FECA507B105A8F46B
:10556000E0911301F0E0EE0FFF1FE75BFE4F20819B
:105570003181820F931FA11DB11D80931F01909354
:105580002001A0932101B093220180911F019091ED
:105590002001A0912101B0912201813EF6E39F07F5
:1055A000FFECAF07B10520F080EE96E3AFECB0E082
:1055B000803A2AE992072EECA207B10520F480EA8E
:1055C0009AE9AEECB0E080931F0190932001A09384
:1055D0002101B0932201CECCC814D904EA04FB0403
:1055E000A4F6803AEAE99E07EEECAE07B10568F250
:1055F000E0911301F0E0EE0FFF1FE75BFE4F20810B
:105600003181821B930BA109B109B7CF809117019A
:1056100090911801A0911901B0911A018C149D0468
:10562000AE04BF040CF046C0813034EB930734EC79
:10563000A30734E0B307A8F4E0911301F0E0EE0F04
:10564000FF1FE75BFE4F20813181820F931FA11D59
:10565000B11D8093170190931801A0931901B09385
:105660001A018091170190911801A0911901B09130
:105670001A01813054EB950754ECA50754E0B507A7
:1056800020F080E094EBA4ECB4E08038E3EC9E07DB
:10569000E9ECAE07E1E0BE0720F480E893ECA9EC6A
:1056A000B1E08093170190931801A0931901B09372
:1056B0001A0160CCC814D904EA04FB0494F68038BB
:1056C00043EC940749ECA40741E0B40750F2E091A1
:1056D0001301F0E0EE0FFF1FE75BFE4F20813181E9
:1056E000821B930BA109B109B4CF80912E018C14B8
:1056F0009D04AE04BF04A4F490912D01891718F401
:105700008F5F80932E0180912E01803190F09091D7
:105710002D01891710F08FEF890F80932E0168CA31
:10572000C814D904EA04FB0474F7803160F3815093
:10573000E8CF80E1F2CFC814D904EA04FB040CF0EE
:105740000FCB981708F00CCB815008CB90912C010F
:10575000891708F40CCB8FEF09CB80912C01909125
:105760002D018C149D04AE04BF0484F420912B0100
:10577000821718F48F5F80932C0180912C01981769
:1057800070F081E0890F80932C0132CAC814D904CB
:10579000EA04FB0494F7981780F78150ECCF9091BE
:1057A0002B01891780F38FEFEDCF80912B01909122
:1057B0002C018C149D04AE04BF0474F48D3F18F4C6
:1057C0008F5F80932B0180912B01981770F081E0FF
:1057D000890F80932B010CCAC814D904EA04FB0476
:1057E00094F7981780F78150ECCF8D3F90F38CEFB2
:1057F000F0CF80912F058C149D04AE04BF040CF0F3
:1058000064C08A3018F48F5F80932F0580912F0534
:105810008A3009F06AC80E9403171092FD0710929F
:10582000FC071092FF071092FE071092000882E01A
:105830008093FA0780E18093FB0786E994E00E9459
:10584000B4170E94E20C53E1852E51E0952EB12C45
:10585000A12CD4010D914D01C5010E94252D0817E1
:1058600021F0602FC5010E942D2DBFEFAB1ABB0A9E
:10587000E6E2AE16B10469F739E0832E31E0932EEB
:1058800047E2A42EB12CD4010D914D01C5010E9417
:10589000252D081721F0602FC5010E942D2DBFEF87
:1058A000AB1ABB0AE1E3AE16B10469F787EB94E0EB
:1058B0000E94B4170E94E20C68EE73E080E090E072
:1058C0000E9451041092400510C8C814D904EA047B
:1058D000FB040CF09BCF882309F498CF815094CF20
:1058E000C814D904EA04FB040CF059CA882309F44B
:1058F00056CA815052CA30923B0120923A013BC8AD
:1059000081110C940A2480911A0891E09093080167
:10591000823008F035C9F8948FE098E00E942E118B
:1059200060911608709117088091180890911908D5
:1059300078942091390130E050E040E00E943B2D06
:105940002093320530933305409334055093350549
:1059500080912801882379F088279927DC01821B10
:10596000930BA40BB50B8093320590933305A09352
:105970003405B09335050E948404C0902A05D09068
:105980002B05E0902C05F0902D056C197D098E09F2
:105990009F09683E33E073078105910560F020910F
:1059A00040052111F1C820911601222309F4EAC80B
:1059B00027E12093400565567109810991096338F3
:1059C00073408105910578F5809140059FEF980F10
:1059D000983008F0DCC890913105992309F4D7C8B4
:1059E000109231051092400590911501911109C056
:1059F00080914005813011F0843619F48F5F8093D7
:105A0000400580911601882371F0992361F08091FF
:105A10004005873108F0D4C8843108F0D5C88250D9
:105A2000823008F4D5C80E94D2170C940A24882327
:105A300011F40C94AA2410923F050C94A4241D3058
:105A400010F00C94B0220C94CB22F999FECF92BDA9
:105A500081BDF89A992780B50895262FF999FECF30
:105A60001FBA92BD81BD20BD0FB6F894FA9AF99A7B
:105A70000FBE01960895052E97FB1EF400940E9418
:105A8000522D57FD07D00E94652D07FC03D04EF420
:105A90000C94522D50954095309521953F4F4F4F86
:105AA0005F4F089590958095709561957F4F8F4FCA
:105AB0009F4F08950E94872DA59F900DB49F900D34
:105AC000A49F800D911D11240895A1E21A2EAA1BF6
:105AD000BB1BFD010DC0AA1FBB1FEE1FFF1FA2179E
