:100000000C94FE010C941D200C94F51F0C942602F8
:100010000C9426020C9426020C9426020C942602C0
:100020000C9426020C9426020C9426020C942602B0
:100030000C9426020C9426020C9426020C942602A0
:100040000C94811E0C9426020C9426020C94260219
:100050000C9426020C9426020C9426020C94260280
:100060000C94D61E0C9426020044445F44440000C5
:10007000060F090F06000000000000000000006FDE
:1000800000000007000700147F147F148C92FF9279
:1000900062231308646236495620500000070000AE
:1000A000001C2241000041221C0014083E081408D4
:1000B000083E0808005030000008080808080060E2
:1000C00060000020100804023E5149453E00427F76
:1000D000400042615149462141454B311814127F7D
:1000E0001027454545393C4A494930017109050306
:1000F0003649494936064949291E0036360000006E
:10010000563600000814224100141414141400413F
:1001100022140802015109063E415D494E7E09093B
:10012000097E7F494949363E414141227F41414153
:100130003E7F494949417F090909013E4149497AC0
:100140007F0808087F00417F41002040413F017F38
:10015000081422417F404040407F020C027F7F0410
:1001600008107F3E4141413E7F090909063E415149
:10017000215E7F09192946464949493101017F011C
:10018000013F4040403F0F3040300F3F4030403F44
:100190006314081463070870080761514945430058
:1001A000007F4100020408102000417F000004028B
:1001B0000102044040404040000003040020545429
:1001C00054787F48444438384444442038444448B0
:1001D0007F3854545418087E0901020C5252523E82
:1001E0007F0804047800447D40002040443D000026
:1001F0007F10284400417F40007C041804787C086C
:1002000004047838444444387C1414140808141442
:10021000187C7C080404084854545420043F44408B
:10022000203C4040207C1C2040201C3C4030403C76
:1002300044281028440C5050503C4464544C440012
:100240000836414100007F000041413608000402A9
:100250000408047E1111117E7F494949337F4949C1
:1002600049367F01010103E0514F41FF7F49494970
:100270004177087F087741494949367F1008047F54
:100280007C2112097C7F0814224120413F017F7F9D
:10029000020C027F7F0808087F3E4141413E7F01FA
:1002A00001017F7F090909063E4141412201017F89
:1002B000010147281008071C227F221C6314081420
:1002C000637F404040FF070808087F7F407F407FF2
:1002D0007F407F40FF017F4848307F4830007F00EB
:1002E0007F484830224149493E7F083E413E4629E9
:1002F00019097F20545454783C4A4A49317C54545B
:1003000028007C04040C00E0544C44FC3854545441
:10031000186C107C106C44545428007C2010087C0D
:1003200078422412787C1028440020443C047C7CD1
:100330000810087C7C1010107C38444444387C043D
:1003400004047C7C14141408384444440004047CE1
:1003500004040C5050503C3048FE483044281028CB
:10036000447C40407CC00C1010107C7C407C407C65
:100370007C407C40FC047C5050207C5050207C7C95
:100380005050200028445454387C103844380854C5
:1003900034147C3855545518005EBCE2613FDD834F
:1003A000C29C7E20A3FD1F41009D23BE46DB65F855
:1003B0008C11AF32CA57E974AED5808D142001A1DB
:1003C000C8817FDB40A6AF010204081020408001F5
:1003D000020408102001020408102000000000237D
:1003E0000026002900040404040404040402020298
:1003F00002020203030303030300452011241FBE6E
:10040000CFEFD8E0DEBFCDBF28E0AAEBB4E001C05B
:100410001D92AD33B207E1F714E0A0E0B1E0E2E2F3
:10042000FFE502C005900D92AA3BB107D9F711E094
:10043000CEEFD1E004C02197FE010E946A2DCD3F8E
:10044000D107C9F70E9487210C948F2F0C940000CC
:100450002091BA0581E0213208F046C080919605CE
:100460008111FCCF9091B90532E03093960531E0CF
:10047000309395053FEF30939405109293052093A8
:10048000920549E955E0A2E7B5E0FA013E2F341B99
:10049000321788F11092710520917105990F922BF6
:1004A0009093710590917005913041F5109270050F
:1004B000909171059093BB009091BC0093FDF8CF93
:1004C00095EC9093BC00909196059230E1F3909159
:1004D00094059F3F49F080919405803289F0809186
:1004E0009405803379F084E0109298051092BA0553
:1004F00010929705089531913D93C8CF95EEE1CFC5
:1005000082E0F2CF83E0F0CF91E090939705809363
:10051000B905109298051092BA0508959091960524
:100520009111FCCF91E090939605909395052FEF54
:100530002093940510929305260F20939205909393
:10054000710590917105880F892B809371058091B9
:100550007005813011F510927005809171058093BE
:10056000BB008091BC0083FDF8CF85EC8093BC007C
:10057000809196058130E1F380919305861710F400
:100580006091930522E735E0A8E4B5E0F9018E2FEC
:10059000821B861720F0862F089585EEE7CF819184
:1005A0008D93F5CF8F929F92AF92BF92CF92DF92B1
:1005B000EF92FF92CF93611571058105910521F4AA
:1005C00061E070E080E090E024E0660F771F881F14
:1005D000991F2A95D1F76115710521E082079105D0
:1005E00008F44EC06115710528E08207910508F4F2
:1005F0004BC06115710520E48207910508F048C0E1
:1006000020E430E0C3E06901F12CE12CA7010E9455
:10061000C02D49015A0180918000807F8093800025
:10062000C861C0938100C9010197909387008093AE
:1006300086008091810087708093470560E074E2B6
:1006400084EF90E0A70196010E94962DAA24BB2476
:10065000CA01B901A50194010E94962D60E472E4DB
:100660008FE090E00E94C02DCA01B901CF91FF90A8
:10067000EF90DF90CF90BF90AF909F908F900895B4
:1006800021E030E0C1E0BFCF28E030E0C2E0BBCFE6
:1006900020E031E0C4E0B7CF809145059091460558
:1006A000891B990B08952091F4052817190668F104
:1006B0002091F3052617170640F11092FD071092BE
:1006C000FC071092FF071092FE07FB0123E0F5954F
:1006D000E7952A95E1F7880F991F880F991FE80F72
:1006E000F91F6770772781E090E0A0E0B0E004C0D8
:1006F000880F991FAA1FBB1F6A95D2F7E351FA4FC3
:10070000442321F02285822B82870895809592854B
:100710008923FACFDF92EF92FF920F931F93CF932B
:10072000DF937C01EB018A01D22E1092FD0710921B
:10073000FC071092FF071092FE074617570724F494
:100740008D2FEA01062F182F8091F4058E151F04B6
:10075000C8F0C017D10761F44D2DBE01C701DF916C
:10076000CF911F910F91FF90EF90DF900C94530366
:100770000C171D073CF04D2DBE01C7010E9453030D
:100780002196F6CFDF91CF911F910F91FF90EF90BF
:10079000DF9008950895089510924605109245053A
:1007A000109298051092BA051092960581E08093F8
:1007B000950510927005449A459AE9EBF0E0808126
:1007C0008E7F808380818D7F808388E48093B800D2
:1007D00085E48093BC008AEC93E090934405809379
:1007E00043058BEC93E09093420580934105089577
:1007F000CF92DF92EF92FF920F931F93CF93DF93ED
:100800007C016A0110E000E00C151D0581F0EB0190
:10081000D701ED91FC910190F081E02D6991C70124
:100820000995892B21F00F5F1F4FBE01EDCFC80145
:10083000DF91CF911F910F91FF90EF90DF90CF90BC
:100840000895880F991F880F991F05970197F1F751
:1008500008953FB7F8948091160590911705A091DF
:100860001805B091190526B5A89B05C02F3F19F0B2
:100870000196A11DB11D3FBFBA2FA92F982F882720
:10088000BC01CD01620F711D811D911D42E0660FFB
:10089000771F881F991F4A95D1F708958F929F92CD
:1008A000AF92BF92CF92DF92EF92FF926B017C01E9
:1008B0000E9429044B015C01C114D104E104F1043C
:1008C000B9F00E942904681979098A099B09683ED0
:1008D00073408105910580F381E0C81AD108E108D1
:1008E000F10828EE820E23E0921EA11CB11CE4CF79
:1008F000FF90EF90DF90CF90BF90AF909F908F9040
:1009000008952FB7F89460911205709113058091A6
:100910001405909115052FBF08952091000190E4D2
:10092000299F900111248E50822B80937C0080910E
:100930007A00806480937A0080917A0086FDFCCFF3
:1009400080917800909179000895E0E0615098F0EE
:10095000DC018D918E27E82FEF70F0E0E856FC4F18
:100960009491E82FE295EF70F0E0E855FC4FE491A8
:10097000E927CD01EBCF8E2F08950F931F93CF93CF
:10098000DF93FC011081C181D281F8948981812B90
:1009900089838A81012F009580238A8383E090E0F8
:1009A0000E9421048981802389838AE090E00E944B
:1009B0002104C881789485E390E00E942104C1233A
:1009C00081E009F480E0DF91CF911F910F910895AC
:1009D0001F93CF93DF93FC011081C181D281912FAE
:1009E000909560FF16C0F8948A8189238A83898153
:1009F000812B89838AE090E00E9421048A81182B50
:100A00001A83789487E390E0DF91CF911F910C9443
:100A10002104F8948A8189238A838981812B89839F
:100A200081E490E00E9421048A81182B1A83789433
:100A300085E090E0E9CFDF92EF92FF920F931F9352
:100A4000CF93DF93EC01D62EE42E08E010E0FF24D4
:100A5000F39461E08D2D8F2109F460E0CE010E94B6
:100A6000E804FF0C01501109A1F7E11010C0F8943F
:100A7000E981FA8191818881809589238183E98147
:100A8000FA81928188818095892382837894DF918D
:100A9000CF911F910F91FF90EF90DF900895EF920B
:100AA000FF920F931F93CF93DF938C017B0140E064
:100AB00065E50E941B05E70188E0E80EF11C6991DD
:100AC00040E0C8010E941B05CE15DF05C1F7DF918C
:100AD000CF911F910F91FF90EF900895FF920F9388
:100AE0001F93CF93DF93FC010081C181D281F894E1
:100AF0008981F02EF0948F21898378941DE711501D
:100B000029F182E090E00E94210488818023B9F3DA
:100B1000F8948A818F218A838981802B89837894B4
:100B200080EE91E00E942104F89489818F218983CD
:100B300086E490E00E9421048881082311E009F0F6
:100B400010E078948AE991E00E942104812FDF91DE
:100B5000CF911F910F91FF900895AF92BF92CF92C6
:100B6000DF92EF92FF920F931F93CF93DF938B014E
:100B7000BC018091D1059091D2050E944F0540E0C3
:100B80006EEB8091D1059091D2050E941B05E80182
:100B9000680189E0C80ED11CA090D105B090D205A3
:100BA00088E0E82EF12C10E001E0C5010E94BD04B0
:100BB0008111102B000F81E0E81AF108B1F71993A9
:100BC000CC16DD0649F78091D1059091D2050E949F
:100BD0006E0591E0813009F090E0892FDF91CF918F
:100BE0001F910F91FF90EF90DF90CF90BF90AF904B
:100BF00008950F931F93CF93DF93CDB7DEB7299757
:100C00000FB6F894DEBF0FBECDBF8C01FC01808112
:100C1000803181F18091D1059091D2050E946E05BD
:100C200081110CC080E029960FB6F894DEBF0FBE8C
:100C3000CDBFDF91CF911F910F910895BE016F5FDE
:100C40007F4FC8010E94AD05882361F368E0CE01A3
:100C500001960E94A50499858913E4CF8D818F3375
:100C600059F020F48F31F1F689E0DDCF8F3531F086
:100C70008F37C1F68CE0D7CF8AE0D5CF8BE0D3CFCA
:100C800085ED8093BC008091BC0084FDFCCF109268
:100C9000960508952091EE04260F3327331F213245
:100CA0003105ECF420919605FC0190E080E02430C1
:100CB00069F082E00895A091EE042191AC014253C5
:100CC0005B4FA40FB52FB11D2C930196861798F397
:100CD0008091EE04680F6093EE0480E0089581E057
:100CE00008950895E091460580914505E81730F490
:100CF000F0E0E85BFA4F808190E008958FEF9FEF7E
:100D0000089590914605809145052FEF3FEF981784
:100D100048F4E92FF0E0E85BFA4F208130E09F5F74
:100D200090934605C9010895CF92DF92EF92FF920A
:100D30000F931F93CF93DF937C01CB018A01209106
:100D40009705222389F0EB016B01C40ED51ECC154B
:100D5000DD0569F06991D701ED91FC910190F08179
:100D6000E02DC7010995F3CF642F0E944A06C80100
:100D7000DF91CF911F910F91FF90EF90DF90CF9077
:100D80000895CF93DF930F92CDB7DEB7698320919B
:100D900097052223F9F02091BA05203258F021E07E
:100DA00030E0FC013383228390E080E00F90DF91FC
:100DB000CF91089580919805E82FF0E0E756FA4F1B
:100DC000998190838F5F809398058093BA0581E025
:100DD00090E0ECCF61E0CE0101960E944A06F7CF89
:100DE000CF9388E60E94840260E08BEB95E00E943E
:100DF000C10660E88BEB95E00E94C1068091690511
:100E0000CAE06C2F0E94AC2C8295807F682F690FFE
:100E10008BEB95E00E94C10680916A056C2F0E94C1
:100E2000AC2C8295807F682F690F8BEB95E00E9438
:100E3000C10680916B056C2F0E94AC2C8295807F3F
:100E4000682F690F8BEB95E00E94C10680916C05BD
:100E50006C2F0E94AC2C8295807F682F690F8BEBE2
:100E600095E00E94C10680916D056C2F0E94AC2C0C
:100E70008295807F682F690F8BEB95E00E94C106F9
:100E800080916E058E516C2F0E94AC2C8295807FD4
:100E9000682F690F8BEB95E00E94C1060E94280223
:100EA000882329F010926F0580E0CF91089581E0AA
:100EB00080936F0588E60E94840260E08BEB95E0EA
:100EC0000E94C106809168056C2F0E94AC2C82950F
:100ED000807F682F690F8BEB95E00E94C1060E940E
:100EE00028028111DFCF81E0E0CF682F8BEB95E006
:100EF0000C94C106BF92CF92DF92EF92FF920F93B4
:100F00001F93CF93DF938C017B01E40EF51EEB0161
:100F1000B99068018FEFC81AD80A80913C080E94E6
:100F20008402812F90E00E947507C80199270E94D2
:100F300075076B2D8BEB95E00E94C1060E9428027D
:100F40006AE070E080E090E00E944E04BE018601FD
:100F5000CE15DF05E1F6DF91CF911F910F91FF9044
:100F6000EF90DF90CF90BF9008958093BB0084E80E
:100F70008093BC008091BC0087FFFCCF9091B900AA
:100F8000987F81E0983231F0983129F0903419F04F
:100F900080E008950895089584EA8093BC008091CC
:100FA000BC0087FFFCCF8091B900887F19F080ECEE
:100FB0000C94B50780E008955F926F927F928F92B4
:100FC0009F92AF92BF92CF92DF92EF92FF920F93D8
:100FD0001F93CF93DF93CDB7DEB7582E742E652EB7
:100FE000B62E922E0E94CC07852D0E94B5078D2D1E
:100FF0000E94B5078C2D0E94B5078B2D83708A291E
:1010000090E081109CE0892B0E94B507862D0E94FC
:10101000B507872D0E94B5078CE0F694E794D79426
:10102000C7948A95D1F78C2D807FC82E892D8F701B
:101030008C290E94B507812F0E94B507802F0E943E
:10104000B50784E98093BC008091BC0084FDFCCF8F
:10105000DF91CF911F910F91FF90EF90DF90CF9094
:10106000BF90AF909F908F907F906F905F9008950A
:101070004F925F926F927F928F929F92AF92BF92A8
:10108000CF92DF92EF92FF920F931F93CF93C82FCF
:10109000C0903308D0903408E0903508F0903608BE
:1010A000CB01BA01A70196010E94C02D49015A0146
:1010B00025E0F694E794D794C7942A95D1F735E0C4
:1010C00096958795779567953A95D1F747E0660F9E
:1010D000771F881F991F4A95D1F7A70196010E9493
:1010E000C02D29013A018B019C01B501A4015527AE
:1010F00066277727E7E0440F551F661F771FEA959D
:10110000D1F7525061097109440D551D661D771DB7
:10111000812CA12C8C2F0E94DC07CF911F910F9165
:10112000FF90EF90DF90CF90BF90AF909F908F9007
:101130007F906F905F904F9008958F92AF92CF9273
:10114000DF92EF92FF920F931F9388248394443091
:1011500051056105710509F0812C4450510961095F
:101160007E4F97E0440F551F661F771F9A95D1F762
:10117000A22EC12CD12C7601C39400E010E098017E
:101180000E94DC071F910F91FF90EF90DF90CF90AE
:10119000AF908F900895CF93DF93D82FC62F0E94E2
:1011A000CC078D2F0E94B5078C2F0E94B50784E9CC
:1011B0008093BC008091BC0084FDFCCFDF91CF9177
:1011C0000895CF93C82F60E880E18C0F0E94CB0870
:1011D000EC2FF0E0EE0FFF1FE55EF74F118210825B
:1011E000CF9108954F925F926F927F92AF92BF928C
:1011F000CF92DF92EF92FF920F931F93CF93DF93E3
:10120000D82F082F10E0F801EE0FFF1FEE0FFF1F81
:10121000E95DF74F40805180628073804114510432
:101220006104710489F48D2FDF91CF911F910F918B
:10123000FF90EF90DF90CF90BF90AF907F906F9036
:101240005F904F900C94E1085801AA0CBB1CF5016B
:10125000E55EF74FC080D180F12CE12C055E174F81
:10126000F801C681A3019201C701B6010E949C2C1E
:101270009B01AC01EC2FF0E0E95AFE4FA081B0E0F9
:101280000E94B52D9B01AC0120583447424D5A4174
:101290002130334A414E514108F43FC060913C0136
:1012A00070913D0180913E0190913F01A301920117
:1012B0000E94C02D69017A0184E0C816D104E104BE
:1012C000F10408F4B0CFE6E0CE16D104E104F10455
:1012D00008F470C0C0E0FDE2CF16F1E0DF06E104E3
:1012E000F10430F0CF5FF694E794D794C794F3CF2E
:1012F000C11103C0E894C0F8C0E0A3019201C70186
:10130000B6010E949C2C9B01AC01EC2FF0E0E95A45
:10131000FE4FA081B0E00E94B52D2AE1D11122E25A
:10132000AB01BC01822F0E943808F501E55EF74F42
:1013300080819181B0E0A0E08C159D05AE05BF05D0
:1013400021F4F80186818C1731F12C2F2295207F12
:10135000B701A6018D2F880F880F880F865D0E9428
:101360009D08F801618580E0D11180E2682B6C64F2
:1013700080E18D0F0E94CB08F501E55EF74FD18229
:10138000C082F801C68380913B0890E2D11190E8B9
:10139000892B80933B08DF91CF911F910F91FF9094
:1013A000EF90DF90CF90BF90AF907F906F905F9065
:1013B0004F90089584E0C82ED12CE12CF12C9ACFC7
:1013C0002F923F924F925F926F927F928F929F9255
:1013D000AF92BF92CF92DF92EF92FF920F931F9343
:1013E000CF93DF9300D000D00F92CDB7DEB7490185
:1013F0005A012701380110923B08C0902B08D09069
:101400002C08E0902D08F0902E08009127081091EC
:1014100028082091290830912A080617170728075D
:10142000390759F06093270870932808809329089A
:1014300090932A0880E00E94F208C814D904EA04B4
:10144000FB0471F480912F0890913008A09131082D
:10145000B091320884159505A605B70509F403C1B6
:1014600080922B0890922C08A0922D08B0922E0802
:1014700040922F08509230086092310870923208E2
:1014800081149104A104B10419F481E00E94E108DF
:1014900080912F0890913008A0913108B0913208C6
:1014A000892B8A2B8B2B19F482E00E94E108409053
:1014B0002B0850902C0860902D0870902E08411435
:1014C00051046104710409F473C1C814D904EA0415
:1014D000FB0409F4A5C0C0901D08D0901E08F12C93
:1014E000E12C209122082983A3019201C701B601B2
:1014F0000E949C2C9B01AC018981E82FF0E0E95A05
:10150000FE4FA081B0E00E94B52D4B015C01DC01D3
:10151000CB0180589447A24DBA418130934AA14EE5
:10152000B14108F446C060913C0170913D01809149
:101530003E0190913F01A30192010E94C02D6901DB
:101540007A0181E044E0C416D104E104F10408F416
:1015500088C086E0C816D104E104F10408F4A4C0F0
:1015600019829DE2C91691E0D906E104F10440F028
:1015700029812F5F2983F694E794D794C794F1CFFC
:101580004981411103C0E894C0F81982A301920176
:10159000C701B6010E949C2C9B01AC018981E82FF8
:1015A000F0E0E95AFE4FA081B0E00E94B52D4B015A
:1015B0005C01B501A40182E20E94380880911D08F7
:1015C00090911E08B0E0A0E08C159D05AE05BF050A
:1015D00029F48091220899818917D1F029812295D7
:1015E000207FB701A60182E30E949D086091250833
:1015F0006C6681E10E94CB08D0921E08C0921D0843
:1016000029812093220880913B08806880933B08C1
:101610008092370890923808A0923908B0923A0820
:10162000C0902F08D0903008E0903108F090320838
:10163000C114D104E104F104B1F080903708909016
:101640003808A0903908B0903A08C501B401A70144
:1016500096010E94C02D283031054105510550F5F5
:1016600082E00E94E10860913B08662319F081EB5B
:101670000E94CB0880913B080F900F900F900F9025
:101680000F90DF91CF911F910F91FF90EF90DF901E
:10169000CF90BF90AF909F908F907F906F905F9012
:1016A0004F903F902F90089504E0C02ED12CE12C54
:1016B000F12C69CF1D82213431054105510560F0BF
:1016C0008D818F5F8D83CC0CDD1CEE1CFF1C56952D
:1016D000479537952795EFCFC501B401A70196012E
:1016E0000E94C02D29833A834B835C832FEF3FEF09
:1016F0004FE050E00E94CC2C56016701E12CF12C08
:1017000000E010E00E94F92C29013A019D81929598
:10171000907F9D83C12CD12C7601C3944114510438
:101720006104710431F0CC24CA94DC2CFFE0EF2E6C
:10173000F12CC301B20127E0660F771F881F991FA4
:101740002A95D1F7A70196010E94C02D49015A019F
:101750008B019C0149815A816B817C8155276627C9
:101760007727E7E0440F551F661F771FEA95D1F7EB
:10177000525061097109480D591D6A1D7B1D812C4C
:10178000AD808AE30E94DC076CE4452846284728A0
:1017900009F06CE080912608682B606282E10E946B
:1017A000CB0881E090E09093200880931F085BCFE6
:1017B00080902F0890903008A0903108B0903208A7
:1017C00081149104A104B10409F44DCFC0901F0805
:1017D000D0902008F12CE12C209123082983A50129
:1017E0009401C701B6010E949C2C9B01AC01898128
:1017F000E82FF0E0E95AFE4FA081B0E00E94B52D3D
:101800008B019C0100581447224D3A410130134A84
:10181000214E314108F443C060913C0170913D017B
:1018200080913E0190913F01A50194010E94C02D3D
:1018300069017A0184E0C816D104E104F10408F4D6
:101840000FCF96E0C916D104E104F10408F458C0A2
:1018500019822DE2C21621E0D206E104F10440F023
:1018600049814F5F4983F694E794D794C794F1CFA9
:101870008981811103C0E894C0F81982A5019401FF
:10188000C701B6010E949C2C9B01AC019981E92FF4
:10189000F0E0E95AFE4FA081B0E00E94B52DAB0107
:1018A000BC0182E20E94380880911F0890912008B4
:1018B000B0E0A0E08C159D05AE05BF0531F4809128
:1018C00023082981821709F4CECE29812295207F11
:1018D000B701A6018AE30E949D08609126086C6604
:1018E00082E10E94CB08D0922008C0921F08498153
:1018F0004093230880913B08806880933B08B3CED7
:1019000084E0C82ED12CE12CF12CB5CF682F8BEBC5
:1019100095E00C94C1068091F1050E94840280E05C
:101920000C94860CCF93DF93EC010E94280218825E
:1019300082E090E0DF91CF910C9421040E94860C0C
:10194000809102088F5F80930208803158F082E016
:1019500098E00E94920C8091F1050E94840280E43C
:101960000C94860C08950F931F93CF93DF938C01F3
:10197000EB010E948B0C81E20E94860C80E00E94A9
:10198000860C8091F40590E0081719070CF4C80143
:101990000E94860C82E20E94860C80E00E94860CE7
:1019A0008091F20590E0C817D9070CF4CE010E948F
:1019B000860C82E098E0DF91CF911F910F910C94FB
:1019C000920CCF93DF936091F20570E08091F40563
:1019D00090E00E94B30C8091F1050E94840280E4A3
:1019E0000E94860CC7EFD5E089910E949E0C87E08B
:1019F000C73FD807C9F782E098E0DF91CF910C94F8
:101A0000920CCF93C82F0E948B0C81E80E94860C09
:101A10008C2F0E94860C82E098E0CF910C94920C5F
:101A20000F931F93E42F0130110541F1023011058E
:101A300009F444C0012BF9F4DC01A15FBD4F4D91C5
:101A40005C911197240F352F311D220F331F220F68
:101A5000331F12964D915C9103E0559547950A9579
:101A6000E1F7240F351FE20FF32FF11DE80FF91FE7
:101A70008285682B62871F910F910895DC01A15F19
:101A8000BD4F4D915C911197240F352F311D220FC1
:101A9000331F220F331F12964D915C91A3E0559591
:101AA0004795AA95E1F7240F351FE20FF32FF11D9B
:101AB000E80FF91F609582856823DCCFDC01A15F08
:101AC000BD4F4D915C911197240F352F311D220F81
:101AD000331F220F331F12964D915C9173E0559581
:101AE00047957A95E1F7820F931F840F951FE80FB2
:101AF000F92FF11DBFCF2F923F924F925F926F92BD
:101B00007F928F929F92AF92BF92CF92DF92EF928D
:101B1000FF920F931F93CF93DF93CDB7DEB72E972E
:101B20000FB6F894DEBF0FBECDBF9E878D87FC0138
:101B3000E25FFD4F808190E0ED85FE85EF5EFD4F19
:101B40002D853E85245F3D4F79016D30E9F52D856A
:101B50003E85215F3D4FD9011D921C9221E060E03E
:101B60004D855E85455F5D4FDA017C917723C9F134
:101B70004D855E85435F5D4FDA013C910D851E8585
:101B8000015F1D4FD8014D915C91B6E03B9F400D28
:101B9000511D1124AD85BE8517963C91341715064D
:101BA00009F0FCF420813181D8011D921C92280F8C
:101BB000391F318320834D855E854D5E5D4F2081C9
:101BC0002770DA012C930FC020E06A3049F620819B
:101BD0003181280F391F3183208321E0D7012C93D5
:101BE000BECF2111E8CF20813181820F931FED8577
:101BF000FE85268130E02F5F3F4F281739070CF410
:101C000060E0D7018C91882349F1772339F1603264
:101C100029F5ED85FE85E15FFD4F80819181892B5E
:101C200009F03FC01C9281E090E02E960FB6F89428
:101C3000DEBF0FBECDBFDF91CF911F910F91FF90FF
:101C4000EF90DF90CF90BF90AF909F908F907F905C
:101C50006F905F904F903F902F90089567FF48C01E
:101C6000ED85FE85EC5EFD4F603C98F48081813D02
:101C700029F46139D9F5608360EC13C0803D29F403
:101C80006138A1F5608365E90CC0823E21F46038BB
:101C900069F56083C8CF803849F5643939F56083C8
:101CA0006DE2ED85FE85E15FFD4FFA83E9832081DA
:101CB00031814D855E85435F5D4F5C834B83DA01E7
:101CC0008C91F90146E0849FE00DF11D1124CF01B4
:101CD000F7FD07C0AD85BE8517964C9142171306D8
:101CE00054F4E981FA81918380839DCF6083D9CFB9
:101CF0006111D7CF98CFF0EEF60FF98725E0F29F6C
:101D0000C0011124AC0148585F4F1A01C12C605822
:101D10006C878D859E85865F9D4F9B878A87AD8565
:101D2000BE85AD5EBD4FBE83AD83ED85FE85EA5EAB
:101D3000FD4FF887EF83F5E060E0CF1661F029856D
:101D4000F101203638F0FC85F03108F05FC0F10178
:101D5000E551FF4F6491AA85BB858C9181116095F7
:101D6000EB81FC819081913009F059C0A981BA8141
:101D70008D919C9197FD35C0ED85FE8527812817B3
:101D800019067CF1AD81BE818C91EF81F8850081CF
:101D900010E020E040E0882301F1E62EF12CB701AD
:101DA00001C0660F8A95EAF720E040E08D859E85A8
:101DB0000E94100DAF81B8850C9110E0ED81FE817D
:101DC000808128E030E0281B3109B70102C07595F9
:101DD00067952A95E2F720E041E08D859E850E9477
:101DE000100DEB81FC818081A981BA812D913C91FC
:101DF0001197820F932F911D8D939C93C394BFEFE6
:101E00002B1A3B0AE6E0CE1296CF0DCF2985F101C1
:101E1000203A18F4E555F1099DCF35979BCF792FDE
:101E200030E020E0812C912C5401E62FF0E0872F48
:101E3000891BAF01022E02C0559547950A94E2F71F
:101E4000417055278717F1F0412C512C32014394F2
:101E5000082E04C0440C551C661C771C0A94D2F74B
:101E60004115510531F084289528A628B7288F5FA1
:101E7000E9CF409450946094709484209520A620DB
:101E8000B720F5CF2F5F3F4F782F790F28303105DE
:101E900071F6E12CA981BA818D919C91EB81FC8135
:101EA0002081E21608F09DCF8E0D911D97FD47C051
:101EB000AD85BE8517962C91281719060CF43FC0E6
:101EC000D12CF12CED81FE812081AB81BC818C91E4
:101ED000D816B0F5B8E0DB9EC0011124240135010D
:101EE00004C076946794579447948A95D2F7EF810B
:101EF000F885008110E0211109C02E2D4D2D642D93
:101F00008D859E850E94100DD394DCCF6F2D70E0DF
:101F100088E090E0821B910902C0759567958A95CB
:101F2000E2F7842D01C0880F2A95EAF7682B2E2D41
:101F30004D2D8D859E850E94100DF42CE5CFF12C42
:101F4000AD81BE818C918823B9F0EF81F885008145
:101F500010E06F2D70E028E030E0281B310902C04E
:101F6000759567952A95E2F72E2DAB81BC814C9132
:101F70008D859E850E94100DE3948CCFAF92BF9209
:101F8000CF92DF92EF92FF920F931F93CF93DF9345
:101F900028E0829FC0011124F12CE12C9C012859DA
:101FA0003F4F690188E0A82EB12CF601EE0DFF1D10
:101FB00064918091FC079091FD0701969093FD0735
:101FC0008093FC072091F4052817190664F080918E
:101FD000000881111AC010E000E020E040E08DEE22
:101FE00095E00E94100D3FEFE31AF30A88E0E8162F
:101FF000F104D9F6DF91CF911F910F91FF90EF90EF
:10200000DF90CF90BF90AF900895C62FD0E0BE0173
:1020100001C0660F8A95EAF710E000E020E040E09A
:102020008DEE95E00E94100D809100089501281B0F
:102030003109BE0102C0759567952A95E2F720E047
:1020400041E0CDCFFF920F931F93CF93DF9300D04A
:10205000CDB7DEB7E3E1F1E010E000E08191080FD9
:10206000111D81E0E933F807C9F746E250E063E16A
:1020700071E082E090E00E947A070F5F1F4F1A83A1
:10208000098342E050E0BE016F5F7F4F90E080E047
:102090000E947A07E9E0F1E083E191E010E000E0DE
:1020A0002191020F111D8E179F07D1F78091140106
:1020B0009CE0F92E8F9DC00111244AE050E069E0B8
:1020C00071E08A960E947A070F5F1F4F1A83098377
:1020D000809114018F9DC001112442E050E0BE01A7
:1020E0006F5F7F4F88960E947A070F900F90DF9165
:1020F000CF911F910F91FF900895809123019091AE
:102100002401A0912501B09126018093330890937A
:102110003408A0933508B093360880E00E94F20896
:1021200081E00C94F208CF93DF938091C3049091E7
:10213000C40427E0289FE001299FD00D112485E1E8
:102140000E948D04DE01A80FB91FAA0FBB1F94E0E7
:10215000B695A7959A95E1F7B093C404A093C304EC
:102160002091270130E00E94E22D2FEF33E040E084
:1021700050E00E94962D2093CA04DF91CF910895DC
:10218000CF93DF938FE00E948D048091C8049091DB
:10219000C904EC01CC0FDD1FC80FD91F8FE00E94CE
:1021A0008D042196C80FD91FCC0FDD1FCC0FDD1F6A
:1021B00044E0D695C7954A95E1F7D093C904C093FA
:1021C000C80480E10E948D048091C6049091C704E8
:1021D000EC01CC0FDD1FC80FD91F80E10E948D04D8
:1021E0002196C80FD91FCC0FDD1FCC0FDD1F74E067
:1021F000D695C7957A95E1F7D093C704C093C604E6
:10220000DF91CF910895DC01ED91FD918081ED91F9
:10221000FD919081ED91FD916C9163708E2309F099
:1022200064609F2309F06860E0E2F1E1E60FF11DD0
:10223000659565956D936D917D918D919D910994B5
:1022400023C01AC012C016C010C01EC009C014C0DE
:1022500013C006C019C009C00DC007C00DC014C00E
:1022600062507040804090400BC061507040804090
:10227000904006C06E5F01C06F5F7F4F8F4F9F4FD2
:102280009E938E937E936E930895089590E080E0E0
:102290000895BF92CF92DF92EF92FF920F931F9318
:1022A000CF93DF93EC01B62EC72E8D85811105C02B
:1022B000CE010E946E0581110EC01B861D861C86F4
:1022C00080E0DF91CF911F910F91FF90EF90DF9011
:1022D000CF90BF90089540E060EFCE010E941B05B3
:1022E00001E0E12CD12C11E0CE010E94BD04F82EBA
:1022F000CE010E94BD0491E0F91218C0813099F519
:102300001134D8F2DB86D11002C081E08D878B8139
:10231000882399F22396EB2DFC2DCF010896299165
:102320002193E817F907D9F781E0CBCF2E2D30E0C4
:10233000F8120EC08B851817A0F4FE01E20FF31FF0
:102340008381802381F4F12C193008F41C87D12E6D
:10235000FE01E20FF31F8381902F909589238383E1
:102360000AC08113F0CFFE01EE0DF11D8381802B99
:102370008383FF24F3946F2DCE010E94E8041F5F36
:10238000000F11F4E39401E087E08E1508F0ACCF64
:10239000B7CF4F925F926F927F928F929F92AF9240
:1023A000BF92CF92DF92EF92FF920F931F93CF9342
:1023B000DF93CDB7DEB761970FB6F894DEBF0FBEDF
:1023C000CDBF0E948104C090BF04D090C004E090B3
:1023D000C104F090C2046C197D098E099F09693807
:1023E00073418105910508F458C08091BE048111A4
:1023F00054C01092CD058091D1059091D2050E94D4
:102400006E0540E06CEC8091D1059091D2050E9460
:102410001B054091CB0564E48091D1059091D205D4
:102420000E941B058091CD05882391F1E091CC0598
:10243000E9500EEE12E0E33038F4F0E0EE0FFF1F4B
:10244000ED5BFE4F008111818091CE05882309F458
:1024500081C08091CB0581117DC00E9481044B0118
:102460005C012801110F660877088091D1059091D1
:10247000D2050E94BD04813059F00E948104641984
:10248000750986099709681579058A059B0568F31A
:1024900081E08093CD058093BE040E9481046C1975
:1024A0007D098E099F0961347F4181059105D8F12D
:1024B0008091BE048823B9F1E091D105F091D20555
:1024C0001386158614861286118610861782168248
:1024D000158214821382BE01665F7F4F8091D10501
:1024E0009091D2050E94491181113BC060E070E0DB
:1024F0008EEF92EC20E030E040E05FE30E94F22DAE
:102500000E945E2E80912A01680F6093C5040E948C
:1025100081046093BF047093C0048093C1049093BE
:10252000C2041092BE0461960FB6F894DEBF0FBECF
:10253000CDBFDF91CF911F910F91FF90EF90DF9072
:10254000CF90BF90AF909F908F907F906F905F9053
:102550004F900895B801110F880B990B0E944E04FB
:1025600097CF67E0CE010A960E94A5049989891346
:10257000BDCF8091D1059091D2050E946E05882330
:1025800009F4B4CFBE016F5F7F4FCE010A960E945F
:10259000AD05882309F4AACF68E0CE0101960E9418
:1025A000A50499858913A2CF6A8170E0762F6627EA
:1025B000770F770F770F298158E0259F900111241D
:1025C000262B372B8A858031D1F4688570E08F8186
:1025D000AB01481B5109CA019695982F88279795FA
:1025E00087950E94B82CCB014097B90153E0660F44
:1025F000771F5A95E1F760789C01260F371F213825
:1026000054EE35070CF472CFB901330F880B990BD8
:102610000E94962E20E030E040E05CE30E94222FF2
:1026200069CF0F931F93CF93DF9380913005882359
:1026300059F0109268050E94F00610923005DF9163
:10264000CF911F910F9108950E9481040091BA04C7
:102650001091BB042091BC043091BD04601B710B30
:10266000820B930B693E73408105910520F4012B89
:10267000022B032B21F70E9481046093BA0470930C
:10268000BB048093BC049093BD0488E60E9484023E
:1026900060E08BEB95E00E94C1060E94280288232F
:1026A00019F010926F05CBCF81E080936F0567E042
:1026B00088E60E948E021092460580934505873079
:1026C00008F461C08BEB95E00E948106D82F982F0B
:1026D00092959770CAE08D2F8F709C9F800D11246A
:1026E000809368058BEB95E00E948106982F929568
:1026F0009F708F709C9F800D1124809369058BEBD8
:1027000095E00E948106982F929593708F709C9F00
:10271000800D112480936A058BEB95E00E94810661
:10272000982F92959F708F709C9F800D112480939D
:102730006B058BEB95E00E948106982F92959F7018
:102740008F709C9F800D112480936C058BEB95E01E
:102750000E948106982F92959F708F709C9F800D8C
:10276000112480936D058BEB95E00E948106982FD4
:102770009F70925E82958F708C9F900D1124909324
:102780006E05D7FF5CCF10926A0510926905109212
:102790006805DF91CF911F910F910C94F006CF93B4
:1027A000DF93EC0180913C080E9484028D2F90E021
:1027B0000E947507CE0199270E9475070E94280282
:1027C00061E080913C080E948E0210924605809341
:1027D0004505882321F08BEB95E00E948106DF916F
:1027E000CF910895EF92FF920F931F93CF93DF93B2
:1027F0008B01040F151F7C012FEFE21AF20AEB0187
:102800000E94CF138993C701BE010C171D0799F7CA
:10281000DF91CF911F910F91FF90EF900895DF927C
:10282000EF92FF920F931F93CF93DF9300D0CDB71A
:10283000DEB71A821982809114012CE0829FC001B8
:10284000112442E050E0BE016F5F7F4F88960E94E6
:10285000F213F12CE12C10E000E08CE0D82E8091F6
:10286000140197018D9D200D311D1124C9018A96F7
:102870000E94CF13080F111D3FEFE31AF30A8AE0FD
:10288000E816F10461F70F5F1F4F89819A810817DD
:102890001907B1F4809114018D9DC00111244AE003
:1028A00050E069E071E08A960E94F2130F900F9059
:1028B000DF91CF911F910F91FF90EF90DF900895DE
:1028C0000E942210F3CF7F928F929F92AF92BF927D
:1028D000CF92DF92EF92FF920F931F93CF93DF93EC
:1028E0008C017A011092FD071092FC071092FF07ED
:1028F0001092FE0722E430E0623471051CF49B0163
:1029000062E470E0E016F1060CF4D5C062177307BC
:1029100051F50E151F0599F441E0B80182E490E0ED
:10292000DF91CF911F910F91FF90EF90DF90CF90AB
:10293000BF90AF909F908F907F900C94530321E0B5
:10294000A701B80182E490E0DF91CF911F910F9130
:10295000FF90EF90DF90CF90BF90AF909F908F90BF
:102960007F900C948A030E151F0509F0ADC080916D
:10297000F3058017110674F4DF91CF911F910F9129
:10298000FF90EF90DF90CF90BF90AF909F908F908F
:102990007F9008956F5F7F4FF12CE12C37FD07C0CA
:1029A000E090F405F12C2E153F050CF4790177FD2C
:1029B000E3CFC091F405D0E06C177D070CF4EB0178
:1029C000EC16FD06CCF641E0B801C7010E945303A6
:1029D0008FEFE81AF80AF4CFA7014F5F5F4FF02F8F
:1029E000F770A42FA770E8E0EA1BE83009F4E0E0F4
:1029F0007801A3E0F594E794AA95E1F7DE2D6B0149
:102A0000861797070CF46C01821793070CF49C014E
:102A100037FD20E0C22F8FEF90E0A82E0F2E01C0CF
:102A2000AA0C0A94EAF79C0102C035952795EA950D
:102A3000E2F7B22E041B150B085F1F4F02C09595DD
:102A400087950A95E2F7782E01C0770CFA95EAF798
:102A500047018FEF881A980ACC151D0411F00CF06D
:102A60008BCF8091F20590E0D23071F08E159F05EA
:102A700048F010E000E02C2F4D2F672D8DEE95E0F3
:102A80000E94100DCF5FE8CF8E159F0548F010E033
:102A900000E02C2F42E06A2D8DEE95E00E94100D93
:102AA0008091F2058815190468F310E000E02C2FDE
:102AB000482D6B2DE3CF902F812F8701E92EF82E23
:102AC0006217730709F43BCF8091F40590E04091C1
:102AD0000E08442309F480CF6B01861797070CF486
:102AE0006C01821793070CF49C0137FD20E0C22F84
:102AF0008C2F90E0C816D9060CF43ECF21E0A70138
:102B0000B8010E948A03CF5FF3CF1092CC0460918A
:102B10000A0170910B0180910C0190910D0120EA46
:102B200036E841E050E00E94C02D80912E018217CE
:102B3000130609F018F481E08093CC0480912D01F4
:102B40008217130609F018F482E08093CC04809178
:102B50002C018217130609F018F483E08093CC044B
:102B600080912B018217130609F018F484E08093FA
:102B7000CC042091CC0481E090E0A0E0B0E004C05F
:102B8000880F991FAA1FBB1F2A95D2F78093CD04E7
:102B900020913F05222359F020913201222339F060
:102BA00020911A05211103C080628093CD04809189
:102BB0003701882329F08091CD0480648093CD046F
:102BC00080913801882329F08091CD04806880931A
:102BD000CD042C982091CD0487E090E030E0409126
:102BE000B0004F774093B000A901082E02C0559560
:102BF00047950A94E2F740FF07C02B9A2D9A2D982B
:102C0000019768F72C9A08952B98F8CF4F925F920E
:102C10006F927F928F929F92AF92BF92EF92FF92AC
:102C20000F931F9320910901E0901701F090180174
:102C30000091190110911A0160910A0170910B0124
:102C400080910C0190910D0130913F056E0D7F1D1B
:102C5000801F911F332339F12223E1F020911F01BE
:102C6000309120014091210150912201620F731F88
:102C7000841F951F0E94E0091F910F91FF90EF9014
:102C8000BF90AF909F908F907F906F905F904F908C
:102C90000C94851520911B0130911C0140911D0160
:102CA00050911E01E3CF8090330190903401A090A9
:102CB0003501B09036012223B9F040901F015090A9
:102CC00020016090210170902201A3019201280D42
:102CD000391D4A1D5B1D640D751D861D971D680DF0
:102CE000791D8A1D9B1DC6CF40901B0150901C0171
:102CF00060901D0170901E01E8CF80912605882309
:102D0000A9F18091250581110CC08091CB04882305
:102D100089F1809180008F7C809380001092CB0499
:102D200029C08091CB04811125C08091400581117B
:102D300021C02091300184E1289F90011124032EAD
:102D4000000C440B550B60E472E48FE090E00E94AD
:102D5000C02DCA01B9010E94D202809180008F7CEF
:102D600080618093800081E08093CB048091250571
:102D7000882359F208954091F5055091F60570E0C9
:102D800060E087EF95E00E94792D8091FE078770C3
:102D9000809300080895009769F0FC0101900020DD
:102DA000E9F73197AF01481B590BBC018DEE95E057
:102DB0000C94F80390E080E00895CF93DF930E9495
:102DC000CB16EC018DE791E00E94CB168C0F9D1F76
:102DD000DF91CF9108950C94CB168F929F92AF9272
:102DE000BF92CF92DF92EF92FF920F931F93CF93F8
:102DF000DF93CDB7DEB7A1970FB6F894DEBF0FBE55
:102E0000CDBF6B017C0119A2423008F44AE08E016B
:102E10000F5D1F4F842E912CB12CA12CC701B60140
:102E2000A50194010E94C02D6A3014F5605DF8017F
:102E300062938F01C814D904EA04FB04B0F4CF01F3
:102E40000E94CB16A1960FB6F894DEBF0FBECDBF81
:102E5000DF91CF911F910F91FF90EF90DF90CF9076
:102E6000BF90AF909F908F90089569017A01D6CF5F
:102E7000695CDDCF682F70E090E080E04AE00C9460
:102E8000ED16CF92DF92EF92FF92CF93DF936B011B
:102E90007C016DE28DEE95E00E947B0DEC016627D2
:102EA0007727CB016C197D098E099F094AE00E94A2
:102EB000ED168C0F9D1FDF91CF91FF90EF90DF906B
:102EC000CF9008959C01BC01990F880B990B37FD99
:102ED0000C9441174AE00C94ED16CF93DF934AE02F
:102EE0000E94ED16EC018DE791E00E94CB168C0F4D
:102EF0009D1FDF91CF910895CF93DF930E943A17E2
:102F0000EC018DE791E00E94CB168C0F9D1FDF91A5
:102F1000CF910895CF93DF930E946217EC018DE764
:102F200091E00E94CB168C0F9D1FDF91CF910895E9
:102F3000CF92DF92EF92FF92CF930E94BB16109236
:102F4000FD071092FC071092FF071092FE071092E7
:102F5000000883E08093FA0788E18093FB07C09123
:102F60004005CC2309F41FC18FEF0E94010DCB3126
:102F700009F454C508F080C0C73009F49FC488F52F
:102F8000C33009F42FC468F4C13009F4F8C2C23068
:102F900009F405C4CF91FF90EF90DF90CF900C948F
:102FA000E10CC53009F46AC408F43BC480913701D0
:102FB000882309F480C489E192E00E94DD1681E053
:102FC0008093FA0788E08093FB078091FE07877063
:102FD00080930008809140050E943A1789E292E0B0
:102FE0001AC4C73109F4C4C440F5C53109F483C417
:102FF00008F0A8C4C43171F680910E0124E6829FC6
:10300000C00111240E948A1781E08093FA0788E0AA
:103010008093FB078091FE07877080930008809162
:1030200040050E943A178AE492E00E94EB1680E085
:103030000E94BE0F83E692E0D2C3C93109F4D4C422
:1030400008F4B4C4809130012AE0829FC0011124A9
:103050000E948A1781E08093FA0788E08093FB073B
:103060008091FE07877080930008809140050E9440
:103070003A1785EE92E0B3C3C93609F48EC508F05D
:1030800051C0C53609F400C508F5CC3109F4DCC4DB
:10309000C43609F07FCF80911601882309F4F1C46A
:1030A0008EE193E00E94DD1681E08093FA0788E0CC
:1030B0008093FB078091FE078770809300088091C2
:1030C00040050E943A1789E493E0A5C3C73609F486
:1030D00036C508F411C582E08093FA0780E1809339
:1030E000FB078091FE0787708093000860911B01A9
:1030F00070911C0180911D0190911E010E946D171D
:1031000081E08093FA0788E08093FB078091FE07B7
:10311000877080930008809140050E943A1780EBE9
:1031200093E033C5CD3609F4A2C5F8F4CB3609F4E3
:1031300082C508F459C580912D0124E6829FC00103
:1031400011240E948A1781E08093FA0788E0809317
:10315000FB078091FE0787708093000880914005EF
:103160000E943A1782E094E07FC5CF3609F4B3C5D8
:1031700008F497C5C03709F00DCF80912E050E9445
:103180007C1781E08093FA0788E08093FB078091A9
:10319000FE07877080930008809140050E943A17CF
:1031A00081E694E01CC380910A0190910B01A091EB
:1031B0000C01B0910D0180389649A849B10520F461
:1031C00080E094E00E94EB1660910A0170910B017F
:1031D00080910C0190910D01F0E4CF2EF2E4DF2EEE
:1031E000FFE0EF2EF12CA70196010E94C02DCA012D
:1031F000B9014AE00E94ED1689E290E09093FD0744
:103200008093FC071092FF071092FE0710920008AF
:1032100060910A0170910B0180910C0190910D0158
:10322000A70196010E94C02D603A76488140910521
:1032300020F48FE594E00E94EB1660910A017091F2
:103240000B0180910C0190910D0120E432E44FE0DC
:1032500050E00E94C02D603177428105910520F435
:103260008FE594E00E94EB1660910A0170910B01CA
:1032700080910C0190910D0120E432E44FE050E088
:103280000E94C02DE8EECE2EE3E0DE2EE12CF12CE4
:10329000A70196010E94C02DCA01B9014AE00E940F
:1032A000ED1682E08093FA0780E18093FB0784E6C5
:1032B00090E09093FD078093FC0787E090E0909367
:1032C000FF078093FE078093000860910A017091C8
:1032D0000B0180910C0190910D01A70196010E94B4
:1032E000C02D643671058105910520F48FE594E0C9
:1032F0000E94EB1660910A0170910B0180910C0104
:1033000090910D0128EE33E040E050E00E94C02D86
:103310002AE030E040E050E00E94C02DCA01B9012F
:103320004AE00E94ED1681E08093FA0788E08093DE
:10333000FB071092FD071092FC0788E190E0909344
:10334000FF078093FE07109200088091CA0484361C
:1033500020F480E094E00E94EB168091CA04CAE059
:103360006C2F0E94AC2C90E00E94621783EA94E0DC
:103370000E94EB168091CA046C2F0E94AC2C892FFE
:1033800090E00E94621780E094E00E94EB1680912A
:103390003F05882309F488C080913201882309F40D
:1033A00080C08BE891E00E94EB164091C8045091D8
:1033B000C904E091C604F091C7044E175F0771F18C
:1033C0009A012E0F3F1FA4E6B0E00E94E22D4E1B93
:1033D0005F0B9A0150E040E00E94962D7901283E53
:1033E000334024F480E094E00E94EB16C70164E6C9
:1033F00070E00E94B82C7C01CB010E94621783EA26
:1034000094E00E94EB162AE0E216F10424F48FE522
:1034100094E00E94EB16C7010E9462176091C804F5
:103420007091C90490E080E06150710981099109AF
:1034300037E0660F771F881F991F3A95D1F74EEF37
:10344000C42E43E0D42EE12CF12CA70196010E945A
:10345000962DB9016E5B7F4F4AE150E087E190E025
:103460000E9463146091C6047091C70490E080E0EC
:10347000615071098109910957E0660F771F881F14
:10348000991F5A95D1F7A70196010E94962DB9016F
:103490006E5B7F4F4FE150E08CE190E00E9463143F
:1034A00079CD8FE891E07FCF8091C50492E3980FAA
:1034B000953608F055C087FD04C080E094E00E9476
:1034C000EB168091C504082E000C990B0E94621720
:1034D00081E00E94BE0F80E891E00E94EB1680918F
:1034E0003605882309F43FC080E094E00E94EB1683
:1034F0008FEF0E94010D80916A058A3020F480E0F0
:1035000094E00E94EB1680916A050E943A17809120
:10351000680580FF2EC088E891E00E94EB1680913C
:1035200069058A3020F48FE594E00E94EB168091C3
:1035300069050E943A17809109018823E9F08AE819
:1035400091E00E94EB16809114018A3020F480E013
:1035500094E00E94EB16809114010E943A171ACD54
:1035600082E891E0BACF83EA94E00E94EB1681E012
:10357000C0CF80E094E0D1CF8EE891E0E2CF80919F
:1035800014018A3020F480E094E00E94EB168091D0
:1035900014010E943A1782E08093FA0780E1809339
:1035A000FB0789E290E09093FD078093FC0787E09A
:1035B00090E09093FF078093FE078093000880912E
:1035C0000A0190910B01A0910C01B0910D0180387E
:1035D0009649A849B10520F480E094E00E94EB16DA
:1035E00060910A0170910B0180910C0190910D0185
:1035F00020E4C22E22E4D22E2FE0E22EF12CA701ED
:1036000096010E94C02DCA01B9014AE00E94ED1640
:1036100084E490E09093FD078093FC0787E090E0BE
:103620009093FF078093FE078093000860910A0142
:1036300070910B0180910C0190910D01A7019601F1
:103640000E94C02D603A76488140910520F48FE5B4
:1036500094E00E94EB1660910A0170910B01809139
:103660000C0190910D0120E432E44FE050E00E9403
:10367000C02D603177428105910520F48FE594E0FB
:103680000E94EB1660910A0170910B0180910C0170
:1036900090910D0120E432E44FE050E00E94C02DF3
:1036A00028EE33E040E050E00E94C02DCA01B9018D
:1036B0004AE00E94ED1681E08093FA0788E080934B
:1036C000FB078CE690E09093FD078093FC07109237
:1036D000FF071092FE0710920008809109018823CD
:1036E00009F45AC08FEC93E00E94EB168CE690E050
:1036F0009093FD078093FC078EE090E09093FF0786
:103700008093FE0786E08093000860910A01709123
:103710000B0180910C0190910D0128EE33E040E007
:1037200050E00E94C02D643671058105910520F49A
:103730008FE594E00E94EB1660910A0170910B01F5
:1037400080910C0190910D0128EE33E040E050E0B3
:103750000E94C02D2AE030E040E050E00E94C02DE1
:10376000CA01B9014AE00E94ED161092FD071092BD
:10377000FC0788E190E09093FF078093FE0710928A
:103780000008809140050E943A1782E991E00E946A
:10379000EB1680911501E1CE8CEB93E0A5CFE09183
:1037A0001301F0E0EE0FFF1FE75BFE4F2081318138
:1037B000AAE0B0E00E94E22D0E946D1781E08093A4
:1037C000FA0788E08093FB078091FE07877080935B
:1037D0000008809140050E943A178DEA91E00E940E
:1037E000EB16D8CB809109018823C1F08FEC93E0D0
:1037F0000E94DD1681E08093FA0788E08093FB0742
:103800008091FE07877080930008809140050E9498
:103810003A178AEB91E00E94DD16BCCB8CEB93E06B
:10382000E7CF60913301709134018091350190911F
:10383000360197FF1FC00E9441178DE791E00E945B
:10384000CB1681E08093FA0788E08093FB07809194
:10385000FE07877080930008809140050E943A1708
:1038600084ED91E00E94EB1680E00E94BE0F84EF91
:1038700092E0D1CF4AE00E94ED16DFCF8091320175
:103880008823B1F086EE91E00E94DD1681E08093FE
:10389000FA0788E08093FB078091FE07877080938A
:1038A0000008809140050E943A1782E092E0B3CF71
:1038B00085EF91E0E9CF82E292E07FCB8091380101
:1038C0008823B1F088E392E00E94DD1681E08093C6
:1038D000FA0788E08093FB078091FE07877080934A
:1038E0000008809140050E943A178BE392E093CF45
:1038F00086E492E0E9CF20910F01309110014091D0
:10390000110150911201A4E6B0E00E94B52D0E9471
:103910006D1781E08093FA0788E08093FB07809120
:10392000FE07877080930008809140050E943A1737
:103930008AE692E00E94EB1680E00E94BE0F85E8C6
:1039400092E04DCF809115010E947C1781E0809319
:10395000FA0788E08093FB078091FE0787708093C9
:103960000008809140050E943A1789E892E037CF1D
:1039700080916A058A3020F48FE594E00E94EB166E
:1039800080916A050E947C1781E08093FA0788E0A5
:103990008093FB078091FE078770809300088091D9
:1039A00040050E943A1784EA92E019CF8091690598
:1039B0008A3020F48FE594E00E94EB16809169052F
:1039C0000E947C1781E08093FA0788E08093FB07D0
:1039D0008091FE07877080930008809140050E94C7
:1039E0003A1788EB92E0FBCE80912F012AE0829F6C
:1039F000C00111240E948A1781E08093FA0788E0B1
:103A00008093FB078091FE07877080930008809168
:103A100040050E943A178CEC92E0E1CE809129019A
:103A20000E947C1781E08093FA0788E08093FB076F
:103A30008091FE07877080930008809140050E9466
:103A40003A1789EF92E0CBCE809128018823B1F01C
:103A50008EE193E00E94DD1681E08093FA0788E012
:103A60008093FB078091FE07877080930008809108
:103A700040050E943A178AE293E0CDCE83E293E0BC
:103A8000E9CF83E293E00ECB809127010E947C175F
:103A900081E08093FA0788E08093FB078091FE071E
:103AA000877080930008809140050E943A1784E651
:103AB00093E00E94EB168091CA04843620F48FE5CF
:103AC00094E00E94EB168091CA04CAE06C2F0E9419
:103AD000AC2C90E00E94621783EA94E00E94EB16FF
:103AE0008091CA046C2F0E94AC2C892F90E00E9418
:103AF00062178AE891E073CE80912A01082E000CAB
:103B0000990B0E948A1781E08093FA0788E08093DE
:103B1000FB078091FE078770809300088091400525
:103B20000E943A1785E793E00E94EB1681E00E941D
:103B3000BE0F80E00E94BE0F80E891E050CE82E090
:103B40008093FA0780E18093FB078091FE078770DE
:103B500080930008609123017091240180912501D8
:103B6000909126010E946D1781E08093FA0788E00A
:103B70008093FB078091FE078770809300088091F7
:103B800040050E943A178DE893E00E94EB1680E012
:103B90000E94BE0F84EF92E022CE82E08093FA076B
:103BA00080E18093FB078091FE0787708093000877
:103BB00060911F017091200180912101909122015B
:103BC0000E946D1781E08093FA0788E08093FB07DD
:103BD0008091FE07877080930008809140050E94C5
:103BE0003A1783EC93E0D1CF82E08093FA0780E12B
:103BF0008093FB078091FE07877080930008609197
:103C00001701709118018091190190911A010E9479
:103C10006D1781E08093FA0788E08093FB0780911D
:103C2000FE07877080930008809140050E943A1734
:103C300086ED93E0AACF80912E0124E6829FC001F9
:103C400011240E948A1781E08093FA0788E080930C
:103C5000FB078091FE0787708093000880914005E4
:103C60000E943A1789EE93E00E94EB1668CE80918D
:103C70002C0124E6829FC00111240E948A1781E052
:103C80008093FA0788E08093FB078091FE07877096
:103C900080930008809140050E943A178BE194E0E0
:103CA000E3CF80912B0124E6829FC00111240E9462
:103CB0008A1781E08093FA0788E08093FB07809160
:103CC000FE07877080930008809140050E943A1794
:103CD00084E394E0C9CF80912F050E947C1781E096
:103CE0008093FA0788E08093FB078091FE07877036
:103CF00080930008809140050E943A178DE494E07B
:103D00006ECD1F921FB61F9211248F939F93AF9376
:103D1000BF938091120590911305A0911405B09165
:103D200015050196A11DB11D8093120590931305F1
:103D3000A0931405B09315058091110593E0980F99
:103D40009D37E8F490931105809116059091170521
:103D5000A0911805B09119050196A11DB11D809380
:103D6000160590931705A0931805B0931905BF91F8
:103D7000AF919F918F911F901FBE1F9018958A57EA
:103D8000809311058091120590911305A09114055F
:103D9000B09115050196A11DB11D80931205909358
:103DA0001305A0931405B0931505CECF1F920F9263
:103DB0000FB60F9211242F933F934F935F936F93FE
:103DC0007F938F939F93AF93BF93EF93FF938091D4
:103DD000B900887F803609F44AC0F0F5883209F4CA
:103DE000A7C018F5803109F49BC0B8F4882309F402
:103DF000F9C0883009F494C0FF91EF91BF91AF9161
:103E00009F918F917F916F915F914F913F912F91F2
:103E10000F900FBE0F901F901895883109F488C03D
:103E2000803251F78093940514C0803409F49DC00A
:103E300040F48033B9F38833F9F68093940585EC28
:103E4000B0C0803509F485C0883509F496C088343F
:103E500099F60E944006D0CF883909F48CC038F515
:103E6000883729F050F4883611F0803729F683E03E
:103E7000809396051092100557C0883809F47BC0CE
:103E8000803919F0803809F0B7CF80911005803261
:103E900008F071C0E091100581E08E0F809310054D
:103EA0008091BB00F0E0E051FB4F80833DC0803B40
:103EB00039F0E0F4803A09F479C0883A09F09CCFEF
:103EC00084E0809396051092EF041092EE04E09146
:103ED0004305F091440509958091EE0481110FC0CE
:103EE00081E08093EE041092CE0409C0803C09F476
:103EF000A6CF883C09F4A3CF883B09F07DCFE091A1
:103F0000EF0481E08E0F8093EF04F0E0E253FB4F6B
:103F100080818093BB009091EF048091EE0429C0D2
:103F2000809171058093BB0085EC8093BC0064CFC9
:103F30009091930580919205981758F5E09193051B
:103F400081E08E0F80939305F0E0EE58FA4F808168
:103F5000E9CFE091930581E08E0F809393058091E6
:103F6000BB00F0E0EE58FA4F80839091930580916A
:103F700092059817C8F285E8D8CFE091930581E0C3
:103F80008E0F809393058091BB00F0E0EE58FA4FBE
:103F900080838091950581115CCF81E080937005CD
:103FA00084EA8093BC001092960526CF85EC80931E
:103FB000BC001092960580911005803230F4E0919B
:103FC0001005F0E0E051FB4F10826091100570E0A9
:103FD000E0914105F091420580EF94E0099510923F
:103FE00010050ACF1092940534CF1F920F920FB68E
:103FF0000F9211242F933F934F935F936F937F936F
:104000008F939F93AF93BF93EF93FF938091C905D5
:104010009091CA050E940311FF91EF91BF91AF915A
:104020009F918F917F916F915F914F913F912F91D0
:104030000F900FBE0F901F9018951F920F920FB602
:104040000F9211242F933F934F935F936F937F931E
:104050008F939F93AF93BF93EF93FF938091C70587
:104060009091C8050E940311FF91EF91BF91AF910C
:104070009F918F917F916F915F914F913F912F9180
:104080000F900FBE0F901F9018950E94CC031092B6
:10409000BE051092BD0588EE93E0A0E0B0E08093ED
:1040A000BF059093C005A093C105B093C20583E6F8
:1040B00091E09093BC058093BB0580E580933C081C
:1040C00010921C0810921B0810921E0810921D08D6
:1040D0001092200810921F081092210810922208B6
:1040E000109223088091400190914101A0914201DA
:1040F0008093240890932508A093260810922708FF
:10410000109228081092290810922A0810922B0861
:1041100010922C0810922D0810922E0810922F0841
:1041200010923008109231081092320880E89FED0A
:10413000A7E1B0E18093330890933408A093350849
:10414000B093360852985A9A53985B9AE7EEF3E088
:10415000E491F0E0EE0FFF1FE552FC4F8591949142
:104160009093100880930F08E9ECF3E0E491E0935A
:104170001308E8EEF3E0E491F0E0EE0FFF1FE552E4
:10418000FC4F859194919093120880931108EAEC6A
:10419000F3E0E491E09314081092160810921708C7
:1041A000109218081092190880ED97E00E942104DF
:1041B000E0910F08F09110089081809113089823E6
:1041C00081E009F480E0E0911108F09112089081FB
:1041D00020911408922309F082602FE038E0809348
:1041E00015083093C8052093C705809169008C7F1E
:1041F000816080936900E89A91E090931A08309367
:10420000CA052093C90580916900837F84608093EB
:104210006900E99A82E080931A081092F0051092E2
:10422000EF0525E731E03093EE052093ED052CE313
:104230002093F10523E02093F2052FE12093F3056D
:104240002FE72093F40520E032E03093F605209329
:10425000F5051092F7071092F8071092F90790935E
:10426000FA0728E02093FB071092FD071092FC0745
:104270001092FF071092FE07109200081092020899
:104280008093030810920E0838984698E5EDF3E005
:10429000E491E093DF05E3EFF3E0E491F0E0EE0F6B
:1042A000FF1FE552FC4F259134913093E105209397
:1042B000E0051092EA051092EC051092EB051092C1
:1042C000E9051092E8051092E7051092E6051092B4
:1042D000E5051092E4051092E3051092E2052FED3A
:1042E00035E03093D2052093D1051092CF0510927E
:1042F000D0051092CB0589E08093CC059093CD0535
:104300009093CE051092DE051092DD050895CDB78D
:10431000DEB760970FB6F894DEBF0FBECDBFF8943E
:1043200082E880937A0083E084BD85BD90916E0021
:10433000916090936E0091E0909380002BE0209329
:1043400081009093B00094E09093B1001092C1006E
:10435000789456985E98219A209A94B59F7794BD48
:104360005E98909180009F7790938000299828987C
:1043700055985D9857985F9894B59F7D94BD5D98CA
:104380005F9854985C98399847983A9898B198B93A
:10439000229A249A259A239A2C982D989091B000CD
:1043A0009F779093B0002B985C9A809300010E94B5
:1043B000CC030E948B0C08EB13E0F80184910E945F
:1043C0009E0C0F5F1F4FF3E0073C1F07B1F782E021
:1043D00098E00E94920C0E948B0C8AED0E949E0C29
:1043E00082E00E949E0C88EA0E949E0C8FE10E944F
:1043F0009E0C82E098E00E94920C1092FD071092B1
:10440000FC071092FF071092FE07109200086091BF
:10441000F20570E08091F40590E00E94B30C0E94D8
:10442000BB160E94E10CE091D105F091D2051386F4
:1044300015861486128611861086178216821582BA
:10444000148213821092CF051092D00511E0BE01A4
:104450006F5F7F4F8091D1059091D2050E944911E5
:10446000882309F45FC067E0CE0101960E94A5048D
:1044700098858913ECCF8091CB05811128C080915C
:10448000D1059091D2050E946E05BE016F5F7F4FEE
:104490008091D1059091D2050E944F0540E064EBD8
:1044A0008091D1059091D2050E941B058091D10584
:1044B0009091D2050E94BD04082F8091D105909162
:1044C000D2050E946E05011102C01093CB05009128
:1044D000CC05CE0101960E94F9058017C0F48091A9
:1044E000CC058093CC058091CF058F5F8093CF055D
:1044F0008981883231F080F4803119F0823209F0FC
:10450000A6CF8091D0058F5F8093D005A0CFCE013C
:1045100001960E94F905E5CF8B3399F3823409F0B7
:1045200096CFEFCF1A82198242E050E0BE016F5F52
:104530007F4F90E080E00E94F21312E0E12EF12C18
:1045400010E000E0C7010E94CF13080F111D2FEFEC
:10455000E21AF20A38E2E316F104A1F70F5F1F4FE7
:1045600089819A810817190709F0CAC046E250E00C
:1045700063E171E082E090E00E94F2130E940F1468
:10458000809129018093390183E08093240810925F
:1045900025081092260860E880E10E94CB0860E8B8
:1045A00081E10E94CB0860E882E10E94CB0880E0B4
:1045B00096E4A3ECB3E280933C0190933D01A09379
:1045C0003E01B0933F0162ED87EB0E94CB080E9451
:1045D0007D100E9406160E9493100E94C0100E9437
:1045E000C9110E9411134C9903C084E680934005C1
:1045F0000E94BB161092FD071092FC071092FF0755
:104600001092FE071092000883E08093FA0788E179
:104610008093FB0780914005843609F074C08BE7D6
:1046200094E00E94DD160E94E10C4C9BFECF68EEE8
:1046300073E080E090E00E944E040E949817BAE078
:104640003B2E11E08091260581113BC04E9971C02F
:10465000809120058F5F80932005809120058B300D
:1046600080F13092200580911F05811102C01093C6
:104670001F0580912805811132C0109328050E94E2
:10468000061610932905809140058150833038F536
:104690001092400564E670E080E090E00E944E04D5
:1046A00068EE73E080E090E00E94D202809180008A
:1046B0008F7C80618093800010931A05289A0E9455
:1046C00085158091280581110AC04D9976C0809189
:1046D00027058F5F8B3008F0B3C08093270580914A
:1046E0003F05882309F4C6C0809129058111D0C0F7
:1046F000809180008F778093800029982898C8C087
:104700000E9422103BCF81E091E00E94DD1681E003
:104710008093FA0788E08093FB078091FE078770FB
:104720008093000881E894E00E94DD160E94E10C6D
:104730007ECF8091280510922005882311F2809168
:104740001F05882361F00E94810460931B0570930C
:104750001C0580931D0590931E0510921F050E9455
:104760008104C0901B05D0901C05E0901D05F090C1
:104770001E056C197D098E099F096233710581053B
:10478000910508F49ECF1092280580911A05882380
:1047900079F0809180008F7C8093800064E670E0E7
:1047A00080E090E00E944E0410921A050E94851548
:1047B0000E9406161092290550CF1092270580916D
:1047C0002605882309F48BCF80912505882381F065
:1047D0000E94810460932105709322058093230534
:1047E00090932405109225050E9406160E947D16BE
:1047F0000E948104C0902105D0902205E0902305FD
:10480000F0902405AB01BC014C195D096E097F09CC
:1048100080912F01839DC0011124092E000CAA0B49
:10482000BB0B481759076A077B0708F458CF10924B
:104830002605109229050E9406160E947D164FCF6C
:104840003092270580912505811106C0109325051A
:104850000E9406160E947D168091260581113FCF89
:1048600080912505882309F43ACF109326051093EB
:104870002905E1CF80912905882351F0809180009E
:104880008F7780938000299A80913F0581112CCFEA
:10489000809108014C99F7C7882361F010920801B4
:1048A0000E94810460932A0570932B0580932C0548
:1048B00090932D0580911A08823008F051C1F89428
:1048C0008FE098E00E94031160911608709117081C
:1048D000809118089091190878942091390130E05E
:1048E00050E040E00E94962D69017A0180912801F4
:1048F000882341F0F094E094D094C094C11CD11C62
:10490000E11CF11C8090320590903305A090340595
:10491000B09035058C149D04AE04BF0409F455C055
:104920004C9B53C0009140058FEF800F883010F4EE
:104930001093310540903705509038056090390547
:1049400070903A0588EE480E83E0581E611C711C79
:104950000E948104461657066806790620F10A313E
:1049600009F491C408F037C1063009F494C308F083
:1049700006C1023009F416C308F0F4C0002309F49C
:1049800025C2013009F4EDC280911601811102C0E7
:104990001093360590914005992319F081111093D9
:1049A00036050E9498170E94810460933705709322
:1049B00038058093390590933A05C0923205D0921C
:1049C0003305E0923405F092350580913F05339B25
:1049D00054C7811108C010933F050E9485150E949D
:1049E00006160E9498170E9493108091400581112D
:1049F00029CE10913F0584E690E0111102C088EEA7
:104A000093E090933B0180933A010E948104C0900F
:104A10003B05D0903C05E0903D05F0903E05AB0194
:104A2000BC014C195D096E097F0980913A01909192
:104A30003B01B0E0A0E084179507A607B70708F090
:104A4000FECD0E948104C0903705D0903805E090DB
:104A50003905F0903A056C197D098E099F0961317D
:104A6000774281059105A0F080913605882381F079
:104A700011110EC00E9481046093370570933805B0
:104A80008093390590933A05109236050E942210C2
:104A90000E94C0100E94C9110E9411130E94981711
:104AA0000E94810460933B0570933C0580933D0513
:104AB00090933E05C4CDF894F4C684E180934005FC
:104AC00034C06556710981099109633873408105C5
:104AD000910558F5809140059FEF980F983040F56B
:104AE00090913105992321F11092310510924005E2
:104AF00090911501911109C080914005813011F00C
:104B0000843619F48F5F80934005809116018823C5
:104B100061F0992351F0809140058731D0F48431C0
:104B200008F008C782508230C0F00E949817C2CEA9
:104B300091E0980F9730D1F28C51873420F484E1C2
:104B400080934005D5CF90934005913788F284E655
:104B5000F7CF8B51823048F7EDC610924005E5CF74
:104B6000F894B2CE043009F442C208F43AC28091FB
:104B700032018127809332010E94851505CF0631CD
:104B800009F414C370F4043109F48BC208F0B8C2FC
:104B9000073009F0F9CE80913801812780933801E0
:104BA000EBCF083109F447C308F426C380912F01E5
:104BB0008C149D04AE04BF040CF05AC38F3F19F04F
:104BC0008F5F80932F0180912F018A3008F48AE053
:104BD00080932F01D9CE093609F46FC408F068C05C
:104BE000053609F49CC370F40C3109F486C308F44B
:104BF00067C3043609F0C8CE8091160181278093DF
:104C00001601C2CE073609F4CBC308F4A9C38091BC
:104C10001B0190911C01A0911D01B0911E018C14EB
:104C20009D04AE04BF040CF02CC4813EF6E39F0744
:104C3000FFECAF07B105A8F4E0911301F0E0EE0F2F
:104C4000FF1FE75BFE4F20813181820F931FA11D63
:104C5000B11D80931B0190931C01A0931D01B09383
:104C60001E0180911B0190911C01A0911D01B0912A
:104C70001E01813E36E393073FECA307B10520F008
:104C800080EE96E3AFECB0E0803A4AE994074EEC50
:104C9000A407B10520F480EA9AE9AEECB0E0809375
:104CA0001B0190931C01A0931D01B0931E0128C10C
:104CB0000D3609F414C500F50B3609F4D8C408F410
:104CC00067C480912D0190912E018C149D04AE0437
:104CD000BF040CF0F2C420912C01821718F48F5FEE
:104CE00080932D0180912D01981708F4F1C481E083
:104CF000890F80932D0140CF0F3609F43CC508F48D
:104D000016C5003709F040CE80912E058C149D0405
:104D1000AE04BF040CF0A6C58A3018F48F5F8093F0
:104D20002E0580912E058A3009F02ECE0E94BB16EA
:104D30001092FD071092FC071092FF071092FE07D9
:104D40001092000882E08093FA0780E18093FB07CD
:104D500085EA94E00E94EB160E94E10C23E1822E8A
:104D600021E0922EB12CA12CC5010E94802DD401EE
:104D70008D934D01BFEFAB1ABB0AE6E2AE16B1044C
:104D800099F789E0882E81E0982E97E2A92EB12C20
:104D9000C5010E94802DD4018D934D01BFEFAB1A48
:104DA000BB0AE1E3AE16B10499F70E94221086EB2C
:104DB00094E00E94EB160E94E10C68EE73E080E044
:104DC00090E00E944E040C940000DECD809116010C
:104DD0008111DACD40900A0150900B0160900C01D6
:104DE00070900D0120910F0130911001409111013F
:104DF0005091120160EA76E881E090E00E949C2CDC
:104E00006D877E878F87988BA0910E01B0E020EA96
:104E100036E841E050E00E94B52D69877A878B879C
:104E20009C878C149D04AE04BF040CF06CC02D85CF
:104E30003E854F855889241535054605570550F19F
:104E4000E0911301F0E0EE0FFF1FE75BFE4F2081C2
:104E50003181AAE0B0E00E94E22D4B015C01C30168
:104E6000B201A50194010E94C02D480C591C6A1C76
:104E70007B1C611571058105910521F0461A570AC1
:104E8000680A790A40920A0150920B0160920C0163
:104E900070920D0180910A0190910B01A0910C017B
:104EA000B0910D0129853A854B855C858217930762
:104EB000A407B50760F489859A85AB85BC85809386
:104EC0000A0190930B01A0930C01B0930D01809106
:104ED0000A0190910B01A0910C01B0910D012D855B
:104EE0003E854F855889281739074A075B0740F4E4
:104EF00020930A0130930B0140930C0150930D0154
:104F00000E94061641CDC814D904EA04FB0414F625
:104F100089859A85AB85BC85481659066A067B0645
:104F200050F2E0911301F0E0EE0FFF1FE75BFE4F40
:104F300020813181AAE0B0E00E94E22D4B015C01AA
:104F4000C301B201A50194010E94C02D6115710534
:104F50008105910509F092CF481859086A087B0825
:104F600091CF80911401909115018C149D04AE0491
:104F7000BF047CF4891718F48F5F8093140180912B
:104F80001401981708F4892F809314010E940F14BC
:104F9000B7CFC814D904EA04FB048CF7882379F34B
:104FA0008150EBCF809113018C149D04AE04BF049B
:104FB00034F4863078F48F5F80931301E5CCC81405
:104FC000D904EA04FB0434F4882309F4DDCC8150CD
:104FD0008093130180911301873008F4D5CC86E0CB
:104FE000EBCF8091090181278093090189CF8091BE
:104FF000330190913401A0913501B09136018C14A8
:105000009D04AE04BF04BCF5893B3BE09307A105BA
:10501000B1055CF4C296A11DB11D8093330190933C
:105020003401A0933501B093360180913301909102
:105030003401A0913501B0913601893B5BE09507C1
:10504000A105B10524F088EB9BE0A0E0B0E0883436
:10505000E4EF9E07EFEFAE07BE0724F488E494EF79
:10506000AFEFBFEF8093330190933401A0933501EC
:10507000B093360145CFC814D904EA04FB04ACF65A
:10508000883444EF94074FEFA407B40774F2C29733
:10509000A109B109C2CF80913701812780933701DF
:1050A0006BCD80910E018C149D04AE04BF04FCF402
:1050B0008F5F80930E0140910E018FE04F30A0F082
:1050C00080910F0190911001A0911101B0911201F6
:1050D00050E070E060E00197A109B1094817590755
:1050E0006A077B0708F4CA0180930E014DCCC814EF
:1050F000D904EA04FB04FCF68F30E8F28150D9CFE2
:1051000080910F0190911001A0911101B0911201B5
:105110008C149D04AE04BF04DCF58D32F1E09F07D2
:10512000A105B10558F40196A11DB11D80930F0191
:1051300090931001A0931101B093120140910F01BF
:1051400050911001609111017091120180910E0136
:1051500090E00196092E000CAA0BBB0B48175907CB
:105160006A077B0760F0DB01CA018D3221E09207FC
:10517000A105B10520F08CE291E0A0E0B0E08093C1
:105180000F0190931001A0931101B0931201FCCB79
:10519000C814D904EA04FB048CF68F309105A105EC
:1051A000B10560F20197A109B109C0CF8091150145
:1051B0008C149D04AE04BF047CF48E31B8F48F5F70
:1051C000809315018091150190911401891708F0C1
:1051D000DBCB80931401D8CBC814D904EA04FB04B8
:1051E0002CF4882379F38150809315018091150167
:1051F0008F3140F38EE1E4CF80916A058C149D04D9
:10520000AE04BF047CF4883138F48F5F80936A0564
:1052100080916A05883118F087E180936A051093C0
:105220003005B2CBC814D904EA04FB048CF78823F8
:10523000B1F38150EBCF809169058C149D04AE04CD
:10524000BF046CF48C3338F48F5F809369058091D0
:1052500069058C3320F38BE380936905E0CFC81494
:10526000D904EA04FB049CF78823C9F28150EDCFEE
:10527000C814D904EA04FB040CF0A5CC823008F46D
:10528000A2CC81509ECC809130018C149D04AE0440
:10529000BF046CF48F3F19F08F5F809330018091D1
:1052A00030018A3008F48AE0809330016DCBC81455
:1052B000D904EA04FB049CF7823088F38150EDCFD7
:1052C000809129018C149D04AE04BF046CF48F3FBF
:1052D00019F08F5F8093290180912901811101C00C
:1052E00081E08093290150CBC814D904EA04FB045F
:1052F0009CF7823088F38150EDCF8091280188237C
:1053000059F010922801F094E094D094C094C11CFC
:10531000D11CE11CF11C38CB10932801F4CF8091F3
:1053200027018C149D04AE04BF046CF48F3F19F068
:105330008F5F8093270180912701843668F08F3F2B
:1053400061F48EEF0AC0C814D904EA04FB049CF788
:10535000843688F38150EDCF84E68093270114CB07
:1053600080912A018C149D04AE04BF0484F48F3113
:105370001CF48F5F80932A0180912A018F310CF0F9
:105380008EE1823E0CF482EE80932A01FDCAC8149D
:10539000D904EA04FB0484F7823E74F38150EACF17
:1053A0008091230190912401A0912501B0912601C3
:1053B0008C149D04AE04BF040CF048C0813C3EE058
:1053C000930736E1A30732E0B307A8F4E091130195
:1053D000F0E0EE0FFF1FE75BFE4F20813181820F6F
:1053E000931FA11DB11D8093230190932401A093CD
:1053F0002501B09326018091230190912401A09171
:105400002501B0912601813C5EE0950756E1A50794
:1054100052E0B50720F080EC9EE0A6E1B2E08038D3
:10542000E1EB9E07EFE4AE07E1E0BE0720F480E881
:1054300091EBAFE4B1E08093230190932401A0931A
:105440002501B09326010E947D105ACDC814D904BD
:10545000EA04FB0484F6803841EB94074FE4A40788
:1054600041E0B40740F2E0911301F0E0EE0FFF1FBE
:10547000E75BFE4F20813181821B930BA109B109AB
:10548000B2CFC814D904EA04FB040CF0EACB803A8A
:105490002AE992072EECA207B10508F4E2CBE091CD
:1054A0001301F0E0EE0FFF1FE75BFE4F208131811B
:1054B000821B930BA109B109CCCB80911F01909164
:1054C0002001A0912101B09122018C149D04AE0411
:1054D000BF040CF043C0813E56E395075FECA5077F
:1054E000B105A8F4E0911301F0E0EE0FFF1FE75BB8
:1054F000FE4F20813181820F931FA11DB11D80932A
:105500001F0190932001A0932101B093220180916B
:105510001F0190912001A0912101B0912201813EB3
:10552000F6E39F07FFECAF07B10520F080EE96E3AE
:10553000AFECB0E0803A2AE992072EECA207B10561
:1055400020F480EA9AE9AEECB0E080931F019093DA
:105550002001A0932101B0932201D2CCC814D90418
:10556000EA04FB04A4F6803AEAE99E07EEECAE07F3
:10557000B10568F2E0911301F0E0EE0FFF1FE75B69
:10558000FE4F20813181821B930BA109B109B7CF56
:105590008091170190911801A0911901B0911A0101
:1055A0008C149D04AE04BF040CF046C0813034EB73
:1055B000930734ECA30734E0B307A8F4E091130198
:1055C000F0E0EE0FFF1FE75BFE4F20813181820F7D
:1055D000931FA11DB11D8093170190931801A093F3
:1055E0001901B0931A018091170190911801A091AF
:1055F0001901B0911A01813054EB950754ECA507BD
:1056000054E0B50720F080E094EBA4ECB4E08038DF
:10561000E3EC9E07E9ECAE07E1E0BE0720F480E88A
:1056200093ECA9ECB1E08093170190931801A0933B
:105630001901B0931A0164CCC814D904EA04FB041C
:1056400094F6803843EC940749ECA40741E0B40792
:1056500050F2E0911301F0E0EE0FFF1FE75BFE4F09
:1056600020813181821B930BA109B109B4CF8091B4
:105670002E018C149D04AE04BF04A4F490912D015E
:10568000891718F48F5F80932E0180912E0180314D
:1056900090F090912D01891710F08FEF890F809372
:1056A0002E016ACAC814D904EA04FB0474F78031D5
:1056B00060F38150E8CF80E1F2CFC814D904EA0446
:1056C000FB040CF00FCB981708F00CCB815008CBE3
:1056D00090912C01891708F40CCB8FEF09CB8091A6
:1056E0002C0190912D018C149D04AE04BF0484F410
:1056F00020912B01821718F48F5F80932C018091E9
:105700002C01981770F081E0890F80932C0134CA26
:10571000C814D904EA04FB0494F7981780F7815061
:10572000ECCF90912B01891780F38FEFEDCF809113
:105730002B0190912C018C149D04AE04BF0474F4D1
:105740008D3F18F48F5F80932B0180912B01981768
:1057500070F081E0890F80932B010ECAC814D90420
:10576000EA04FB0494F7981780F78150ECCF8D3F43
:1057700090F38CEFF0CF80912F058C149D04AE0434
:10578000BF040CF064C08A3018F48F5F80932F053B
:1057900080912F058A3009F0F7C80E94BB1610923D
:1057A000FD071092FC071092FF071092FE0710925F
:1057B000000882E08093FA0780E18093FB0786E986
:1057C00094E00E94EB160E94E10C53E1A52E51E0FB
:1057D000B52E912C812CD5017D905D01C4010E94D4
:1057E000802D781621F0672DC4010E94882DBFEF0F
:1057F0008B1A9B0AE6E28E16910469F739E0A32E14
:1058000031E0B32E47E2842E912CD5017D905D01CD
:10581000C4010E94802D781621F0672DC4010E94DA
:10582000882DBFEF8B1A9B0AE1E38E16910469F76E
:1058300087EB94E00E94EB160E94E10C68EE73E0A7
:1058400080E090E00E944E04109240059DC8C8146C
:10585000D904EA04FB040CF09BCF882309F494C814
:10586000815094CFC814D904EA04FB040CF059CA3F
:10587000882309F489C8815052CA882309F4B3C81F
:1058800010923F05AAC8811115C880911A0810937B
:105890000801823008F00FC9F8948FE098E00E9468
:1058A0000311609116087091170880911808909163
:1058B000190878942091390130E050E040E00E94CE
:1058C000962D209332053093330540933405509341
:1058D000350580912801882379F088279927DC01F4
:1058E000821B930BA40BB50B809332059093330569
:1058F000A0933405B09335050E948104C0902A0519
:10590000D0902B05E0902C05F0902D056C197D09A9
:105910008E099F09683E43E074078105910508F4EC
:10592000D0C880914005811118C980911601882343
:1059300009F4C3C887E1C2C8DB018F939F930E941B
:10594000B52DBF91AF91A29F800D911DA39F900D8A
:10595000B29F900D11240895991B79E004C0991FFE
:10596000961708F0961B881F7A95C9F780950895B9
:1059700097FB072E16F4009407D077FD09D00E94FC
:10598000562D07FC05D03EF4909581959F4F0895C4
:10599000709561957F4F0895E894DF93CF93FC0154
:1059A000DB010E94E22D7F936F93E9019A01AC0124
:1059B000BF93AF933F932F93DF010E94E22D26F414
:1059C0006C1B7D0B820B930B9E01EB01FC010E9473
:1059D000702DAF91BF912F913F910E94702DBE010C
:1059E000CF01F9012F913F91CF91DF9108956894F4
:1059F00001C0E8948F929F92CF93DF930E94052D70
:105A0000DF91CF919F908F90089588249924F4017D
:105A1000E401B0E49F93AA279A158B049C04ED053A
:105A2000FE05CF05D007A10798F4AD2FDC2FCF2FAF
:105A3000FE2FE92D982C892E982F872F762F652FF2
:105A4000542F432F322F2227B85031F7BF9127C050
:105A50001B2EBF91BB27220F331F441F551F661FEC
:105A6000771F881F991F881C991CEE1FFF1FCC1FD2
:105A7000DD1FAA1FBB1F8A149B04EC05FD05CE0584
:105A8000DF05A007B10748F08A189B08EC09FD095B
:105A9000CE09DF09A00BB10B21601A94E1F62EF4B8
:105AA0009401AF01BE01CD01000C0895AA1BBB1BE0
:105AB00051E107C0AA1FBB1FA617B70710F0A61B0E
:105AC000B70B881F991F5A95A9F780959095BC012F
:105AD000CD010895EE0FFF1F0590F491E02D09947C
