:100000000C9452050C94232F0C94FB2E0C947A051F
:100010000C947A050C947A050C947A050C947A0564
:100020000C947A050C947A050C947A050C947A0554
:100030000C947A050C947A050C947A050C947A0544
:100040000C94872D0C947A050C947A050C947A05FF
:100050000C947A050C947A050C947A050C947A0524
:100060000C94DC2D0C947A05000103070F1F3F7FD1
:100070000080C0E0F0F8FCFE00000000003E5B4F96
:100080005B3E3E6B4F6B3E1C3E7C3E1C183C7E3CF8
:10009000181C577D571C1C5E7F5E1C00183C180006
:1000A000FFE7C3E7FF0018241800FFE7DBE7FF3096
:1000B000483A060E2629792926407F050507407F04
:1000C00005253F5A3CE73C5A7F3E1C1C08081C1C77
:1000D0003E7F14227F22145F5F005F5F06097F016D
:1000E0007F006689956A606060606094A2FFA29458
:1000F00008047E040810207E201008082A1C080826
:100100001C2A08081E101010100C1E0C1E0C303873
:100110003E3830060E3E0E06000000000000005F74
:1001200000000007000700147F147F14242A7F2A90
:100130001223130864623649562050000807030052
:10014000001C2241000041221C002A1C7F1C2A089E
:10015000083E080800807030000808080808000001
:1001600060600020100804023E5149453E00427F75
:10017000400072494949462141494D331814127FC4
:100180001027454545393C4A494931412111090764
:100190003649494936464949291E000014000000E5
:1001A00040340000000814224114141414140041B7
:1001B00022140802015909063E415D594E7C121174
:1001C000127C7F494949363E414141227F414141AC
:1001D0003E7F494949417F090909013E4141517327
:1001E0007F0808087F00417F41002040413F017F98
:1001F000081422417F404040407F021C027F7F0460
:1002000008107F3E4141413E7F090909063E4151A8
:10021000215E7F09192946264949493203017F0198
:10022000033F4040403F1F2040201F3F4038403F99
:10023000631408146303047804036159494D4300AF
:100240007F4141410204081020004141417F0402E6
:10025000010204404040404000030708002054547D
:1002600078407F284444383844444428384444285B
:100270007F385454541800087E090218A4A49C78AE
:100280007F0804047800447D40002040403D007F0A
:100290001028440000417F40007C047804787C08EA
:1002A0000404783844444438FC18242418182424BE
:1002B00018FC7C08040408485454542404043F44A3
:1002C000243C4040207C1C2040201C3C4030403CD2
:1002D00044281028444C9090907C4464544C440032
:1002E0000836410000007700000041360800020196
:1002F0000204023C2623263C1EA1A161123A404082
:10030000207A3854545559215555794122545478FE
:1003100042215554784020545579400C1E52721297
:100320003955555559395454545939555454580020
:1003300000457C410002457D420001457C407D1224
:1003400011127DF0282528F07C5455450020545486
:100350007C547C0A097F4932494949323A44444431
:100360003A324A4848303A4141217A3A424020786C
:10037000009DA0A07D3D4242423D3D4040403D3C6D
:1003800024FF2424487E4943662B2FFC2F2BFF0992
:1003900029F620C0887E0903205454794100004486
:1003A0007D413048484A32384040227A007A0A0A71
:1003B000727D0D19317D2629292F282629292926E4
:1003C00030484D4020380808080808080808382F29
:1003D00010C8ACBA2F102834FA00007B00000814B3
:1003E0002A142222142A14085500550055AA55AA89
:1003F00055AAFF55FF55FF000000FF00101010FF29
:1004000000141414FF001010FF00FF1010F010F083
:10041000141414FC001414F700FF0000FF00FF1474
:1004200014F404FC141417101F10101F101F1414C0
:10043000141F00101010F0000000001F101010100A
:100440001F10101010F010000000FF1010101010FE
:1004500010101010FF10000000FF140000FF00FF3C
:1004600000001F10170000FC04F4141417101714D8
:1004700014F404F40000FF00F714141414141414FA
:10048000F700F7141414171410101F101F1414146D
:10049000F4141010F010F000001F101F0000001FD7
:1004A00014000000FC140000F010F01010FF10FF0A
:1004B000141414FF141010101F00000000F010FF9F
:1004C000FFFFFFFFF0F0F0F0F0FFFFFF0000000083
:1004D00000FFFF0F0F0F0F0F3844443844FC4A4A07
:1004E0004A347E02020606027E027E0263554941BC
:1004F000633844443C04407E201E2006027E0202F3
:1005000099A5E7A5991C2A492A1C4C7201724C3006
:100510004A4D4D303048784830BC625A463D3E49DD
:100520004949007E0101017E2A2A2A2A2A44445F81
:10053000444440514A444040444A51400000FF0175
:1005400003E080FF000008086B6B08361236243683
:10055000060F090F060000181800000010100030E8
:1005600040FF0101001F01011E00191D1712003C70
:100570003C3C3C0000000000005EBCE2613FDD83CB
:10058000C29C7E20A3FD1F41009D23BE46DB65F873
:100590008C11AF32CA57E974000000002400270014
:1005A0002A00DB40A4A62EAFDA0281DA1281DA0239
:1005B000818F2000A1C8D300408DAED580A8000057
:1005C0000000250028002B00000060000000000053
:1005D000000000000000000000E00000000000003B
:1005E0000000000000000001E0000000000000002A
:1005F00000000000000001F000000000000000000A
:10060000000000000003F0000000000000000000F7
:100610000000000007F000000000000000000000E3
:1006200000000007F80000000000000000000000CB
:1006300000000FF800000003C0007E000001E00091
:100640007F0FF800000003C000FE000001E000FF83
:10065000EFF800000003C000FE000001E000FFFF13
:10066000F800000003C000F00000000F007FFE7FD4
:10067000C0000003C000F00000000F003FFE7FF844
:100680003FF1FBCFFCFEF3BC3DEFE01FFE7FFF7FA1
:10069000FBFFDFFEFEFFBC3DEFE01FC6FFFF7FFB61
:1006A000FFDFFEFEFFBC3DEFE00FE3C7FE787BC33C
:1006B000DE1EF0FFBC3DEF0007FF87FC787BC3DE4A
:1006C0001EF0F83C3DEF0001FFFFF0007BC3C01EB1
:1006D000F0F03C3DEF0001F37FE03FFBC3CFFEF0C5
:1006E000F03C3DEF0003E33F807FFBC3DFFEF0F013
:1006F0003C3DEF0007E73C00787BC3DE1EF0F03C9A
:100700003DEF0007FFBE00787BC3DE1EF0F03C3DEE
:10071000EF0007FFFE00787BC3DE1EF0F03C3DEFEC
:10072000000FFFFE007FFBFFDFFEF0F03FFDEFE07C
:100730000FFFFF007FFBFFDFFEF0F03FFDEFE00F5C
:10074000F9FF003E79F9CF9EF0F01F3DE7E01FF181
:10075000FF0000000000000000000000001F80FFFC
:10076000007FFFFFFFFFFFFFFFFFFFE01C007F0098
:100770007FFFFFFFFEB46D888D18E000001F007F33
:10078000FFFFFFFE95AD7DB577E000000F007FFF16
:10079000FFFFFEA5AD9D8D19E0000006007FFFFF65
:1007A000FFFEB5ADEDB57EE0000000000001800069
:1007B00000000000000000000380000000000000B6
:1007C00000000007C000000000000000000007C09B
:1007D0000000000000000000000FC000000000004A
:1007E000000000001FE00000000000000000001FEB
:1007F000E00000000000000000003FE000000000FA
:1008000000000000003FF0000000000000000000B9
:100810007FF0000000000000001FF87FF0000000E3
:10082000000000003FFE7FF0000000000000003FDD
:10083000FF7FF0000000000000001FFFFBE0000051
:1008400000000000000FFFF9FFC0000000000000E2
:100850000FFFF9FFF800000000000007FFF1FFFFA5
:1008600000000000000003FC73FFFF800000000098
:100870000001FE3FFFFF80000000000000FF1E0F90
:10088000FF000000000000007FFE1FFC00000000D1
:100890000000003FFFFFF8000000000000000FDF35
:1008A000FFE0000000000000001F19FFC000000072
:1008B000000000003F3CFF00000000000000007E40
:1008C0007CF800000000000000007FFE7C000000BB
:1008D0000000000000FFFFFC00000000000000001E
:1008E000FFFFFE0000000000000000FFFFFE000010
:1008F000000000000001FFEFFE000000000000000B
:1009000001FFCFFE0000000000000003FF07FE0013
:1009100000000000000003FC07FE000000000000D3
:100920000003F003FE00000000000000018000FE54
:10093000000000000000000000007E000000000039
:1009400000000000003E0000000000000000000069
:100950000C000000000000078000FC000003C00045
:100960000000078001FC000003C0000000078001B8
:10097000FC000003C0000000078001E00000001E32
:10098000000000078001E00000001E007FE3F79FE9
:10099000F9FDE7787BDFC0FFF7FFBFFDFDFF787B48
:1009A000DFC0FFF7FFBFFDFDFF787BDFC0F0F787FB
:1009B000BC3DE1FF787BDE00F0F787BC3DE1F078DD
:1009C0007BDE0000F787803DE1E0787BDE007FF78B
:1009D000879FFDE1E0787BDE00FFF787BFFDE1E068
:1009E000787BDE00F0F787BC3DE1E0787BDE00F04D
:1009F000F787BC3DE1E0787BDE00F0F787BC3DE1A6
:100A0000E0787BDE00FFF7FFBFFDE1E07FFBDFC0AA
:100A1000FFF7FFBFFDE1E07FFBDFC07CF3F39F3D0D
:100A2000E1E03E7BCFC000000000000000000000BD
:100A300000FFFFFFFFFFFFFFFFFFFFC0FFFFFFFF04
:100A4000FD68DB111A31C0FFFFFFFFFD2B5AFB6A67
:100A5000EFC0FFFFFFFFFD4B5B3B1A33C0FFFFFF03
:100A6000FFFD6B5BDB6AFDC02200FF210001020479
:100A70000810204080010204081020010204081020
:100A800020000000002300260029000404040404C0
:100A9000040404020202020202030303030303002C
:100AA0004B2F8E3611241FBECFEFD8E0DEBFCDBF57
:100AB00024E0A0E3B3E001C01D92AF3CB207E1F730
:100AC00013E0A0E0B1E0E4E6F5E702C005900D9286
:100AD000A033B107D9F715E0C1E5D5E004C02197EF
:100AE000FE010E946B37C035D107C9F70E94C6309E
:100AF0000C94A53A0C94000091E090932F048093FD
:100B00002E0410922D0410922C0408959091230429
:100B10009111FCCF91E090932304909322042FEF46
:100B20002093210410922004260F20931F049093F9
:100B30001E0490911E04880F892B80931E048091BF
:100B40001D04813011F510921D0480911E048093C4
:100B5000BB008091BC0083FDF8CF85EC8093BC0086
:100B6000809123048130E1F380912004861710F4F2
:100B7000609120042DEF33E0ADEDB3E0F9018E2F4D
:100B8000821B861720F0862F089585EEE7CF81918E
:100B90008D93F5CF8F929F92AF92BF92CF92DF92BB
:100BA000EF92FF92CF93611571058105910521F4B4
:100BB00061E070E080E090E024E0660F771F881F1E
:100BC000991F2A95D1F76115710521E082079105DA
:100BD00008F44EC06115710528E08207910508F4FC
:100BE0004BC06115710520E48207910508F048C0EB
:100BF00020E430E0C3E06901F12CE12CA7010E9460
:100C0000D63849015A0180918000807F809380000E
:100C1000C861C0938100C9010197909387008093B8
:100C200086008091810087708093DC0360E074E22D
:100C300084EF90E0A70196010E94AC38AA24BB245F
:100C4000CA01B901A50194010E94AC3860E472E4C4
:100C50008FE090E00E94D638CA01B901CF91FF9091
:100C6000EF90DF90CF90BF90AF909F908F900895BE
:100C700021E030E0C1E0BFCF28E030E0C2E0BBCFF0
:100C800020E031E0C4E0B7CF8091DA039091DB033C
:100C9000891B990B089508950895482FE62F282F52
:100CA00030E0863009F459C000F58330E1F1853039
:100CB00009F44FC04830E0F14E3010F1443108F0F3
:100CC00063C02E50310981E090E0A0E0B0E004C0A4
:100CD000880F991FAA1FBB1F2A95D2F728B1EE23B0
:100CE00009F44FC0822B88B908958A30C9F18B303E
:100CF000D9F18930F9F6809180008F778093800058
:100D00002850310981E090E0A0E0B0E004C0880FF5
:100D1000991FAA1FBB1F2A95D2F7E1112EC025B13A
:100D2000809582232CC09091B0009F7D9093B0005D
:100D300081E090E0A0E0B0E004C0880F991FAA1FF6
:100D4000BB1F4A95D2F72BB1EE23A1F0822B8BB9B2
:100D5000089594B59F7D94BDEBCF94B59F77FBCF5D
:100D6000809180008F7DCACF8091B0008F77809373
:100D7000B000C6CF80958223EACF25B1822B85B9FA
:100D8000089580958223AFCF08951092DB031092CF
:100D9000DA0310922D0410922C041092230481E0A7
:100DA0008093220410921D04449A459AE9EBF0E0E6
:100DB00080818E7F808380818D7F808388E4809393
:100DC000B80085E48093BC008BE496E09093D9034F
:100DD0008093D8038CE496E09093D7038093D60356
:100DE00008950895CF92DF92EF92FF920F931F9391
:100DF000613009F45BC0623009F490C08830C8F4F7
:100E00009AB141E050E060E070E004C0440F551F2B
:100E1000661F771F8A95D2F7409594239AB98BB1B4
:100E200048234BB91F910F91FF90EF90DF90CF9027
:100E300008958E30B0F424B1082F0850110B81E0D2
:100E400090E0A0E0B0E004C0880F991FAA1FBB1F6C
:100E50000A95D2F78095282324B995B1892385B9BD
:100E6000E1CF8431F8F6E7B190E09C012E503109D2
:100E700041E050E060E070E06A017B0104C0CC0C0E
:100E8000DD1CEE1CFF1C2A95D2F7860100950E236F
:100E900007B928B1089704C0440F551F661F771F74
:100EA0008A95D2F74095422348B9BCCF883078F470
:100EB0009AB141E050E060E070E004C0440F551F7B
:100EC000661F771F8A95D2F7942B9AB9ABCF8E30D5
:100ED00088F424B18850990B41E050E060E070E064
:100EE00004C0440F551F661F771F8A95D2F7242B25
:100EF00024B998CF843108F095CF27B18E50990B43
:100F000041E050E060E070E004C0440F551F661FF0
:100F1000771F8A95D2F7242B27B984CF8830B8F46D
:100F20003AB141E050E060E070E07A018B0104C02A
:100F3000EE0CFF1C001F111F8A95D2F7C7012E2D42
:100F4000209523232AB92BB1822B8BB96BCF8E30FE
:100F5000B0F434B1082F0850110B81E090E0A0E00C
:100F6000B0E004C0880F991FAA1FBB1F0A95D2F7D3
:100F7000282F2095232324B925B1822B70CF8431CB
:100F800008F050CF37B1682F6E50770B81E090E0BA
:100F9000A0E0B0E004C0880F991FAA1FBB1F6A958C
:100FA000D2F7282F2095232327B928B1822B88B97F
:100FB00039CFCF92DF92EF92FF920F931F93CF938F
:100FC000DF937C016A0110E000E00C151D0581F043
:100FD000EB01D701ED91FC910190F081E02D699139
:100FE000C7010995892B21F00F5F1F4FBE01EDCF7F
:100FF000C801DF91CF911F910F91FF90EF90DF908B
:10100000CF900895880F991F880F991F0597019712
:10101000F1F708953FB7F8948091B1039091B2032E
:10102000A091B303B091B40326B5A89B05C02F3F90
:1010300019F00196A11DB11D3FBFBA2FA92F982FFE
:101040008827BC01CD01620F711D811D911D42E0F9
:10105000660F771F881F991F4A95D1F708958F92C1
:101060009F92AF92BF92CF92DF92EF92FF926B016D
:101070007C010E940A084B015C01C114D104E10407
:10108000F104B9F00E940A08681979098A099B09D4
:10109000683E73408105910580F381E0C81AD1084C
:1010A000E108F10828EE820E23E0921EA11CB11C7B
:1010B000E4CFFF90EF90DF90CF90BF90AF909F90E4
:1010C0008F9008952FB7F8946091AD037091AE039F
:1010D0008091AF039091B0032FBF089520910A0132
:1010E00090E4299F900111248E50822B80937C00E4
:1010F00080917A00806480937A0080917A0086FDE6
:10110000FCCF80917800909179000895E0E06150E3
:1011100098F0DC018D918E27E82FEF70F0E0E85811
:10112000FA4F9491E82FE295EF70F0E0E857FA4F0C
:10113000E491E927CD01EBCF8E2F08950F931F93F4
:10114000CF93DF93FC011081C181D281F894898112
:10115000812B89838A81012F009580238A8383E0F4
:1011600090E00E9402088981802389838AE090E0D0
:101170000E940208C881789485E390E00E940208EA
:10118000C12381E009F480E0DF91CF911F910F919D
:1011900008951F93CF93DF93FC011081C181D28109
:1011A000912F909560FF16C0F8948A8189238A83D5
:1011B0008981812B89838AE090E00E9402088A81DC
:1011C000182B1A83789487E390E0DF91CF911F91D9
:1011D0000C940208F8948A8189238A838981812B5F
:1011E000898381E490E00E9402088A81182B1A8387
:1011F000789485E090E0E9CFDF92EF92FF920F9331
:101200001F93CF93DF93EC01D62EE42E08E010E07D
:10121000FF24F39461E08D2D8F2109F460E0CE016D
:101220000E94C908FF0C01501109A1F7E11010C07C
:10123000F894E981FA81918188818095892381835D
:10124000E981FA81928188818095892382837894CB
:10125000DF91CF911F910F91FF90EF90DF90089554
:10126000EF92FF920F931F93CF93DF938C017B013B
:1012700040E065E50E94FC08E70188E0E80EF11C0B
:10128000699140E0C8010E94FC08CE15DF05C1F756
:10129000DF91CF911F910F91FF90EF900895FF92F2
:1012A0000F931F93CF93DF93FC010081C181D28103
:1012B000F8948981F02EF0948F21898378941DE72A
:1012C000115029F182E090E00E9402088881802379
:1012D000B9F3F8948A818F218A838981802B89834D
:1012E000789480EE91E00E940208F89489818F2121
:1012F000898386E490E00E9402088881082311E037
:1013000009F010E078948AE991E00E940208812FA8
:10131000DF91CF911F910F91FF900895AF92BF92EF
:10132000CF92DF92EF92FF920F931F93CF93DF93B1
:101330008B01BC0180913A0490913B040E943009DA
:1013400040E06EEB80913A0490913B040E94FC08CF
:10135000E801680189E0C80ED11CA0903A04B09061
:101360003B0488E0E82EF12C10E001E0C5010E946A
:101370009E088111102B000F81E0E81AF108B1F7E7
:101380001993CC16DD0649F780913A0490913B04FD
:101390000E944F0991E0813009F090E0892FDF91A0
:1013A000CF911F910F91FF90EF90DF90CF90BF9062
:1013B000AF9008950F931F93CF93DF93CDB7DEB710
:1013C00029970FB6F894DEBF0FBECDBF8C01FC018C
:1013D0008081803181F180913A0490913B040E9498
:1013E0004F0981110CC080E029960FB6F894DEBF3A
:1013F0000FBECDBFDF91CF911F910F910895BE0118
:101400006F5F7F4FC8010E948E09882361F368E0F7
:10141000CE0101960E94860899858913E4CF8D81BB
:101420008F3359F020F48F31F1F689E0DDCF8F351D
:1014300031F08F37C1F68CE0D7CF8AE0D5CF8BE083
:10144000D3CF0895FC016370668B848195812681DA
:101450003781623021F0633039F0613029F09187B3
:1014600080873387228708953187208793878287F3
:1014700008952F923F924F925F926F927F928F9238
:101480009F92AF92BF92CF92DF92EF92FF920F9313
:101490001F93CF93DF93CDB7DEB76A970FB6F8945B
:1014A000DEBF0FBECDBF9A8F898F7A8369834A01D1
:1014B000D22E18870F833701BC2CDC0159962D9151
:1014C0003C915A972115310509F015C118968D9157
:1014D0009C911997681779070CF0D7C11A968D91CE
:1014E0009C91481759070CF0D0C14C2C512CB6E0F8
:1014F000CB9E600D711D11247C876B871616170615
:101500000CF0C3C1EA2DF0E0FA87E98793E0EE0F13
:10151000FF1F9A95E1F7F88BEF87CF01840F951F96
:10152000181619060CF0B1C1A98DBA8D58968C9178
:10153000811104C0BFEABD1508F4D394A98DBA8DFA
:10154000ED91FC9111970284F385E02DCD01099571
:10155000B5E0DB9EC0011124E981FA81FC83EB83B5
:10156000312C212C9C0128583F4F388F2F8B4A2D2E
:1015700050E05E8B4D8BEF89F88DE20DF31D4491A9
:101580009E828D82D12CC12C69817A81620D731D5E
:101590007A8B698B842F90E09C8B8B8BE98DFA8DF5
:1015A000A081B18140FF82C0F1E0BF126FC0AF12D5
:1015B0006DC01C96ED91FC912F813885A4014C0DD6
:1015C0005D1D69897A89898D9A8D0995EB89FC89D8
:1015D000F595E7954E2F5FEFC51AD50A6D817E818F
:1015E0008D899E89680F791F7E836D8398E0C91667
:1015F000D10481F6AFEF2A1A3A0AEB81FC81E40D9F
:10160000F51DFC83EB83F5E02F16310409F0B3CF11
:101610002F81388526153705B9F0A98DBA8DED9142
:10162000FC91B1E0BB1257C0AB1255C069817A8101
:101630006B5F7F4F0088F189E02D830128E030E067
:10164000A401898D9A8D0995A98DBA8DED91FC9192
:1016500011970688F789E02DCD016A960FB6F894A8
:10166000DEBF0FBECDBFDF91CF911F910F91FF90D5
:10167000EF90DF90CF90BF90AF909F908F907F9032
:101680006F905F904F903F902F9009941E96ED9130
:10169000FC91EF80F88409851A8592014D815E8165
:1016A0006B817C81898D9A8D099590CF2F813885AA
:1016B0002615370509F48ACF31E0B31207C0A3120B
:1016C00005C01C96ED91FC91930178CF1E96ED918B
:1016D000FC917301E0CF6B857C85641975090684E4
:1016E000F785E02D73010F8518899201A401898D7A
:1016F0009A8D0995A9CFF901349694913297459125
:101700005491D91AB7E0DB9E400D511D1124F90107
:10171000259134913C8B2B8BFA0125903490FA0162
:101720003296749031963491398B3296649031961A
:10173000449041E04C1518F04A1508F07FC0662D22
:10174000062C000C770B7C836B83842D042C000CFF
:10175000990B9E838D83A98DBA8DED91FC91119784
:101760000284F385E02DCD010995512CD12CC12C9B
:10177000EA2DF0E0FA87E9872B2D30E03C872B87B4
:10178000A401440D511D47FC5A95588F4F8B698118
:101790007A81660D711D67FC7A957E876D877989E0
:1017A000C71608F051CF2C2D30E04D815E81420FDD
:1017B000531FA985BA854A9FC0014B9F900D5A9F20
:1017C000900D1124FC01E80DF91DF88BEF87852D94
:1017D000612C4F89588D420F531F5E8B4D8B6714C0
:1017E00008F050C044244394480E877041F4C1016E
:1017F0000196EB89FC89E20DF31DD4901C01D7FE04
:1018000019C0A98DBA8DED91FC91662D70E0B1E003
:10181000BB1219C0AB1217C02D853E85620F731F16
:101820000484F585E02D2F8138854D895E89898D69
:101830009A8D0995DD0C6394842DD1CF1E821D8273
:101840001C821B8288CF4B815C81640F751FAB8526
:10185000BC856A9FC0016B9F900D7A9F900D1124EB
:1018600069817A81680F791F0684F785E02DEF8002
:10187000F88409851A859D014F855889898D9A8D2F
:101880000995D8CF570CC3948ACF6A960FB6F894AF
:10189000DEBF0FBECDBFDF91CF911F910F91FF90A3
:1018A000EF90DF90CF90BF90AF909F908F907F9000
:1018B0006F905F904F903F902F9008958F929F92DE
:1018C000AF92CF92EF92FF920F931F93CF93DF933C
:1018D000EC01262F898D9A8D009709F051C06A304E
:1018E000D1F41D861C868D8948E0849F90011124C7
:1018F0008E859F85820F931F9F878E8781E090E062
:10190000DF91CF911F910F91FF90EF90CF90AF900B
:101910009F908F9008956D3089F3CC88AD888F8922
:101920008823C1F08C859D8536E0C39E800D911D76
:101930001124488559854817590764F44E855F85F9
:101940001D861C8638E0A39EC0011124840F951FBC
:101950009F878E87EA88FB88088919894E855F856D
:101960006C857D85CE010E94390A2C898C859D85E8
:1019700046E0249F800D911D11249D878C87BECF4A
:101980006A3069F41D861C86FC013896E4912D8925
:101990008E859F85E29F800D911D1124ADCF6D3006
:1019A00009F4ACCFFC0134963491631708F4A6CF48
:1019B0003296E491E61708F4A1CFFC0132968590A7
:1019C0009490462F431B342F47E0349F800C911C8A
:1019D0001124F401329634913196E4913323A9F124
:1019E000EE2399F1CC88F4013596E491AD884F89C6
:1019F000442301F10E2E000CFF0BE30FF11DCE9ED0
:101A0000A001CF9E500D11246C857D85460F571F78
:101A100068857985641775076CF44E855F851D862A
:101A20001C86FC013896E491AE9E400D511D112498
:101A30005F874E87EA88FB88088919894E855F850C
:101A40006C857D85CE010E94390AF4013496E491BB
:101A50002C898C859D85E29F800D911D11248DCF51
:101A6000682F82E694E00C945E0C6F927F928F92C6
:101A70009F92AF92BF92CF92DF92EF92FF920F931D
:101A80001F93CF93DF93EC016B015A013901480199
:101A9000E881F9810284F385E02D0995E881F981D7
:101AA0000288F389E02D87019301A501B601CE01DB
:101AB0000995A501480D591D41505109E881F98149
:101AC0000288F389E02D9301B601CE010995E881E2
:101AD000F9810088F189E02D9401A501B601CE01BC
:101AE0000995C60CD71CB60161507109E881F981CE
:101AF0000088F189E02D9401A501CE010995E881C6
:101B0000F9810688F789E02DCE01DF91CF911F91F1
:101B10000F91FF90EF90DF90CF90BF90AF909F908C
:101B20008F907F906F9009948F929F92AF92BF9207
:101B3000CF92DF92EF92FF920F931F93CF93DF9399
:101B40004C016B015A01E901DC01ED91FC91621736
:101B5000730709F50417150724F48B2D5801042F7A
:101B6000182F0A191B0998012F5F3F4F048CF58D20
:101B7000E02D8701A501B601C4010995DF91CF9140
:101B80001F910F91FF90EF90DF90CF90BF90AF909B
:101B90009F908F9008954017510781F426173707BB
:101BA00024F48D2D6901C62FD82F9E012C193D09D3
:101BB0002F5F3F4F068CF78DE02DDBCF0284F3853E
:101BC000E02D0995D401ED91FC910488F589E02D73
:101BD0009E01A501B601C4010995D401ED91FC91C6
:101BE0000688F789E02DC401DF91CF911F910F91F5
:101BF000FF90EF90DF90CF90BF90AF909F908F902D
:101C00000994EF92FF920F931F93DC011A960D91A6
:101C10001C911B9718962D913C911997ED91FC9171
:101C200000A0F1A1E02D7B0150E040E070E060E019
:101C300009951F910F91FF90EF9008954F925F9239
:101C40006F927F928F929F92AF92BF92CF92DF92CC
:101C5000EF92FF920F931F93CF93DF936C012B01B1
:101C60005A0139014801DC01ED91FC910284F385B0
:101C7000E02D0995E201640C751CD601ED91FC91F3
:101C8000C615D7055CF40088F189E02D8701940121
:101C9000A501BE01C60109952196EFCF0688F789F7
:101CA000E02DC601DF91CF911F910F91FF90EF9032
:101CB000DF90CF90BF90AF909F908F907F906F906C
:101CC0005F904F9009948F929F92AF92BF92CF9264
:101CD000DF92EF92FF920F931F93CF93DF93EC016C
:101CE0005B014A016901E881F9810284F385E02DF5
:101CF000099595012C0D3D1D21503109E881F9818F
:101D00000488F589E02D78018401A401B501CE0194
:101D10000995E881F9810688F789E02DCE01DF91E8
:101D2000CF911F910F91FF90EF90DF90CF90BF90D8
:101D3000AF909F908F9009948F929F92AF92BF9295
:101D4000CF92DF92EF92FF920F931F93CF93DF9387
:101D5000EC015B014A0169017801E881F9810284A3
:101D6000F385E02D0995C80CD91C86010150110995
:101D7000E881F9810488F589E02D9501A401B50178
:101D8000CE010995E881F9810688F789E02DCE0119
:101D9000DF91CF911F910F91FF90EF90DF90CF9047
:101DA000BF90AF909F908F900994EF92FF920F9306
:101DB0001F93DC01ED91FC9100A0F1A1E02D0995AC
:101DC0001F910F91FF90EF9008950F931F93DC01E7
:101DD000ED91FC91068CF78DE02D09951F910F91E7
:101DE00008950F931F93DC01ED91FC91048CF58D08
:101DF000E02D09951F910F910895DC01ED91FC9163
:101E00000084F185E02D09943F924F925F926F928A
:101E10007F928F929F92AF92BF92CF92DF92EF927A
:101E2000FF920F931F93CF93DF935C017B014A01D5
:101E30006901390187E0680E711C93E0759467941D
:101E40009A95E1F72B01400E511E10E000E0312C75
:101E5000D0E0C0E0CE0187709927330C892B59F46C
:101E6000FE0183E0F595E7958A95E1F7E00FF11F14
:101E7000E80DF91D349037FE0AC021E030E0A701DB
:101E8000B5016C0F7D1F82E694E00E94FD0E219645
:101E9000CC16DD06F9F68FEFE81AF80A060D171DC5
:101EA000E414F504A9F6DF91CF911F910F91FF90F3
:101EB000EF90DF90CF90BF90AF909F908F907F90EA
:101EC0006F905F904F903F9008952F923F924F9266
:101ED0005F926F927F928F929F92AF92BF92CF92BA
:101EE000DF92EF92FF920F931F93CF93DF9300D077
:101EF00000D000D0CDB7DEB72C017E836D836A01A0
:101F00005901C801FC82EB824801841A950A97FEA8
:101F100003C091948194910835012D813E81621A0C
:101F2000730A77FE03C07194619471086814790490
:101F30005CF43A2D2B2D5C01832F922F3D812E8155
:101F4000DE82CD82C32ED22EAD81BE81AA16BB0603
:101F50005CF43C2D2D2D6C01832F922F3D812E8121
:101F6000BE82AD82A32EB22E85012D813E81021B41
:101F7000130B1C012C183D0837FE03C0319421942B
:101F80003108780117FF03C03FEFE31AF30AF59415
:101F9000E794C816D90664F18FEF9FEF9A8389837F
:101FA0002D813E81A216B30644F1D201ED91FC9140
:101FB0000484F585E02D2B813C814D815E81B60145
:101FC000681479041CF0A6016D817E81C201099517
:101FD000E218F308F7FE06C029813A81C20ED31E2B
:101FE000E00EF11E8D819E8101969E838D83D8CF58
:101FF000A1E0B0E0BA83A983D3CF26960FB6F894B8
:10200000DEBF0FBECDBFDF91CF911F910F91FF902B
:10201000EF90DF90CF90BF90AF909F908F907F9088
:102020006F905F904F903F902F90089585ED809333
:10203000BC008091BC0084FDFCCF10922304089565
:1020400020918903260F3327331F21323105ECF409
:1020500020912304FC0190E080E0243069F082E0CC
:102060000895A09189032191AC0147595C4FA40FB9
:10207000B52FB11D2C930196861798F38091890393
:10208000680F6093890380E0089581E00895E091EE
:10209000DB038091DA03E81730F4F0E0E352FC4F01
:1020A000808190E008958FEF9FEF08959091DB037A
:1020B0008091DA032FEF3FEF981748F4E92FF0E013
:1020C000E352FC4F208130E09F5F9093DB03C90116
:1020D0000895CF92DF92EF92FF920F931F93CF93C9
:1020E000DF937C01CB018A0120912F04222389F008
:1020F000EB016B01C40ED51ECC15DD0569F06991AD
:10210000D701ED91FC910190F081E02DC701099577
:10211000F3CF642F0E942010C801DF91CF911F914F
:102120000F91FF90EF90DF90CF900895CF93DF93C2
:102130000F92CDB7DEB7698320912F042223F9F0E7
:1021400020912C04203258F021E030E0FC01338350
:10215000228390E080E00F90DF91CF9108958091ED
:102160002D04E82FF0E0E75BFC4F998190838F5FAF
:1021700080932D0480932C0481E090E0ECCF61E00B
:10218000CE0101960E942010F7CF682F86E594E0DB
:102190000C94961020912C0481E0213208F046C066
:1021A000809123048111FCCF90912E0432E0309372
:1021B000230431E0309322043FEF30932104109246
:1021C000200420931F0449E453E0ADEFB3E0FA018B
:1021D0003E2F341B321788F110921E0420911E04EA
:1021E000990F922B90931E0490911D04913041F50C
:1021F00010921D0490911E049093BB009091BC001E
:1022000093FDF8CF95EC9093BC009091230492300D
:10221000E1F3909121049F3F49F0809121048032A5
:1022200089F080912104803379F084E010922D04AC
:1022300010922C0410922F04089531913D93C8CF31
:1022400095EEE1CF82E0F2CF83E0F0CFCF9388E646
:102250000E947C0560E086E594E00E94961060E8AC
:1022600086E594E00E94961080912504CAE06C2FC8
:102270000E94AD368295807F682F690F86E594E0D5
:102280000E949610809126046C2F0E94AD36829594
:10229000807F682F690F86E594E00E9496108091F8
:1022A00027046C2F0E94AD368295807F682F690FBE
:1022B00086E594E00E949610809128046C2F0E947D
:1022C000AD368295807F682F690F86E594E00E9485
:1022D0009610809129046C2F0E94AD368295807FE4
:1022E000682F690F86E594E00E94961080912A0479
:1022F0008E516C2F0E94AD368295807F682F690FBA
:1023000086E594E00E94961086E594E00E94CA104B
:10231000882329F010922B0480E0CF91089581E06A
:1023200080932B0488E60E947C0560E086E594E0BB
:102330000E949610809124046C2F0E94AD368295E5
:10234000807F682F690F86E594E00E94961086E5ED
:1023500094E00E94CA108111DDCF81E0DECFBF92F0
:10236000CF92DF92EF92FF920F931F93CF93DF9361
:102370008C017B01E40EF51EEB01B99068018FEF33
:10238000C81AD80A8091CA040E947C05812F90E067
:102390000E94C510C80199270E94C5106B2D86E5C3
:1023A00094E00E94961086E594E00E94CA106AE0CC
:1023B00070E080E090E00E942F08BE018601CE15FB
:1023C000DF05D1F6DF91CF911F910F91FF90EF9034
:1023D000DF90CF90BF9008950F931F93CF93DF931B
:1023E000EC01EC81FD816E177F070CF073C0DA0100
:1023F000A20FB31F57FF03C09D0150E040E08E8144
:102400009F818A179B071CF49C01241B350B121615
:1024100013060CF05FC0922F842F869586958695C3
:102420008E9FD0018F9FB00D1124A60FB71F6F8D07
:1024300078A1A60FB71F477059F188E0841B482F79
:10244000682F70E0FB01E059FF4FE491281708F076
:1024500065C0621B71092FEF30E002C035952795EA
:102460006A95E2F7E2230130110549F001151105E3
:10247000B1F10230110571F58C91E82702C08C9101
:10248000E82BEC93941730F12C813D81A20FB31F00
:10249000E92FE41BE83078F00230110521F58E2F8A
:1024A0009C9190959C932C813D81A20FB31F8850E5
:1024B0008830B0F7E770EE2369F0F0E0E859FF4F9D
:1024C000E49101301105F9F00115110501F1023017
:1024D000110509F1DF91CF911F910F910895E095BA
:1024E0008C91E823CECF81E00115110509F480E03D
:1024F00081959E2F8C932C813D81A20FB31F985004
:102500009830C0F7D7CF8C91E82BEC93E3CFE095D0
:102510008C91E823FACF8C91E827F7CF0130110591
:1025200009F4ADCF01151105D1F20230110509F4FE
:10253000A3CFAACF0F931F93CF93DF93FB01E20F9B
:10254000F31F77FF03C09F0170E060E0DC01149689
:10255000CD91DC91CE17DF071CF49E01261B370BB3
:10256000121613065CF5FA0157FD3796A3E0F595B0
:10257000E795AA95E1F7EC9FD001ED9FB00DFC9F88
:10258000B00D11246A0F7B1FDC015F96ED91FC9169
:10259000E60FF71F4770552781E090E001C0880FD4
:1025A0004A95EAF7482F0130110569F00115110528
:1025B000A9F02E0F3F1F02301105E1F0DF91CF91FE
:1025C0001F910F9108952E0F3F1FE217F307B1F3EC
:1025D000DF018D91842B8083FD01F7CF80952E0F35
:1025E0003F1F2E173F0751F3DF019D9198239083E2
:1025F000FD01F7CFE217F30709F3DF018D9184277F
:102600008083FD01F7CF0F931F93FA01DC015696EB
:102610004C9156974230E9F04330A1F1413061F5D9
:1026200014964D915C91DA01AE1BBF0BFD01E21BCC
:10263000F30B77FD0BC0DC0116964D915C9164178E
:10264000750724F4AB01BF010E949A121F910F91EC
:10265000089514964D915C91DA01A61BB70BBD014C
:1026600061507109DC0116964D915C91DA01AE1B47
:10267000BF0BFD01E21BF30B77FDE8CFAF010E941A
:10268000EC11E4CF16964D915C91DA01A61BB70BC5
:10269000BD0161507109CDCF0F931F93FA01DC0189
:1026A00056964C9156974230A9F0433091F1413003
:1026B00019F514964D915C91DA01AE1BBF0BFD012B
:1026C0003197F7FD04C0AB01BF010E94EC111F91CF
:1026D0000F91089514964D915C91DA01A61BB70BEA
:1026E000BD01DC0116964D915C91DA01AE1BBF0B6A
:1026F000FD013197621B730BF7FDE9CFDC011696E4
:102700004D915C91E417F50714F7AF010E949A12FE
:10271000DECF16964D915C91DA01A61BB70BBD0179
:10272000621B730BCECFFC0177FD66C0808591855F
:10273000681779070CF060C057FD5EC082859385ED
:10274000481759070CF058C086898230C1F0833091
:1027500039F1813041F484819581841B950BAB0163
:10276000BC01615071092130310519F12115310584
:1027700009F443C02230310509F463C0089584810F
:102780009581DC01A61BB70BBD01615071098681E3
:102790009781DC01A41BB50BAD0141505109E3CF7A
:1027A00086819781861B970BBA01AC014150510974
:1027B000DACFCA0157FD0796A3E095958795AA95AC
:1027C000E1F7A481B5818A9F90018B9F300D9A9F7C
:1027D000300D1124620F731F078CF0A1E02DE60F5E
:1027E000F71F4770552721E030E001C0220F4A95BE
:1027F000EAF78081822B80830895CA0157FD0796EE
:1028000033E0959587953A95E1F7A481B5818A9F44
:1028100090018B9F300D9A9F300D1124620F731F12
:10282000078CF0A1E02DE60FF71F4770552781E0D8
:1028300090E001C0880F4A95EAF78095908189233E
:10284000DACFCA0157FD079623E0959587952A951B
:10285000E1F7A481B5818A9F90018B9F300D9A9FEB
:10286000300D1124620F731F078CF0A1E02DE60FCD
:10287000F71F4770552721E030E001C0220F4A952D
:10288000EAF780818227B7CF08958EBD00000DB48E
:1028900007FEFDCF8EB50895FF920F931F93CF9340
:1028A000DF93F82ED92FC62F80917F04909180045A
:1028B000892B09F447C0809183040E947C05809194
:1028C0007F0490918004DC01ED91FC910190F081F6
:1028D000E02D60E009950F2D1D2FD1E0C1508091B2
:1028E0007F0490918004CF3F31F1D03298F00E9464
:1028F000CA10809183040E947C0580917F0490918E
:102900008004DC01ED91FC910190F081E02D60E00C
:102910000995D1E080917F0490918004F801649141
:10292000DC01ED91FC910190F081E02D0995DF5FD4
:102930000F5F1F4FD3CFDF91CF911F910F91FF906A
:102940000C94CA10E0918F04F091900490818091D2
:1029500095048095892380830F2D1D2FC15008F485
:1029600038C0F801849120917D0430917E04232B9E
:1029700029F00E9445140F5F1F4FF0CF28E030E090
:1029800040E8E0918B04F0918C0490919304582FCF
:102990005423D9F05081952B9083E0918D04F091D0
:1029A0008E04908150919404952B9083E0918D0436
:1029B000F0918E045081909194049095952390838A
:1029C000469521503109E9F6D6CF5081909595234F
:1029D000E3CFDF91CF911F910F91FF9008951F9347
:1029E000CF93DF93EC01162F8D8D9E8D892BF1F007
:1029F00089A10E947C058D8D9E8DDC01ED91FC915D
:102A00000190F081E02D60E009958D8D9E8DDC01B7
:102A1000ED91FC910190F081E02D612F09958D8D54
:102A20009E8DDF91CF911F910C94CA10EDA5FEA54C
:102A300090818BA98095892380838B8D9C8D892B98
:102A400031F0862FDF91CF911F910C94451428E02F
:102A500030E090E8E9A5FAA589A9412F4923C1F002
:102A60004081842B8083EBA5FCA580814AA9842B1F
:102A70008083EBA5FCA540818AA98095842380836F
:102A800096952150310931F7DF91CF911F9108952B
:102A9000408180958423E6CF8CBD9DBD0895FF9233
:102AA0000F931F93CF93DF9380917F0490918004C5
:102AB000892B09F472C08CE08093B80065E088E649
:102AC0009AE00E944C1460916604615082E694E0A2
:102AD0000E94EF142091680430916904C90107969F
:102AE00097FD079623E0959587952A95E1F7209124
:102AF000660430916704829F8001839F100D929F2E
:102B0000100D1124C0918104D091820480917F0422
:102B1000909180040C0F1D1F892B09F47CC08091BB
:102B200083040E947C0580917F0490918004DC01E5
:102B3000ED91FC910190F081E02D60E40995FF2476
:102B4000F39480917F0490918004C017D107E1F144
:102B5000BFE1BF15A0F40E94CA10809183040E94B7
:102B60007C0580917F0490918004DC01ED91FC91C3
:102B70000190F081E02D60E40995FF24F3948091A9
:102B80007F0490918004DC01ED91FC910190F08133
:102B9000E02D69910995F394D4CF80917D049091B3
:102BA0007E04892B31F080919704909198040E94C3
:102BB0004C15E0919104F0919204908180919604DB
:102BC0008095892380837ACF0E94CA1080917F04E8
:102BD00090918004892B09F45FC020919904309171
:102BE0009A0440919B0450919C0460E074E284EF4D
:102BF00090E00E94D638205131094109510956957B
:102C00004795379527952093B800DF91CF911F9175
:102C10000F91FF900895E0918F04F09190048081CE
:102C200090919504892B80830C171D0779F2899167
:102C300020917D0430917E04232B19F00E944514CD
:102C4000F3CF28E030E040E8E0918B04F0918C0471
:102C500090919304582F5423D9F05081952B908351
:102C6000E0918D04F0918E04908150919404952B05
:102C70009083E0918D04F0918E04508190919404A2
:102C8000909595239083469521503109E9F6CCCF54
:102C9000508190959523E3CFE0919104F0919204B7
:102CA000808190919604892B8083AFCFCF93C0E031
:102CB000811106C080918404CFEC813009F4CFE902
:102CC00080917F0490918004892B69F18CE080933E
:102CD000B80061E882E694E00E94EF146C2F82E66F
:102CE00094E00E94EF1480917F0490918004892BDE
:102CF00089F12091990430919A0440919B0450915C
:102D00009C0460E074E284EF90E00E94D638205189
:102D100031094109510956954795379527952093D3
:102D2000B800CF91089580917D0490917E04892B05
:102D300031F080919704909198040E944C15E09195
:102D40009104F0919204908180919604809589235A
:102D50008083BFCFE0919104F091920480819091A3
:102D60009604892B8083DDCF1F93CF93DF93EC01F3
:102D7000162F8D8D9E8D892B29F18CE08093B800C4
:102D800066EA111167EACE010E94EF148D8D9E8DC7
:102D9000892B41F12FA938AD49AD5AAD60E074E2FD
:102DA00084EF90E00E94D638205131094109510941
:102DB00056954795379527952093B800DF91CF9189
:102DC0001F9108958B8D9C8D892B21F08DA99EA933
:102DD0000E944C15EFA5F8A990818CA980958923B4
:102DE0008083CECFEFA5F8A980819CA9892B808311
:102DF000E5CF089590E080E008958093BB0084E8DB
:102E00008093BC008091BC0087FFFCCF9091B900FB
:102E1000987F81E0983231F0983129F0903419F0A0
:102E200080E008950895089584EA8093BC0080911D
:102E3000BC0087FFFCCF8091B900887F19F080EC3F
:102E40000C94FD1680E008955F926F927F928F92AE
:102E50009F92AF92BF92CF92DF92EF92FF920F9329
:102E60001F93CF93DF93CDB7DEB7582E742E652E08
:102E7000B62E922E0E941417852D0E94FD168D2DC0
:102E80000E94FD168C2D0E94FD168B2D83708A29C1
:102E900090E081109CE0892B0E94FD16862D0E94F7
:102EA000FD16872D0E94FD168CE0F694E794D794CA
:102EB000C7948A95D1F78C2D807FC82E892D8F706D
:102EC0008C290E94FD16812F0E94FD16802F0E94E2
:102ED000FD1684E98093BC008091BC0084FDFCCF8A
:102EE000DF91CF911F910F91FF90EF90DF90CF90E6
:102EF000BF90AF909F908F907F906F905F9008955C
:102F00004F925F926F927F928F929F92AF92BF92F9
:102F1000CF92DF92EF92FF920F931F93CF93C82F20
:102F2000C090C104D090C204E090C304F090C404E7
:102F3000CB01BA01A70196010E94D63849015A0176
:102F400025E0F694E794D794C7942A95D1F735E015
:102F500096958795779567953A95D1F747E0660FEF
:102F6000771F881F991F4A95D1F7A70196010E94E4
:102F7000D63829013A018B019C01B501A4015527DE
:102F800066277727E7E0440F551F661F771FEA95EE
:102F9000D1F7525061097109440D551D661D771D09
:102FA000812CA12C8C2F0E942417CF911F910F915F
:102FB000FF90EF90DF90CF90BF90AF909F908F9059
:102FC0007F906F905F904F9008958F92AF92CF92C5
:102FD000DF92EF92FF920F931F93882483944430E3
:102FE00051056105710509F0812C445051096109B1
:102FF0007E4F97E0440F551F661F771F9A95D1F7B4
:10300000A22EC12CD12C7601C39400E010E09801CF
:103010000E9424171F910F91FF90EF90DF90CF90A7
:10302000AF908F900895CF93DF93D82FC62F0E9433
:1030300014178D2F0E94FD168C2F0E94FD1684E917
:103040008093BC008091BC0084FDFCCFDF91CF91C8
:103050000895CF93C82F60E880E18C0F0E94131869
:10306000EC2FF0E0EE0FFF1FE755FB4F11821082AF
:10307000CF9108954F925F926F927F92AF92BF92DD
:10308000CF92DF92EF92FF920F931F93CF93DF9334
:10309000D82F082F10E0F801EE0FFF1FEE0FFF1FD3
:1030A000EB54FB4F40805180628073804114510487
:1030B0006104710489F48D2FDF91CF911F910F91DD
:1030C000FF90EF90DF90CF90BF90AF907F906F9088
:1030D0005F904F900C9429185801AA0CBB1CF50165
:1030E000E755FB4FC080D180F12CE12C07551B4FD9
:1030F000F801C681A3019201C701B6010E949D3665
:103100009B01AC01EC2FF0E0E35AFE4FA081B0E050
:103110000E94CB389B01AC0120583447424D5A41A4
:103120002130334A414E514108F43FC060913C0187
:1031300070913D0180913E0190913F01A301920168
:103140000E94D63869017A0184E0C816D104E104EE
:10315000F10408F4B0CFE6E0CE16D104E104F104A6
:1031600008F470C0C0E0FDE2CF16F1E0DF06E10434
:10317000F10430F0CF5FF694E794D794C794F3CF7F
:10318000C11103C0E894C0F8C0E0A3019201C701D7
:10319000B6010E949D369B01AC01EC2FF0E0E35A92
:1031A000FE4FA081B0E00E94CB382AE1D11122E28B
:1031B000AB01BC01822F0E948017F501E755FB4F40
:1031C00080819181B0E0A0E08C159D05AE05BF0522
:1031D00021F4F80186818C1731F12C2F2295207F64
:1031E000B701A6018D2F880F880F880F865D0E947A
:1031F000E517F801618580E0D11180E2682B6C64ED
:1032000080E18D0F0E941318F501E755FB4FD18225
:10321000C082F801C6838091C90490E2D11190E880
:10322000892B8093C904DF91CF911F910F91FF905B
:10323000EF90DF90CF90BF90AF907F906F905F90B6
:103240004F90089584E0C82ED12CE12CF12C9ACF18
:103250002F923F924F925F926F927F928F929F92A6
:10326000AF92BF92CF92DF92EF92FF920F931F9394
:10327000CF93DF9300D000D00F92CDB7DEB74901D6
:103280005A01270138011092C904C090B904D090A6
:10329000BA04E090BB04F090BC040091B504109116
:1032A000B6042091B7043091B80406171707280711
:1032B000390759F06093B5047093B6048093B7044E
:1032C0009093B80480E00E943A18C814D904EA0424
:1032D000FB0471F48091BD049091BE04A091BF04E1
:1032E000B091C00484159505A605B70509F403C17E
:1032F0008092B9049092BA04A092BB04B092BC042C
:103300004092BD045092BE046092BF047092C0040B
:1033100081149104A104B10419F481E00E942918D8
:103320008091BD049091BE04A091BF04B091C004EF
:10333000892B8A2B8B2B19F482E00E94291840904C
:10334000B9045090BA046090BB047090BC0441145E
:1033500051046104710409F473C1C814D904EA0466
:10336000FB0409F4A5C0C090AB04D090AC04F12CD0
:10337000E12C2091B0042983A3019201C701B60179
:103380000E949D369B01AC018981E82FF0E0E35A51
:10339000FE4FA081B0E00E94CB384B015C01DC0104
:1033A000CB0180589447A24DBA418130934AA14E37
:1033B000B14108F446C060913C0170913D0180919B
:1033C0003E0190913F01A30192010E94D63869010C
:1033D0007A0181E044E0C416D104E104F10408F468
:1033E00088C086E0C816D104E104F10408F4A4C042
:1033F00019829DE2C91691E0D906E104F10440F07A
:1034000029812F5F2983F694E794D794C794F1CF4D
:103410004981411103C0E894C0F81982A3019201C7
:10342000C701B6010E949D369B01AC018981E82F3E
:10343000F0E0E35AFE4FA081B0E00E94CB384B0190
:103440005C01B501A40182E20E9480178091AB0467
:103450009091AC04B0E0A0E08C159D05AE05BF05D1
:1034600029F48091B00499818917D1F0298122959E
:10347000207FB701A60182E30E94E5176091B304A3
:103480006C6681E10E941318D092AC04C092AB0428
:1034900029812093B0048091C90480688093C90475
:1034A0008092C5049092C604A092C704B092C8044A
:1034B000C090BD04D090BE04E090BF04F090C00462
:1034C000C114D104E104F104B1F08090C5049090DE
:1034D000C604A090C704B090C804C501B401A701F8
:1034E00096010E94D638283031054105510550F526
:1034F00082E00E9429186091C904662319F081EBCB
:103500000E9413188091C9040F900F900F900F9094
:103510000F90DF91CF911F910F91FF90EF90DF906F
:10352000CF90BF90AF909F908F907F906F905F9063
:103530004F903F902F90089504E0C02ED12CE12CA5
:10354000F12C69CF1D82213431054105510560F010
:103550008D818F5F8D83CC0CDD1CEE1CFF1C56957E
:10356000479537952795EFCFC501B401A70196017F
:103570000E94D63829833A834B835C832FEF3FEF39
:103580004FE050E00E94CD3656016701E12CF12C4E
:1035900000E010E00E94FA3629013A019D819295DF
:1035A000907F9D83C12CD12C7601C394411451048A
:1035B0006104710431F0CC24CA94DC2CFFE0EF2EBE
:1035C000F12CC301B20127E0660F771F881F991FF6
:1035D0002A95D1F7A70196010E94D63849015A01D0
:1035E0008B019C0149815A816B817C81552766271B
:1035F0007727E7E0440F551F661F771FEA95D1F73D
:10360000525061097109480D591D6A1D7B1D812C9D
:10361000AD808AE30E9424176CE445284628472899
:1036200009F06CE08091B404682B606282E10E9432
:10363000131881E090E09093AE048093AD045BCFCB
:103640008090BD049090BE04A090BF04B090C004D0
:1036500081149104A104B10409F44DCFC090AD04CC
:10366000D090AE04F12CE12C2091B1042983A50166
:103670009401C701B6010E949D369B01AC0189816E
:10368000E82FF0E0E35AFE4FA081B0E00E94CB3873
:103690008B019C0100581447224D3A410130134AD6
:1036A000214E314108F443C060913C0170913D01CD
:1036B00080913E0190913F01A50194010E94D6386E
:1036C00069017A0184E0C816D104E104F10408F428
:1036D0000FCF96E0C916D104E104F10408F458C0F4
:1036E00019822DE2C21621E0D206E104F10440F075
:1036F00049814F5F4983F694E794D794C794F1CFFB
:103700008981811103C0E894C0F81982A501940150
:10371000C701B6010E949D369B01AC019981E92F3A
:10372000F0E0E35AFE4FA081B0E00E94CB38AB013D
:10373000BC0182E20E9480178091AD049091AE049A
:10374000B0E0A0E08C159D05AE05BF0531F4809179
:10375000B1042981821709F4CECE29812295207FD8
:10376000B701A6018AE30E94E5176091B4046C6674
:1037700082E10E941318D092AE04C092AD04498138
:103780004093B1048091C90480688093C904B3CE8A
:1037900084E0C82ED12CE12CF12CB5CFFF920F93F1
:1037A0001F93CF93DF9300D0CDB7DEB7E6E1F1E012
:1037B00010E000E08191080F111D81E0EC33F80763
:1037C000C9F746E250E066E171E082E090E00E94D5
:1037D000AF110F5F1F4F1A83098342E050E0BE0113
:1037E0006F5F7F4F90E080E00E94AF11E0E0F1E07A
:1037F0008AE091E010E000E02191020F111D8E1788
:103800009F07D1F7809117019CE0F92E8F9DC00191
:1038100011244AE050E060E071E08A960E94AF1106
:103820000F5F1F4F1A830983809117018F9DC0017D
:10383000112442E050E0BE016F5F7F4F88960E94E6
:10384000AF110F900F90DF91CF911F910F91FF90CB
:1038500008958091260190912701A0912801B091AF
:1038600029018093C1049093C204A093C304B09330
:10387000C40480E00E943A1881E00C943A18CF9377
:10388000DF9380913E0390913F0327E0289FE00162
:10389000299FD00D112485E10E946E08DE01A80F3A
:1038A000B91FAA0FBB1F94E0B695A7959A95E1F7AB
:1038B000B0933F03A0933E0320912A0130E00E9481
:1038C000F8382FEF33E040E050E00E94AC3820930E
:1038D0004503DF91CF910895CF93DF938FE00E944E
:1038E0006E088091430390914403EC01CC0FDD1FDF
:1038F000C80FD91F8FE00E946E082196C80FD91FEC
:10390000CC0FDD1FCC0FDD1F44E0D695C7954A953F
:10391000E1F7D0934403C093430380E10E946E0813
:103920008091410390914203EC01CC0FDD1FC80F41
:10393000D91F80E10E946E082196C80FD91FCC0FB5
:10394000DD1FCC0FDD1F74E0D695C7957A95E1F7A2
:10395000D0934203C0934103DF91CF910895DC01DE
:10396000ED91FD918081ED91FD919081ED91FD9121
:103970006C9163708E2309F064609F2309F0686086
:10398000ECECFCE1E60FF11D659565956D936D918D
:103990007D918D919D91099423C01AC012C016C0CB
:1039A00010C01EC009C014C013C006C019C009C091
:1039B0000DC007C00DC014C06250704080409040E0
:1039C0000BC0615070408040904006C06E5F01C0E7
:1039D0006F5F7F4F8F4F9F4F9E938E937E936E931B
:1039E0000895BF92CF92DF92EF92FF920F931F93B1
:1039F000CF93DF93EC01B62EC72E8D85811105C0C4
:103A0000CE010E944F0981110EC01B861D861C86A7
:103A100080E0DF91CF911F910F91FF90EF90DF90A9
:103A2000CF90BF90089540E060EFCE010E94FC0867
:103A300001E0E12CD12C11E0CE010E949E08F82E6D
:103A4000CE010E949E0891E0F91218C0813099F5CC
:103A50001134D8F2DB86D11002C081E08D878B81D2
:103A6000882399F22396EB2DFC2DCF0108962991FE
:103A70002193E817F907D9F781E0CBCF2E2D30E05D
:103A8000F8120EC08B851817A0F4FE01E20FF31F89
:103A90008381802381F4F12C193008F41C87D12E06
:103AA000FE01E20FF31F8381902F9095892383837A
:103AB0000AC08113F0CFFE01EE0DF11D8381802B32
:103AC0008383FF24F3946F2DCE010E94C9081F5FEA
:103AD000000F11F4E39401E087E08E1508F0ACCFFD
:103AE000B7CF4F925F926F927F928F929F92AF92D9
:103AF000BF92CF92DF92EF92FF920F931F93CF93DB
:103B0000DF93CDB7DEB761970FB6F894DEBF0FBE77
:103B1000CDBF0E946208C0903503D0903603E0907C
:103B20003703F09038036C197D098E099F096938B5
:103B300073418105910508F458C0809134038111C7
:103B400054C01092360480913A0490913B040E9434
:103B50004F0940E06CEC80913A0490913B040E9444
:103B6000FC084091340464E480913A0490913B0451
:103B70000E94FC0880913604882391F1E09135047D
:103B8000E9500EEE12E0E33038F4F0E0EE0FFF1FE4
:103B9000E75BFE4F0081118180913704882309F48F
:103BA00081C08091340481117DC00E9462084B0164
:103BB0005C012801110F6608770880913A04909102
:103BC0003B040E949E08813059F00E9462086419EB
:103BD000750986099709681579058A059B0568F3B3
:103BE00081E080933604809334030E9462086C194C
:103BF0007D098E099F0961347F4181059105D8F1C6
:103C0000809134038823B9F1E0913A04F0913B04A8
:103C100013861586148612861186108617821682E0
:103C2000158214821382BE01665F7F4F80913A0431
:103C300090913B040E94F11C81113BC060E070E058
:103C40008EEF92EC20E030E040E05FE30E94083924
:103C50000E94743980912D01680F609340030E9487
:103C60006208609335037093360380933703909313
:103C700038031092340361960FB6F894DEBF0FBE7E
:103C8000CDBFDF91CF911F910F91FF90EF90DF900B
:103C9000CF90BF90AF909F908F907F906F905F90EC
:103CA0004F900895B801110F880B990B0E942F08AF
:103CB00097CF67E0CE010A960E94860899898913FA
:103CC000BDCF80913A0490913B040E944F09882314
:103CD00009F4B4CFBE016F5F7F4FCE010A960E94F8
:103CE0008E09882309F4AACF68E0CE0101960E94CC
:103CF000860899858913A2CF6A8170E0762F66279E
:103D0000770F770F770F298158E0259F90011124B5
:103D1000262B372B8A858031D1F4688570E08F811E
:103D2000AB01481B5109CA019695982F8827979592
:103D300087950E94B936CB014097B90153E0660FD1
:103D4000771F5A95E1F760789C01260F371F2138BD
:103D500054EE35070CF472CFB901330F880B990B71
:103D60000E94AC3920E030E040E05CE30E94383A49
:103D700069CF0F931F93CF93DF93809139038823EB
:103D800059F0109224040E94261110923903DF91F9
:103D9000CF911F910F9108950E9462080091300306
:103DA000109131032091320330913303601B710B6A
:103DB000820B930B693E73408105910520F4012B22
:103DC000022B032B21F70E9462086093300370934B
:103DD0003103809332039093330388E60E947C057D
:103DE00060E086E594E00E94961086E594E00E94EB
:103DF000CA10882319F010922B04C9CF81E0809358
:103E00002B0467E088E60E9486051092DB0380930E
:103E1000DA03873008F461C086E594E00E9456100A
:103E2000D82F982F92959770CAE08D2F8F709C9FF6
:103E3000800D11248093240486E594E00E9456109E
:103E4000982F92959F708F709C9F800D1124809366
:103E5000250486E594E00E945610982F9295937061
:103E60008F709C9F800D11248093260486E594E03A
:103E70000E945610982F92959F708F709C9F800D76
:103E800011248093270486E594E00E945610982F11
:103E900092959F708F709C9F800D112480932804B1
:103EA00086E594E00E945610982F92959F708F702F
:103EB0009C9F800D11248093290486E594E00E9444
:103EC0005610982F9F70925E82958F708C9F900DE8
:103ED000112490932A04D7FF5ACF109226041092EF
:103EE000250410922404DF91CF911F910F910C941F
:103EF0002611CF93DF93EC018091CA040E947C05C8
:103F00008D2F90E00E94C510CE0199270E94C51008
:103F100086E594E00E94CA1061E08091CA040E9484
:103F200086051092DB038093DA03882321F086E56F
:103F300094E00E945610DF91CF910895EF92FF9286
:103F40000F931F93CF93DF938B01040F151F7C01F9
:103F50002FEFE21AF20AEB010E94791F8993C70141
:103F6000BE010C171D0799F7DF91CF911F910F919B
:103F7000FF90EF900895DF92EF92FF920F931F93BF
:103F8000CF93DF9300D0CDB7DEB71A82198280912C
:103F900017012CE0829FC001112442E050E0BE01D5
:103FA0006F5F7F4F88960E949E1FF12CE12C10E0DE
:103FB00000E08CE0D82E8091170197018D9D200D97
:103FC000311D1124C9018A960E94791F080F111D05
:103FD0003FEFE31AF30A8AE0E816F10461F70F5F96
:103FE0001F4F89819A8108171907B1F48091170131
:103FF0008D9DC00111244AE050E060E071E08A9696
:104000000E949E1F0F900F90DF91CF911F910F91F3
:10401000FF90EF90DF9008950E94CE1BF3CF0F9397
:104020001F93CF93DF93109247036091010170912A
:104030000201809103019091040120EA36E841E0F9
:1040400050E00E94D638809131018217130609F0A2
:1040500018F481E0809347038091300182171306A2
:1040600009F018F482E08093470380912F018217B2
:10407000130609F018F483E08093470380912E0122
:104080008217130609F018F484E080934703209107
:10409000470381E090E0A0E0B0E004C0880F991FE2
:1040A000AA1FBB1F2A95D2F7809348032091D403FF
:1040B000222359F020913501222339F02091B603B3
:1040C000211103C080628093480380913A018823C4
:1040D00029F08091480380648093480380913B01DC
:1040E000882329F0809148038068809348032C98A6
:1040F00000914803C7E0D0E010E0B8010C2E02C0E8
:10410000759567950A94E2F761708BE00E944D0601
:104110002D9A2D98219788F72C9ADF91CF911F9196
:104120000F9108954F925F926F927F928F929F921C
:10413000AF92BF92EF92FF920F931F9320910001D5
:10414000E0901A01F0901B0100911C0110911D01DB
:10415000609101017091020180910301909104012D
:104160003091D4036E0D7F1D801F911F332339F1D1
:104170002223E1F02091220130912301409124017A
:1041800050912501620F731F841F951F0E942819EB
:104190001F910F91FF90EF90BF90AF909F908F90E5
:1041A0007F906F905F904F900C940F2020911E0194
:1041B00030911F014091200150912101E3CF809067
:1041C000360190903701A0903801B0903901222338
:1041D000B9F040902201509023016090240170902A
:1041E0002501A3019201280D391D4A1D5B1D640D97
:1041F000751D861D971D680D791D8A1D9B1DC6CFD7
:1042000040901E0150901F0160902001709021018C
:10421000E8CF8091C2038823A9F18091C103811165
:104220000CC080914603882389F1809180008F7CA7
:10423000809380001092460329C08091460381112B
:1042400025C08091D503811121C02091330184E1E3
:10425000289F90011124032E000C440B550B60E4A1
:1042600072E48FE090E00E94D638CA01B9010E9442
:10427000CA05809180008F7C80618093800081E0FE
:10428000809346038091C103882359F208950097D3
:1042900069F0FC0101900020E9F73197AF01481B5C
:1042A000590BBC0182E694E00C94D90790E080E0C1
:1042B0000895CF93DF930E944721EC0183EA91E0B8
:1042C0000E9447218C0F9D1FDF91CF9108950C9480
:1042D00047218F929F92AF92BF92CF92DF92EF923F
:1042E000FF920F931F93CF93DF93CDB7DEB7A197C4
:1042F0000FB6F894DEBF0FBECDBF6B017C0119A2D3
:10430000423008F44AE08E010F5D1F4F842E912C3D
:10431000B12CA12CC701B601A50194010E94D63889
:104320006A3014F5605DF80162938F01C814D904F6
:10433000EA04FB04B0F4CF010E944721A1960FB616
:10434000F894DEBF0FBECDBFDF91CF911F910F91CB
:10435000FF90EF90DF90CF90BF90AF909F908F90A5
:10436000089569017A01D6CF695CDDCF682F70E0CE
:1043700090E080E04AE00C946921CF92DF92EF92C6
:10438000FF92CF93DF936C01092E000CEE08FF081B
:1043900097FF17C08DE20E94300DEC01662777274A
:1043A000CB016C197D098E099F094AE00E946921A1
:1043B0008C0F9D1FDF91CF91FF90EF90DF90CF90FA
:1043C00008954AE0C701B601DF91CF91FF90EF90C9
:1043D000DF90CF900C946921CF93DF934AE00E9445
:1043E0006921EC0183EA91E00E9447218C0F9D1F17
:1043F000DF91CF910895CF93DF930E94BD21EC010F
:1044000083EA91E00E9447218C0F9D1FDF91CF919D
:104410000895CF93DF930E94B621EC0183EA91E0E7
:104420000E9447218C0F9D1FDF91CF91089520910D
:10443000680430916904C901079697FD079623E047
:10444000959587952A95E1F7209166043091670448
:10445000829FA001839F500D929F500D112470E008
:1044600060E080918104909182040C94A5388F9231
:104470009F92AF92BF92EF92FF920F931F93CF93B1
:104480000E94172210926F0410926E041092710411
:104490001092700481E090E090937504809374040E
:1044A000909373048093720483E0809376048093E6
:1044B00077048091D503882309F4F9C080E00E9435
:1044C0005616C091D503C93109F4BCC308F074C0B5
:1044D000C63009F447C378F5C23009F4D9C288F46C
:1044E000CC2309F4E4C0C13009F4BFC2CF911F91BD
:1044F0000F91FF90EF90BF90AF909F908F900C9492
:104500004F15C43009F4FAC208F4DFC280913501B6
:10451000882309F424C38DEF91E00E94592181E0A2
:1045200080937604809377048091D5030E94B6210E
:1045300084E092E0DDC2C53109F442C300F5C73022
:1045400009F427C3C43191F68091050124E6829FC6
:10455000C00111240E94FB2181E0809376048093A6
:1045600077048091D5030E94B62180E392E00E94F7
:10457000672180EF0E94300D8CE392E0A3C2C73127
:1045800009F448C308F436C3809125048A3020F426
:1045900086EA91E00E946721809125040E94092209
:1045A00081E080937604809377048091D5030E9404
:1045B000B62180E692E086C2C73609F4D4C3B8F5C6
:1045C000CC3109F467C3B0F4CA3109F44FC3CB311D
:1045D00009F08CCF80912C010E94092281E0809308
:1045E0007604809377048091D5030E94B62183E8F6
:1045F00092E068C2C53609F467C308F097C3C436B1
:1046000009F074CF80911901882309F45AC382E913
:1046100092E00E94592181E0809376048093770490
:104620008091D5030E94B62187EA92E061C2CB3621
:1046300009F4EAC300F5C93609F4CBC308F4AEC3E4
:1046400082E0809376048093770460911A017091E0
:104650001B0180911C0190911D010E94EC2181E0C1
:1046600080937604809377048091D5030E94B621CD
:1046700089EE92E06CC2CD3609F4F0C308F4DAC3D7
:10468000CE3609F033CF80912E0124E6829FC001FF
:1046900011240E94FB2181E08093760480937704AB
:1046A0008091D5030E94B6218DE093E0C0C3809134
:1046B000010190910201A0910301B09104018038A1
:1046C0009649A849B10520F487EF92E00E9467213E
:1046D00060910101709102018091030190910401A8
:1046E000F0E48F2EF2E49F2EFFE0AF2EB12CA50157
:1046F00094010E94D638CA01B9014AE00E9469219A
:1047000080916E0490916F04059690936F0480934E
:104710006E046091010170910201809103019091FA
:104720000401A50194010E94D638603A7648814080
:10473000910520F486EA91E00E94672160910101D1
:1047400070910201809103019091040120E432E410
:104750004FE050E00E94D6386031774281059105E4
:1047600020F486EA91E00E94672160910101709136
:104770000201809103019091040120E432E44FE0B2
:1047800050E00E94D638E8EE8E2EE3E09E2EA12C5B
:10479000B12CA50194010E94D638CA01B9014AE0A2
:1047A0000E94692182E0809376048093770480914F
:1047B0006E0490916F04059690936F0480936E043D
:1047C00087E090E090937104809370046091010100
:1047D000709102018091030190910401A50194015F
:1047E0000E94D638643671058105910520F486EA69
:1047F00091E00E9467216091010170910201809116
:1048000003019091040128EE33E040E050E00E9463
:10481000D6382AE030E040E050E00E94D638CA01A5
:10482000B9010E94EC2181E08093760480937704A3
:1048300080914503843620F487EF92E00E9467213F
:1048400080914503CAE06C2F0E94AD3690E00E9433
:10485000BD2188EA91E00E946721809145036C2F79
:104860000E94AD36892F90E00E94BD2187EF92E033
:104870000E9467218091D403882309F48BC0809122
:104880003501882309F483C08AEA91E00E946721F8
:104890004091430350914403E0914103F09142035E
:1048A0004E175F0771F19A012E0F3F1FA4E6B0E08B
:1048B0000E94F8384E1B5F0B9A0150E040E00E94C6
:1048C000AC385901283E334024F487EF92E00E942F
:1048D0006721C50164E670E00E94B9365C01CB0136
:1048E0000E94BD2188EA91E00E9467212AE0A21679
:1048F000B10424F486EA91E00E946721C5010E9478
:10490000BD21609143037091440390E080E06150C9
:1049100071098109910927E0660F771F881F991F88
:104920002A95D1F73EEF832E33E0932EA12CB12CA4
:10493000A50194010E94AC38EE24E394F12C04E02C
:1049400010E047E150E062E470E082E694E00E940B
:104950001E0E609141037091420390E080E061502F
:1049600071098109910957E0660F771F881F991F08
:104970005A95D1F7A50194010E94AC384CE150E062
:1049800062E470E082E694E00E941E0EAFCD8AEBF6
:1049900091E07CCF8091400392E3980F953608F028
:1049A00055C087FD04C087EF92E00E946721809187
:1049B0004003082E000C990B0E94BD2187EF0E9436
:1049C000300D8CEA91E00E9467218091CB0388230F
:1049D00009F43FC087EF92E00E94672180E00E94C7
:1049E0005616809126048A3020F487EF92E00E94C8
:1049F0006721809126040E94B6218091240480FFC3
:104A00002EC084EB91E00E946721809125048A30BA
:104A100020F486EA91E00E946721809125040E949B
:104A2000B621809100018823E9F086EB91E00E9495
:104A30006721809117018A3020F487EF92E00E946D
:104A40006721809117010E94B62150CD8EEA91E036
:104A5000BACF88EA91E00E94672181E0C0CF87EF5A
:104A600092E0D1CF89EB91E0E2CF809117010E94D3
:104A70000922C0937604C09377048091D5030E94E5
:104A8000B6218CEB91E00E94672180911801DBCF69
:104A9000E0911601F0E0EE0FFF1FE15BFE4F208179
:104AA0003181AAE0B0E00E94F8380E94EC2181E058
:104AB00080937604809377048091D5030E94B62179
:104AC0008CEC91E00E94672111CD80910001882338
:104AD00091F086ED91E00E94592181E08093760467
:104AE000809377048091D5030E94B6218EED91E0EA
:104AF0000E945921FBCC8AED91E0EDCF80903601E8
:104B000090903701A0903801B09039014AE0C5017A
:104B1000B401B7FE0BC08DE20E94300D66277727E7
:104B2000CB01681979098A099B094AE00E94692129
:104B300083EA91E00E94472181E08093760480938C
:104B400077048091D5030E94B6218FEE91E00E94F8
:104B5000672180EF0E94300D80E892E0B3CF80E0C3
:104B600092E0DBCC80913A01882381F08DE192E0E4
:104B70000E94592181E0809376048093770480918C
:104B8000D5030E94B62182E192E0B2CF8FE092E09D
:104B9000EFCF80913B01882381F08FE092E00E946B
:104BA000592181E080937604809377048091D50326
:104BB0000E94B62181E292E09BCF8DE192E0EFCF9F
:104BC000209106013091070140910801509109019F
:104BD000A4E6B0E00E94CB380E94EC2181E08093F3
:104BE0007604809377048091D5030E94B62180E4F7
:104BF00092E0BDCC809118010E94092281E080934F
:104C00007604809377048091D5030E94B6218CE4CA
:104C100092E058CF809126048A3020F486EA91E011
:104C20000E946721809126040E94092281E08093DE
:104C30007604809377048091D5030E94B62189E59C
:104C400092E040CF809132012AE0829FC00111247E
:104C50000E94FB2181E08093760480937704809109
:104C6000D5030E94B62186E692E02CCF80913301D5
:104C70002AE0829FC00111240E94FB2181E08093E1
:104C80007604809377048091D5030E94B62186E74D
:104C900092E018CF80912B01882381F082E992E085
:104CA0000E94592181E0809376048093770480915B
:104CB000D5030E94B62189E992E01ACF86E992E0F5
:104CC000EFCF86E992E0A5CC80912A010E940922CB
:104CD00081E080937604809377048091D5030E94CD
:104CE000B62186EB92E00E946721809145038436CD
:104CF00020F486EA91E00E94672180914503CAE092
:104D00006C2F0E94AD3690E00E94BD2188EA91E0B0
:104D10000E946721809145036C2F0E94AD36892F38
:104D200090E00E94BD218EEB92E0CCCE80912D01CF
:104D3000082E000C990B0E94FB2181E080937604E1
:104D4000809377048091D5030E94B62180EC92E095
:104D50000E94672180EF0E94300D87EF0E94300D86
:104D60008CEA91E0AFCE82E0809376048093770462
:104D7000609126017091270180912801909129016D
:104D80000E94EC2181E080937604809377048091E7
:104D9000D5030E94B6218BEC92E0D9CE82E08093BD
:104DA00076048093770460911E0170911F018091B9
:104DB0002001909121010E94EC2181E080937604F2
:104DC000809377048091D5030E94B62187ED92E00D
:104DD000BECE82E0809376048093770460912201B6
:104DE0007091230180912401909125010E94EC2172
:104DF00081E080937604809377048091D5030E94AC
:104E0000B62180EE92E0A3CE8091310124E6829F0C
:104E1000C00111240E94FB2181E0809376048093DD
:104E200077048091D5030E94B6218FEE92E00E9414
:104E30006721A2CB8091300124E6829FC00111241A
:104E40000E94FB2181E08093760480937704809117
:104E5000D5030E94B62189EF92E0E9CF80912F011E
:104E600024E6829FC00111240E94FB2181E08093EF
:104E70007604809377048091D5030E94B62183E065
:104E800093E0D5CF4F925F926F927F928F929F92D5
:104E9000AF92BF92CF92DF92EF92FF92CF93DF93C8
:104EA000CDB7DEB728970FB6F894DEBF0FBECDBFE3
:104EB0008091A804823008F07BC0F8948DE994E0DA
:104EC0000E94AF1C6091A4047091A5048091A60477
:104ED0009091A70478942091120130E050E040E0D6
:104EE0000E94AC3869017A0190912B01992341F01D
:104EF000F094E094D094C094C11CD11CE11CF11C2E
:104F000080903A0390903B03A0903C03B0903D0307
:104F10008C149D04AE04BF04B1F14C9B34C080914D
:104F2000D5032FEF280F283018F421E02093C60373
:104F3000893109F46BC308F097C0863009F4A7C221
:104F400008F046C0823009F428C2A0F5882309F48D
:104F50003CC1813009F400C20E9462086093CC0316
:104F60007093CD038093CE039093CF0381E0809321
:104F7000CB030E943722C0923A03D0923B03E092C7
:104F80003C03F0923D0328960FB6F894DEBF0FBEA7
:104F9000CDBFDF91CF91FF90EF90DF90CF90BF908A
:104FA000AF909F908F907F906F905F904F900895FB
:104FB000F89488CF843009F416C208F40DC28091A9
:104FC000350191E08927809335010E940F20C4CFDD
:104FD000853109F475C268F5873009F45FC2843100
:104FE00009F0BACF809105018C149D04AE04BF0472
:104FF0000CF05BC28F5F80930501409105018FE04B
:105000004F30A0F08091060190910701A091080116
:10501000B091090150E070E060E00197A109B10989
:10502000481759076A077B0708F4CA0180930501EE
:1050300093CF873109F4C0C208F498C28091250447
:105040008C149D04AE04BF040CF0D6C28C3340F423
:105050008F5F80932504809125048C3308F4BFC2B0
:105060008BE380932504BBC2873609F466C370F5D1
:105070008C3109F410C3D8F48A3109F4E4C28B31BD
:1050800009F06ACF80912C018C149D04AE04BF04FA
:105090000CF0F6C28F3F19F08F5F80932C01809146
:1050A0002C01811101C081E080932C0155CF853600
:1050B00009F402C308F021C3843609F04DCF809172
:1050C000190191E089278093190146CF8B3609F4A5
:1050D00098C408F059C0893609F40BC408F49EC37B
:1050E00080911A0190911B01A0911C01B0911D01AA
:1050F0008C149D04AE04BF040CF066C4813054EBE4
:10510000950754ECA50754E0B507A8F4E091160103
:10511000F0E0EE0FFF1FE15BFE4F20813181820F37
:10512000931FA11DB11D80931A0190931B01A093A1
:105130001C01B0931D0180911A0190911B01A09157
:105140001C01B0911D01813034EB930734ECA307AF
:1051500034E0B30720F080E094EBA4ECB4E08038B6
:1051600043EC940749ECA40741E0B40720F480E83D
:1051700093ECA9ECB1E080931A0190931B01A093EA
:105180001C01B0931D01B7C08D3609F488C408F422
:105190005EC48E3609F0E0CE80912E0190912F01F1
:1051A0008C149D04AE04BF040CF0A1C48D3F18F410
:1051B0008F5F80932E0180912E01981708F4A2C46E
:1051C00081E0890F80932E0100CF40900101509023
:1051D000020160900301709004012091060130915A
:1051E0000701409108015091090160EA76E881E0E9
:1051F00090E00E949D3669837A838B839C83A09183
:105200000501B0E020EA36E841E050E00E94CB38EA
:105210006D837E838F8398878C149D04AE04BF04B6
:105220000CF06CC029813A814B815C8124153505D5
:105230004605570550F1E0911601F0E0EE0FFF1F13
:10524000E15BFE4F20813181AAE0B0E00E94F83896
:105250004B015C01C301B201A50194010E94D63843
:10526000480C591C6A1C7B1C611571058105910550
:1052700021F0461A570A680A790A409201015092B1
:1052800002016092030170920401809101019091EA
:105290000201A0910301B09104012D813E814F8153
:1052A000588582179307A407B50760F48D819E8106
:1052B000AF81B8858093010190930201A09303010F
:1052C000B09304018091010190910201A09103012A
:1052D000B091040129813A814B815C8128173907FB
:1052E0004A075B0740F42093010130930201409389
:1052F0000301509304010E9492202ECEC814D904B9
:10530000EA04FB0414F68D819E81AF81B8854816AE
:1053100059066A067B0650F2E0911601F0E0EE0FA6
:10532000FF1FE15BFE4F20813181AAE0B0E00E94C7
:10533000F8384B015C01C301B201A50194010E9440
:10534000D638611571058105910509F092CF48188D
:1053500059086A087B0891CF909118018091170134
:105360008C149D04AE04BF047CF4891718F48F5F7D
:105370008093170180911701981708F4892F809363
:1053800017010E94BB1FB7CFC814D904EA04FB045D
:105390008CF7882379F38150EBCF809116018C1420
:1053A0009D04AE04BF0434F4863078F48F5F80939C
:1053B0001601D2CDC814D904EA04FB0434F48823BE
:1053C00009F4CACD8150809316018091160187306F
:1053D00008F4C2CD86E0EBCF8091000191E08927EF
:1053E0008093000188CF8091360190913701A09180
:1053F0003801B09139018C149D04AE04BF04BCF592
:10540000893B3BE09307A105B1055CF4C296A11D61
:10541000B11D8093360190933701A0933801B0936A
:1054200039018091360190913701A0913801B091F6
:105430003901893B5BE09507A105B10524F088EBB4
:105440009BE0A0E0B0E0883424EF92072FEFA207A2
:10545000B20724F488E494EFAFEFBFEF80933601F6
:1054600090933701A0933801B093390144CFC81409
:10547000D904EA04FB04ACF6883444EF94074FEFF8
:10548000A407B40774F2C297A109B109C2CF8091F1
:105490003A0191E0892780933A0197CD80913B01B1
:1054A00091E0892780933B0190CDC814D904EA0488
:1054B000FB040CF0A2CD8F3008F49FCD81509BCD22
:1054C0008091060190910701A0910801B091090116
:1054D0008C149D04AE04BF04DCF58D3231E09307DB
:1054E000A105B10558F40196A11DB11D80930601D7
:1054F00090930701A0930801B09309014091060120
:105500005091070160910801709109018091050196
:1055100090E00196092E000CAA0BBB0B4817590707
:105520006A077B0760F0DB01CA018D3241E0940716
:10553000A105B10520F08CE291E0A0E0B0E08093FD
:10554000060190930701A0930801B093090104CDCF
:10555000C814D904EA04FB048CF68F309105A10528
:10556000B10560F20197A109B109C0CF809118017E
:105570008C149D04AE04BF047CF48E31B8F48F5FAC
:10558000809318018091180190911701891708F0F4
:10559000E3CC80931701E0CCC814D904EA04FB04DF
:1055A0002CF4882379F3815080931801809118019D
:1055B0008F3140F38EE1E4CF809126048C149D045A
:1055C000AE04BF0484F4883138F48F5F80932604DE
:1055D00080912604883118F087E18093260481E0C9
:1055E00080933903B9CCC814D904EA04FB0484F7C6
:1055F0008823A9F38150EACFC814D904EA04FB0434
:105600000CF029CD882359F3815023CD80913201AC
:105610008C149D04AE04BF046CF48F3F19F08F5FAF
:1056200080933201809132018A3008F48AE08093BD
:10563000320192CCC814D904EA04FB049CF78230EE
:1056400088F38150EDCF809133018C149D04AE041A
:10565000BF046CF48F3F19F08F5F8093330180910A
:1056600033018A3008F48AE08093330175CCC81482
:10567000D904EA04FB049CF7823088F38150EDCF13
:10568000C814D904EA04FB040CF009CD823008F4F4
:1056900006CD815002CD992359F010922B01F09440
:1056A000E094D094C094C11CD11CE11CF11C54CCDA
:1056B00081E080932B01F3CF80912A018C149D040B
:1056C000AE04BF046CF48F3F19F08F5F80932A0102
:1056D00080912A01843668F08F3F61F48EEF0AC012
:1056E000C814D904EA04FB049CF7843688F381507B
:1056F000EDCF84E680932A012FCC80912D018C146C
:105700009D04AE04BF0484F48F311CF48F5F80933A
:105710002D0180912D018F310CF08EE1823E0CF431
:1057200082EE80932D0118CCC814D904EA04FB043E
:1057300084F7823E74F38150EACF809126019091E4
:105740002701A0912801B09129018C149D04AE0479
:10575000BF040CF048C0813C5EE0950756E1A50708
:1057600052E0B507A8F4E0911601F0E0EE0FFF1F3C
:10577000E15BFE4F20813181820F931FA11DB11D7E
:105780008093260190932701A0932801B0932901CB
:105790008091260190912701A0912801B0912901C3
:1057A000813C3EE0930736E1A30732E0B30720F0E7
:1057B00080EC9EE0A6E1B2E0803841EB94074FE434
:1057C000A40741E0B40720F480E891EBAFE4B1E036
:1057D0008093260190932701A0932801B09329017B
:1057E0000E94291C88CDC814D904EA04FB0484F65D
:1057F000803821EB92072FE4A20721E0B20740F2A4
:10580000E0911601F0E0EE0FFF1FE15BFE4F2081FB
:105810003181821B930BA109B109B2CF80911E0186
:1058200090911F01A0912001B09121018C149D0441
:10583000AE04BF040CF043C0813E56E395075FEC15
:10584000A507B105A8F4E0911601F0E0EE0FFF1FE7
:10585000E15BFE4F20813181820F931FA11DB11D9D
:1058600080931E0190931F01A0932001B09321010A
:1058700080911E0190911F01A0912001B091210102
:10588000813E36E393073FECA307B10520F080EE9D
:1058900096E3AFECB0E0803A4AE994074EECA407F7
:1058A000B10520F480EA9AE9AEECB0E080931E01E5
:1058B00090931F01A0932001B09321011CCDC81427
:1058C000D904EA04FB04A4F6803A2AE992072EECF4
:1058D000A207B10568F2E0911601F0E0EE0FFF1F9C
:1058E000E15BFE4F20813181821B930BA109B1093D
:1058F000B7CF8091220190912301A0912401B09112
:1059000025018C149D04AE04BF040CF043C0813EFD
:1059100056E395075FECA507B105A8F4E0911601E1
:10592000F0E0EE0FFF1FE15BFE4F20813181820F1F
:10593000931FA11DB11D8093220190932301A09379
:105940002401B09325018091220190912301A0911F
:105950002401B0912501813E36E393073FECA30774
:10596000B10520F080EE96E3AFECB0E0803A4AE972
:1059700094074EECA407B10520F480EA9AE9AEEC56
:10598000B0E08093220190932301A0932401B0936F
:105990002501B1CCC814D904EA04FB04A4F6803A6A
:1059A0002AE992072EECA207B10568F2E0911601F0
:1059B000F0E0EE0FFF1FE15BFE4F20813181821B83
:1059C000930BA109B109B7CFC814D904EA04FB04A9
:1059D0000CF0B1CB803823EC920729ECA20721E030
:1059E000B20708F4A8CBE0911601F0E0EE0FFF1F1C
:1059F000E15BFE4F20813181821B930BA109B1092C
:105A000092CB809131018C149D04AE04BF04A4F4A8
:105A100090913001891718F48F5F80933101809144
:105A20003101803190F090913001891710F08FEFA3
:105A3000890F80933101C9CAC814D904EA04FB0450
:105A400074F7803160F38150E8CF80E1F2CF80912C
:105A50003001909131018C149D04AE04BF0484F494
:105A600020912F01821718F48F5F8093300180916D
:105A70003001981770F081E0890F80933001A5CA3A
:105A8000C814D904EA04FB0494F7981780F78150EE
:105A9000ECCF90912F01891780F38FEFEDCF80919C
:105AA0002F01909130018C149D04AE04BF0484F446
:105AB00020912E01821718F48F5F80932F0180911F
:105AC0002F01981770F081E0890F80932F017DCA14
:105AD000C814D904EA04FB0494F7981780F781509E
