:100000000C9452050C94F6290C94CE290C947A0584
:100010000C947A050C947A050C947A050C947A0564
:100020000C947A050C947A050C947A050C947A0554
:100030000C947A050C947A050C947A050C947A0544
:100040000C9458280C947A050C947A050C947A0533
:100050000C947A050C947A050C947A050C947A0524
:100060000C94AF280C947A05000103070F1F3F7F03
:100070000080C0E0F0F8FCFE00000000003E5B4F96
:100080005B3E3E6B4F6B3E1C3E7C3E1C183C7E3CF8
:10009000181C577D571C1C5E7F5E1C00183C180006
:1000A000FFE7C3E7FF0018241800FFE7DBE7FF3096
:1000B000483A060E2629792926407F050507407F04
:1000C00005253F5A3CE73C5A7F3E1C1C08081C1C77
:1000D0003E7F14227F22145F5F005F5F06097F016D
:1000E0007F006689956A606060606094A2FFA29458
:1000F00008047E040810207E201008082A1C080826
:100100001C2A08081E101010100C1E0C1E0C303873
:100110003E3830060E3E0E06000000000000005F74
:1001200000000007000700147F147F14242A7F2A90
:100130001223130864623649562050000807030052
:10014000001C2241000041221C002A1C7F1C2A089E
:10015000083E080800807030000808080808000001
:1001600060600020100804023E5149453E00427F75
:10017000400072494949462141494D331814127FC4
:100180001027454545393C4A494931412111090764
:100190003649494936464949291E000014000000E5
:1001A00040340000000814224114141414140041B7
:1001B00022140802015909063E415D594E7C121174
:1001C000127C7F494949363E414141227F414141AC
:1001D0003E7F494949417F090909013E4141517327
:1001E0007F0808087F00417F41002040413F017F98
:1001F000081422417F404040407F021C027F7F0460
:1002000008107F3E4141413E7F090909063E4151A8
:10021000215E7F09192946264949493203017F0198
:10022000033F4040403F1F2040201F3F4038403F99
:10023000631408146303047804036159494D4300AF
:100240007F4141410204081020004141417F0402E6
:10025000010204404040404000030708002054547D
:1002600078407F284444383844444428384444285B
:100270007F385454541800087E090218A4A49C78AE
:100280007F0804047800447D40002040403D007F0A
:100290001028440000417F40007C047804787C08EA
:1002A0000404783844444438FC18242418182424BE
:1002B00018FC7C08040408485454542404043F44A3
:1002C000243C4040207C1C2040201C3C4030403CD2
:1002D00044281028444C9090907C4464544C440032
:1002E0000836410000007700000041360800020196
:1002F0000204023C2623263C1EA1A161123A404082
:10030000207A3854545559215555794122545478FE
:1003100042215554784020545579400C1E52721297
:100320003955555559395454545939555454580020
:1003300000457C410002457D420001457C407D1224
:1003400011127DF0282528F07C5455450020545486
:100350007C547C0A097F4932494949323A44444431
:100360003A324A4848303A4141217A3A424020786C
:10037000009DA0A07D3D4242423D3D4040403D3C6D
:1003800024FF2424487E4943662B2FFC2F2BFF0992
:1003900029F620C0887E0903205454794100004486
:1003A0007D413048484A32384040227A007A0A0A71
:1003B000727D0D19317D2629292F282629292926E4
:1003C00030484D4020380808080808080808382F29
:1003D00010C8ACBA2F102834FA00007B00000814B3
:1003E0002A142222142A14085500550055AA55AA89
:1003F00055AAFF55FF55FF000000FF00101010FF29
:1004000000141414FF001010FF00FF1010F010F083
:10041000141414FC001414F700FF0000FF00FF1474
:1004200014F404FC141417101F10101F101F1414C0
:10043000141F00101010F0000000001F101010100A
:100440001F10101010F010000000FF1010101010FE
:1004500010101010FF10000000FF140000FF00FF3C
:1004600000001F10170000FC04F4141417101714D8
:1004700014F404F40000FF00F714141414141414FA
:10048000F700F7141414171410101F101F1414146D
:10049000F4141010F010F000001F101F0000001FD7
:1004A00014000000FC140000F010F01010FF10FF0A
:1004B000141414FF141010101F00000000F010FF9F
:1004C000FFFFFFFFF0F0F0F0F0FFFFFF0000000083
:1004D00000FFFF0F0F0F0F0F3844443844FC4A4A07
:1004E0004A347E02020606027E027E0263554941BC
:1004F000633844443C04407E201E2006027E0202F3
:1005000099A5E7A5991C2A492A1C4C7201724C3006
:100510004A4D4D303048784830BC625A463D3E49DD
:100520004949007E0101017E2A2A2A2A2A44445F81
:10053000444440514A444040444A51400000FF0175
:1005400003E080FF000008086B6B08361236243683
:10055000060F090F060000181800000010100030E8
:1005600040FF0101001F01011E00191D1712003C70
:100570003C3C3C0000000000005EBCE2613FDD83CB
:10058000C29C7E20A3FD1F41009D23BE46DB65F873
:100590008C11AF32CA57E974000000002400270014
:1005A0002A00DB40A4A62EAFDA0281DA1281DA0239
:1005B000818F2000A1C8D300408DAED580A8000057
:1005C0000000250028002B00000060000000000053
:1005D000000000000000000000E00000000000003B
:1005E0000000000000000001E0000000000000002A
:1005F00000000000000001F000000000000000000A
:10060000000000000003F0000000000000000000F7
:100610000000000007F000000000000000000000E3
:1006200000000007F80000000000000000000000CB
:1006300000000FF800000003C0007E000001E00091
:100640007F0FF800000003C000FE000001E000FF83
:10065000EFF800000003C000FE000001E000FFFF13
:10066000F800000003C000F00000000F007FFE7FD4
:10067000C0000003C000F00000000F003FFE7FF844
:100680003FF1FBCFFCFEF3BC3DEFE01FFE7FFF7FA1
:10069000FBFFDFFEFEFFBC3DEFE01FC6FFFF7FFB61
:1006A000FFDFFEFEFFBC3DEFE00FE3C7FE787BC33C
:1006B000DE1EF0FFBC3DEF0007FF87FC787BC3DE4A
:1006C0001EF0F83C3DEF0001FFFFF0007BC3C01EB1
:1006D000F0F03C3DEF0001F37FE03FFBC3CFFEF0C5
:1006E000F03C3DEF0003E33F807FFBC3DFFEF0F013
:1006F0003C3DEF0007E73C00787BC3DE1EF0F03C9A
:100700003DEF0007FFBE00787BC3DE1EF0F03C3DEE
:10071000EF0007FFFE00787BC3DE1EF0F03C3DEFEC
:10072000000FFFFE007FFBFFDFFEF0F03FFDEFE07C
:100730000FFFFF007FFBFFDFFEF0F03FFDEFE00F5C
:10074000F9FF003E79F9CF9EF0F01F3DE7E01FF181
:10075000FF0000000000000000000000001F80FFFC
:10076000007FFFFFFFFFFFFFFFFFFFE01C007F0098
:100770007FFFFFFFFEB46D888D18E000001F007F33
:10078000FFFFFFFE95AD7DB577E000000F007FFF16
:10079000FFFFFEA5AD9D8D19E0000006007FFFFF65
:1007A000FFFEB5ADEDB57EE0000000000001800069
:1007B00000000000000000000380000000000000B6
:1007C00000000007C000000000000000000007C09B
:1007D0000000000000000000000FC000000000004A
:1007E000000000001FE00000000000000000001FEB
:1007F000E00000000000000000003FE000000000FA
:1008000000000000003FF0000000000000000000B9
:100810007FF0000000000000001FF87FF0000000E3
:10082000000000003FFE7FF0000000000000003FDD
:10083000FF7FF0000000000000001FFFFBE0000051
:1008400000000000000FFFF9FFC0000000000000E2
:100850000FFFF9FFF800000000000007FFF1FFFFA5
:1008600000000000000003FC73FFFF800000000098
:100870000001FE3FFFFF80000000000000FF1E0F90
:10088000FF000000000000007FFE1FFC00000000D1
:100890000000003FFFFFF8000000000000000FDF35
:1008A000FFE0000000000000001F19FFC000000072
:1008B000000000003F3CFF00000000000000007E40
:1008C0007CF800000000000000007FFE7C000000BB
:1008D0000000000000FFFFFC00000000000000001E
:1008E000FFFFFE0000000000000000FFFFFE000010
:1008F000000000000001FFEFFE000000000000000B
:1009000001FFCFFE0000000000000003FF07FE0013
:1009100000000000000003FC07FE000000000000D3
:100920000003F003FE00000000000000018000FE54
:10093000000000000000000000007E000000000039
:1009400000000000003E0000000000000000000069
:100950000C000000000000078000FC000003C00045
:100960000000078001FC000003C0000000078001B8
:10097000FC000003C0000000078001E00000001E32
:10098000000000078001E00000001E007FE3F79FE9
:10099000F9FDE7787BDFC0FFF7FFBFFDFDFF787B48
:1009A000DFC0FFF7FFBFFDFDFF787BDFC0F0F787FB
:1009B000BC3DE1FF787BDE00F0F787BC3DE1F078DD
:1009C0007BDE0000F787803DE1E0787BDE007FF78B
:1009D000879FFDE1E0787BDE00FFF787BFFDE1E068
:1009E000787BDE00F0F787BC3DE1E0787BDE00F04D
:1009F000F787BC3DE1E0787BDE00F0F787BC3DE1A6
:100A0000E0787BDE00FFF7FFBFFDE1E07FFBDFC0AA
:100A1000FFF7FFBFFDE1E07FFBDFC07CF3F39F3D0D
:100A2000E1E03E7BCFC000000000000000000000BD
:100A300000FFFFFFFFFFFFFFFFFFFFC0FFFFFFFF04
:100A4000FD68DB111A31C0FFFFFFFFFD2B5AFB6A67
:100A5000EFC0FFFFFFFFFD4B5B3B1A33C0FFFFFF03
:100A6000FFFD6B5BDB6AFDC02200FF210001020479
:100A70000810204080010204081020010204081020
:100A800020000000002300260029000404040404C0
:100A9000040404020202020202030303030303002C
:100AA0001E2A8F3811241FBECFEFD8E0DEBFCDBF86
:100AB00013E0A0E0B1E0E0E9F9E702C005900D9293
:100AC000A236B107D9F725E0A2E6B3E001C01D9236
:100AD000A330B207E1F715E0C1E5D5E004C02197E6
:100AE000FE010E947B3BC035D107C9F70E94992BBC
:100AF0000C94BB3C0C94000091E0909363048093B1
:100B00006204109261041092600408959091570459
:100B10009111FCCF91E090935704909356042FEFDE
:100B20002093550410925404260F2093530490935D
:100B3000520490915204880F892B80935204809123
:100B400051048130F9F41092510480915204809341
:100B5000BB008091BC0083FDF8CF85EC8093BC0086
:100B6000809157048130E1F380915404861710F48A
:100B700060915404A1E3B4E0E1E1F4E080E0861385
:100B800003C0089585EEEACF9D9191938F5FF7CFD3
:100B90008F929F92AF92BF92CF92DF92EF92FF928D
:100BA000CF93611571058105910521F461E070E035
:100BB00080E090E024E0660F771F881F991F2A9538
:100BC000D1F76115710521E08207910508F44EC047
:100BD0006115710528E08207910508F44BC0611585
:100BE000710520E48207910508F048C020E430E058
:100BF000C3E06901F12CE12CA7010E94DE38490114
:100C00005A0180918000807F80938000C861C093EA
:100C10008100C9010197909387008093860080919D
:100C2000810087708093100460E074E284EF90E0AC
:100C3000A70196010E94B438AA24BB24CA01B901B5
:100C4000A50194010E94B43860E472E48FE090E062
:100C50000E94DE38CA01B901CF91FF90EF90DF907A
:100C6000CF90BF90AF909F908F90089521E030E09B
:100C7000C1E0BFCF28E030E0C2E0BBCF20E031E0F0
:100C8000C4E0B7CF80910E0490910F04891B990B9B
:100C9000089508950895482FE62F282F30E08630D4
:100CA00009F459C000F58330E1F1853009F44FC0F3
:100CB0004830E0F14E3010F1443108F063C02E505E
:100CC000310981E090E0A0E0B0E004C0880F991FF6
:100CD000AA1FBB1F2A95D2F728B1EE2309F44FC0F3
:100CE000822B88B908958A30C9F18B30D9F18930C7
:100CF000F9F6809180008F77809380002850310929
:100D000081E090E0A0E0B0E004C0880F991FAA1F26
:100D1000BB1F2A95D2F7E1112EC025B18095822301
:100D20002CC09091B0009F7D9093B00081E090E046
:100D3000A0E0B0E004C0880F991FAA1FBB1F4A950E
:100D4000D2F72BB1EE23A1F0822B8BB9089594B585
:100D50009F7D94BDEBCF94B59F77FBCF80918000B2
:100D60008F7DCACF8091B0008F778093B000C6CFBF
:100D700080958223EACF25B1822B85B9089580958D
:100D80008223AFCF089510920F0410920E04109298
:100D90006104109260041092570481E0809356041D
:100DA00010925104449A459AE9EBF0E080818E7FDD
:100DB000808380818D7F808388E48093B80085E480
:100DC0008093BC0089E496E090930D0480930C041A
:100DD0008AE496E090930B0480930A0408950895A2
:100DE000CF92DF92EF92FF920F931F93613009F43D
:100DF00060C0623009F499C08830B8F42AB141E08B
:100E000050E060E070E06A017B0104C0CC0CDD1CA6
:100E1000EE1CFF1C8A95D2F7C6018095922F98236D
:100E20009AB99BB189238BB93DC08E30B8F424B1F7
:100E3000082F0850110B81E090E0A0E0B0E004C062
:100E4000880F991FAA1FBB1F0A95D2F78095922F72
:100E5000982394B995B1892385B924C0843110F5BC
:100E6000E7B190E09C012E50310941E050E060E094
:100E700070E06A017B0104C0CC0CDD1CEE1CFF1C81
:100E80002A95D2F7860100950E2307B928B1089755
:100E900004C0440F551F661F771F8A95D2F74095EF
:100EA000422348B91F910F91FF90EF90DF90CF90B0
:100EB0000895883090F42AB141E050E060E070E09D
:100EC0007A018B0104C0EE0CFF1C001F111F8A95D4
:100ED000D2F7C701822B8AB9E5CF8E3090F424B1C6
:100EE000082F0850110B81E090E0A0E0B0E004C0B2
:100EF000880F991FAA1FBB1F0A95D2F7822B84B9AE
:100F0000D1CF843178F627B1682F6E50770B81E00E
:100F100090E0A0E0B0E004C0880F991FAA1FBB1F9B
:100F20006A95D2F7822B87B9BDCF8830B0F43AB139
:100F300041E050E060E070E06A017B0104C0CC0C4D
:100F4000DD1CEE1CFF1C8A95D2F7C6012C2D2095C6
:100F500023232AB92BB1822B66CF8E30B0F434B163
:100F6000082F0850110B81E090E0A0E0B0E004C031
:100F7000880F991FAA1FBB1F0A95D2F7282F20950B
:100F8000232324B925B1822B67CF843108F08ACF7F
:100F900037B1682F6E50770B81E090E0A0E0B0E0B1
:100FA00004C0880F991FAA1FBB1F6A95D2F7282F6C
:100FB0002095232327B928B1822B88B973CFAF920C
:100FC000BF92CF92DF92EF92FF920F931F93CF9336
:100FD000DF936C017B018B01040F151FEB015E0198
:100FE000AE18BF08C017D10759F06991D601ED912D
:100FF000FC910190F081E02DC6010995892B79F7CC
:10100000C501DF91CF911F910F91FF90EF90DF907D
:10101000CF90BF90AF900895880F991F880F991FA8
:1010200005970197F1F708953FB7F8948091DE0393
:101030009091DF03A091E003B091E10326B5A89B56
:1010400005C02F3F19F00196A11DB11D3FBFBA2F5A
:10105000A92F982F8827BC01CD01620F711D811D1A
:10106000911D42E0660F771F881F991F4A95D1F79F
:1010700008958F929F92AF92BF92CF92DF92EF929C
:10108000FF926B017C010E9414084B015C01C114AA
:10109000D104E104F104B9F00E9414086819790937
:1010A0008A099B09683E73408105910580F381E0C0
:1010B000C81AD108E108F10828EE820E23E0921E3A
:1010C000A11CB11CE4CFFF90EF90DF90CF90BF90B8
:1010D000AF909F908F9008952FB7F8946091DA03A6
:1010E0007091DB038091DC039091DD032FBF0895A5
:1010F0002091000190E4299F900111248E50822BB1
:1011000080937C0080917A00806480937A00809143
:101110007A0086FDFCCF8091780090917900089547
:10112000DC0180E0615090F09D919827E92FEF70ED
:10113000F0E0E858FA4F2491E92FE295EF70F0E0E3
:10114000E857FA4FE491822F8E27ECCF08950F9342
:101150001F93CF93DF93FC011081C181D281F8945A
:101160008981812B89838A81012F009580238A833D
:1011700083E090E00E940C088981802389838AE0C3
:1011800090E00E940C08C881789485E390E00E946A
:101190000C08C12381E009F480E0DF91CF911F9119
:1011A0000F9108951F93CF93DF93FC011081C181AC
:1011B000D281912F909560FF16C0F8948A8189237F
:1011C0008A838981812B89838AE090E00E940C08C0
:1011D0008A81182B1A83789487E390E0DF91CF916E
:1011E0001F910C940C08F8948A8189238A83898141
:1011F000812B898381E490E00E940C088A81182B5E
:101200001A83789485E090E0E9CFDF92EF92FF9225
:101210000F931F93CF93DF93EC01D62EE42E08E0BB
:1012200010E0FF24F39461E08D2D8F2109F460E03C
:10123000CE010E94D208FF0C01501109A1F7E11064
:1012400010C0F894E981FA81918188818095892381
:101250008183E981FA8192818881809589238283C3
:101260007894DF91CF911F910F91FF90EF90DF90D5
:101270000895EF92FF920F931F93CF93DF938C010A
:101280007B0140E065E50E940509E70188E0E80E82
:10129000F11C699140E0C8010E940509CE15DF05E7
:1012A000C1F7DF91CF911F910F91FF90EF900895BB
:1012B000FF920F931F93CF93DF93FC011081C181A5
:1012C000D281F8948981012F0095802389837894B5
:1012D0008DE7F82EFA94FF2061F182E090E00E9401
:1012E0000C0888818123B1F3F8948A8180238A8352
:1012F0008981812B8983789480EE91E00E940C088B
:10130000F89489818023898386E490E00E940C0808
:1013100088811823C1E009F0C0E078948AE991E05F
:101320000E940C088C2FDF91CF911F910F91FF909D
:101330000895C0E0F7CFAF92BF92CF92DF92EF92C5
:10134000FF920F931F93CF93DF938B01BC0180918A
:101350006E0490916F040E94390940E06EEB809119
:101360006E0490916F040E940509E801680189E00C
:10137000C80ED11CA0906E04B0906F0488E0E82ED7
:10138000F12C10E001E0C5010E94A7088111102B8B
:10139000000F81E0E81AF108B1F71993CC16DD06C9
:1013A00049F780916E0490916F040E94580991E072
:1013B000813009F090E0892FDF91CF911F910F913B
:1013C000FF90EF90DF90CF90BF90AF9008950F9374
:1013D0001F93CF93DF93CDB7DEB729970FB6F8945D
:1013E000DEBF0FBECDBF8C0180916E0490916F0463
:1013F0000E945809811102C080E01FC0BE016F5FCA
:101400007F4FC8010E949B098823B1F368E0CE0199
:1014100001960E94900899858913EECF8D818F33B4
:10142000B9F020F48F3141F789E007C08F3521F002
:101430008F3711F78CE001C08BE029960FB6F89436
:10144000DEBF0FBECDBFDF91CF911F910F910895E9
:101450008AE0F3CF0895FC016370668B84819581E7
:1014600026813781613039F0633029F09187808798
:10147000338722870895318720879387828708954D
:101480002F923F924F925F926F927F928F929F9294
:10149000AF92BF92CF92DF92EF92FF920F931F9382
:1014A000CF93DF93CDB7DEB76A970FB6F894DEBF60
:1014B0000FBECDBF9A8F898F7A8369834A01D22E5E
:1014C00018870F833701BC2CDC0159962D913C9174
:1014D0005A972115310509F015C118968D919C91E7
:1014E0001997681779070CF0D7C11A968D919C91BE
:1014F000481759070CF0D0C14C2C512CB6E0CB9EAC
:10150000600D711D11247C876B87161617060CF071
:10151000C3C1EA2DF0E0FA87E98793E0EE0FFF1FE1
:101520009A95E1F7F88BEF87CF01840F951F181676
:1015300019060CF0B1C1A98DBA8D58968C91811104
:1015400004C0BFEABD1508F4D394A98DBA8DED91FE
:10155000FC9111970284F385E02DCD010995B5E04A
:10156000DB9EC0011124E981FA81FC83EB83312CDD
:10157000212C9C0128583F4F388F2F8B4A2D50E04B
:101580005E8B4D8BEF89F88DE20DF31D44919E82A9
:101590008D82D12CC12C69817A81620D731D7A8B69
:1015A000698B842F90E09C8B8B8BE98DFA8DA081C9
:1015B000B18140FF82C0F1E0BF126FC0AF126DC0B9
:1015C0001C96ED91FC912F813885A4014C0D5D1D79
:1015D00069897A89898D9A8D0995EB89FC89F595B8
:1015E000E7954E2F5FEFC51AD50A6D817E818D89F3
:1015F0009E89680F791F7E836D8398E0C916D10498
:1016000081F6AFEF2A1A3A0AEB81FC81E40DF51D51
:10161000FC83EB83F5E02F16310409F0B3CF2F8163
:10162000388526153705B9F0A98DBA8DED91FC9155
:10163000B1E0BB1257C0AB1255C069817A816B5FB4
:101640007F4F0088F189E02D830128E030E0A4017C
:10165000898D9A8D0995A98DBA8DED91FC9111977F
:101660000688F789E02DCD016A960FB6F894DEBFA3
:101670000FBECDBFDF91CF911F910F91FF90EF90E3
:10168000DF90CF90BF90AF909F908F907F906F90A2
:101690005F904F903F902F9009941E96ED91FC9192
:1016A000EF80F88409851A8592014D815E816B81F6
:1016B0007C81898D9A8D099590CF2F81388526154B
:1016C000370509F48ACF31E0B31207C0A31205C071
:1016D0001C96ED91FC91930178CF1E96ED91FC91B3
:1016E0007301E0CF6B857C85641975090684F785E5
:1016F000E02D73010F8518899201A401898D9A8DBF
:101700000995A9CFF9013496949132974591549156
:10171000D91AB7E0DB9E400D511D1124F901259126
:1017200034913C8B2B8BFA0125903490FA01329640
:10173000749031963491398B3296649031964490FE
:1017400041E04C1518F04A1508F07FC0662D062CB4
:10175000000C770B7C836B83842D042C000C990B7D
:101760009E838D83A98DBA8DED91FC911197028492
:10177000F385E02DCD010995512CD12CC12CEA2DFA
:10178000F0E0FA87E9872B2D30E03C872B87A40116
:10179000440D511D47FC5A95588F4F8B69817A81B2
:1017A000660D711D67FC7A957E876D877989C716EE
:1017B00008F051CF2C2D30E04D815E81420F531F38
:1017C000A985BA854A9FC0014B9F900D5A9F900DE5
:1017D0001124FC01E80DF91DF88BEF87852D612C94
:1017E0004F89588D420F531F5E8B4D8B671408F045
:1017F00050C044244394480E877041F4C1010196BF
:10180000EB89FC89E20DF31DD4901C01D7FE19C0B1
:10181000A98DBA8DED91FC91662D70E0B1E0BB12FF
:1018200019C0AB1217C02D853E85620F731F04844B
:10183000F585E02D2F8138854D895E89898D9A8DBA
:101840000995DD0C6394842DD1CF1E821D821C82EC
:101850001B8288CF4B815C81640F751FAB85BC8573
:101860006A9FC0016B9F900D7A9F900D1124698132
:101870007A81680F791F0684F785E02DEF80F88460
:1018800009851A859D014F855889898D9A8D0995FD
:10189000D8CF570CC3948ACF6A960FB6F894DEBFA0
:1018A0000FBECDBFDF91CF911F910F91FF90EF90B1
:1018B000DF90CF90BF90AF909F908F907F906F9070
:1018C0005F904F903F902F9008958F929F92AF928C
:1018D000CF92EF92FF920F931F93CF93DF93EC0180
:1018E000262F898D9A8D009709F051C06A30D1F466
:1018F0001D861C868D8948E0849F900111248E8569
:101900009F85820F931F9F878E8781E090E0DF91F4
:10191000CF911F910F91FF90EF90CF90AF909F903C
:101920008F9008956D3089F3CC88AD888F89882396
:10193000C1F08C859D8536E0C39E800D911D1124DC
:10194000488559854817590764F44E855F851D867B
:101950001C8638E0A39EC0011124840F951F9F8729
:101960008E87EA88FB88088919894E855F856C8592
:101970007D85CE010E94400A2C898C859D8546E09C
:10198000249F800D911D11249D878C87BECF6A30C6
:1019900069F41D861C86FC013896E4912D898E859C
:1019A0009F85E29F800D911D1124ADCF6D3009F40C
:1019B000ACCFFC0134963491631708F4A6CF32966D
:1019C000E491E61708F4A1CFFC013296859094903B
:1019D000462F431B342F47E0349F800C911C112469
:1019E000F401329634913196E4913323A9F1EE2338
:1019F00099F1CC88F4013596E491AD884F89442360
:101A000001F10E2E000CFF0BE30FF11DCE9EA00185
:101A1000CF9E500D11246C857D85460F571F68851C
:101A20007985641775076CF44E855F851D861C8665
:101A3000FC013896E491AE9E400D511D11245F8744
:101A40004E87EA88FB88088919894E855F856C85F1
:101A50007D85CE010E94400AF4013496E4912C89E0
:101A60008C859D85E29F800D911D11248DCF682F5F
:101A700086E994E00C94650C6F927F928F929F920E
:101A8000AF92BF92CF92DF92EF92FF920F931F938C
:101A9000CF93DF93EC016B015A0139014801E881D2
:101AA000F9810284F385E02D0995E881F9810288A6
:101AB000F389E02D87019301A501B601CE010995B7
:101AC000A501480D591D41505109E881F98102884D
:101AD000F389E02D9301B601CE010995E881F981E2
:101AE0000088F189E02D9401A501B601CE01099588
:101AF000C60CD71CB60161507109E881F9810088D4
:101B0000F189E02D9401A501CE010995E881F981C3
:101B10000688F789E02DCE01DF91CF911F910F91BB
:101B2000FF90EF90DF90CF90BF90AF909F908F90FD
:101B30007F906F9009946F927F928F929F92AF9255
:101B4000BF92CF92DF92EF92FF920F931F93CF93AA
:101B5000DF935C01EB016A01490138018701DC0177
:101B6000ED91FC916217730719F5641675062CF058
:101B7000962D872D3A01C92ED82E960126193709A0
:101B80002F5F3F4F048CF58DE02DA301BE01C501F1
:101B90000995DF91CF911F910F91FF90EF90DF900A
:101BA000CF90BF90AF909F908F907F906F9008954F
:101BB0004615570591F42617370724F0892D4B0158
:101BC000C22FD82F9E01281939092F5F3F4F068C4D
:101BD000F78DE02DA601B401DACF0284F385E02D64
:101BE0000995D501ED91FC910488F589E02D8301DB
:101BF0009401A601BE01C5010995D501ED91FC91A5
:101C00000688F789E02DC501DF91CF911F910F91D3
:101C1000FF90EF90DF90CF90BF90AF909F908F900C
:101C20007F906F900994EF92FF920F931F93DC01C6
:101C30001A960D911C911B9718962D913C9119970E
:101C4000ED91FC9100A0F1A1E02D7B0150E040E07E
:101C500070E060E009951F910F91FF90EF9008955B
:101C60004F925F926F927F928F929F92AF92BF92AC
:101C7000CF92DF92EF92FF920F931F93CF93DF9358
:101C80006C012B015A0139014801DC01ED91FC91F5
:101C90000284F385E02D0995E201640C751CD601E0
:101CA000ED91FC91C615D7055CF40088F189E02D13
:101CB00087019401A501BE01C60109952196EFCFC8
:101CC0000688F789E02DC601DF91CF911F910F9112
:101CD000FF90EF90DF90CF90BF90AF909F908F904C
:101CE0007F906F905F904F9009948F929F92AF92E8
:101CF000BF92CF92DF92EF92FF920F931F93CF93F9
:101D0000DF93EC015B014A016901E881F9810284FA
:101D1000F385E02D099595012C0D3D1D21503109CC
:101D2000E881F9810488F589E02D78018401A40116
:101D3000B501CE010995E881F9810688F789E02D82
:101D4000CE01DF91CF911F910F91FF90EF90DF9027
:101D5000CF90BF90AF909F908F9009948F929F9259
:101D6000AF92BF92CF92DF92EF92FF920F931F93A9
:101D7000CF93DF93EC015B014A0169017801E881AF
:101D8000F9810284F385E02D0995C80CD91C8601E0
:101D900001501109E881F9810488F589E02D950148
:101DA000A401B501CE010995E881F9810688F7897A
:101DB000E02DCE01DF91CF911F910F91FF90EF9019
:101DC000DF90CF90BF90AF909F908F900994EF924B
:101DD000FF920F931F93DC01ED91FC9100A0F1A104
:101DE000E02D09951F910F91FF90EF9008950F93AB
:101DF0001F93DC01ED91FC91068CF78DE02D099588
:101E00001F910F9108950F931F93DC01ED91FC91A9
:101E1000048CF58DE02D09951F910F910895DC013B
:101E2000ED91FC910084F185E02D09943F924F9251
:101E30005F926F927F928F929F92AF92BF92CF925A
:101E4000DF92EF92FF920F931F93CF93DF935C018A
:101E50007B014A016901390187E0680E711C93E03A
:101E6000759467949A95E1F72B01400E511E10E08E
:101E700000E0312CD0E0C0E0CE0187709927330C10
:101E8000892B59F4FE0183E0F595E7958A95E1F7F2
:101E9000E00FF11FE80DF91D349037FE0AC021E074
:101EA00030E0A701B5016C0F7D1F86E994E00E9428
:101EB0000F0F2196CC16DD06F9F68FEFE81AF80A17
:101EC000060D171DE414F504A9F6DF91CF911F91BB
:101ED0000F91FF90EF90DF90CF90BF90AF909F90C9
:101EE0008F907F906F905F904F903F9008952F92CA
:101EF0003F924F925F926F927F928F929F92AF929A
:101F0000BF92CF92DF92EF92FF920F931F93CF93E6
:101F1000DF9300D000D000D0CDB7DEB73C016A011E
:101F20003E832D83FC82EB825801A41AB50AB7FECA
:101F300003C0B194A194B1088D809E80861A970A3F
:101F400097FE03C09194819491088A149B045CF0DD
:101F5000902F812F0D811E819D838E839C2D8D2D31
:101F60006B01692F782F0C151D055CF09D818E810A
:101F70007E836D83692F782F902F812F8601C92E44
:101F8000D82E1601201A310A2B012D813E81421ACA
:101F9000530A57FE03C0519441945108710137FE12
:101FA00003C03FEFE31AF30AF594E7948D819E8115
:101FB000861797075CF5A1E0B0E0BA83A983C01645
:101FC000D1064CF1D301ED91FC910484F585E02D0F
:101FD0002B813C81A8016D817E818A149B041CF0B9
:101FE0004D815E81B801C3010995E418F508F7FE3B
:101FF0000AC02D813E8189819A81280F391F3E8335
:102000002D83E20CF31C0F5F1F4FD9CF2FEF3FEF53
:102010003A832983D4CF26960FB6F894DEBF0FBE3D
:10202000CDBFDF91CF911F910F91FF90EF90DF9087
:10203000CF90BF90AF909F908F907F906F905F9068
:102040004F903F902F90089585ED8093BC00809134
:10205000BC0084FDFCCF1092570408952091B60374
:10206000260F3327331F21323105ECF4209157041A
:10207000FC0190E080E0243069F082E00895A091B6
:10208000B6032191AC014A565C4FA40FB52FB11D88
:102090002C930196861798F38091B603680F60938E
:1020A000B60380E0089581E00895E0910F048091E7
:1020B0000E04E81730F4F0E0EF5EFB4F808190E013
:1020C00008958FEF9FEF089590910F0480910E0473
:1020D0002FEF3FEF981748F4E92FF0E0EF5EFB4F4A
:1020E000208130E09F5F90930F04C9010895CF9243
:1020F000DF92EF92FF920F931F93CF93DF937C01B8
:10210000CB018A0120916304222389F0EB016B014A
:10211000C40ED51ECC15DD0569F06991D701ED918E
:10212000FC910190F081E02DC7010995F3CF642F58
:102130000E942E10C801DF91CF911F910F91FF9047
:10214000EF90DF90CF900895CF93DF931F92CDB79C
:10215000DEB76983209163042223F9F020916004A3
:10216000203258F021E030E0FC013383228390E0FC
:1021700080E00F90DF91CF91089580916104E82F66
:10218000F0E0EA58FC4F998190838F5F809361045F
:102190008093600481E090E0ECCF61E0CE01019695
:1021A0000E942E10F7CF682F8AE894E00C94A410B8
:1021B0002091600481E0213208F044C080915704EE
:1021C0008111FCCF8091620492E09093570491E0DA
:1021D000909356049FEF90935504109254042093CB
:1021E0005304A6E7B3E0E1E3F4E090E0291331C043
:1021F0001092520490915204880F892B80935204BC
:1022000080915104813049F510925104809152041B
:102210008093BB008091BC0083FDF8CF85EC809358
:10222000BC00809157048230E1F3809155048F3FC8
:10223000B1F0809155048032A1F080915504803333
:1022400091F084E010926104109260041092630493
:1022500008953D9131939F5FC9CF85EEE0CF80E037
:10226000F1CF82E0EFCF83E0EDCFCF9388E60E94FD
:102270007C0560E08AE894E00E94A41060E88AE8A7
:1022800094E00E94A41080915904CAE06C2F0E942F
:10229000BD3A8295807F682F690F8AE894E00E949A
:1022A000A41080915A046C2F0E94BD3A8295807FC1
:1022B000682F690F8AE894E00E94A41080915B0463
:1022C0006C2F0E94BD3A8295807F682F690F8AE843
:1022D00094E00E94A41080915C046C2F0E94BD3A8F
:1022E0008295807F682F690F8AE894E00E94A4108D
:1022F00080915D046C2F0E94BD3A8295807F682F8B
:10230000690F8AE894E00E94A41080915E048E51C7
:102310006C2F0E94BD3A8295807F682F690F8AE8F2
:1023200094E00E94A4108AE894E00E94D8108823C8
:1023300029F010925F0480E0CF91089581E08093AE
:102340005F0488E60E947C0560E08AE894E00E94D1
:10235000A410809158046C2F0E94BD3A8295807F12
:10236000682F690F8AE894E00E94A4108AE894E03C
:102370000E94D8108111DDCF81E0DECFAF92BF92F5
:10238000DF92EF92FF920F931F93CF93DF938B0116
:10239000040F151FEB015C01A61AB70A7501EC0EBC
:1023A000FD1ED9908091FE040E947C058F2D90E047
:1023B0000E94D310C70199270E94D3106D2D8AE87F
:1023C00094E00E94A4108AE894E00E94D8106AE089
:1023D00070E080E090E00E943908C017D107F1F664
:1023E000DF91CF911F910F91FF90EF90DF90BF9001
:1023F000AF900895EF92FF920F931F93CF93DF93C7
:10240000EC01EC80FD806E157F050CF070C057FF6D
:1024100004C0240F351F50E040E08E819F81FA01F7
:10242000E20FF31F8E179F071CF49C01241B350B32
:10243000121613060CF05BC0922F842F869586959A
:1024400086958E9DD0018F9DB00D11246A0F7B1F44
:10245000AF8DB8A1A60FB71F477049F188E0841B64
:10246000482F682F70E0FB01E059FF4FE4912817D7
:1024700008F063C0621B71092FEF30E002C0359590
:1024800027956A95E2F7E2230130110539F0B0F1A2
:102490000230110561F58C91E82702C08C91E82B80
:1024A000EC93941720F12C813D81A20FB31FE92FEB
:1024B000E41BE83078F00230110521F58E2F9C9155
:1024C00090959C932C813D81A20FB31F885088303A
:1024D000B0F7E770EE2359F0F0E0E859FF4FE491D0
:1024E00001301105F9F010F10230110519F1DF91F9
:1024F000CF911F910F91FF90EF900895E0958C91EF
:10250000E823CECF81E00115110509F480E0819523
:102510009E2F8C932C813D81A20FB31F9850983031
:10252000C0F7D7CF8C91E82BEC93E1CFE0958C915D
:10253000E823FACF8C91E827F7CF0130110509F491
:10254000ADCFE0F20230110509F4A5CFAE0DBF1DED
:10255000AECF0F931F93CF93DF9377FF04C0260F67
:10256000371F70E060E0DC011496CD91DC91FB0137
:10257000E20FF31FCE17DF071CF49E01261B370B5B
:10258000121613064CF5FA0157FD3796A3E0F595A0
:10259000E795AA95E1F7EC9FD001ED9FB00DFC9F68
:1025A000B00D11246A0F7B1FDC015F96ED91FC9149
:1025B000E60FF71F4770552781E090E001C0880FB4
:1025C0004A95EAF7482F0130110559F0A8F02E0F6F
:1025D0003F1F02301105E1F0DF91CF911F910F9164
:1025E00008952E0F3F1FE217F307B1F38191DF012A
:1025F0001197842B8C93F7CF80952E0F3F1FE217F6
:10260000F30751F39191DF01119798239C93F7CF32
:10261000E217F30709F38191DF01119784278C9367
:10262000F7CF0F931F93FA01DC0156964C91569702
:102630004230E9F04330A1F1413061F514964D91FB
:102640005C91DA01AE1BBF0BFD01E21BF30B77FDC2
:102650000BC0DC0116964D915C916417750724F44C
:10266000AB01BF010E94A9121F910F91089514960A
:102670004D915C91DA01A61BB70BBD016150710948
:10268000DC0116964D915C91DA01AE1BBF0BFD018A
:10269000E21BF30B77FDE8CFAF010E94FA11E4CF04
:1026A00016964D915C91DA01A61BB70BBD016150E6
:1026B0007109CDCF0F931F93FA01DC0156964C910F
:1026C00056974230A9F0433091F1413019F51496F4
:1026D0004D915C91DA01AE1BBF0BFD013197F7FD07
:1026E00004C0AB01BF010E94FA111F910F91089520
:1026F00014964D915C91DA01A61BB70BBD01DC016C
:1027000016964D915C91DA01AE1BBF0BFD0131971E
:10271000621B730BF7FDE9CFDC0116964D915C91BE
:10272000E417F50714F7AF010E94A912DECF169641
:102730004D915C91DA01A61BB70BBD01621B730BB7
:10274000CECFFC0177FD64C080859185681779073D
:102750000CF05EC057FD5CC0828593854817590711
:102760000CF056C086898230B1F0833029F1813077
:1027700041F484819581841B950BAB01BC016150B0
:1027800071092130310509F108F443C022303105C7
:1027900009F463C0089584819581DC01A61BB70B01
:1027A000BD016150710986819781DC01A41BB50BC5
:1027B000AD0141505109E5CF86819781861B970B6A
:1027C000BA01AC0141505109DCCFCA0157FD07964F
:1027D000A3E095958795AA95E1F7A481B5818A9F95
:1027E00090018B9F300D9A9F300D1124620F731F43
:1027F000078CF0A1E02DE60FF71F4770552721E069
:1028000030E001C0220F4A95EAF78081822B808355
:102810000895CA0157FD079633E0959587953A9537
:10282000E1F7A481B5818A9F90018B9F300D9A9F1B
:10283000300D1124620F731F078CF0A1E02DE60FFD
:10284000F71F4770552781E090E001C0880F4A9537
:10285000EAF7809590818923DACFCA0157FD079660
:1028600023E0959587952A95E1F7A481B5818A9F04
:1028700090018B9F300D9A9F300D1124620F731FB2
:10288000078CF0A1E02DE60FF71F4770552721E0D8
:1028900030E001C0220F4A95EAF780818227B7CF46
:1028A00008958EBD00000DB407FEFDCF8EB50895CE
:1028B000FF920F931F93CF93DF93F82ED92FC62F3C
:1028C0008091B3049091B404892B09F447C080919E
:1028D000B7040E947C058091B3049091B404DC019C
:1028E000ED91FC910190F081E02D60E009950F2DB4
:1028F0001D2FD1E0C1508091B3049091B404CF3F1B
:1029000031F1D03298F00E94D8108091B7040E9423
:102910007C058091B3049091B404DC01ED91FC91AD
:102920000190F081E02D60E00995D1E08091B30441
:102930009091B404F8016491DC01ED91FC91019057
:10294000F081E02D0995DF5F0F5F1F4FD3CFDF913F
:10295000CF911F910F91FF900C94D810E091C30478
:10296000F091C40490818091C9048095892380836B
:102970000F2D1D2FC15008F438C0F801849120910B
:10298000B1043091B204232B29F00E9451140F5F3F
:102990001F4FF0CF28E030E040E8E091BF04F09115
:1029A000C0049091C704582F5423D9F05081952B1F
:1029B0009083E091C104F091C20490815091C804C9
:1029C000952B9083E091C104F091C20450819091C5
:1029D000C804909595239083469521503109E9F6D6
:1029E000D6CF508190959523E3CFDF91CF911F9162
:1029F0000F91FF9008951F93CF93DF93EC018D8D7E
:102A00009E8D892BF9F0162F89A10E947C058D8D52
:102A10009E8DDC01ED91FC910190F081E02D60E054
:102A200009958D8D9E8DDC01ED91FC910190F081D9
:102A3000E02D612F09958D8D9E8DDF91CF911F9196
:102A40000C94D810ADA5BEA59C918BA98095892327
:102A50008C938B8D9C8D892B31F0862FDF91CF91BC
:102A60001F910C94511428E030E080E8A9A5BAA584
:102A700099A9462F4823C1F04C91942B9C93ABA568
:102A8000BCA59C914AA9942B9C93ABA5BCA54C9149
:102A90009AA9909594239C9386952150310931F7FA
:102AA000DF91CF911F9108954C9190959423E6CF9B
:102AB0008CBD9DBD0895FF920F931F93CF93DF931D
:102AC0008091B3049091B404892B09F472C08CE016
:102AD0008093B80065E088E69AE00E9458146091FF
:102AE0009A04615086E994E00E94FB1420919C04B2
:102AF00030919D04C901079697FD079623E09595AF
:102B000087952A95E1F720919A0430919B04829F42
:102B10008001839F100D929F100D1124C091B50468
:102B2000D091B6048091B3049091B4040C0F1D1F92
:102B3000892B09F47CC08091B7040E947C058091A8
:102B4000B3049091B404DC01ED91FC910190F0810B
:102B5000E02D60E40995FF24F3948091B3049091F3
:102B6000B4040C171D07E1F1BFE1BF15A0F40E94EA
:102B7000D8108091B7040E947C058091B304909195
:102B8000B404DC01ED91FC910190F081E02D60E452
:102B90000995FF24F3948091B3049091B404699152
:102BA000DC01ED91FC910190F081E02D0995F39409
:102BB000D4CF8091B1049091B204892B31F08091EF
:102BC000CB049091CC040E945815E091C504F0917B
:102BD000C60490818091CA048095892380837ACF2E
:102BE0000E94D8108091B3049091B404892B09F409
:102BF0005FC02091CD043091CE044091CF0450911C
:102C0000D00460E074E284EF90E00E94DE3820514E
:102C100031094109510956954795379527952093D4
:102C2000B800DF91CF911F910F91FF900895E0912F
:102C3000C304F091C40480819091C904892B8083DE
:102C40000C171D0779F289912091B1043091B204DB
:102C5000232B19F00E945114F3CF28E030E040E814
:102C6000E091BF04F091C0049091C704582F542301
:102C7000D9F05081952B9083E091C104F091C2046A
:102C800090815091C804952B9083E091C104F091FC
:102C9000C20450819091C8049095952390834695E5
:102CA00021503109E9F6CCCF508190959523E3CF9F
:102CB000E091C504F091C60480819091CA04892BEB
:102CC0008083AFCFCF93C0E0811106C08091B8045C
:102CD000CFEC813009F4CFE98091B3049091B40432
:102CE000892B69F18CE08093B80061E886E994E073
:102CF0000E94FB146C2F86E994E00E94FB148091E3
:102D0000B3049091B404892B89F12091CD043091C2
:102D1000CE044091CF045091D00460E074E284EF7F
:102D200090E00E94DE382051310941095109569541
:102D30004795379527952093B800CF9108958091B6
:102D4000B1049091B204892B31F08091CB04909121
:102D5000CC040E945815E091C504F091C6049081FE
:102D60008091CA04809589238083BFCFE091C504F8
:102D7000F091C60480819091CA04892B8083DDCFB5
:102D80001F93CF93DF93EC01162F8D8D9E8D892B92
:102D900029F18CE08093B80066EA111167EACE0150
:102DA0000E94FB148D8D9E8D892B41F12FA938AD8A
:102DB00049AD5AAD60E074E284EF90E00E94DE38E5
:102DC0002051310941095109569547953795279565
:102DD0002093B800DF91CF911F9108958B8D9C8D2A
:102DE000892B21F08DA99EA90E945815EFA5F8A95D
:102DF00090818CA9809589238083CECFEFA5F8A9F7
:102E000080819CA9892B8083E5CF089590E080E0A4
:102E100008958093BB0084E88093BC008091BC003F
:102E200087FFFCCF9091B900987F81E0983231F014
:102E3000983129F0903419F080E0089508950895AC
:102E400084EA8093BC008091BC0087FFFCCF809116
:102E5000B900887F19F080EC0C94091780E0089580
:102E60005F926F927F928F929F92AF92BF92CF921A
:102E7000DF92EF92FF920F931F93CF93DF93CDB723
:102E8000DEB7582E742E652EB62E922E0E94201775
:102E9000852D0E9409178D2D0E9409178C2D0E94E7
:102EA00009178B2D8370A82A80E081108CE08A2975
:102EB0000E940917862D0E940917872D0E94091765
:102EC0008CE0F694E794D794C7948A95D1F78C2D2B
:102ED000807FC82E892D8F708C290E940917812F21
:102EE0000E940917802F0E94091784E98093BC0073
:102EF0008091BC0084FDFCCFDF91CF911F910F9199
:102F0000FF90EF90DF90CF90BF90AF909F908F9009
:102F10007F906F905F9008954F925F926F927F9233
:102F20008F929F92AF92BF92CF92DF92EF92FF92D9
:102F30000F931F93CF93C82FC090F504D090F60441
:102F4000E090F704F090F804CB01BA01A7019601D4
:102F50000E94DE3849015A0125E0F694E794D7949F
:102F6000C7942A95D1F735E096958795779567951B
:102F70003A95D1F747E0660F771F881F991F4A954A
:102F8000D1F7A70196010E94DE3829013A018B0191
:102F90009C01B501A401552766277727E7E0440F78
:102FA000551F661F771FEA95D1F7525061097109C5
:102FB000440D551D661D771D812CA12C8C2F0E9460
:102FC0003017CF911F910F91FF90EF90DF90CF902E
:102FD000BF90AF909F908F907F906F905F904F9039
:102FE00008958F92AF92CF92DF92EF92FF920F935C
:102FF0001F9388248394443051056105710509F0BD
:10300000812C4450510961097E4F97E0440F551FB0
:10301000661F771F9A95D1F7A22EC12CD12C76016D
:10302000C39400E010E098010E9430171F910F91A7
:10303000FF90EF90DF90CF90AF908F900895CF9357
:10304000DF93D82FC62F0E9420178D2F0E940917BB
:103050008C2F0E94091784E98093BC008091BC00EA
:1030600084FDFCCFDF91CF910895CF93C82F60E806
:1030700080E18C0F0E941F18EC2FF0E0EE0FFF1F75
:10308000E352FB4F11821082CF9108954F925F92CD
:103090006F927F92AF92BF92CF92DF92EF92FF92A8
:1030A0000F931F93CF93DF93D82F082F10E0F801D1
:1030B000EE0FFF1FEE0FFF1FE751FB4F40805180C7
:1030C00062807380411451046104710489F48D2F6E
:1030D000DF91CF911F910F91FF90EF90DF90CF90F4
:1030E000BF90AF907F906F905F904F900C94351889
:1030F0005801AA0CBB1CF501E352FB4FC080D180E4
:10310000F12CE12C03521B4FF801C681A30192015F
:10311000C701B6010E94AD3A9B01AC01EC2FF0E073
:10312000E35AFE4FA081B0E00E94D3389B01AC016E
:1031300020583447424D5A412130334A414E514183
:1031400008F43FC060913C0170913D0180913E01C7
:1031500090913F01A30192010E94DE3869017A013A
:1031600084E0C816D104E104F10408F4B0CFE6E02D
:10317000CE16D104E104F10408F470C0C0E0FDE211
:10318000CF16F1E0DF06E104F10430F0CF5FF694F2
:10319000E794D794C794F3CFC11103C0E894C0F863
:1031A000C0E0A3019201C701B6010E94AD3A9B01A4
:1031B000AC01EC2FF0E0E35AFE4FA081B0E00E949A
:1031C000D3382AE1D11122E2AB01BC01822F0E9447
:1031D0008C17F501E352FB4F80819181B0E0A0E0B4
:1031E0008C159D05AE05BF0521F4F80186818C176D
:1031F00031F12C2F2295207FB701A6018D2F880F4A
:10320000880F880F865D0E94F117F801618580E0C4
:10321000D11180E26C64682B80E18D0F0E941F1831
:10322000F501E352FB4FD182C082F801C683809141
:10323000FD0490E2D11190E8892B8093FD04DF9189
:10324000CF911F910F91FF90EF90DF90CF90BF90A3
:10325000AF907F906F905F904F90089584E0C82E5C
:10326000D12CE12CF12C9ACF2F923F924F925F926A
:103270006F927F928F929F92AF92BF92CF92DF9286
:10328000EF92FF920F931F93CF93DF9300D000D064
:103290001F92CDB7DEB749015A01270138011092BC
:1032A000FD04C090ED04D090EE04E090EF04F090A7
:1032B000F0040091E9041091EA042091EB043091AC
:1032C000EC04061717072807390759F06093E9043B
:1032D0007093EA048093EB049093EC0480E00E94E6
:1032E0004618C814D904EA04FB0471F48091F1046F
:1032F0009091F204A091F304B091F4048415950523
:10330000A605B70509F403C18092ED049092EE047E
:10331000A092EF04B092F0044092F1045092F204B3
:103320006092F3047092F40481149104A104B10436
:1033300019F481E00E9435188091F1049091F20413
:10334000A091F304B091F404892B8A2B8B2B19F4F0
:1033500082E00E9435184090ED045090EE04609099
:10336000EF047090F004411451046104710409F4F5
:1033700073C1C814D904EA04FB0409F4A5C0C090C1
:10338000DF04D090E004F12CE12C2091E4042983A7
:10339000A3019201C701B6010E94AD3A9B01AC01A5
:1033A0008981E82FF0E0E35AFE4FA081B0E00E944F
:1033B000D3384B015C01DC01CB0180589447A24D0E
:1033C000BA418130934AA14EB14108F446C06091A0
:1033D0003C0170913D0180913E0190913F01A3011C
:1033E00092010E94DE3869017A0181E044E0C4164E
:1033F000D104E104F10408F488C086E0C816D104C1
:10340000E104F10408F4A4C019829DE2C91691E018
:10341000D906E104F10440F029812F5F2983F69455
:10342000E794D794C794F1CF4981411103C0E89440
:10343000C0F81982A3019201C701B6010E94AD3AFA
:103440009B01AC018981E82FF0E0E35AFE4FA08197
:10345000B0E00E94D3384B015C01B501A40182E2C7
:103460000E948C178091DF049091E004B0E0A0E00E
:103470008C159D05AE05BF0529F48091E404998162
:103480008917D1F029812295207FB701A60182E317
:103490000E94F1176091E7046C6681E10E941F1899
:1034A000D092E004C092DF0429812093E40480914B
:1034B000FD0480688093FD048092F9049092FA04E0
:1034C000A092FB04B092FC04C090F104D090F204EE
:1034D000E090F304F090F404C114D104E104F10489
:1034E000B1F08090F9049090FA04A090FB04B090A1
:1034F000FC04C501B401A70196010E94DE38283002
:1035000031054105510550F582E00E943518609162
:10351000FD04662319F081EB0E941F188091FD04C1
:103520000F900F900F900F900F90DF91CF911F9100
:103530000F91FF90EF90DF90CF90BF90AF909F9052
:103540008F907F906F905F904F903F902F90089555
:1035500004E0C02ED12CE12CF12C69CF1D82213446
:1035600031054105510560F08D818F5F8D83CC0C55
:10357000DD1CEE1CFF1C5695479537952795EFCF20
:10358000C501B401A70196010E94DE3829833A8360
:103590004B835C832FEF3FEF4FE050E00E94DD3A1A
:1035A00056016701E12CF12C00E010E00E940A3B7B
:1035B00029013A019D819295907F9D83C12CD12C48
:1035C0007601C394411451046104710431F0CC2498
:1035D000CA94DC2CFFE0EF2EF12CC301B20127E0EE
:1035E000660F771F881F991F2A95D1F7A7019601AB
:1035F0000E94DE3849015A018B019C0149815A81A0
:103600006B817C81552766277727E7E0440F551F9C
:10361000661F771FEA95D1F7525061097109480D6D
:10362000591D6A1D7B1D812CAD808AE30E943017D5
:103630008CE445284628472809F08CE06091E8048E
:103640006062682B82E10E941F1881E090E09093F5
:10365000E2048093E1045BCF8090F1049090F20447
:10366000A090F304B090F40481149104A104B10477
:1036700009F44DCFC090E104D090E204F12CE12C8C
:103680002091E5042983A5019401C701B6010E9498
:10369000AD3A9B01AC018981E82FF0E0E35AFE4F7F
:1036A000A081B0E00E94D3388B019C0100581447E0
:1036B000224D3A410130134A214E314108F443C0B2
:1036C00060913C0170913D0180913E0190913F01DC
:1036D000A50194010E94DE3869017A0184E0C816D0
:1036E000D104E104F10408F40FCF96E0C916D10427
:1036F000E104F10408F458C019822DE2C21621E059
:10370000D206E104F10440F049814F5F4983F69409
:10371000E794D794C794F1CF8981811103C0E894CD
:10372000C0F81982A5019401C701B6010E94AD3A03
:103730009B01AC019981E92FF0E0E35AFE4FA08193
:10374000B0E00E94D338AB01BC0182E20E948C172A
:103750008091E1049091E204B0E0A0E08C159D0519
:10376000AE05BF0531F48091E5042981821709F483
:10377000CECE29812295207FB701A6018AE30E943F
:10378000F1176091E8046C6682E10E941F18D092E4
:10379000E204C092E10449814093E5048091FD0474
:1037A00080688093FD04B3CE84E0C82ED12CE12C38
:1037B000F12CB5CFFF920F931F93CF93DF9300D0DF
:1037C000CDB7DEB7E3E1F1E010E000E08191080F52
:1037D000111D81E0E933F807C9F746E250E063E1E3
:1037E00071E082E090E00E94BE110F5F1F4F1A83CC
:1037F000098342E050E0BE016F5F7F4F90E080E0C0
:103800000E94BE11E9E0F1E083E191E010E000E008
:103810002191020F111D8E179F07D1F7809114017E
:103820009CE0F92E8F9DC00111244AE050E069E030
:1038300071E08A960E94BE110F5F1F4F1A830983A1
:10384000809114018F9DC001112442E050E0BE011F
:103850006F5F7F4F88960E94BE110F900F90DF918F
:10386000CF911F910F91FF90089580912301909126
:103870002401A0912501B09126018093F504909335
:10388000F604A093F704B093F80480E00E94461871
:1038900081E00C944618CF93DF9380916B03909155
:1038A0006C0327E0289FE001299FD00D112485E1BA
:1038B0000E947808DE01A80FB91FAA0FBB1F94E071
:1038C000B695A7959A95E1F7B0936C03A0936B0317
:1038D0002091270130E00E9400392FEF33E040E0D3
:1038E00050E00E94B43820937203DF91CF91089585
:1038F000CF93DF938FE00E947808809170039091BE
:103900007103EC01CC0FDD1FC80FD91F8FE00E949F
:1039100078082196C80FD91FCC0FDD1FCC0FDD1FF3
:1039200044E0D695C7954A95E1F7D0937103C093CB
:10393000700380E10E94780880916E0390916F037C
:10394000EC01CC0FDD1FC80FD91F80E10E94780861
:103950002196C80FD91FCC0FDD1FCC0FDD1F74E0DF
:10396000D695C7957A95E1F7D0936F03C0936E0310
:10397000DF91CF910895DC01ED91FD918081ED9172
:10398000FD919081ED91FD916C9163708E2309F012
:1039900064609F2309F06860E8EDFCE1E60FF11D2B
:1039A000659565956D936D917D918D919D9109942E
:1039B00023C01AC012C016C010C01EC009C014C057
:1039C00013C006C019C009C00DC007C00DC014C087
:1039D00062507040804090400BC061507040804009
:1039E000904006C06E5F01C06F5F7F4F8F4F9F4F4B
:1039F0009E938E937E936E930895BF92CF92DF92A3
:103A0000EF92FF920F931F93CF93DF93EC01B62EAB
:103A1000C72E8D85811105C0CE010E9458098111E4
:103A20000EC01B861D861C8680E0DF91CF911F9102
:103A30000F91FF90EF90DF90CF90BF90089540E0FE
:103A400060EFCE010E94050901E0E12CD12C11E0CC
:103A5000CE010E94A708F82ECE010E94A70891E08F
:103A6000F91218C0813099F51134D8F2DB86D110E3
:103A700002C081E08D878B81882399F22396EB2DFC
:103A8000FC2DCF01089629912193E817F907D9F762
:103A900081E0CBCFEE2DF0E0F8120FC08B85181728
:103AA000A0F4DE01AE0FBF1F13968C91802379F432
:103AB000F12C193008F41C87D12EEC0FFD1F8381E7
:103AC000902F9095892383830AC08113F1CFFE0143
:103AD000EE0DF11D8381802B8383FF24F3946F2DE2
:103AE000CE010E94D2081F5F000F11F4E39401E0A1
:103AF00087E08E1508F0ACCFB7CF4F925F926F92F0
:103B00007F928F929F92AF92BF92CF92DF92EF926D
:103B1000FF920F931F93CF93DF93CDB7DEB76197DB
:103B20000FB6F894DEBF0FBECDBF0E946C08C090E8
:103B30006703D0906803E0906903F0906A036C1902
:103B40007D098E099F09693873418105910508F443
:103B500058C080916603811154C010926A0480910C
:103B60006E0490916F040E94580940E06CEC8091C3
:103B70006E0490916F040E9405094091680464E40A
:103B800080916E0490916F040E94050980916A04EF
:103B9000882391F1E0916904E9500EEE12E0E330E0
:103BA00038F4F0E0EE0FFF1FE75BFE4F008111815C
:103BB00080916B04882309F481C08091680481118D
:103BC0007DC00E946C084B015C012801110F660842
:103BD000770880916E0490916F040E94A70881304D
:103BE00059F00E946C0864197509860997096815CF
:103BF00079058A059B0568F381E080936A048093C8
:103C000066030E946C086C197D098E099F09613456
:103C10007F4181059105D8F1809166038823B9F130
:103C2000E0916E04F0916F04138615861486128657
:103C30001186108617821682158214821382BE01A5
:103C4000665F7F4F80916E0490916F040E94FD1C0F
:103C500081113BC060E070E08EEF92EC20E030E03C
:103C600040E05FE30E9410390E947C3980912A0174
:103C7000680F60936D030E946C08609367037093F4
:103C800068038093690390936A03109266036196B8
:103C90000FB6F894DEBF0FBECDBFDF91CF911F915D
:103CA0000F91FF90EF90DF90CF90BF90AF909F90DB
:103CB0008F907F906F905F904F900895B801110F93
:103CC000880B990B0E94390897CF67E0CE010A96BE
:103CD0000E94900899898913BDCF80916E049091BC
:103CE0006F040E945809882309F4B4CFBE016F5FA6
:103CF0007F4FCE010A960E949B09882309F4AACF20
:103D000068E0CE0101960E94900899858913A2CFA0
:103D10006A8170E0762F6627770F770F770F2981FA
:103D200058E0259F90011124262B372B8A8580315E
:103D3000D1F4688570E08F81AB01481B5109CA013D
:103D40009695982F8827979587950E94C93ACB0119
:103D50004097B90153E0660F771F5A95E1F76078F5
:103D60009C01260F371F213854EE35070CF472CF13
:103D7000B901330F880B990B0E94B43920E030E071
:103D800040E05CE30E94403A69CF0F931F93CF93CA
:103D9000DF938091F903882359F0109258040E9410
:103DA00035111092F903DF91CF911F910F91089572
:103DB0000E946C08009162031091630320916403D8
:103DC00030916503601B710B820B930B693E73404E
:103DD0008105910520F4012B022B032B21F70E9472
:103DE0006C08609362037093630380936403909301
:103DF000650388E60E947C0560E08AE894E00E9402
:103E0000A4108AE894E00E94D810882391F01092C0
:103E10005F0480915F04882331F210925A0410925B
:103E2000590410925804DF91CF911F910F910C9477
:103E3000351181E080935F0467E088E60E94860583
:103E400010920F0480930E04873018F38AE894E0F0
:103E50000E946410D82F982F92959770CAE08D2FEA
:103E60008F709C9F800D1124809358048AE894E001
:103E70000E946410982F92959F708F709C9F800D68
:103E80001124809359048AE894E00E946410982FCA
:103E9000929593708F709C9F800D112480935A048B
:103EA0008AE894E00E946410982F92959F708F701A
:103EB0009C9F800D112480935B048AE894E00E940B
:103EC0006410982F92959F708F709C9F800D112485
:103ED00080935C048AE894E00E946410982F929585
:103EE0009F708F709C9F800D112480935D048AE8E1
:103EF00094E00E946410982F9F70925E82958F705C
:103F00008C9F900D112490935E04D7FF4CCF81CFEE
:103F1000CF93DF93EC018091FE040E947C058D2FEE
:103F200090E00E94D310CE0199270E94D3108AE816
:103F300094E00E94D81061E08091FE040E94860502
:103F400010920F0480930E04882339F08AE894E0DD
:103F50000E946410DF91CF91089580E0FBCFEF9233
:103F6000FF920F931F93CF93DF938B01040F151FC5
:103F7000EB017C01E61AF70AC7018C0F9D1F0E9416
:103F8000881F8993C017D107B9F7DF91CF911F918F
:103F90000F91FF90EF900895DF92EF92FF920F93B1
:103FA0001F93CF93DF9300D0CDB7DEB71A8219826B
:103FB000809114012CE0829FC001112442E050E066
:103FC000BE016F5F7F4F88960E94AF1FF12CE12CDE
:103FD00010E000E08CE0D82E8091140197018D9DB7
:103FE000200D311D1124C9018A960E94881F080FD7
:103FF000111D3FEFE31AF30A8AE0E816F10461F7B6
:104000000F5F1F4F89819A8108171907B1F48091BA
:1040100014018D9DC00111244AE050E069E071E077
:104020008A960E94AF1F0F900F90DF91CF911F9142
:104030000F91FF90EF90DF9008950E94DA1BF3CF6D
:104040000F931F93CF93DF931092740360910A0133
:1040500070910B0180910C0190910D0120EA36E8DE
:1040600041E050E00E94DE3880912E018217130655
:1040700009F018F481E08093740380912D01821778
:10408000130609F018F482E08093740380912C01E8
:104090008217130609F018F483E08093740380916B
:1040A0002B018217130609F018F484E0809374033F
:1040B0002091740381E090E0A0E0B0E004C0880F9C
:1040C000991FAA1FBB1F2A95D2F7809375032091D1
:1040D0000804222359F020913201222339F0209143
:1040E000E303211103C0806280937503809137013F
:1040F000882329F0809175038064809375038091F3
:104100003801882329F080917503806880937503B6
:104110002C9800917503C7E0D0E010E0B8010C2E98
:1041200002C0759567950A94E2F761708BE00E9472
:104130004B062D9A2D98219788F72C9ADF91CF91D5
:104140001F910F9108954F925F926F927F928F927D
:104150009F92AF92BF92EF92FF920F931F93209185
:104160000901E0901701F0901801009119011091D8
:104170001A0160910A0170910B0180910C019091DC
:104180000D01309108046E0D7F1D801F911F332398
:1041900039F12223E1F020911F013091200140915B
:1041A000210150912201620F731F841F951F0E94ED
:1041B00034191F910F91FF90EF90BF90AF909F9097
:1041C0008F907F906F905F904F900C942020209163
:1041D0001B0130911C0140911D0150911E01E3CF44
:1041E0008090330190903401A0903501B090360159
:1041F0002223B9F040901F015090200160902101CE
:1042000070902201A3019201280D391D4A1D5B1DEA
:10421000640D751D861D971D680D791D8A1D9B1DDA
:10422000C6CF40901B0150901C0160901D01709002
:104230001E01E8CF8091EF03882349F18091EE03BE
:10424000882329F180917303811121C08091090491
:1042500081111DC02091300184E1289F900111241B
:10426000032E000C440B550B60E472E48FE090E0E9
:104270000E94DE38CA01B9010E94C8058091800001
:104280008F7C80618093800081E0809373038091B4
:10429000EE0381110BC080917303882339F0809164
:1042A00080008F7C80938000109273030895FC013E
:1042B00001900020E9F73197AF01481B590BBC0171
:1042C00086E994E00C94DF078F929F92AF92BF92A1
:1042D0000F931F93CF93DF93CDB7DEB7A1970FB6A0
:1042E000F894DEBF0FBECDBF19A2423008F44AE0F9
:1042F0008E010F5D1F4F842E912CB12CA12CA50196
:1043000094010E94DE38E62FB901CA01EA30F4F4C4
:10431000E05DD801EE938D01232B242B252B79F71B
:1043200090E080E0109719F0CD010E945721A196EE
:104330000FB6F894DEBF0FBECDBFDF91CF911F91B6
:104340000F91BF90AF909F908F900895E95CE1CF5F
:10435000682F70E090E080E04AE00C946421CF92F6
:10436000DF92EF92FF92CF93DF936C01092E000C46
:10437000EE08FF0897FF17C08DE20E94370DEC0191
:1043800066277727CB016C197D098E099F094AE0C2
:104390000E9464218C0F9D1FDF91CF91FF90EF90C1
:1043A000DF90CF9008954AE0C701B601DF91CF9129
:1043B000FF90EF90DF90CF900C946421CF93DF9328
:1043C0000E945721EC0183EA91E00E9457218C0F53
:1043D0009D1FDF91CF9108950C945721CF93DF93C8
:1043E0000E94A821EC0183EA91E00E9457218C0FE2
:1043F0009D1FDF91CF910895CF93DF930E94AF214E
:10440000EC0183EA91E00E9457218C0F9D1FDF9100
:10441000CF910895CF93DF934AE00E946421EC018D
:1044200083EA91E00E9457218C0F9D1FDF91CF916D
:10443000089520919C0430919D04C901079697FD31
:10444000079623E0959587952A95E1F720919A04A0
:1044500030919B04829FA001839F500D929F500D2D
:10446000112470E060E08091B5049091B6040C9442
:10447000B43C8F929F92AF92BF92EF92FF920F93B4
:104480001F93CF930E9419221092A3041092A204AA
:104490001092A5041092A40481E090E09093A904E6
:1044A0008093A8049093A7048093A60483E080934C
:1044B000AA048093AB0480910904882319F080E05A
:1044C0000E946216809109048A3109F4C3C408F07D
:1044D0006CC0863009F42FC478F5823009F4C1C36A
:1044E00088F4882309F4DCC0813009F4B7C2CF9185
:1044F0001F910F91FF90EF90BF90AF909F908F9082
:104500000C945B15843009F4E2C308F4C7C38091AE
:104510003201882309F40CC48AEF91E00E94DE2165
:1045200081E08093AA048093AB04809109040E94E7
:10453000A82181E092E0C5C3863109F44BC4E0F4C0
:10454000843109F412C408F02BC4873081F68091BD
:104550003801882309F406C48CE092E00E94DE2131
:1045600081E08093AA048093AB04809109040E94A7
:10457000A8218EE192E0A5C3883109F453C408F460
:1045800039C480912F012AE0829FC00111240E942A
:10459000FC2181E08093AA048093AB0480910904FC
:1045A0000E94A82183E692E076C3893609F4FAC412
:1045B00008F041C0853609F48BC4E8F48C3109F465
:1045C0006DC408F45BC4843609F091CF8091160164
:1045D000882309F47AC48FE892E00E94DE2181E00A
:1045E0008093AA048093AB04809109040E94A821BF
:1045F00084EA92E066C3873609F4B9C408F49AC421
:1046000082E08093AA048093AB0460911B017091B7
:104610001C0180911D0190911E010E940A2281E0DF
:104620008093AA048093AB04809109040E94A8217E
:1046300084ED92E075C38D3609F400C5C8F48B365D
:1046400009F4E6C408F4C9C480912D0124E6829FD0
:10465000C00111240E94FC2181E08093AA04809370
:10466000AB04809109040E94A82186EF92E0E3C484
:104670008F3609F40BC508F4F5C4803709F037CF3D
:104680008091F7030E94EE2181E08093AA04809339
:10469000AB04809109040E94A82182E293E0FBC24E
:1046A00080910A0190910B01A0910C01B0910D0134
:1046B00080389649A849B10520F484EF92E00E9421
:1046C000EC2160910A0170910B0180910C01909195
:1046D0000D01A0E48A2EA2E49A2EAFE0AA2EB12CFE
:1046E000A50194010E94DE38CA01B9014AE00E9486
:1046F00064218091A2049091A30405969093A30451
:104700008093A20460910A0170910B0180910C01C9
:1047100090910D01A50194010E94DE38603A76481F
:104720008140910520F48FE293E00E94EC2160919A
:104730000A0170910B0180910C0190910D0120E410
:1047400032E44FE050E00E94DE386031774281056C
:10475000910520F48FE293E00E94EC2160910A0120
:1047600070910B0180910C0190910D0120E432E4D5
:104770004FE050E00E94DE38F8EE8F2EF3E09F2EDF
:10478000A12CB12CA50194010E94DE38CA01B90107
:104790004AE00E94642182E08093AA048093AB04E3
:1047A0008091A2049091A30405969093A304809312
:1047B000A20487E090E09093A5048093A404609104
:1047C0000A0170910B0180910C0190910D01A501DE
:1047D00094010E94DE38643671058105910520F44C
:1047E0008FE293E00E94EC2160910A0170910B012D
:1047F00080910C0190910D0128EE33E040E050E0F3
:104800000E94DE382AE030E040E050E00E94DE38CE
:10481000CA01B9010E940A2281E08093AA04809310
:10482000AB0480917203843620F484EF92E00E94FE
:10483000EC2180917203CAE06C2F0E94BD3A90E097
:104840000E94AF2180E693E00E94EC2180917203E8
:104850006C2F0E94BD3A892F90E00E94AF2184EF17
:1048600092E00E94EC2180910804882309F48BC017
:1048700080913201882309F483C086EA91E00E9486
:10488000EC214091700350917103E0916E03F0911F
:104890006F034E175F0771F19A012E0F3F1FA4E6B9
:1048A000B0E00E9400394E1B5F0B9A0150E040E0DF
:1048B0000E94B4385901283E334024F484EF92E03A
:1048C0000E94EC21C50164E670E00E94C93A5C01D7
:1048D000CB010E94AF2180E693E00E94EC212AE008
:1048E000A216B10424F48FE293E00E94EC21C501EA
:1048F0000E94AF21609170037091710390E080E09D
:10490000615071098109910937E0660F771F881F8F
:10491000991F3A95D1F74EEF842E43E0942EA12CA7
:10492000B12CA50194010E94B438EE24E394F12C3B
:1049300004E010E047E150E062E470E086E994E0D2
:104940000E94300E60916E0370916F0390E080E0E2
:104950006150710981099109E7E0660F771F881F8F
:10496000991FEA95D1F7A50194010E94B4384CE152
:1049700050E062E470E086E994E00E94300EB7CD2A
:1049800086EB91E07CCF80916D0392E3980F953692
:1049900008F055C087FD04C084EF92E00E94EC212E
:1049A00080916D03082E000C990B0E94AF2187EFB8
:1049B0000E94370D88EA91E00E94EC218091FF036C
:1049C000882309F43FC084EF92E00E94EC2180E04C
:1049D0000E94621680915A048A3020F484EF92E09B
:1049E0000E94EC2180915A040E94A82180915804D1
:1049F00080FF2EC080EB91E00E94EC218091590451
:104A00008A3020F48FE293E00E94EC2180915904D7
:104A10000E94A821809109018823E9F082EB91E0AE
:104A20000E94EC21809114018A3020F484EF92E0FE
:104A30000E94EC21809114010E94A82158CD8AEA9D
:104A400091E0BACF80E693E00E94EC2181E0C0CFF4
:104A500084EF92E0D1CF85EB91E0E2CF8091140119
:104A60008A3020F484EF92E00E94EC2180911401BE
:104A70000E94A82182E08093AA048093AB048091D5
:104A8000A4049091A504079627E230E03093A30494
:104A90002093A2049093A5048093A40480910A011A
:104AA00090910B01A0910C01B0910D0180389649B5
:104AB000A849B10520F484EF92E00E94EC216091B6
:104AC0000A0170910B0180910C0190910D0120E47D
:104AD000822E22E4922E2FE0A22EB12CA501940169
:104AE0000E94DE38CA01B9014AE00E946421809127
:104AF000A2049091A30405969093A3048093A2042A
:104B000060910A0170910B0180910C0190910D014F
:104B1000A50194010E94DE38603A764881409105F3
:104B200020F48FE293E00E94EC2160910A017091E1
:104B30000B0180910C0190910D0120E432E44FE0D3
:104B400050E00E94DE38603177428105910520F403
:104B50008FE293E00E94EC2160910A0170910B01B9
:104B600080910C0190910D0120E432E44FE050E07F
:104B70000E94DE3828EE33E040E050E00E94DE384C
:104B8000CA01B9014AE00E94642181E08093AA042D
:104B90008093AB048CE690E09093A3048093A204EE
:104BA0001092A5041092A40480910901882309F4AD
:104BB00055C088EB91E00E94DE218CE690E0909356
:104BC000A3048093A2048EE090E09093A5048093C8
:104BD000A40460910A0170910B0180910C019091E5
:104BE0000D0128EE33E040E050E00E94DE386436EC
:104BF00071058105910520F48FE293E00E94EC217C
:104C000060910A0170910B0180910C0190910D014E
:104C100028EE33E040E050E00E94DE382AE030E049
:104C200040E050E00E94DE38CA01B9014AE00E942B
:104C300064211092A3041092A20489E190E0909361
:104C4000A5048093A404809109040E94A82180EC0B
:104C500091E00E94EC2180911501EECE8CEB91E069
:104C6000AACFE0911301F0E0EE0FFF1FE15BFE4FD2
:104C700020813181AAE0B0E00E9400390E940A221E
:104C800081E08093AA048093AB04809109040E9480
:104C9000A82181ED91E00E94EC2129CC80910901AD
:104CA000882391F088EB91E00E94DE2181E08093DF
:104CB000AA048093AB04809109040E94A8218BED83
:104CC00091E00E94DE2113CC8CEB91E0EDCF80903F
:104CD000330190903401A0903501B09036014AE044
:104CE000C501B401B7FE0BC08DE20E94370D6627E7
:104CF0007727CB01681979098A099B094AE00E9444
:104D0000642183EA91E00E94572181E08093AA0404
:104D10008093AB04809109040E94A8218CEE91E05D
:104D20000E94EC2180EF0E94370D8DE792E0B3CF17
:104D30008DEF91E0F3CB80913701882381F08AE1F8
:104D400092E00E94DE2181E08093AA048093AB046C
:104D5000809109040E94A8218FE092E0B2CF8CE0FC
:104D600092E0EFCF8AE192E0F9CB80910E0124E648
:104D7000829FC00111240E94FC2181E08093AA043B
:104D80008093AB04809109040E94A8218DE292E0F7
:104D90000E94EC2180EF0E94370D89E392E07BCFE7
:104DA00020910F0130911001409111015091120199
:104DB000A4E6B0E00E94D3380E940A2281E08093EA
:104DC000AA048093AB04809109040E94A8218DE37A
:104DD00092E0DECF809115010E94EE2181E0809368
:104DE000AA048093AB04809109040E94A82189E45D
:104DF00092E051CF80915A048A3020F48FE293E000
:104E00000E94EC2180915A040E94EE2181E080935F
:104E1000AA048093AB04809109040E94A82186E52E
:104E200092E039CF809159048A3020F48FE293E0E8
:104E30000E94EC21809159040E94EE2181E0809330
:104E4000AA048093AB04809109040E94A8218DE5F7
:104E500092E021CF809130012AE0829FC00111248D
:104E60000E94FC2181E08093AA048093AB0480918E
:104E700009040E94A82183E792E00DCF80912901C7
:104E80000E94EE2181E08093AA048093AB0480917C
:104E900009040E94A82180E892E0FDCE80912801BB
:104EA000882381F08FE892E00E94DE2181E08093E8
:104EB000AA048093AB04809109040E94A82186E98A
:104EC00092E0FFCE83E992E0EFCF83E992E085CBD9
:104ED000809127010E94EE2181E08093AA048093B3
:104EE000AB04809109040E94A82183EB92E00E9408
:104EF000EC2180917203843620F48FE293E00E94CB
:104F0000EC2180917203CAE06C2F0E94BD3A90E0C0
:104F10000E94AF2180E693E00E94EC218091720311
:104F20006C2F0E94BD3A892F90E00E94AF218BEB3D
:104F300092E0B1CE80912A01082E000C990B0E94BC
:104F4000FC2181E08093AA048093AB048091090442
:104F50000E94A8218DEB92E00E94EC2180EF0E943C
:104F6000370D87EF0E94370D88EA91E094CE82E0FA
:104F70008093AA048093AB04609123017091240173
:104F800080912501909126010E940A2281E0809360
:104F9000AA048093AB04809109040E94A82188ECA4
:104FA00092E0BECE82E08093AA048093AB0460912D
:104FB0001F017091200180912101909122010E9496
:104FC0000A2281E08093AA048093AB0480910904B3
:104FD0000E94A8218DED92E0A3CE82E08093AA04E6
:104FE0008093AB04609117017091180180911901B1
:104FF00090911A010E940A2281E08093AA04809372
:10500000AB04809109040E94A82186EE92E088CE2C
:1050100080912E0124E6829FC00111240E94FC2170
:1050200081E08093AA048093AB04809109040E94DC
:10503000A8218CEE92E00E94EC21AFCE80912C0151
:1050400024E6829FC00111240E94FC2181E080930C
:10505000AA048093AB04809109040E94A82180E0F7
:1050600093E0E9CF80912B0124E6829FC0011124B7
:105070000E94FC2181E08093AA048093AB0480917C
:1050800009040E94A8218AE093E0D5CF8091F8031B
:105090000E94EE2181E08093AA048093AB0480916A
:1050A00009040E94A82184E193E0F5CD0E94AF3C61
:1050B0001F920F920FB60F9211248F939F93AF936D
:1050C000BF938091DA039091DB03A091DC03B09150
:1050D000DD030196A11DB11D8093DA039093DB03DC
:1050E000A093DC03B093DD038091D90393E0980F84
:1050F0009D37F0F49093D9038091DE039091DF0304
:10510000A091E003B091E1030196A11DB11D809330
:10511000DE039093DF03A093E003B093E103BF911C
:10512000AF919F918F910F900FBE0F901F90189588
:105130008A578093D9038091DA039091DB03A09181
:10514000DC03B091DD030196A11DB11D8093DA034C
:105150009093DB03A093DC03B093DD03CDCF1F92CC
:105160000F920FB60F9211242F933F934F935F939B
:105170006F937F938F939F93AF93BF93EF93FF931F
:105180008091B900887F803609F44AC0F0F58832F2
:1051900009F4A7C018F5803109F49BC0B8F488233E
:1051A00009F4F9C0883009F494C0FF91EF91BF91E0
:1051B000AF919F918F917F916F915F914F913F91AF
:1051C0002F910F900FBE0F901F901895883109F402
:1051D00088C0803251F78093550414C0803409F49C
:1051E0009DC040F48033B9F38833F9F680935504B9
:1051F00085ECB0C0803509F485C0883509F496C0C7
:10520000883499F60E942410D0CF883909F48CC0D4
:1052100038F5883729F050F4883611F0803729F6B0
:1052200083E0809357041092D80357C0883809F45C
:105230007BC0803919F0803809F0B7CF8091D8034E
:10524000803208F071C0E091D80381E08E0F809326
:10525000D8038091BB00F0E0E854FC4F80833DC050
:10526000803B39F0E0F4803A09F479C0883A09F0DB
:105270009CCF84E0809357041092B7031092B6033A
:10528000E0910C04F0910D0409958091B603811111
:105290000FC081E08093B6031092960309C0803C52
:1052A00009F4A6CF883C09F4A3CF883B09F07DCF51
:1052B000E091B70381E08E0F8093B703F0E0EA56E8
:1052C000FC4F80818093BB009091B7038091B6031F
:1052D00029C0809152048093BB0085EC8093BC0070
:1052E00064CF9091540480915304981758F5E0913D
:1052F000540481E08E0F80935404F0E0EF5CFB4F88
:105300008081E9CFE091540481E08E0F80935404B2
:105310008091BB00F0E0EF5CFB4F808390915404E0
:10532000809153049817C8F285E8D8CFE0915404CF
:1053300081E08E0F809354048091BB00F0E0EF5C1D
:10534000FB4F80838091560481115CCF81E0809374
:10535000510484EA8093BC001092570426CF85EC58
:105360008093BC00109257048091D803803230F4AF
:10537000E091D803F0E0E854FC4F10826091D8032C
:1053800070E0E0910A04F0910B0488EB93E009953A
:105390001092D8030ACF1092550434CF1F920F9267
:1053A0000FB60F9211242F933F934F935F936F93F8
:1053B0007F938F939F93AF93BF93EF93FF938091CE
:1053C0006604909167040E94BB1CFF91EF91BF910E
:1053D000AF919F918F917F916F915F914F913F918D
:1053E0002F910F900FBE0F901F9018951F920F9244
:1053F0000FB60F9211242F933F934F935F936F93A8
:105400007F938F939F93AF93BF93EF93FF9380917D
:105410006404909165040E94BB1CFF91EF91BF91C1
:10542000AF919F918F917F916F915F914F913F913C
:105430002F910F900FBE0F901F901895CF930E9441
:10544000C30610928D0410928C0488EE93E0A0E0C5
:10545000B0E080938E0490938F04A0939004B09357
:10546000910489E691E090938B0480938A0480E50F
:105470008093FE041092DE041092DD041092E0048A
:105480001092DF041092E2041092E1041092E304FF
:105490001092E4041092E504809146019091470136
:1054A000A09148018093E6049093E704A093E80458
:1054B0001092E9041092EA041092EB041092EC04AA
:1054C0001092ED041092EE041092EF041092F0048A
:1054D0001092F1041092F2041092F3041092F4046A
:1054E00080E89FEDA7E1B0E18093F5049093F60486
:1054F000A093F704B093F80462E082E00E94F00603
:1055000062E083E00E94F006EDE8FAE0E491F0E06A
:10551000EE0FFF1FEF57F54F859194919093D204B2
:105520008093D104EFE6FAE0E491E093D504EEE84D
:10553000FAE0E491F0E0EE0FFF1FEF57F54F859191
:1055400094919093D4048093D304E0E7FAE0E4913B
:10555000E093D6041092D8041092D9041092DA0481
:105560001092DB0480ED97E00E940C08E091D104DA
:10557000F091D20490818091D504982381E009F4C0
:1055800080E0E091D304F091D40490812091D6047E
:10559000922309F0826021ED34E08093D7043093A8
:1055A000650420936404809169008C7F81608093FE
:1055B0006900E89AC1E0C093DC043093670420934B
:1055C000660480916900837F846080936900E99A12
:1055D00082E08093DC04109299041092980420E8F1
:1055E00030E030939B0420939A0480E290E0909303
:1055F0009D0480939C0430939F0420939E04909379
:10560000A1048093A0041092AC041092A304109201
:10561000A2041092A5041092A404C093AB04C093FA
:10562000AA048FEF9FEF9093A9048093A80490930E
:10563000A7048093A604C093AD041092AE04109208
:10564000B0041092AF048BE791E09093970480939D
:1056500096048AE894E09093B4048093B304109283
:10566000B6041092B5048FEF8093BA048093BB0404
:105670008093BC048093BD048093BE0480E5809336
:10568000CB041092CC0480EA96E8A1E0B0E08093CD
:10569000CD049093CE04A093CF04B093D004109285
:1056A000B2041092B10460E08EE00E94F006EBE7D5
:1056B000FAE0E491E0937C04E9E9FAE0E491F0E0B7
:1056C000EE0FFF1FEF57F54F8591949190937E0455
:1056D00080937D04109287041092890410928804AC
:1056E0001092860410928504109284041092830410
:1056F00010928204109281041092800410927F0410
:105700008CE794E090936F0480936E0410926C0485
:1057100010926D041092680489E080936904C0932C
:105720006A04C0936B0410927B0410927A04CF91A8
:105730000895CF93DF93CDB7DEB760970FB6F89497
:10574000DEBF0FBECDBFF89482E880937A0013E0ED
:1057500014BD15BD80916E00816080936E0081E064
:10576000809380009BE0909381008093B00084E060
:105770008093B1001092C100789460E086E00E94AE
:10578000F006219A209A60E086E00E944B0660E0D5
:1057900089E00E944B06289860E085E00E94F006B0
:1057A00060E087E00E94F00660E085E00E944B0622
:1057B0005F9860E084E00E94F00660E08FE00E9465
:1057C000F00660E080E10E94F006229A249A259A71
:1057D000239A2C982D9860E08BE00E944B065C9AEF
:1057E000109300018091B5049091B604892B11F1BA
:1057F0000E94192220919C0430919D0480919A046A
:1058000090919B04213231050CF0B5C0B901605272
:10581000710977FF02C06F5F7F4F7595679583575A
:10582000910997FD019600E210E023E730E048EC93
:1058300055E0B4C020919C0430919D04C9010796A5
:1058400097FD0796B3E095958795BA95E1F7209176
:105850009A0430919B04AC01429FC001439F900D7C
:10586000529F900D11240E948A3B9093B60480931E
:10587000B504892B09F0BCCF0E9419220E945B1548
:10588000E0916E04F0916F041386158614861286DB
:105890001186108617821682158214821382109246
:1058A0006C0410926D0401E0BE016F5F7F4F809128
:1058B0006E0490916F040E94FD1C882309F428C295
:1058C00067E0CE0101960E94900898858913ECCF7D
:1058D00080916804811128C080916E0490916F04BA
:1058E0000E945809BE016F5F7F4F80916E049091B6
:1058F0006F040E94390940E064EB80916E0490913E
:105900006F040E94050980916E0490916F040E94BB
:10591000A708182F80916E0490916F040E94580977
:10592000111102C0009368041091690489818031CB
:1059300011F40C948938CE0101960E94E709811771
:1059400008F0D5C1809169048093690480916C044A
:105950008F5F80936C048981883239F008F0D1C15F
:10596000803119F0823209F09FCF80916D048F5FF2
:1059700080936D0499CFB9016054710977FF02C01B
:105980006F5F7F4F759567958255910997FD0196D9
:1059900000E410E022E530E048EA57E0959587956D
:1059A0000E94160F82E08093B8048091B304909116
:1059B000B404892B09F49AC08CE38093B7040E9445
:1059C000C3068091BE0487FD1EC061E00E94F00600
:1059D00061E08091BE040E944B0661E070E080E0CF
:1059E00090E00E94390860E08091BE040E944B065E
:1059F0006AE070E080E090E00E94390861E0809108
:105A0000BE040E944B068091B3049091B404892B8C
:105A100009F421C18CE08093B80064E08AEB95E042
:105A20000E94581460919C04615086E994E00E94A1
:105A3000FB1464E086EB95E00E9458148091B80452
:105A400060E1813009F064E186E994E00E94FB1492
:105A500064E082EB95E00E94581480919A04909142
:105A60009B048038910509F021C180919C0490919C
:105A70009D048032910509F005C164E08EEA95E04D
:105A80000E94581469ED86E994E00E94FB1480910D
:105A9000B80462E2813009F061EF86E994E00E9487
:105AA000FB1466E082EA95E00E9458148091B304EA
:105AB0009091B404892B09F410C12091CD04309148
:105AC000CE044091CF045091D00460E074E284EFA2
:105AD00090E00E94DE382051310941095109569564
