:100000000C9452050C94032F0C94DB2E0C947A055F
:100010000C947A050C947A050C947A050C947A0564
:100020000C947A050C947A050C947A050C947A0554
:100030000C947A050C947A050C947A050C947A0544
:100040000C94672D0C947A050C947A050C947A051F
:100050000C947A050C947A050C947A050C947A0524
:100060000C94BC2D0C947A05000103070F1F3F7FF1
:100070000080C0E0F0F8FCFE00000000003E5B4F96
:100080005B3E3E6B4F6B3E1C3E7C3E1C183C7E3CF8
:10009000181C577D571C1C5E7F5E1C00183C180006
:1000A000FFE7C3E7FF0018241800FFE7DBE7FF3096
:1000B000483A060E2629792926407F050507407F04
:1000C00005253F5A3CE73C5A7F3E1C1C08081C1C77
:1000D0003E7F14227F22145F5F005F5F06097F016D
:1000E0007F006689956A606060606094A2FFA29458
:1000F00008047E040810207E201008082A1C080826
:100100001C2A08081E101010100C1E0C1E0C303873
:100110003E3830060E3E0E06000000000000005F74
:1001200000000007000700147F147F14242A7F2A90
:100130001223130864623649562050000807030052
:10014000001C2241000041221C002A1C7F1C2A089E
:10015000083E080800807030000808080808000001
:1001600060600020100804023E5149453E00427F75
:10017000400072494949462141494D331814127FC4
:100180001027454545393C4A494931412111090764
:100190003649494936464949291E000014000000E5
:1001A00040340000000814224114141414140041B7
:1001B00022140802015909063E415D594E7C121174
:1001C000127C7F494949363E414141227F414141AC
:1001D0003E7F494949417F090909013E4141517327
:1001E0007F0808087F00417F41002040413F017F98
:1001F000081422417F404040407F021C027F7F0460
:1002000008107F3E4141413E7F090909063E4151A8
:10021000215E7F09192946264949493203017F0198
:10022000033F4040403F1F2040201F3F4038403F99
:10023000631408146303047804036159494D4300AF
:100240007F4141410204081020004141417F0402E6
:10025000010204404040404000030708002054547D
:1002600078407F284444383844444428384444285B
:100270007F385454541800087E090218A4A49C78AE
:100280007F0804047800447D40002040403D007F0A
:100290001028440000417F40007C047804787C08EA
:1002A0000404783844444438FC18242418182424BE
:1002B00018FC7C08040408485454542404043F44A3
:1002C000243C4040207C1C2040201C3C4030403CD2
:1002D00044281028444C9090907C4464544C440032
:1002E0000836410000007700000041360800020196
:1002F0000204023C2623263C1EA1A161123A404082
:10030000207A3854545559215555794122545478FE
:1003100042215554784020545579400C1E52721297
:100320003955555559395454545939555454580020
:1003300000457C410002457D420001457C407D1224
:1003400011127DF0282528F07C5455450020545486
:100350007C547C0A097F4932494949323A44444431
:100360003A324A4848303A4141217A3A424020786C
:10037000009DA0A07D3D4242423D3D4040403D3C6D
:1003800024FF2424487E4943662B2FFC2F2BFF0992
:1003900029F620C0887E0903205454794100004486
:1003A0007D413048484A32384040227A007A0A0A71
:1003B000727D0D19317D2629292F282629292926E4
:1003C00030484D4020380808080808080808382F29
:1003D00010C8ACBA2F102834FA00007B00000814B3
:1003E0002A142222142A14085500550055AA55AA89
:1003F00055AAFF55FF55FF000000FF00101010FF29
:1004000000141414FF001010FF00FF1010F010F083
:10041000141414FC001414F700FF0000FF00FF1474
:1004200014F404FC141417101F10101F101F1414C0
:10043000141F00101010F0000000001F101010100A
:100440001F10101010F010000000FF1010101010FE
:1004500010101010FF10000000FF140000FF00FF3C
:1004600000001F10170000FC04F4141417101714D8
:1004700014F404F40000FF00F714141414141414FA
:10048000F700F7141414171410101F101F1414146D
:10049000F4141010F010F000001F101F0000001FD7
:1004A00014000000FC140000F010F01010FF10FF0A
:1004B000141414FF141010101F00000000F010FF9F
:1004C000FFFFFFFFF0F0F0F0F0FFFFFF0000000083
:1004D00000FFFF0F0F0F0F0F3844443844FC4A4A07
:1004E0004A347E02020606027E027E0263554941BC
:1004F000633844443C04407E201E2006027E0202F3
:1005000099A5E7A5991C2A492A1C4C7201724C3006
:100510004A4D4D303048784830BC625A463D3E49DD
:100520004949007E0101017E2A2A2A2A2A44445F81
:10053000444440514A444040444A51400000FF0175
:1005400003E080FF000008086B6B08361236243683
:10055000060F090F060000181800000010100030E8
:1005600040FF0101001F01011E00191D1712003C70
:100570003C3C3C0000000000005EBCE2613FDD83CB
:10058000C29C7E20A3FD1F41009D23BE46DB65F873
:100590008C11AF32CA57E974000000002400270014
:1005A0002A00DB40A4A62EAFDA0281DA1281DA0239
:1005B000818F2000A1C8D300408DAED580A8000057
:1005C0000000250028002B00000060000000000053
:1005D000000000000000000000E00000000000003B
:1005E0000000000000000001E0000000000000002A
:1005F00000000000000001F000000000000000000A
:10060000000000000003F0000000000000000000F7
:100610000000000007F000000000000000000000E3
:1006200000000007F80000000000000000000000CB
:1006300000000FF800000003C0007E000001E00091
:100640007F0FF800000003C000FE000001E000FF83
:10065000EFF800000003C000FE000001E000FFFF13
:10066000F800000003C000F00000000F007FFE7FD4
:10067000C0000003C000F00000000F003FFE7FF844
:100680003FF1FBCFFCFEF3BC3DEFE01FFE7FFF7FA1
:10069000FBFFDFFEFEFFBC3DEFE01FC6FFFF7FFB61
:1006A000FFDFFEFEFFBC3DEFE00FE3C7FE787BC33C
:1006B000DE1EF0FFBC3DEF0007FF87FC787BC3DE4A
:1006C0001EF0F83C3DEF0001FFFFF0007BC3C01EB1
:1006D000F0F03C3DEF0001F37FE03FFBC3CFFEF0C5
:1006E000F03C3DEF0003E33F807FFBC3DFFEF0F013
:1006F0003C3DEF0007E73C00787BC3DE1EF0F03C9A
:100700003DEF0007FFBE00787BC3DE1EF0F03C3DEE
:10071000EF0007FFFE00787BC3DE1EF0F03C3DEFEC
:10072000000FFFFE007FFBFFDFFEF0F03FFDEFE07C
:100730000FFFFF007FFBFFDFFEF0F03FFDEFE00F5C
:10074000F9FF003E79F9CF9EF0F01F3DE7E01FF181
:10075000FF0000000000000000000000001F80FFFC
:10076000007FFFFFFFFFFFFFFFFFFFE01C007F0098
:100770007FFFFFFFFEB46D888D18E000001F007F33
:10078000FFFFFFFE95AD7DB577E000000F007FFF16
:10079000FFFFFEA5AD9D8D19E0000006007FFFFF65
:1007A000FFFEB5ADEDB57EE0000000000001800069
:1007B00000000000000000000380000000000000B6
:1007C00000000007C000000000000000000007C09B
:1007D0000000000000000000000FC000000000004A
:1007E000000000001FE00000000000000000001FEB
:1007F000E00000000000000000003FE000000000FA
:1008000000000000003FF0000000000000000000B9
:100810007FF0000000000000001FF87FF0000000E3
:10082000000000003FFE7FF0000000000000003FDD
:10083000FF7FF0000000000000001FFFFBE0000051
:1008400000000000000FFFF9FFC0000000000000E2
:100850000FFFF9FFF800000000000007FFF1FFFFA5
:1008600000000000000003FC73FFFF800000000098
:100870000001FE3FFFFF80000000000000FF1E0F90
:10088000FF000000000000007FFE1FFC00000000D1
:100890000000003FFFFFF8000000000000000FDF35
:1008A000FFE0000000000000001F19FFC000000072
:1008B000000000003F3CFF00000000000000007E40
:1008C0007CF800000000000000007FFE7C000000BB
:1008D0000000000000FFFFFC00000000000000001E
:1008E000FFFFFE0000000000000000FFFFFE000010
:1008F000000000000001FFEFFE000000000000000B
:1009000001FFCFFE0000000000000003FF07FE0013
:1009100000000000000003FC07FE000000000000D3
:100920000003F003FE00000000000000018000FE54
:10093000000000000000000000007E000000000039
:1009400000000000003E0000000000000000000069
:100950000C000000000000078000FC000003C00045
:100960000000078001FC000003C0000000078001B8
:10097000FC000003C0000000078001E00000001E32
:10098000000000078001E00000001E007FE3F79FE9
:10099000F9FDE7787BDFC0FFF7FFBFFDFDFF787B48
:1009A000DFC0FFF7FFBFFDFDFF787BDFC0F0F787FB
:1009B000BC3DE1FF787BDE00F0F787BC3DE1F078DD
:1009C0007BDE0000F787803DE1E0787BDE007FF78B
:1009D000879FFDE1E0787BDE00FFF787BFFDE1E068
:1009E000787BDE00F0F787BC3DE1E0787BDE00F04D
:1009F000F787BC3DE1E0787BDE00F0F787BC3DE1A6
:100A0000E0787BDE00FFF7FFBFFDE1E07FFBDFC0AA
:100A1000FFF7FFBFFDE1E07FFBDFC07CF3F39F3D0D
:100A2000E1E03E7BCFC000000000000000000000BD
:100A300000FFFFFFFFFFFFFFFFFFFFC0FFFFFFFF04
:100A4000FD68DB111A31C0FFFFFFFFFD2B5AFB6A67
:100A5000EFC0FFFFFFFFFD4B5B3B1A33C0FFFFFF03
:100A6000FFFD6B5BDB6AFDC02200FF210001020479
:100A70000810204080010204081020010204081020
:100A800020000000002300260029000404040404C0
:100A9000040404020202020202030303030303002C
:100AA0002B2F683611241FBECFEFD8E0DEBFCDBF9D
:100AB00024E0AEE2B3E001C01D92AD3CB207E1F725
:100AC00013E0A0E0B1E0E8E1F5E702C005900D9287
:100AD000AE32B107D9F715E0C1E5D5E004C02197E2
:100AE000FE010E944537C035D107C9F70E94A630E4
:100AF0000C947F3A0C94000091E090932D04809325
:100B00002C0410922B0410922A0408959091210431
:100B10009111FCCF91E090932104909320042FEF4A
:100B200020931F0410921E04260F20931D049093FF
:100B30001C0490911C04880F892B80931C048091C5
:100B40001B04813011F510921B0480911C048093CA
:100B5000BB008091BC0083FDF8CF85EC8093BC0086
:100B6000809121048130E1F380911E04861710F4F6
:100B700060911E042BEF33E0ABEDB3E0F9018E2F53
:100B8000821B861720F0862F089585EEE7CF81918E
:100B90008D93F5CF8F929F92AF92BF92CF92DF92BB
:100BA000EF92FF92CF93611571058105910521F4B4
:100BB00061E070E080E090E024E0660F771F881F1E
:100BC000991F2A95D1F76115710521E082079105DA
:100BD00008F44EC06115710528E08207910508F4FC
:100BE0004BC06115710520E48207910508F048C0EB
:100BF00020E430E0C3E06901F12CE12CA7010E9460
:100C0000B03849015A0180918000807F8093800034
:100C1000C861C0938100C9010197909387008093B8
:100C200086008091810087708093DA0360E074E22F
:100C300084EF90E0A70196010E948638AA24BB2485
:100C4000CA01B901A50194010E94863860E472E4EA
:100C50008FE090E00E94B038CA01B901CF91FF90B7
:100C6000EF90DF90CF90BF90AF909F908F900895BE
:100C700021E030E0C1E0BFCF28E030E0C2E0BBCFF0
:100C800020E031E0C4E0B7CF8091D8039091D90340
:100C9000891B990B089508950895482FE62F282F52
:100CA00030E0863009F459C000F58330E1F1853039
:100CB00009F44FC04830E0F14E3010F1443108F0F3
:100CC00063C02E50310981E090E0A0E0B0E004C0A4
:100CD000880F991FAA1FBB1F2A95D2F728B1EE23B0
:100CE00009F44FC0822B88B908958A30C9F18B303E
:100CF000D9F18930F9F6809180008F778093800058
:100D00002850310981E090E0A0E0B0E004C0880FF5
:100D1000991FAA1FBB1F2A95D2F7E1112EC025B13A
:100D2000809582232CC09091B0009F7D9093B0005D
:100D300081E090E0A0E0B0E004C0880F991FAA1FF6
:100D4000BB1F4A95D2F72BB1EE23A1F0822B8BB9B2
:100D5000089594B59F7D94BDEBCF94B59F77FBCF5D
:100D6000809180008F7DCACF8091B0008F77809373
:100D7000B000C6CF80958223EACF25B1822B85B9FA
:100D8000089580958223AFCF08951092D9031092D1
:100D9000D80310922B0410922A041092210481E0AF
:100DA0008093200410921B04449A459AE9EBF0E0EA
:100DB00080818E7F808380818D7F808388E4809393
:100DC000B80085E48093BC008BE496E09093D70351
:100DD0008093D6038CE496E09093D5038093D4035C
:100DE00008950895CF92DF92EF92FF920F931F9391
:100DF000613009F45BC0623009F490C08830C8F4F7
:100E00009AB141E050E060E070E004C0440F551F2B
:100E1000661F771F8A95D2F7409594239AB98BB1B4
:100E200048234BB91F910F91FF90EF90DF90CF9027
:100E300008958E30B0F424B1082F0850110B81E0D2
:100E400090E0A0E0B0E004C0880F991FAA1FBB1F6C
:100E50000A95D2F78095282324B995B1892385B9BD
:100E6000E1CF8431F8F6E7B190E09C012E503109D2
:100E700041E050E060E070E06A017B0104C0CC0C0E
:100E8000DD1CEE1CFF1C2A95D2F7860100950E236F
:100E900007B928B1089704C0440F551F661F771F74
:100EA0008A95D2F74095422348B9BCCF883078F470
:100EB0009AB141E050E060E070E004C0440F551F7B
:100EC000661F771F8A95D2F7942B9AB9ABCF8E30D5
:100ED00088F424B18850990B41E050E060E070E064
:100EE00004C0440F551F661F771F8A95D2F7242B25
:100EF00024B998CF843108F095CF27B18E50990B43
:100F000041E050E060E070E004C0440F551F661FF0
:100F1000771F8A95D2F7242B27B984CF8830B8F46D
:100F20003AB141E050E060E070E07A018B0104C02A
:100F3000EE0CFF1C001F111F8A95D2F7C7012E2D42
:100F4000209523232AB92BB1822B8BB96BCF8E30FE
:100F5000B0F434B1082F0850110B81E090E0A0E00C
:100F6000B0E004C0880F991FAA1FBB1F0A95D2F7D3
:100F7000282F2095232324B925B1822B70CF8431CB
:100F800008F050CF37B1682F6E50770B81E090E0BA
:100F9000A0E0B0E004C0880F991FAA1FBB1F6A958C
:100FA000D2F7282F2095232327B928B1822B88B97F
:100FB00039CFCF92DF92EF92FF920F931F93CF938F
:100FC000DF937C016A0110E000E00C151D0581F043
:100FD000EB01D701ED91FC910190F081E02D699139
:100FE000C7010995892B21F00F5F1F4FBE01EDCF7F
:100FF000C801DF91CF911F910F91FF90EF90DF908B
:10100000CF900895880F991F880F991F0597019712
:10101000F1F708953FB7F8948091AF039091B00332
:10102000A091B103B091B20326B5A89B05C02F3F94
:1010300019F00196A11DB11D3FBFBA2FA92F982FFE
:101040008827BC01CD01620F711D811D911D42E0F9
:10105000660F771F881F991F4A95D1F708958F92C1
:101060009F92AF92BF92CF92DF92EF92FF926B016D
:101070007C010E940A084B015C01C114D104E10407
:10108000F104B9F00E940A08681979098A099B09D4
:10109000683E73408105910580F381E0C81AD1084C
:1010A000E108F10828EE820E23E0921EA11CB11C7B
:1010B000E4CFFF90EF90DF90CF90BF90AF909F90E4
:1010C0008F9008952FB7F8946091AB037091AC03A3
:1010D0008091AD039091AE032FBF089520910A0136
:1010E00090E4299F900111248E50822B80937C00E4
:1010F00080917A00806480937A0080917A0086FDE6
:10110000FCCF80917800909179000895E0E06150E3
:1011100098F0DC018D918E27E82FEF70F0E0E85811
:10112000FA4F9491E82FE295EF70F0E0E857FA4F0C
:10113000E491E927CD01EBCF8E2F08950F931F93F4
:10114000CF93DF93FC011081C181D281F894898112
:10115000812B89838A81012F009580238A8383E0F4
:1011600090E00E9402088981802389838AE090E0D0
:101170000E940208C881789485E390E00E940208EA
:10118000C12381E009F480E0DF91CF911F910F919D
:1011900008951F93CF93DF93FC011081C181D28109
:1011A000912F909560FF16C0F8948A8189238A83D5
:1011B0008981812B89838AE090E00E9402088A81DC
:1011C000182B1A83789487E390E0DF91CF911F91D9
:1011D0000C940208F8948A8189238A838981812B5F
:1011E000898381E490E00E9402088A81182B1A8387
:1011F000789485E090E0E9CFDF92EF92FF920F9331
:101200001F93CF93DF93EC01D62EE42E08E010E07D
:10121000FF24F39461E08D2D8F2109F460E0CE016D
:101220000E94C908FF0C01501109A1F7E11010C07C
:10123000F894E981FA81918188818095892381835D
:10124000E981FA81928188818095892382837894CB
:10125000DF91CF911F910F91FF90EF90DF90089554
:10126000EF92FF920F931F93CF93DF938C017B013B
:1012700040E065E50E94FC08E70188E0E80EF11C0B
:10128000699140E0C8010E94FC08CE15DF05C1F756
:10129000DF91CF911F910F91FF90EF900895FF92F2
:1012A0000F931F93CF93DF93FC010081C181D28103
:1012B000F8948981F02EF0948F21898378941DE72A
:1012C000115029F182E090E00E9402088881802379
:1012D000B9F3F8948A818F218A838981802B89834D
:1012E000789480EE91E00E940208F89489818F2121
:1012F000898386E490E00E9402088881082311E037
:1013000009F010E078948AE991E00E940208812FA8
:10131000DF91CF911F910F91FF900895AF92BF92EF
:10132000CF92DF92EF92FF920F931F93CF93DF93B1
:101330008B01BC0180913804909139040E943009DE
:1013400040E06EEB80913804909139040E94FC08D3
:10135000E801680189E0C80ED11CA0903804B09063
:10136000390488E0E82EF12C10E001E0C5010E946C
:101370009E088111102B000F81E0E81AF108B1F7E7
:101380001993CC16DD0649F7809138049091390401
:101390000E944F0991E0813009F090E0892FDF91A0
:1013A000CF911F910F91FF90EF90DF90CF90BF9062
:1013B000AF9008950F931F93CF93DF93CDB7DEB710
:1013C00029970FB6F894DEBF0FBECDBF8C01FC018C
:1013D0008081803181F180913804909139040E949C
:1013E0004F0981110CC080E029960FB6F894DEBF3A
:1013F0000FBECDBFDF91CF911F910F910895BE0118
:101400006F5F7F4FC8010E948E09882361F368E0F7
:10141000CE0101960E94860899858913E4CF8D81BB
:101420008F3359F020F48F31F1F689E0DDCF8F351D
:1014300031F08F37C1F68CE0D7CF8AE0D5CF8BE083
:10144000D3CF0895FC016370668B848195812681DA
:101450003781623021F0633039F0613029F09187B3
:1014600080873387228708953187208793878287F3
:1014700008952F923F924F925F926F927F928F9238
:101480009F92AF92BF92CF92DF92EF92FF920F9313
:101490001F93CF93DF93CDB7DEB76A970FB6F8945B
:1014A000DEBF0FBECDBF9A8F898F7A8369834A01D1
:1014B000D22E18870F833701BC2CDC0159962D9151
:1014C0003C915A972115310509F015C118968D9157
:1014D0009C911997681779070CF0D7C11A968D91CE
:1014E0009C91481759070CF0D0C14C2C512CB6E0F8
:1014F000CB9E600D711D11247C876B871616170615
:101500000CF0C3C1EA2DF0E0FA87E98793E0EE0F13
:10151000FF1F9A95E1F7F88BEF87CF01840F951F96
:10152000181619060CF0B1C1A98DBA8D58968C9178
:10153000811104C0BFEABD1508F4D394A98DBA8DFA
:10154000ED91FC9111970284F385E02DCD01099571
:10155000B5E0DB9EC0011124E981FA81FC83EB83B5
:10156000312C212C9C0128583F4F388F2F8B4A2D2E
:1015700050E05E8B4D8BEF89F88DE20DF31D4491A9
:101580009E828D82D12CC12C69817A81620D731D5E
:101590007A8B698B842F90E09C8B8B8BE98DFA8DF5
:1015A000A081B18140FF82C0F1E0BF126FC0AF12D5
:1015B0006DC01C96ED91FC912F813885A4014C0DD6
:1015C0005D1D69897A89898D9A8D0995EB89FC89D8
:1015D000F595E7954E2F5FEFC51AD50A6D817E818F
:1015E0008D899E89680F791F7E836D8398E0C91667
:1015F000D10481F6AFEF2A1A3A0AEB81FC81E40D9F
:10160000F51DFC83EB83F5E02F16310409F0B3CF11
:101610002F81388526153705B9F0A98DBA8DED9142
:10162000FC91B1E0BB1257C0AB1255C069817A8101
:101630006B5F7F4F0088F189E02D830128E030E067
:10164000A401898D9A8D0995A98DBA8DED91FC9192
:1016500011970688F789E02DCD016A960FB6F894A8
:10166000DEBF0FBECDBFDF91CF911F910F91FF90D5
:10167000EF90DF90CF90BF90AF909F908F907F9032
:101680006F905F904F903F902F9009941E96ED9130
:10169000FC91EF80F88409851A8592014D815E8165
:1016A0006B817C81898D9A8D099590CF2F813885AA
:1016B0002615370509F48ACF31E0B31207C0A3120B
:1016C00005C01C96ED91FC91930178CF1E96ED918B
:1016D000FC917301E0CF6B857C85641975090684E4
:1016E000F785E02D73010F8518899201A401898D7A
:1016F0009A8D0995A9CFF901349694913297459125
:101700005491D91AB7E0DB9E400D511D1124F90107
:10171000259134913C8B2B8BFA0125903490FA0162
:101720003296749031963491398B3296649031961A
:10173000449041E04C1518F04A1508F07FC0662D22
:10174000062C000C770B7C836B83842D042C000CFF
:10175000990B9E838D83A98DBA8DED91FC91119784
:101760000284F385E02DCD010995512CD12CC12C9B
:10177000EA2DF0E0FA87E9872B2D30E03C872B87B4
:10178000A401440D511D47FC5A95588F4F8B698118
:101790007A81660D711D67FC7A957E876D877989E0
:1017A000C71608F051CF2C2D30E04D815E81420FDD
:1017B000531FA985BA854A9FC0014B9F900D5A9F20
:1017C000900D1124FC01E80DF91DF88BEF87852D94
:1017D000612C4F89588D420F531F5E8B4D8B6714C0
:1017E00008F050C044244394480E877041F4C1016E
:1017F0000196EB89FC89E20DF31DD4901C01D7FE04
:1018000019C0A98DBA8DED91FC91662D70E0B1E003
:10181000BB1219C0AB1217C02D853E85620F731F16
:101820000484F585E02D2F8138854D895E89898D69
:101830009A8D0995DD0C6394842DD1CF1E821D8273
:101840001C821B8288CF4B815C81640F751FAB8526
:10185000BC856A9FC0016B9F900D7A9F900D1124EB
:1018600069817A81680F791F0684F785E02DEF8002
:10187000F88409851A859D014F855889898D9A8D2F
:101880000995D8CF570CC3948ACF6A960FB6F894AF
:10189000DEBF0FBECDBFDF91CF911F910F91FF90A3
:1018A000EF90DF90CF90BF90AF909F908F907F9000
:1018B0006F905F904F903F902F9008958F929F92DE
:1018C000AF92CF92EF92FF920F931F93CF93DF933C
:1018D000EC01262F898D9A8D009709F051C06A304E
:1018E000D1F41D861C868D8948E0849F90011124C7
:1018F0008E859F85820F931F9F878E8781E090E062
:10190000DF91CF911F910F91FF90EF90CF90AF900B
:101910009F908F9008956D3089F3CC88AD888F8922
:101920008823C1F08C859D8536E0C39E800D911D76
:101930001124488559854817590764F44E855F85F9
:101940001D861C8638E0A39EC0011124840F951FBC
:101950009F878E87EA88FB88088919894E855F856D
:101960006C857D85CE010E94390A2C898C859D85E8
:1019700046E0249F800D911D11249D878C87BECF4A
:101980006A3069F41D861C86FC013896E4912D8925
:101990008E859F85E29F800D911D1124ADCF6D3006
:1019A00009F4ACCFFC0134963491631708F4A6CF48
:1019B0003296E491E61708F4A1CFFC0132968590A7
:1019C0009490462F431B342F47E0349F800C911C8A
:1019D0001124F401329634913196E4913323A9F124
:1019E000EE2399F1CC88F4013596E491AD884F89C6
:1019F000442301F10E2E000CFF0BE30FF11DCE9ED0
:101A0000A001CF9E500D11246C857D85460F571F78
:101A100068857985641775076CF44E855F851D862A
:101A20001C86FC013896E491AE9E400D511D112498
:101A30005F874E87EA88FB88088919894E855F850C
:101A40006C857D85CE010E94390AF4013496E491BB
:101A50002C898C859D85E29F800D911D11248DCF51
:101A6000682F80E694E00C945E0C6F927F928F92C8
:101A70009F92AF92BF92CF92DF92EF92FF920F931D
:101A80001F93CF93DF93EC016B015A013901480199
:101A9000E881F9810284F385E02D0995E881F981D7
:101AA0000288F389E02D87019301A501B601CE01DB
:101AB0000995A501480D591D41505109E881F98149
:101AC0000288F389E02D9301B601CE010995E881E2
:101AD000F9810088F189E02D9401A501B601CE01BC
:101AE0000995C60CD71CB60161507109E881F981CE
:101AF0000088F189E02D9401A501CE010995E881C6
:101B0000F9810688F789E02DCE01DF91CF911F91F1
:101B10000F91FF90EF90DF90CF90BF90AF909F908C
:101B20008F907F906F9009948F929F92AF92BF9207
:101B3000CF92DF92EF92FF920F931F93CF93DF9399
:101B40004C016B015A01E901DC01ED91FC91621736
:101B5000730709F50417150724F48B2D5801042F7A
:101B6000182F0A191B0998012F5F3F4F048CF58D20
:101B7000E02D8701A501B601C4010995DF91CF9140
:101B80001F910F91FF90EF90DF90CF90BF90AF909B
:101B90009F908F9008954017510781F426173707BB
:101BA00024F48D2D6901C62FD82F9E012C193D09D3
:101BB0002F5F3F4F068CF78DE02DDBCF0284F3853E
:101BC000E02D0995D401ED91FC910488F589E02D73
:101BD0009E01A501B601C4010995D401ED91FC91C6
:101BE0000688F789E02DC401DF91CF911F910F91F5
:101BF000FF90EF90DF90CF90BF90AF909F908F902D
:101C00000994EF92FF920F931F93DC011A960D91A6
:101C10001C911B9718962D913C911997ED91FC9171
:101C200000A0F1A1E02D7B0150E040E070E060E019
:101C300009951F910F91FF90EF9008954F925F9239
:101C40006F927F928F929F92AF92BF92CF92DF92CC
:101C5000EF92FF920F931F93CF93DF936C012B01B1
:101C60005A0139014801DC01ED91FC910284F385B0
:101C7000E02D0995E201640C751CD601ED91FC91F3
:101C8000C615D7055CF40088F189E02D8701940121
:101C9000A501BE01C60109952196EFCF0688F789F7
:101CA000E02DC601DF91CF911F910F91FF90EF9032
:101CB000DF90CF90BF90AF909F908F907F906F906C
:101CC0005F904F9009948F929F92AF92BF92CF9264
:101CD000DF92EF92FF920F931F93CF93DF93EC016C
:101CE0005B014A016901E881F9810284F385E02DF5
:101CF000099595012C0D3D1D21503109E881F9818F
:101D00000488F589E02D78018401A401B501CE0194
:101D10000995E881F9810688F789E02DCE01DF91E8
:101D2000CF911F910F91FF90EF90DF90CF90BF90D8
:101D3000AF909F908F9009948F929F92AF92BF9295
:101D4000CF92DF92EF92FF920F931F93CF93DF9387
:101D5000EC015B014A0169017801E881F9810284A3
:101D6000F385E02D0995C80CD91C86010150110995
:101D7000E881F9810488F589E02D9501A401B50178
:101D8000CE010995E881F9810688F789E02DCE0119
:101D9000DF91CF911F910F91FF90EF90DF90CF9047
:101DA000BF90AF909F908F900994EF92FF920F9306
:101DB0001F93DC01ED91FC9100A0F1A1E02D0995AC
:101DC0001F910F91FF90EF9008950F931F93DC01E7
:101DD000ED91FC91068CF78DE02D09951F910F91E7
:101DE00008950F931F93DC01ED91FC91048CF58D08
:101DF000E02D09951F910F910895DC01ED91FC9163
:101E00000084F185E02D09943F924F925F926F928A
:101E10007F928F929F92AF92BF92CF92DF92EF927A
:101E2000FF920F931F93CF93DF935C017B014A01D5
:101E30006901390187E0680E711C93E0759467941D
:101E40009A95E1F72B01400E511E10E000E0312C75
:101E5000D0E0C0E0CE0187709927330C892B59F46C
:101E6000FE0183E0F595E7958A95E1F7E00FF11F14
:101E7000E80DF91D349037FE0AC021E030E0A701DB
:101E8000B5016C0F7D1F80E694E00E94FD0E219647
:101E9000CC16DD06F9F68FEFE81AF80A060D171DC5
:101EA000E414F504A9F6DF91CF911F910F91FF90F3
:101EB000EF90DF90CF90BF90AF909F908F907F90EA
:101EC0006F905F904F903F9008952F923F924F9266
:101ED0005F926F927F928F929F92AF92BF92CF92BA
:101EE000DF92EF92FF920F931F93CF93DF9300D077
:101EF00000D000D0CDB7DEB72C017E836D836A01A0
:101F00005901C801FC82EB824801841A950A97FEA8
:101F100003C091948194910835012D813E81621A0C
:101F2000730A77FE03C07194619471086814790490
:101F30005CF43A2D2B2D5C01832F922F3D812E8155
:101F4000DE82CD82C32ED22EAD81BE81AA16BB0603
:101F50005CF43C2D2D2D6C01832F922F3D812E8121
:101F6000BE82AD82A32EB22E85012D813E81021B41
:101F7000130B1C012C183D0837FE03C0319421942B
:101F80003108780117FF03C03FEFE31AF30AF59415
:101F9000E794C816D90664F18FEF9FEF9A8389837F
:101FA0002D813E81A216B30644F1D201ED91FC9140
:101FB0000484F585E02D2B813C814D815E81B60145
:101FC000681479041CF0A6016D817E81C201099517
:101FD000E218F308F7FE06C029813A81C20ED31E2B
:101FE000E00EF11E8D819E8101969E838D83D8CF58
:101FF000A1E0B0E0BA83A983D3CF26960FB6F894B8
:10200000DEBF0FBECDBFDF91CF911F910F91FF902B
:10201000EF90DF90CF90BF90AF909F908F907F9088
:102020006F905F904F903F902F90089585ED809333
:10203000BC008091BC0084FDFCCF10922104089567
:1020400020918703260F3327331F21323105ECF40B
:1020500020912104FC0190E080E0243069F082E0CE
:102060000895A09187032191AC0149595C4FA40FB9
:10207000B52FB11D2C930196861798F38091870395
:10208000680F6093870380E0089581E00895E091F0
:10209000D9038091D803E81730F4F0E0E552FC4F03
:1020A000808190E008958FEF9FEF08959091D9037C
:1020B0008091D8032FEF3FEF981748F4E92FF0E015
:1020C000E552FC4F208130E09F5F9093D903C90116
:1020D0000895CF92DF92EF92FF920F931F93CF93C9
:1020E000DF937C01CB018A0120912D04222389F00A
:1020F000EB016B01C40ED51ECC15DD0569F06991AD
:10210000D701ED91FC910190F081E02DC701099577
:10211000F3CF642F0E942010C801DF91CF911F914F
:102120000F91FF90EF90DF90CF900895CF93DF93C2
:102130000F92CDB7DEB7698320912D042223F9F0E9
:1021400020912A04203258F021E030E0FC01338352
:10215000228390E080E00F90DF91CF9108958091ED
:102160002B04E82FF0E0E95BFC4F998190838F5FAF
:1021700080932B0480932A0481E090E0ECCF61E00F
:10218000CE0101960E942010F7CF682F84E594E0DD
:102190000C94961020912A0481E0213208F046C068
:1021A000809121048111FCCF90912C0432E0309376
:1021B000210431E0309320043FEF30931F0410924C
:1021C0001E0420931D0447E453E0ABEFB3E0FA0193
:1021D0003E2F341B321788F110921C0420911C04EE
:1021E000990F922B90931C0490911B04913041F510
:1021F00010921B0490911C049093BB009091BC0022
:1022000093FDF8CF95EC9093BC009091210492300F
:10221000E1F390911F049F3F49F080911F048032A9
:1022200089F080911F04803379F084E010922B04B0
:1022300010922A0410922D04089531913D93C8CF35
:1022400095EEE1CF82E0F2CF83E0F0CFCF9388E646
:102250000E947C0560E084E594E00E94961060E8AE
:1022600084E594E00E94961080912304CAE06C2FCC
:102270000E9487368295807F682F690F84E594E0FD
:102280000E949610809124046C2F0E9487368295BC
:10229000807F682F690F84E594E00E9496108091FA
:1022A00025046C2F0E9487368295807F682F690FE6
:1022B00084E594E00E949610809126046C2F0E9481
:1022C00087368295807F682F690F84E594E00E94AD
:1022D0009610809127046C2F0E9487368295807F0C
:1022E000682F690F84E594E00E949610809128047D
:1022F0008E516C2F0E9487368295807F682F690FE0
:1023000084E594E00E94961084E594E00E94CA104F
:10231000882329F01092290480E0CF91089581E06C
:102320008093290488E60E947C0560E084E594E0BF
:102330000E949610809122046C2F0E94873682950D
:10234000807F682F690F84E594E00E94961084E5F1
:1023500094E00E94CA108111DDCF81E0DECFBF92F0
:10236000CF92DF92EF92FF920F931F93CF93DF9361
:102370008C017B01E40EF51EEB01B99068018FEF33
:10238000C81AD80A8091C8040E947C05812F90E069
:102390000E94C510C80199270E94C5106B2D84E5C5
:1023A00094E00E94961084E594E00E94CA106AE0CE
:1023B00070E080E090E00E942F08BE018601CE15FB
:1023C000DF05D1F6DF91CF911F910F91FF90EF9034
:1023D000DF90CF90BF9008950F931F93CF93DF931B
:1023E000EC01EC81FD816E177F070CF073C0DA0100
:1023F000A20FB31F57FF03C09D0150E040E08E8144
:102400009F818A179B071CF49C01241B350B121615
:1024100013060CF05FC0922F842F869586958695C3
:102420008E9FD0018F9FB00D1124A60FB71F6F8D07
:1024300078A1A60FB71F477059F188E0841B482F79
:10244000682F70E0FB01E059FF4FE491281708F076
:1024500065C0621B71092FEF30E002C035952795EA
:102460006A95E2F7E2230130110549F001151105E3
:10247000B1F10230110571F58C91E82702C08C9101
:10248000E82BEC93941730F12C813D81A20FB31F00
:10249000E92FE41BE83078F00230110521F58E2F8A
:1024A0009C9190959C932C813D81A20FB31F8850E5
:1024B0008830B0F7E770EE2369F0F0E0E859FF4F9D
:1024C000E49101301105F9F00115110501F1023017
:1024D000110509F1DF91CF911F910F910895E095BA
:1024E0008C91E823CECF81E00115110509F480E03D
:1024F00081959E2F8C932C813D81A20FB31F985004
:102500009830C0F7D7CF8C91E82BEC93E3CFE095D0
:102510008C91E823FACF8C91E827F7CF0130110591
:1025200009F4ADCF01151105D1F20230110509F4FE
:10253000A3CFAACF0F931F93CF93DF93FB01E20F9B
:10254000F31F77FF03C09F0170E060E0DC01149689
:10255000CD91DC91CE17DF071CF49E01261B370BB3
:10256000121613065CF5FA0157FD3796A3E0F595B0
:10257000E795AA95E1F7EC9FD001ED9FB00DFC9F88
:10258000B00D11246A0F7B1FDC015F96ED91FC9169
:10259000E60FF71F4770552781E090E001C0880FD4
:1025A0004A95EAF7482F0130110569F00115110528
:1025B000A9F02E0F3F1F02301105E1F0DF91CF91FE
:1025C0001F910F9108952E0F3F1FE217F307B1F3EC
:1025D000DF018D91842B8083FD01F7CF80952E0F35
:1025E0003F1F2E173F0751F3DF019D9198239083E2
:1025F000FD01F7CFE217F30709F3DF018D9184277F
:102600008083FD01F7CF0F931F93FA01DC015696EB
:102610004C9156974230E9F04330A1F1413061F5D9
:1026200014964D915C91DA01AE1BBF0BFD01E21BCC
:10263000F30B77FD0BC0DC0116964D915C9164178E
:10264000750724F4AB01BF010E949A121F910F91EC
:10265000089514964D915C91DA01A61BB70BBD014C
:1026600061507109DC0116964D915C91DA01AE1B47
:10267000BF0BFD01E21BF30B77FDE8CFAF010E941A
:10268000EC11E4CF16964D915C91DA01A61BB70BC5
:10269000BD0161507109CDCF0F931F93FA01DC0189
:1026A00056964C9156974230A9F0433091F1413003
:1026B00019F514964D915C91DA01AE1BBF0BFD012B
:1026C0003197F7FD04C0AB01BF010E94EC111F91CF
:1026D0000F91089514964D915C91DA01A61BB70BEA
:1026E000BD01DC0116964D915C91DA01AE1BBF0B6A
:1026F000FD013197621B730BF7FDE9CFDC011696E4
:102700004D915C91E417F50714F7AF010E949A12FE
:10271000DECF16964D915C91DA01A61BB70BBD0179
:10272000621B730BCECFFC0177FD66C0808591855F
:10273000681779070CF060C057FD5EC082859385ED
:10274000481759070CF058C086898230C1F0833091
:1027500039F1813041F484819581841B950BAB0163
:10276000BC01615071092130310519F12115310584
:1027700009F443C02230310509F463C0089584810F
:102780009581DC01A61BB70BBD01615071098681E3
:102790009781DC01A41BB50BAD0141505109E3CF7A
:1027A00086819781861B970BBA01AC014150510974
:1027B000DACFCA0157FD0796A3E095958795AA95AC
:1027C000E1F7A481B5818A9F90018B9F300D9A9F7C
:1027D000300D1124620F731F078CF0A1E02DE60F5E
:1027E000F71F4770552721E030E001C0220F4A95BE
:1027F000EAF78081822B80830895CA0157FD0796EE
:1028000033E0959587953A95E1F7A481B5818A9F44
:1028100090018B9F300D9A9F300D1124620F731F12
:10282000078CF0A1E02DE60FF71F4770552781E0D8
:1028300090E001C0880F4A95EAF78095908189233E
:10284000DACFCA0157FD079623E0959587952A951B
:10285000E1F7A481B5818A9F90018B9F300D9A9FEB
:10286000300D1124620F731F078CF0A1E02DE60FCD
:10287000F71F4770552721E030E001C0220F4A952D
:10288000EAF780818227B7CF08958EBD00000DB48E
:1028900007FEFDCF8EB50895FF920F931F93CF9340
:1028A000DF93F82ED92FC62F80917D0490917E045E
:1028B000892B09F447C0809181040E947C05809196
:1028C0007D0490917E04DC01ED91FC910190F081FA
:1028D000E02D60E009950F2D1D2FD1E0C1508091B2
:1028E0007D0490917E04CF3F31F1D03298F00E9468
:1028F000CA10809181040E947C0580917D04909192
:102900007E04DC01ED91FC910190F081E02D60E00E
:102910000995D1E080917D0490917E04F801649145
:10292000DC01ED91FC910190F081E02D0995DF5FD4
:102930000F5F1F4FD3CFDF91CF911F910F91FF906A
:102940000C94CA10E0918D04F0918E0490818091D6
:1029500093048095892380830F2D1D2FC15008F487
:1029600038C0F801849120917B0430917C04232BA2
:1029700029F00E9445140F5F1F4FF0CF28E030E090
:1029800040E8E0918904F0918A0490919104582FD5
:102990005423D9F05081952B9083E0918B04F091D2
:1029A0008C04908150919204952B9083E0918B043C
:1029B000F0918C045081909192049095952390838E
:1029C000469521503109E9F6D6CF5081909595234F
:1029D000E3CFDF91CF911F910F91FF9008951F9347
:1029E000CF93DF93EC01162F8D8D9E8D892BF1F007
:1029F00089A10E947C058D8D9E8DDC01ED91FC915D
:102A00000190F081E02D60E009958D8D9E8DDC01B7
:102A1000ED91FC910190F081E02D612F09958D8D54
:102A20009E8DDF91CF911F910C94CA10EDA5FEA54C
:102A300090818BA98095892380838B8D9C8D892B98
:102A400031F0862FDF91CF911F910C94451428E02F
:102A500030E090E8E9A5FAA589A9412F4923C1F002
:102A60004081842B8083EBA5FCA580814AA9842B1F
:102A70008083EBA5FCA540818AA98095842380836F
:102A800096952150310931F7DF91CF911F9108952B
:102A9000408180958423E6CF8CBD9DBD0895FF9233
:102AA0000F931F93CF93DF9380917D0490917E04C9
:102AB000892B09F472C08CE08093B80065E088E649
:102AC0009AE00E944C1460916404615080E694E0A6
:102AD0000E94EF142091660430916704C9010796A3
:102AE00097FD079623E0959587952A95E1F7209124
:102AF000640430916504829F8001839F100D929F32
:102B0000100D1124C0917F04D091800480917D0428
:102B100090917E040C0F1D1F892B09F47CC08091BD
:102B200081040E947C0580917D0490917E04DC01EB
:102B3000ED91FC910190F081E02D60E40995FF2476
:102B4000F39480917D0490917E04C017D107E1F148
:102B5000BFE1BF15A0F40E94CA10809181040E94B9
:102B60007C0580917D0490917E04DC01ED91FC91C7
:102B70000190F081E02D60E40995FF24F3948091A9
:102B80007D0490917E04DC01ED91FC910190F08137
:102B9000E02D69910995F394D4CF80917B049091B5
:102BA0007C04892B31F080919504909196040E94C9
:102BB0004C15E0918F04F0919004908180919404E1
:102BC0008095892380837ACF0E94CA1080917D04EA
:102BD00090917E04892B09F45FC020919704309175
:102BE00098044091990450919A0460E074E284EF53
:102BF00090E00E94B03820513109410951095695A1
:102C00004795379527952093B800DF91CF911F9175
:102C10000F91FF900895E0918D04F0918E048081D2
:102C200090919304892B80830C171D0779F2899169
:102C300020917B0430917C04232B19F00E944514D1
:102C4000F3CF28E030E040E8E0918904F0918A0475
:102C500090919104582F5423D9F05081952B908353
:102C6000E0918B04F0918C04908150919204952B0B
:102C70009083E0918B04F0918C04508190919204A8
:102C8000909595239083469521503109E9F6CCCF54
:102C9000508190959523E3CFE0918F04F0919004BB
:102CA000808190919404892B8083AFCFCF93C0E033
:102CB000811106C080918204CFEC813009F4CFE904
:102CC00080917D0490917E04892B69F18CE0809342
:102CD000B80061E880E694E00E94EF146C2F80E673
:102CE00094E00E94EF1480917D0490917E04892BE2
:102CF00089F1209197043091980440919904509162
:102D00009A0460E074E284EF90E00E94B0382051B1
:102D100031094109510956954795379527952093D3
:102D2000B800CF91089580917B0490917C04892B09
:102D300031F080919504909196040E944C15E09199
:102D40008F04F09190049081809194048095892360
:102D50008083BFCFE0918F04F091900480819091A7
:102D60009404892B8083DDCF1F93CF93DF93EC01F5
:102D7000162F8D8D9E8D892B29F18CE08093B800C4
:102D800066EA111167EACE010E94EF148D8D9E8DC7
:102D9000892B41F12FA938AD49AD5AAD60E074E2FD
:102DA00084EF90E00E94B038205131094109510967
:102DB00056954795379527952093B800DF91CF9189
:102DC0001F9108958B8D9C8D892B21F08DA99EA933
:102DD0000E944C15EFA5F8A990818CA980958923B4
:102DE0008083CECFEFA5F8A980819CA9892B808311
:102DF000E5CF089590E080E008958093BB0084E8DB
:102E00008093BC008091BC0087FFFCCF9091B900FB
:102E1000987F81E0983231F0983129F0903419F0A0
:102E200080E008950895089584EA8093BC0080911D
:102E3000BC0087FFFCCF8091B900887F19F080EC3F
:102E40000C94FD1680E008955F926F927F928F92AE
:102E50009F92AF92BF92CF92DF92EF92FF920F9329
:102E60001F93CF93DF93CDB7DEB7582E742E652E08
:102E7000B62E922E0E941417852D0E94FD168D2DC0
:102E80000E94FD168C2D0E94FD168B2D83708A29C1
:102E900090E081109CE0892B0E94FD16862D0E94F7
:102EA000FD16872D0E94FD168CE0F694E794D794CA
:102EB000C7948A95D1F78C2D807FC82E892D8F706D
:102EC0008C290E94FD16812F0E94FD16802F0E94E2
:102ED000FD1684E98093BC008091BC0084FDFCCF8A
:102EE000DF91CF911F910F91FF90EF90DF90CF90E6
:102EF000BF90AF909F908F907F906F905F9008955C
:102F00004F925F926F927F928F929F92AF92BF92F9
:102F1000CF92DF92EF92FF920F931F93CF93C82F20
:102F2000C090BF04D090C004E090C104F090C204EF
:102F3000CB01BA01A70196010E94B03849015A019C
:102F400025E0F694E794D794C7942A95D1F735E015
:102F500096958795779567953A95D1F747E0660FEF
:102F6000771F881F991F4A95D1F7A70196010E94E4
:102F7000B03829013A018B019C01B501A401552704
:102F800066277727E7E0440F551F661F771FEA95EE
:102F9000D1F7525061097109440D551D661D771D09
:102FA000812CA12C8C2F0E942417CF911F910F915F
:102FB000FF90EF90DF90CF90BF90AF909F908F9059
:102FC0007F906F905F904F9008958F92AF92CF92C5
:102FD000DF92EF92FF920F931F93882483944430E3
:102FE00051056105710509F0812C445051096109B1
:102FF0007E4F97E0440F551F661F771F9A95D1F7B4
:10300000A22EC12CD12C7601C39400E010E09801CF
:103010000E9424171F910F91FF90EF90DF90CF90A7
:10302000AF908F900895CF93DF93D82FC62F0E9433
:1030300014178D2F0E94FD168C2F0E94FD1684E917
:103040008093BC008091BC0084FDFCCFDF91CF91C8
:103050000895CF93C82F60E880E18C0F0E94131869
:10306000EC2FF0E0EE0FFF1FE955FB4F11821082AD
:10307000CF9108954F925F926F927F92AF92BF92DD
:10308000CF92DF92EF92FF920F931F93CF93DF9334
:10309000D82F082F10E0F801EE0FFF1FEE0FFF1FD3
:1030A000ED54FB4F40805180628073804114510485
:1030B0006104710489F48D2FDF91CF911F910F91DD
:1030C000FF90EF90DF90CF90BF90AF907F906F9088
:1030D0005F904F900C9429185801AA0CBB1CF50165
:1030E000E955FB4FC080D180F12CE12C09551B4FD5
:1030F000F801C681A3019201C701B6010E9477368B
:103100009B01AC01EC2FF0E0E55AFE4FA081B0E04E
:103110000E94A5389B01AC0120583447424D5A41CA
:103120002130334A414E514108F43FC060913A0189
:1031300070913B0180913C0190913D01A30192016E
:103140000E94B03869017A0184E0C816D104E10414
:10315000F10408F4B0CFE6E0CE16D104E104F104A6
:1031600008F470C0C0E0FDE2CF16F1E0DF06E10434
:10317000F10430F0CF5FF694E794D794C794F3CF7F
:10318000C11103C0E894C0F8C0E0A3019201C701D7
:10319000B6010E9477369B01AC01EC2FF0E0E55AB6
:1031A000FE4FA081B0E00E94A5382AE1D11122E2B1
:1031B000AB01BC01822F0E948017F501E955FB4F3E
:1031C00080819181B0E0A0E08C159D05AE05BF0522
:1031D00021F4F80186818C1731F12C2F2295207F64
:1031E000B701A6018D2F880F880F880F865D0E947A
:1031F000E517F801618580E0D11180E2682B6C64ED
:1032000080E18D0F0E941318F501E955FB4FD18223
:10321000C082F801C6838091C70490E2D11190E882
:10322000892B8093C704DF91CF911F910F91FF905D
:10323000EF90DF90CF90BF90AF907F906F905F90B6
:103240004F90089584E0C82ED12CE12CF12C9ACF18
:103250002F923F924F925F926F927F928F929F92A6
:10326000AF92BF92CF92DF92EF92FF920F931F9394
:10327000CF93DF9300D000D00F92CDB7DEB74901D6
:103280005A01270138011092C704C090B704D090AA
:10329000B804E090B904F090BA040091B30410911E
:1032A000B4042091B5043091B60406171707280717
:1032B000390759F06093B3047093B4048093B50454
:1032C0009093B60480E00E943A18C814D904EA0426
:1032D000FB0471F48091BB049091BC04A091BD04E7
:1032E000B091BE0484159505A605B70509F403C180
:1032F0008092B7049092B804A092B904B092BA0434
:103300004092BB045092BC046092BD047092BE0413
:1033100081149104A104B10419F481E00E942918D8
:103320008091BB049091BC04A091BD04B091BE04F7
:10333000892B8A2B8B2B19F482E00E94291840904C
:10334000B7045090B8046090B9047090BA04411466
:1033500051046104710409F473C1C814D904EA0466
:10336000FB0409F4A5C0C090A904D090AA04F12CD4
:10337000E12C2091AE042983A3019201C701B6017B
:103380000E9477369B01AC018981E82FF0E0E55A75
:10339000FE4FA081B0E00E94A5384B015C01DC012A
:1033A000CB0180589447A24DBA418130934AA14E37
:1033B000B14108F446C060913A0170913B0180919F
:1033C0003C0190913D01A30192010E94B038690136
:1033D0007A0181E044E0C416D104E104F10408F468
:1033E00088C086E0C816D104E104F10408F4A4C042
:1033F00019829DE2C91691E0D906E104F10440F07A
:1034000029812F5F2983F694E794D794C794F1CF4D
:103410004981411103C0E894C0F81982A3019201C7
:10342000C701B6010E9477369B01AC018981E82F64
:10343000F0E0E55AFE4FA081B0E00E94A5384B01B4
:103440005C01B501A40182E20E9480178091A90469
:103450009091AA04B0E0A0E08C159D05AE05BF05D3
:1034600029F48091AE0499818917D1F029812295A0
:10347000207FB701A60182E30E94E5176091B104A5
:103480006C6681E10E941318D092AA04C092A9042C
:1034900029812093AE048091C70480688093C7047B
:1034A0008092C3049092C404A092C504B092C60452
:1034B000C090BB04D090BC04E090BD04F090BE046A
:1034C000C114D104E104F104B1F08090C3049090E0
:1034D000C404A090C504B090C604C501B401A701FE
:1034E00096010E94B038283031054105510550F54C
:1034F00082E00E9429186091C704662319F081EBCD
:103500000E9413188091C7040F900F900F900F9096
:103510000F90DF91CF911F910F91FF90EF90DF906F
:10352000CF90BF90AF909F908F907F906F905F9063
:103530004F903F902F90089504E0C02ED12CE12CA5
:10354000F12C69CF1D82213431054105510560F010
:103550008D818F5F8D83CC0CDD1CEE1CFF1C56957E
:10356000479537952795EFCFC501B401A70196017F
:103570000E94B03829833A834B835C832FEF3FEF5F
:103580004FE050E00E94BB3656016701E12CF12C60
:1035900000E010E00E94E83629013A019D819295F1
:1035A000907F9D83C12CD12C7601C394411451048A
:1035B0006104710431F0CC24CA94DC2CFFE0EF2EBE
:1035C000F12CC301B20127E0660F771F881F991FF6
:1035D0002A95D1F7A70196010E94B03849015A01F6
:1035E0008B019C0149815A816B817C81552766271B
:1035F0007727E7E0440F551F661F771FEA95D1F73D
:10360000525061097109480D591D6A1D7B1D812C9D
:10361000AD808AE30E9424176CE445284628472899
:1036200009F06CE08091B204682B606282E10E9434
:10363000131881E090E09093AC048093AB045BCFCF
:103640008090BB049090BC04A090BD04B090BE04D8
:1036500081149104A104B10409F44DCFC090AB04CE
:10366000D090AC04F12CE12C2091AF042983A5016A
:103670009401C701B6010E9477369B01AC01898194
:10368000E82FF0E0E55AFE4FA081B0E00E94A53897
:103690008B019C0100581447224D3A410130134AD6
:1036A000214E314108F443C060913A0170913B01D1
:1036B00080913C0190913D01A50194010E94B03898
:1036C00069017A0184E0C816D104E104F10408F428
:1036D0000FCF96E0C916D104E104F10408F458C0F4
:1036E00019822DE2C21621E0D206E104F10440F075
:1036F00049814F5F4983F694E794D794C794F1CFFB
:103700008981811103C0E894C0F81982A501940150
:10371000C701B6010E9477369B01AC019981E92F60
:10372000F0E0E55AFE4FA081B0E00E94A538AB0161
:10373000BC0182E20E9480178091AB049091AC049E
:10374000B0E0A0E08C159D05AE05BF0531F4809179
:10375000AF042981821709F4CECE29812295207FDA
:10376000B701A6018AE30E94E5176091B2046C6676
:1037700082E10E941318D092AC04C092AB0449813C
:103780004093AF048091C70480688093C704B3CE90
:1037900084E0C82ED12CE12CF12CB5CFFF920F93F1
:1037A0001F93CF93DF9300D0CDB7DEB7E6E1F1E012
:1037B00010E000E08191080F111D81E0EA33F80765
:1037C000C9F744E250E066E171E082E090E00E94D7
:1037D000AF110D5F1F4F1A83098342E050E0BE0115
:1037E0006F5F7F4F90E080E00E94AF11E0E0F1E07A
:1037F0008AE091E010E000E02191020F111D8E1788
:103800009F07D1F7809117019CE0F92E8F9DC00191
:1038100011244AE050E060E071E088960E94AF1108
:103820000D5F1F4F1A830983809117018F9DC0017F
:10383000112442E050E0BE016F5F7F4F86960E94E8
:10384000AF110F900F90DF91CF911F910F91FF90CB
:1038500008958091260190912701092E000CAA0B52
:10386000BB0B80549340A446BE4F8093BF049093FB
:10387000C004A093C104B093C20480E00E943A182F
:1038800081E00C943A18CF93DF9380913C039091A0
:103890003D0327E0289FE001299FD00D112485E1F9
:1038A0000E946E08DE01A80FB91FAA0FBB1F94E08B
:1038B000B695A7959A95E1F7B0933D03A0933C0385
:1038C0002091280130E00E94D2382FEF33E040E011
:1038D00050E00E94863820934303DF91CF910895F2
:1038E000CF93DF938FE00E946E0880914103909107
:1038F0004203EC01CC0FDD1FC80FD91F8FE00E94DF
:103900006E082196C80FD91FCC0FDD1FCC0FDD1F0D
:1039100044E0D695C7954A95E1F7D0934203C0930A
:10392000410380913F0390914003EC01CC0FDD1FD8
:10393000C80FD91F80E10E946E082196C80FD91FB9
:10394000CC0FDD1FCC0FDD1F74E0D695C7957A959F
:10395000E1F7D0934003C0933F03DF91CF910895E7
:10396000DC01ED91FD918081ED91FD919081ED91D2
:10397000FD916C9163708E2309F064609F2309F0C0
:103980006860EDECFCE1E60FF11D659565956D93C2
:103990006D917D918D919D91099423C01AC012C0A3
:1039A00016C010C01EC009C014C013C006C019C084
:1039B00009C00DC007C00DC014C0625070408040E7
:1039C00090400BC0615070408040904006C06E5FD8
:1039D00001C06F5F7F4F8F4F9F4F9E938E937E935B
:1039E0006E930895BF92CF92DF92EF92FF920F9362
:1039F0001F93CF93DF93EC01B62EC72E8D858111D7
:103A000005C0CE010E944F0981110EC01B861D8684
:103A10001C8680E0DF91CF911F910F91FF90EF9076
:103A2000DF90CF90BF90089540E060EFCE010E94FC
:103A3000FC0801E0E12CD12C11E0CE010E949E088F
:103A4000F82ECE010E949E0891E0F91218C0813034
:103A500099F51134D8F2DB86D11002C081E08D8750
:103A60008B81882399F22396EB2DFC2DCF010896AC
:103A700029912193E817F907D9F781E0CBCF2E2DB3
:103A800030E0F8120EC08B851817A0F4FE01E20F8B
:103A9000F31F8381802381F4F12C193008F41C87F3
:103AA000D12EFE01E20FF31F8381902F9095892381
:103AB00083830AC08113F0CFFE01EE0DF11D8381D7
:103AC000802B8383FF24F3946F2DCE010E94C908BD
:103AD0001F5F000F11F4E39401E087E08E1508F0FA
:103AE000ACCFB7CF4F925F926F927F928F929F929F
:103AF000AF92BF92CF92DF92EF92FF920F931F93FC
:103B0000CF93DF93CDB7DEB761970FB6F894DEBFE2
:103B10000FBECDBF0E946208C0903303D090340323
:103B2000E0903503F09036036C197D098E099F09EA
:103B3000693873418105910508F458C080913203BA
:103B4000811154C01092340480913804909139044A
:103B50000E944F0940E06CEC809138049091390448
:103B60000E94FC084091320464E4809138049091F2
:103B700039040E94FC0880913404882391F1E0917B
:103B80003304E9500EEE12E0E33038F4F0E0EE0FCB
:103B9000FF1FE95BFE4F008111818091350488236E
:103BA00009F481C08091320481117DC00E946208B5
:103BB0004B015C012801110F6608770880913804D9
:103BC000909139040E949E08813059F00E94620849
:103BD0006419750986099709681579058A059B0591
:103BE00068F381E080933404809332030E9462087A
:103BF0006C197D098E099F0961347F41810591050A
:103C0000D8F1809132038823B9F1E0913804F09122
:103C1000390413861586148612861186108617823B
:103C20001682158214821382BE01665F7F4F8091D7
:103C30003804909139040E94F21C81113BC060E06D
:103C400070E08EEF92EC20E030E040E05FE30E9415
:103C5000E2380E944E3980912B01680F60933E0339
:103C60000E9462086093330370933403809335039A
:103C7000909336031092320361960FB6F894DEBF2C
:103C80000FBECDBFDF91CF911F910F91FF90EF90AD
:103C9000DF90CF90BF90AF909F908F907F906F906C
:103CA0005F904F900895B801110F880B990B0E94F7
:103CB0002F0897CF67E0CE010A960E94860899895F
:103CC0008913BDCF80913804909139040E944F0927
:103CD000882309F4B4CFBE016F5F7F4FCE010A96EF
:103CE0000E948E09882309F4AACF68E0CE010196CC
:103CF0000E94860899858913A2CF6A8170E0762F89
:103D00006627770F770F770F298158E0259F90015D
:103D10001124262B372B8A858031D1F4688570E0F9
:103D20008F81AB01481B5109CA019695982F8827AE
:103D3000979587950E94A736CB014097B90153E02C
:103D4000660F771F5A95E1F760789C01260F371FA1
:103D5000213854EE35070CF472CFB901330F880BBC
:103D6000990B0E94863920E030E040E05CE30E943D
:103D7000123A69CF0F931F93CF93DF93809137034C
:103D8000882359F0109222040E94261110923703C2
:103D9000DF91CF911F910F9108950E9462080091C9
:103DA0002E0310912F032091300330913103601BBB
:103DB000710B820B930B693E73408105910520F4D2
:103DC000012B022B032B21F70E94620860932E0324
:103DD00070932F03809330039093310388E60E9401
:103DE0007C0560E084E594E00E94961084E594E010
:103DF0000E94CA10882319F010922904C9CF81E0CB
:103E00008093290467E088E60E9486051092D90312
:103E10008093D803873008F461C084E594E00E9461
:103E20005610D82F982F92959770CAE08D2F8F70CB
:103E30009C9F800D11248093220484E594E00E94CD
:103E40005610982F92959F708F709C9F800D112413
:103E50008093230484E594E00E945610982F929555
:103E600093708F709C9F800D11248093240484E5AF
:103E700094E00E945610982F92959F708F709C9F8F
:103E8000800D11248093250484E594E00E9456104F
:103E9000982F92959F708F709C9F800D1124809316
:103EA000260484E594E00E945610982F92959F7006
:103EB0008F709C9F800D11248093270484E594E0EB
:103EC0000E945610982F9F70925E82958F708C9FE3
:103ED000900D112490932804D7FF5ACF10922404F8
:103EE0001092230410922204DF91CF911F910F9121
:103EF0000C942611CF93DF93EC018091C8040E94AB
:103F00007C058D2F90E00E94C510CE0199270E945C
:103F1000C51084E594E00E94CA1061E08091C80455
:103F20000E9486051092D9038093D803882321F03C
:103F300084E594E00E945610DF91CF910895EF92AE
:103F4000FF920F931F93CF93DF938B01040F151FE5
:103F50007C012FEFE21AF20AEB010E947A1F89938B
:103F6000C701BE010C171D0799F7DF91CF911F9173
:103F70000F91FF90EF900895DF92EF92FF920F93D1
:103F80001F93CF93DF9300D0CDB7DEB71A8219828B
:103F9000809117012CE0829FC001112442E050E083
:103FA000BE016F5F7F4F86960E949F1FF12CE12C10
:103FB00010E000E08CE0D82E8091170197018D9DD4
:103FC000200D311D1124C90188960E947A1F080F07
:103FD000111D3FEFE31AF30A8AE0E816F10461F7D6
:103FE0000D5F1F4F89819A8108171907B1F48091DD
:103FF00017018D9DC00111244AE050E060E071E09E
:1040000088960E949F1F0F900F90DF91CF911F9174
:104010000F91FF90EF90DF9008950E94CE1BF3CF99
:104020008091C0038823A9F18091BF0381110CC046
:1040300080914403882389F1809180008F7C809354
:1040400080001092440329C080914403811125C04F
:104050008091D303811121C02091310184E1289FF7
:1040600090011124032E000C440B550B60E472E404
:104070008FE090E00E94B038CA01B9010E94CA05E1
:10408000809180008F7C80618093800081E08093AC
:1040900044038091BF03882359F208950F931F931F
:1040A000CF93DF931092450360910101709102015B
:1040B000809103019091040120EA36E841E050E04C
:1040C0000E94B03880912F018217130609F018F46E
:1040D00081E08093450380912E018217130609F039
:1040E00018F482E08093450380912D018217130616
:1040F00009F018F483E08093450380912C01821726
:10410000130609F018F484E08093450320914503D9
:1041100081E090E0A0E0B0E004C0880F991FAA1FE2
:10412000BB1F2A95D2F7809346032091D203222306
:1041300039F020913301222319F0806280934603E5
:1041400080913801882329F0809146038064809310
:10415000460380913901882329F0809146038068C5
:10416000809346032C9800914603C7E0D0E010E00E
:10417000B8010C2E02C0759567950A94E2F761703C
:104180008BE00E944D062D9A2D98219788F72C9A46
:10419000DF91CF911F910F9108954F925F926F928F
:1041A0007F928F929F92AF92BF92EF92FF920F9366
:1041B0001F9320910001E0901A01F0901B010091E3
:1041C0001C0110911D01609101017091020180910B
:1041D0000301909104013091D2036E0D7F1D801F69
:1041E000911F332339F12223E1F0209122013091F4
:1041F00023014091240150912501620F731F841FF8
:10420000951F0E9428191F910F91FF90EF90BF906A
:10421000AF909F908F907F906F905F904F900C9495
:104220004E2020911E0130911F014091200150919C
:104230002101E3CF8090340190903501A0903601A8
:10424000B09037012223B9F0409022015090230111
:104250006090240170902501A3019201280D391D61
:104260004A1D5B1D640D751D861D971D680D791D0A
:104270008A1D9B1DC6CF40901E0150901F0160906B
:10428000200170902101E8CF009769F0FC010190B6
:104290000020E9F73197AF01481B590BBC0180E6BC
:1042A00094E00C94D90790E080E00895CF93DF93D9
:1042B0000E944421EC0181EA91E00E9444218C0F8C
:1042C0009D1FDF91CF9108950C9444218F929F926E
:1042D000AF92BF92CF92DF92EF92FF920F931F9314
:1042E000CF93DF93CDB7DEB7A1970FB6F894DEBFBB
:1042F0000FBECDBF6B017C0119A2423008F44AE029
:104300008E010F5D1F4F842E912CB12CA12CC70163
:10431000B601A50194010E94B0386A3014F5605DC1
:10432000F80162938F01C814D904EA04FB04B0F4C5
:10433000CF010E944421A1960FB6F894DEBF0FBEB4
:10434000CDBFDF91CF911F910F91FF90EF90DF9044
:10435000CF90BF90AF909F908F90089569017A01A0
:10436000D6CF695CDDCF682F70E090E080E04AE056
:104370000C946621CF92DF92EF92FF92CF93DF935E
:104380006C01990FEE08FF08F7FE17C08DE20E943E
:10439000300DEC0166277727CB016C197D098E095A
:1043A0009F094AE00E9466218C0F9D1FDF91CF91EB
:1043B000FF90EF90DF90CF9008954AE0C701B601DB
:1043C000DF91CF91FF90EF90DF90CF900C9466211A
:1043D000CF93DF934AE00E946621EC0181EA91E0ED
:1043E0000E9444218C0F9D1FDF91CF910895CF93A0
:1043F000DF930E94BA21EC0181EA91E00E944421FE
:104400008C0F9D1FDF91CF910895CF93DF930E9472
:10441000B321EC0181EA91E00E9444218C0F9D1FA1
:10442000DF91CF9108952091660430916704C9010E
:10443000079697FD079623E0959587952A95E1F7CE
:104440002091640430916504829FA001839F500DE8
:10445000929F500D112470E060E080917F04909154
:1044600080040C947F388F929F92AF92BF92EF920C
:10447000FF920F931F93CF930E94132210926D040B
:1044800010926C0410926F0410926E0481E090E020
:1044900090937304809372049093710480937004DA
:1044A00083E080937404809375048091D303882300
:1044B00009F4F9C080E00E945616C091D303C931B7
:1044C00009F4D2C308F074C0C63009F45DC378F5AE
:1044D000C23009F4EFC288F4CC2309F4E4C0C1303F
:1044E00009F4D5C2CF911F910F91FF90EF90BF902B
:1044F000AF909F908F900C944F15C43009F410C367
:1045000008F4F5C280913301882309F43AC38BEF94
:1045100091E00E94562181E0809374048093750499
:104520008091D3030E94B32182E092E0F3C2C531AF
:1045300009F458C300F5C73009F43DC3C43191F6FE
:104540008091050124E6829FC00111240E94F72179
:1045500081E080937404809375048091D3030E945A
:10456000B3218EE292E00E94642180EF0E94300D20
:104570008AE392E0B9C2C73109F45EC308F44CC3C0
:10458000809123048A3020F484EA91E00E9464211F
:10459000809123040E94052281E08093740480931B
:1045A00075048091D3030E94B3218EE592E09CC2F2
:1045B000C73609F4EAC3B8F5CC3109F47DC3B0F4C9
:1045C000CA3109F465C3CB3109F08CCF80912A013F
:1045D0000E94052281E08093740480937504809189
:1045E000D3030E94B32181E892E07EC2C53609F46C
:1045F0007DC308F0ADC3C43609F074CF80911901B2
:10460000882309F470C380E992E00E94562181E07A
:1046100080937404809375048091D3030E94B32126
:1046200085EA92E077C2CB3609F4F7C300F5C936C4
:1046300009F4D8C308F4BBC382E080937404809368
:10464000750460911A0170911B0180911C01909179
:104650001D010E94E82181E0809374048093750419
:104660008091D3030E94B32187EE92E082C2CD36BF
:1046700009F4FDC308F4E7C3CE3609F033CF8091C7
:104680002C0124E6829FC00111240E94F72181E0C1
:1046900080937404809375048091D3030E94B321A6
:1046A0008BE093E0CDC38091010190910201A09134
:1046B0000301B091040180389649A849B10520F45E
:1046C00085EF92E00E9464216091010170910201E6
:1046D0008091030190910401F0E48F2EF2E49F2E6B
:1046E000FFE0AF2EB12CA50194010E94B038CA01A1
:1046F000B9014AE00E94662180916C0490916D049A
:10470000059690936D0480936C0460910101709103
:1047100002018091030190910401A50194010E947E
:10472000B038603A76488140910520F484EA91E0FF
:104730000E94642160910101709102018091030146
:104740009091040120E432E44FE050E00E94B03840
:10475000603177428105910520F484EA91E00E945E
:104760006421609101017091020180910301909197
:10477000040120E432E44FE050E00E94B038E8EE5B
:104780008E2EE3E09E2EA12CB12CA50194010E9457
:10479000B038CA01B9014AE00E94662182E08093E4
:1047A00074048093750480916C0490916D04059657
:1047B00090936D0480936C0487E090E090936F0475
:1047C00080936E0460910101709102018091030158
:1047D00090910401A50194010E94B03864367105DE
:1047E0008105910520F484EA91E00E9464216091A2
:1047F000010170910201809103019091040128EE62
:1048000033E040E050E00E94B0382AE030E040E081
:1048100050E00E94B038CA01B9010E94E82181E04D
:10482000809374048093750480914303843620F44C
:1048300085EF92E00E94642180914303CAE06C2FCF
:104840000E94873690E00E94BA2186EA91E00E9499
:104850006421809143036C2F0E948736892F90E05A
:104860000E94BA2185EF92E00E9464218091D203D8
:10487000882309F4A1C080913301882309F499C0E9
:1048800088EA91E00E9464216091410370914203A3
:1048900020913F03309140036217730709F443C02E
:1048A000CB01820F931F621B730B0E9493366A30F9
:1048B000710520F485EF92E00E946421609141032C
:1048C0007091420320913F0330914003CB01820F4E
:1048D000931F621B730B0E94933690E080E04AE0C6
:1048E0000E94662186EA91E00E9464216091410362
:1048F0007091420320913F0330914003CB01820F1E
:10490000931F621B730B0E9493366AE070E00E9453
:104910009336C62F6A3020F484EA91E00E94642125
:104920008C2F0E94B321609141037091420390E06B
:1049300080E0615071098109910927E0660F771FB6
:10494000881F991F2A95D1F73EEF832E33E0932ECF
:10495000A12CB12CA50194010E948638EE24E39489
:10496000F12C04E010E047E150E061E470E080E603
:1049700094E00E941E0E60913F037091400390E00E
:1049800080E0615071098109910957E0660F771F36
:10499000881F991F5A95D1F7A50194010E94863866
:1049A0004CE150E061E470E080E694E00E941E0E6D
:1049B00099CD88EB91E066CF80913E0392E3980F0A
:1049C000953608F055C087FD04C085EF92E00E943F
:1049D000642180913E03082E000C990B0E94BA219D
:1049E00087EF0E94300D8AEA91E00E946421809155
:1049F000C903882309F43FC085EF92E00E94642137
:104A000080E00E945616809124048A3020F485EFBD
:104A100092E00E946421809124040E94B32180913D
:104A2000220480FF2EC082EB91E00E9464218091DD
:104A300023048A3020F484EA91E00E94642180916A
:104A400023040E94B321809100018823E9F084EBC4
:104A500091E00E946421809117018A3020F485EF53
:104A600092E00E946421809117010E94B3213ACD07
:104A70008CEA91E0BACF86EA91E00E94642181E05D
:104A8000C0CF85EF92E0D1CF87EB91E0E2CF80916C
:104A900017010E940522C0937404C093750480918D
:104AA000D3030E94B3218AEB91E00E94642180919C
:104AB0001801DBCFE0911601F0E0EE0FFF1FE35B82
:104AC000FE4F20813181AAE0B0E00E94D2380E94DE
:104AD000E82181E080937404809375048091D3036E
:104AE0000E94B3218AEC91E00E946421FBCC80916A
:104AF0000001882391F084ED91E00E94562181E02D
:104B000080937404809375048091D3030E94B32131
:104B10008CED91E00E945621E5CC88ED91E0EDCF3F
:104B20008090340190903501A0903601B09037010B
:104B30004AE0C501B401B7FE0BC08DE20E94300D02
:104B400066277727CB01681979098A099B094AE00A
:104B50000E94662181EA91E00E94442181E08093D5
:104B60007404809375048091D3030E94B3218DEE69
:104B700091E00E94642180EF0E94300D8EE792E068
:104B8000B3CF8EEF91E0C5CC80913801882381F0BE
:104B90008BE192E00E94562181E08093740480931F
:104BA00075048091D3030E94B32180E192E0B2CFDB
:104BB0008DE092E0EFCF80913901882381F08DE084
:104BC00092E00E94562181E08093740480937504E2
:104BD0008091D3030E94B3218FE192E09BCF8BE1C0
:104BE00092E0EFCF2091060130910701409108013A
:104BF00050910901A4E6B0E00E94A5380E94E82186
:104C000081E080937404809375048091D3030E94A3
:104C1000B3218EE392E0A7CC809118010E94052277
:104C200081E080937404809375048091D3030E9483
:104C3000B3218AE492E058CF809124048A3020F492
:104C400084EA91E00E946421809124040E9405225C
:104C500081E080937404809375048091D3030E9453
:104C6000B32187E592E040CF809130012AE0829F16
:104C7000C00111240E94F72181E080937404809385
:104C800075048091D3030E94B32184E692E02CCF77
:104C9000809131012AE0829FC00111240E94F721F6
:104CA00081E080937404809375048091D3030E9403
:104CB000B32184E792E018CF80912901882381F005
:104CC00080E992E00E94562181E0809374048093F1
:104CD00075048091D3030E94B32187E992E01ACF33
:104CE00084E992E0EFCF84E992E08FCC80912801B3
:104CF0000E94052281E08093740480937504809162
:104D0000D3030E94B32184EB92E00E94642180913E
:104D10004303843620F484EA91E00E946421809168
:104D20004303CAE06C2F0E94873690E00E94BA21AC
:104D300086EA91E00E946421809143036C2F0E94D7
:104D40008736892F90E00E94BA218CEB92E0CCCE7E
:104D500080912B01082E000C990B0E94F72181E015
:104D600080937404809375048091D3030E94B321CF
:104D70008EEB92E00E94642180EF0E94300D87EF5D
:104D80000E94300D8AEA91E0AFCE80912601909189
:104D900027010E94F72181E08093740480937504B9
:104DA0008091D3030E94B32189EC92E0E2CE82E0AD
:104DB000809374048093750460911E0170911F01AB
:104DC00080912001909121010E94E82181E080934F
:104DD0007404809375048091D3030E94B32185ED00
:104DE00092E0C7CE82E08093740480937504609152
:104DF00022017091230180912401909125010E944C
:104E0000E82181E080937404809375048091D3033A
:104E10000E94B3218EED92E0ACCE80912F0124E66A
:104E2000829FC00111240E94F72181E080937404C5
:104E3000809375048091D3030E94B3218DEE92E09C
:104E40000E94642195CB80912E0124E6829FC001AF
:104E500011240E94F72181E08093740480937504EB
:104E60008091D3030E94B32187EF92E0E9CF809134
:104E70002D0124E6829FC00111240E94F72181E0C8
:104E800080937404809375048091D3030E94B321AE
:104E900081E093E0D5CF4F925F926F927F928F9295
:104EA0009F92AF92BF92CF92DF92EF92FF92CF93F9
:104EB000DF93CDB7DEB728970FB6F894DEBF0FBEED
:104EC000CDBF8091A604823008F07BC0F8948BE9B6
:104ED00094E00E94B01C6091A2047091A3048091A0
:104EE000A4049091A50478942091120130E050E040
:104EF00040E00E94863869017A0190912901992346
:104F000041F0F094E094D094C094C11CD11CE11CF9
:104F1000F11C8090380390903903A0903A03B09030
:104F20003B038C149D04AE04BF04B1F14C9B34C010
:104F30008091D3032FEF280F283018F421E020931D
:104F4000C403893109F46BC308F097C0863009F4B3
:104F5000A7C208F046C0823009F428C2A0F5882311
:104F600009F43CC1813009F400C20E9462086093D8
:104F7000CA037093CB038093CC039093CD0381E05D
:104F80008093C9030E943322C0923803D092390320
:104F9000E0923A03F0923B0328960FB6F894DEBFF6
:104FA0000FBECDBFDF91CF91FF90EF90DF90CF90FC
:104FB000BF90AF909F908F907F906F905F904F9039
:104FC0000895F89488CF843009F416C208F40DC20D
:104FD0008091330191E08927809333010E944E2014
:104FE000C4CF853109F475C268F5873009F45FC212
:104FF000843109F0BACF809105018C149D04AE0470
:10500000BF040CF05BC28F5F8093050140910501E6
:105010008FE04F30A0F08091060190910701A091A0
:105020000801B091090150E070E060E00197A1092A
:10503000B109481759076A077B0708F4CA0180932A
:10504000050193CF873109F4C0C208F498C280915A
:1050500023048C149D04AE04BF040CF0D6C28C3320
:1050600040F48F5F80932304809123048C3308F4F1
:10507000BFC28BE380932304BBC2873609F466C3A7
:1050800070F58C3109F410C3D8F48A3109F4E4C204
:105090008B3109F06ACF80912A018C149D04AE04F3
:1050A000BF040CF0F6C28F3F19F08F5F80932A0186
:1050B00080912A01811101C081E080932A0155CF9E
:1050C000853609F402C308F021C3843609F04DCFB8
:1050D0008091190191E089278093190146CF8B3681
:1050E00009F46FC408F059C0893609F4E2C308F422
:1050F00075C380911A0190911B01A0911C01B09180
:105100001D018C149D04AE04BF040CF03DC481301D
:1051100034EB930734ECA30734E0B307A8F4E09131
:105120001601F0E0EE0FFF1FE35BFE4F208131819F
:10513000820F931FA11DB11D80931A0190931B0133
:10514000A0931C01B0931D0180911A0190911B0145
:10515000A0911C01B0911D01813054EB950754ECD6
:10516000A50754E0B50720F080E094EBA4ECB4E090
:10517000803823EC920729ECA20721E0B20720F443
:1051800080E893ECA9ECB1E080931A0190931B01A5
:10519000A0931C01B0931D01B7C08D3609F45FC404
:1051A00008F435C48E3609F0E0CE80912C01909140
:1051B0002D018C149D04AE04BF040CF078C48D3F07
:1051C00018F48F5F80932C0180912C01981708F4BC
:1051D00079C481E0890F80932C0100CF40900101B8
:1051E000509002016090030170900401209106012B
:1051F00030910701409108015091090160EA76E879
:1052000081E090E00E94773669837A838B839C8368
:10521000A0910501B0E020EA36E841E050E00E94AC
:10522000A5386D837E838F8398878C149D04AE048C
:10523000BF040CF06CC029813A814B815C8124153C
:1052400035054605570550F1E0911601F0E0EE0FE7
:10525000FF1FE35BFE4F20813181AAE0B0E00E9496
:10526000D2384B015C01C301B201A50194010E9437
:10527000B038480C591C6A1C7B1C611571058105EE
:10528000910521F0461A570A680A790A40920101ED
:105290005092020160920301709204018091010119
:1052A00090910201A0910301B09104012D813E81F2
:1052B0004F81588582179307A407B50760F48D8145
:1052C0009E81AF81B8858093010190930201A093E4
:1052D0000301B09304018091010190910201A0911A
:1052E0000301B091040129813A814B815C81281727
:1052F00039074A075B0740F420930101309302010C
:1053000040930301509304010E94CD202ECEC81477
:10531000D904EA04FB0414F68D819E81AF81B8851F
:10532000481659066A067B0650F2E0911601F0E035
:10533000EE0FFF1FE35BFE4F20813181AAE0B0E05A
:105340000E94D2384B015C01C301B201A501940156
:105350000E94B038611571058105910509F092CF61
:10536000481859086A087B0891CF909118018091DC
:1053700017018C149D04AE04BF047CF4891718F443
:105380008F5F8093170180911701981708F4892F78
:10539000809317010E94BC1FB7CFC814D904EA0438
:1053A000FB048CF7882379F38150EBCF80911601B1
:1053B0008C149D04AE04BF0434F4863078F48F5FFF
:1053C00080931601D2CDC814D904EA04FB0434F446
:1053D000882309F4CACD815080931601809116016B
:1053E000873008F4C2CD86E0EBCF8091000191E0D8
:1053F00089278093000188CF8091340190913501F5
:10540000A0913601B09137018C149D04AE04BF0405
:10541000BCF5893B3BE09307A105B1055CF4C2965E
:10542000A11DB11D8093340190933501A0933601E5
:10543000B09337018091340190913501A0913601EC
:10544000B0913701893B5BE09507A105B10524F0D8
:1054500088EB9BE0A0E0B0E0883424EF92072FEFC8
:10546000A207B20724F488E494EFAFEFBFEF809374
:10547000340190933501A0933601B093370144CFA6
:10548000C814D904EA04FB04ACF6883444EF94074A
:105490004FEFA407B40774F2C297A109B109C2CFB4
:1054A0008091380191E089278093380197CD8091D0
:1054B000390191E089278093390190CDC814D9042E
:1054C000EA04FB040CF0A2CD8F3008F49FCD81508C
:1054D0009BCD8091060190910701A0910801B091A8
:1054E00009018C149D04AE04BF04DCF58D3231E05B
:1054F0009307A105B10558F40196A11DB11D809334
:10550000060190930701A0930801B093090140910F
:105510000601509107016091080170910901809185
:10552000050190E00196092E000CAA0BBB0B481751
:1055300059076A077B0760F0DB01CA018D3241E041
:105540009407A105B10520F08CE291E0A0E0B0E065
:105550008093060190930701A0930801B09309017D
:1055600004CDC814D904EA04FB048CF68F309105ED
:10557000A105B10560F20197A109B109C0CF8091E1
:1055800018018C149D04AE04BF047CF48E31B8F471
:105590008F5F8093180180911801909117018917EE
:1055A00008F0E3CC80931701E0CCC814D904EA04D6
:1055B000FB042CF4882379F38150809318018091A7
:1055C00018018F3140F38EE1E4CF809124048C14D4
:1055D0009D04AE04BF0484F4883138F48F5F809357
:1055E000240480912404883118F087E180932404F6
:1055F00081E080933703B9CCC814D904EA04FB04D2
:1056000084F78823A9F38150EACFC814D904EA04A7
:10561000FB040CF029CD882359F3815023CD8091D0
:1056200030018C149D04AE04BF046CF48F3F19F05C
:105630008F5F80933001809130018A3008F48AE0D6
:105640008093300192CCC814D904EA04FB049CF77F
:10565000823088F38150EDCF809131018C149D040C
:10566000AE04BF046CF48F3F19F08F5F809331015B
:10567000809131018A3008F48AE08093310175CC41
:10568000C814D904EA04FB049CF7823088F38150E3
:10569000EDCFC814D904EA04FB040CF009CD823024
:1056A00008F406CD815002CD992359F010922901BA
:1056B000F094E094D094C094C11CD11CE11CF11C66
:1056C00054CC81E080932901F3CF809128018C1480
:1056D0009D04AE04BF046CF48F3F19F08F5F80937C
:1056E000280180912801843668F08F3F61F48EEFA5
:1056F0000AC0C814D904EA04FB049CF7843688F372
:105700008150EDCF84E6809328012FCC80912B012E
:105710008C149D04AE04BF0484F48F311CF48F5F9D
:1057200080932B0180912B018F310CF08EE1823E12
:105730000CF482EE80932B0118CCC814D904EA042F
:10574000FB0484F7823E74F38150EACF80912601F6
:10575000909127018C149D04AE04BF0454F581334D
:1057600055E795077CF4E0911601F0E0EE0FFF1F7E
:10577000E35BFE4F20813181820F931F90932701BD
:105780008093260180912601909127018133B5E70E
:105790009B0714F080E395E7803D2AE8920714F414
:1057A00080ED9AE890932701809326010E94291C9E
:1057B000ABCDC814D904EA04FB0424F7803DAAE861
:1057C0009A0704F3E0911601F0E0EE0FFF1FE35B90
:1057D000FE4F20813181821B930BD0CF80911E011F
:1057E00090911F01A0912001B09121018C149D0482
:1057F000AE04BF040CF043C0813E36E393073FEC98
:10580000A307B105A8F4E0911601F0E0EE0FFF1F29
:10581000E35BFE4F20813181820F931FA11DB11DDB
:1058200080931E0190931F01A0932001B09321014A
:1058300080911E0190911F01A0912001B091210142
:10584000813E56E395075FECA507B10520F080EE99
:1058500096E3AFECB0E0803A2AE992072EECA2077B
:10586000B10520F480EA9AE9AEECB0E080931E0125
:1058700090931F01A0932001B093210145CDC8143E
:10588000D904EA04FB04A4F6803A4AE994074EECF2
:10589000A407B10568F2E0911601F0E0EE0FFF1FDA
:1058A000E35BFE4F20813181821B930BA109B1097B
:1058B000B7CF8091220190912301A0912401B09152
:1058C00025018C149D04AE04BF040CF043C0813E3E
:1058D00036E393073FECA307B105A8F4E091160166
:1058E000F0E0EE0FFF1FE35BFE4F20813181820F5E
:1058F000931FA11DB11D8093220190932301A093BA
:105900002401B09325018091220190912301A0915F
:105910002401B0912501813E56E395075FECA50770
:10592000B10520F080EE96E3AFECB0E0803A2AE9D2
:1059300092072EECA207B10520F480EA9AE9AEECBA
:10594000B0E08093220190932301A0932401B093AF
:105950002501DACCC814D904EA04FB04A4F6803A81
:105960004AE994074EECA407B10568F2E0911601EC
:10597000F0E0EE0FFF1FE35BFE4F20813181821BC1
:10598000930BA109B109B7CFC814D904EA04FB04E9
:105990000CF0DACB803843EC940749ECA40741E0E3
:1059A000B40708F4D1CBE0911601F0E0EE0FFF1F31
:1059B000E35BFE4F20813181821B930BA109B1096A
:1059C000BBCB80912F018C149D04AE04BF04A4F4C2
:1059D00090912E01891718F48F5F80932F01809189
:1059E0002F01803190F090912E01891710F08FEFE8
:1059F000890F80932F01F2CAC814D904EA04FB046A
:105A000074F7803160F38150E8CF80E1F2CF80916C
:105A10002E0190912F018C149D04AE04BF0484F4D8
:105A200020912D01821718F48F5F80932E018091B1
:105A30002E01981770F081E0890F80932E01CECA55
:105A4000C814D904EA04FB0494F7981780F781502E
:105A5000ECCF90912D01891780F38FEFEDCF8091DE
:105A60002D0190912E018C149D04AE04BF0484F48A
:105A700020912C01821718F48F5F80932D01809163
:105A80002D01981770F081E0890F80932D01A6CA2F
:105A9000C814D904EA04FB0494F7981780F78150DE
:105AA000ECCF90912C01891780F38FEFEDCFC814C4
:105AB000D904EA04FB040CF087CB981708F084CBD8
:105AC000815080CB8D3F08F486CB8CEF84CB1F9226
:105AD0001FB61F9211248F939F93AF93BF93809112
