:100000000C9452050C94CB290C94A3290C947A05DA
:100010000C947A050C947A050C947A050C947A0564
:100020000C947A050C947A050C947A050C947A0554
:100030000C947A050C947A050C947A050C947A0544
:100040000C942F280C947A050C947A050C947A055C
:100050000C947A050C947A050C947A050C947A0524
:100060000C9484280C947A05000103070F1F3F7F2E
:100070000080C0E0F0F8FCFE00000000003E5B4F96
:100080005B3E3E6B4F6B3E1C3E7C3E1C183C7E3CF8
:10009000181C577D571C1C5E7F5E1C00183C180006
:1000A000FFE7C3E7FF0018241800FFE7DBE7FF3096
:1000B000483A060E2629792926407F050507407F04
:1000C00005253F5A3CE73C5A7F3E1C1C08081C1C77
:1000D0003E7F14227F22145F5F005F5F06097F016D
:1000E0007F006689956A606060606094A2FFA29458
:1000F00008047E040810207E201008082A1C080826
:100100001C2A08081E101010100C1E0C1E0C303873
:100110003E3830060E3E0E06000000000000005F74
:1001200000000007000700147F147F14242A7F2A90
:100130001223130864623649562050000807030052
:10014000001C2241000041221C002A1C7F1C2A089E
:10015000083E080800807030000808080808000001
:1001600060600020100804023E5149453E00427F75
:10017000400072494949462141494D331814127FC4
:100180001027454545393C4A494931412111090764
:100190003649494936464949291E000014000000E5
:1001A00040340000000814224114141414140041B7
:1001B00022140802015909063E415D594E7C121174
:1001C000127C7F494949363E414141227F414141AC
:1001D0003E7F494949417F090909013E4141517327
:1001E0007F0808087F00417F41002040413F017F98
:1001F000081422417F404040407F021C027F7F0460
:1002000008107F3E4141413E7F090909063E4151A8
:10021000215E7F09192946264949493203017F0198
:10022000033F4040403F1F2040201F3F4038403F99
:10023000631408146303047804036159494D4300AF
:100240007F4141410204081020004141417F0402E6
:10025000010204404040404000030708002054547D
:1002600078407F284444383844444428384444285B
:100270007F385454541800087E090218A4A49C78AE
:100280007F0804047800447D40002040403D007F0A
:100290001028440000417F40007C047804787C08EA
:1002A0000404783844444438FC18242418182424BE
:1002B00018FC7C08040408485454542404043F44A3
:1002C000243C4040207C1C2040201C3C4030403CD2
:1002D00044281028444C9090907C4464544C440032
:1002E0000836410000007700000041360800020196
:1002F0000204023C2623263C1EA1A161123A404082
:10030000207A3854545559215555794122545478FE
:1003100042215554784020545579400C1E52721297
:100320003955555559395454545939555454580020
:1003300000457C410002457D420001457C407D1224
:1003400011127DF0282528F07C5455450020545486
:100350007C547C0A097F4932494949323A44444431
:100360003A324A4848303A4141217A3A424020786C
:10037000009DA0A07D3D4242423D3D4040403D3C6D
:1003800024FF2424487E4943662B2FFC2F2BFF0992
:1003900029F620C0887E0903205454794100004486
:1003A0007D413048484A32384040227A007A0A0A71
:1003B000727D0D19317D2629292F282629292926E4
:1003C00030484D4020380808080808080808382F29
:1003D00010C8ACBA2F102834FA00007B00000814B3
:1003E0002A142222142A14085500550055AA55AA89
:1003F00055AAFF55FF55FF000000FF00101010FF29
:1004000000141414FF001010FF00FF1010F010F083
:10041000141414FC001414F700FF0000FF00FF1474
:1004200014F404FC141417101F10101F101F1414C0
:10043000141F00101010F0000000001F101010100A
:100440001F10101010F010000000FF1010101010FE
:1004500010101010FF10000000FF140000FF00FF3C
:1004600000001F10170000FC04F4141417101714D8
:1004700014F404F40000FF00F714141414141414FA
:10048000F700F7141414171410101F101F1414146D
:10049000F4141010F010F000001F101F0000001FD7
:1004A00014000000FC140000F010F01010FF10FF0A
:1004B000141414FF141010101F00000000F010FF9F
:1004C000FFFFFFFFF0F0F0F0F0FFFFFF0000000083
:1004D00000FFFF0F0F0F0F0F3844443844FC4A4A07
:1004E0004A347E02020606027E027E0263554941BC
:1004F000633844443C04407E201E2006027E0202F3
:1005000099A5E7A5991C2A492A1C4C7201724C3006
:100510004A4D4D303048784830BC625A463D3E49DD
:100520004949007E0101017E2A2A2A2A2A44445F81
:10053000444440514A444040444A51400000FF0175
:1005400003E080FF000008086B6B08361236243683
:10055000060F090F060000181800000010100030E8
:1005600040FF0101001F01011E00191D1712003C70
:100570003C3C3C0000000000005EBCE2613FDD83CB
:10058000C29C7E20A3FD1F41009D23BE46DB65F873
:100590008C11AF32CA57E974000000002400270014
:1005A0002A00DB40A4A62EAFDA0281DA1281DA0239
:1005B000818F2000A1C8D300408DAED580A8000057
:1005C0000000250028002B00000060000000000053
:1005D000000000000000000000E00000000000003B
:1005E0000000000000000001E0000000000000002A
:1005F00000000000000001F000000000000000000A
:10060000000000000003F0000000000000000000F7
:100610000000000007F000000000000000000000E3
:1006200000000007F80000000000000000000000CB
:1006300000000FF800000003C0007E000001E00091
:100640007F0FF800000003C000FE000001E000FF83
:10065000EFF800000003C000FE000001E000FFFF13
:10066000F800000003C000F00000000F007FFE7FD4
:10067000C0000003C000F00000000F003FFE7FF844
:100680003FF1FBCFFCFEF3BC3DEFE01FFE7FFF7FA1
:10069000FBFFDFFEFEFFBC3DEFE01FC6FFFF7FFB61
:1006A000FFDFFEFEFFBC3DEFE00FE3C7FE787BC33C
:1006B000DE1EF0FFBC3DEF0007FF87FC787BC3DE4A
:1006C0001EF0F83C3DEF0001FFFFF0007BC3C01EB1
:1006D000F0F03C3DEF0001F37FE03FFBC3CFFEF0C5
:1006E000F03C3DEF0003E33F807FFBC3DFFEF0F013
:1006F0003C3DEF0007E73C00787BC3DE1EF0F03C9A
:100700003DEF0007FFBE00787BC3DE1EF0F03C3DEE
:10071000EF0007FFFE00787BC3DE1EF0F03C3DEFEC
:10072000000FFFFE007FFBFFDFFEF0F03FFDEFE07C
:100730000FFFFF007FFBFFDFFEF0F03FFDEFE00F5C
:10074000F9FF003E79F9CF9EF0F01F3DE7E01FF181
:10075000FF0000000000000000000000001F80FFFC
:10076000007FFFFFFFFFFFFFFFFFFFE01C007F0098
:100770007FFFFFFFFEB46D888D18E000001F007F33
:10078000FFFFFFFE95AD7DB577E000000F007FFF16
:10079000FFFFFEA5AD9D8D19E0000006007FFFFF65
:1007A000FFFEB5ADEDB57EE0000000000001800069
:1007B00000000000000000000380000000000000B6
:1007C00000000007C000000000000000000007C09B
:1007D0000000000000000000000FC000000000004A
:1007E000000000001FE00000000000000000001FEB
:1007F000E00000000000000000003FE000000000FA
:1008000000000000003FF0000000000000000000B9
:100810007FF0000000000000001FF87FF0000000E3
:10082000000000003FFE7FF0000000000000003FDD
:10083000FF7FF0000000000000001FFFFBE0000051
:1008400000000000000FFFF9FFC0000000000000E2
:100850000FFFF9FFF800000000000007FFF1FFFFA5
:1008600000000000000003FC73FFFF800000000098
:100870000001FE3FFFFF80000000000000FF1E0F90
:10088000FF000000000000007FFE1FFC00000000D1
:100890000000003FFFFFF8000000000000000FDF35
:1008A000FFE0000000000000001F19FFC000000072
:1008B000000000003F3CFF00000000000000007E40
:1008C0007CF800000000000000007FFE7C000000BB
:1008D0000000000000FFFFFC00000000000000001E
:1008E000FFFFFE0000000000000000FFFFFE000010
:1008F000000000000001FFEFFE000000000000000B
:1009000001FFCFFE0000000000000003FF07FE0013
:1009100000000000000003FC07FE000000000000D3
:100920000003F003FE00000000000000018000FE54
:10093000000000000000000000007E000000000039
:1009400000000000003E0000000000000000000069
:100950000C000000000000078000FC000003C00045
:100960000000078001FC000003C0000000078001B8
:10097000FC000003C0000000078001E00000001E32
:10098000000000078001E00000001E007FE3F79FE9
:10099000F9FDE7787BDFC0FFF7FFBFFDFDFF787B48
:1009A000DFC0FFF7FFBFFDFDFF787BDFC0F0F787FB
:1009B000BC3DE1FF787BDE00F0F787BC3DE1F078DD
:1009C0007BDE0000F787803DE1E0787BDE007FF78B
:1009D000879FFDE1E0787BDE00FFF787BFFDE1E068
:1009E000787BDE00F0F787BC3DE1E0787BDE00F04D
:1009F000F787BC3DE1E0787BDE00F0F787BC3DE1A6
:100A0000E0787BDE00FFF7FFBFFDE1E07FFBDFC0AA
:100A1000FFF7FFBFFDE1E07FFBDFC07CF3F39F3D0D
:100A2000E1E03E7BCFC000000000000000000000BD
:100A300000FFFFFFFFFFFFFFFFFFFFC0FFFFFFFF04
:100A4000FD68DB111A31C0FFFFFFFFFD2B5AFB6A67
:100A5000EFC0FFFFFFFFFD4B5B3B1A33C0FFFFFF03
:100A6000FFFD6B5BDB6AFDC02200FF210001020479
:100A70000810204080010204081020010204081020
:100A800020000000002300260029000404040404C0
:100A9000040404020202020202030303030303002C
:100AA000F3290C3711241FBECFEFD8E0DEBFCDBF36
:100AB00024E0AEE2B3E001C01D92AD3CB207E1F725
:100AC00013E0A0E0B1E0E0E6F6E702C005900D9289
:100AD000AE32B107D9F715E0C1E5D5E004C02197E2
:100AE000FE010E94E937C035D107C9F70E946E2B7D
:100AF0000C94233B0C94000091E090932D04809380
:100B00002C0410922B0410922A0408959091210431
:100B10009111FCCF91E090932104909320042FEF4A
:100B200020931F0410921E04260F20931D049093FF
:100B30001C0490911C04880F892B80931C048091C5
:100B40001B04813011F510921B0480911C048093CA
:100B5000BB008091BC0083FDF8CF85EC8093BC0086
:100B6000809121048130E1F380911E04861710F4F6
:100B700060911E042BEF33E0ABEDB3E0F9018E2F53
:100B8000821B861720F0862F089585EEE7CF81918E
:100B90008D93F5CF8F929F92AF92BF92CF92DF92BB
:100BA000EF92FF92CF93611571058105910521F4B4
:100BB00061E070E080E090E024E0660F771F881F1E
:100BC000991F2A95D1F76115710521E082079105DA
:100BD00008F44EC06115710528E08207910508F4FC
:100BE0004BC06115710520E48207910508F048C0EB
:100BF00020E430E0C3E06901F12CE12CA7010E9460
:100C0000543949015A0180918000807F809380008F
:100C1000C861C0938100C9010197909387008093B8
:100C200086008091810087708093DA0360E074E22F
:100C300084EF90E0A70196010E942A39AA24BB24E0
:100C4000CA01B901A50194010E942A3960E472E445
:100C50008FE090E00E945439CA01B901CF91FF9012
:100C6000EF90DF90CF90BF90AF909F908F900895BE
:100C700021E030E0C1E0BFCF28E030E0C2E0BBCFF0
:100C800020E031E0C4E0B7CF8091D8039091D90340
:100C9000891B990B089508950895482FE62F282F52
:100CA00030E0863009F459C000F58330E1F1853039
:100CB00009F44FC04830E0F14E3010F1443108F0F3
:100CC00063C02E50310981E090E0A0E0B0E004C0A4
:100CD000880F991FAA1FBB1F2A95D2F728B1EE23B0
:100CE00009F44FC0822B88B908958A30C9F18B303E
:100CF000D9F18930F9F6809180008F778093800058
:100D00002850310981E090E0A0E0B0E004C0880FF5
:100D1000991FAA1FBB1F2A95D2F7E1112EC025B13A
:100D2000809582232CC09091B0009F7D9093B0005D
:100D300081E090E0A0E0B0E004C0880F991FAA1FF6
:100D4000BB1F4A95D2F72BB1EE23A1F0822B8BB9B2
:100D5000089594B59F7D94BDEBCF94B59F77FBCF5D
:100D6000809180008F7DCACF8091B0008F77809373
:100D7000B000C6CF80958223EACF25B1822B85B9FA
:100D8000089580958223AFCF08951092D9031092D1
:100D9000D80310922B0410922A041092210481E0AF
:100DA0008093200410921B04449A459AE9EBF0E0EA
:100DB00080818E7F808380818D7F808388E4809393
:100DC000B80085E48093BC008BE496E09093D70351
:100DD0008093D6038CE496E09093D5038093D4035C
:100DE00008950895CF92DF92EF92FF920F931F9391
:100DF000613009F45BC0623009F490C08830C8F4F7
:100E00009AB141E050E060E070E004C0440F551F2B
:100E1000661F771F8A95D2F7409594239AB98BB1B4
:100E200048234BB91F910F91FF90EF90DF90CF9027
:100E300008958E30B0F424B1082F0850110B81E0D2
:100E400090E0A0E0B0E004C0880F991FAA1FBB1F6C
:100E50000A95D2F78095282324B995B1892385B9BD
:100E6000E1CF8431F8F6E7B190E09C012E503109D2
:100E700041E050E060E070E06A017B0104C0CC0C0E
:100E8000DD1CEE1CFF1C2A95D2F7860100950E236F
:100E900007B928B1089704C0440F551F661F771F74
:100EA0008A95D2F74095422348B9BCCF883078F470
:100EB0009AB141E050E060E070E004C0440F551F7B
:100EC000661F771F8A95D2F7942B9AB9ABCF8E30D5
:100ED00088F424B18850990B41E050E060E070E064
:100EE00004C0440F551F661F771F8A95D2F7242B25
:100EF00024B998CF843108F095CF27B18E50990B43
:100F000041E050E060E070E004C0440F551F661FF0
:100F1000771F8A95D2F7242B27B984CF8830B8F46D
:100F20003AB141E050E060E070E07A018B0104C02A
:100F3000EE0CFF1C001F111F8A95D2F7C7012E2D42
:100F4000209523232AB92BB1822B8BB96BCF8E30FE
:100F5000B0F434B1082F0850110B81E090E0A0E00C
:100F6000B0E004C0880F991FAA1FBB1F0A95D2F7D3
:100F7000282F2095232324B925B1822B70CF8431CB
:100F800008F050CF37B1682F6E50770B81E090E0BA
:100F9000A0E0B0E004C0880F991FAA1FBB1F6A958C
:100FA000D2F7282F2095232327B928B1822B88B97F
:100FB00039CFCF92DF92EF92FF920F931F93CF938F
:100FC000DF937C016A0110E000E00C151D0581F043
:100FD000EB01D701ED91FC910190F081E02D699139
:100FE000C7010995892B21F00F5F1F4FBE01EDCF7F
:100FF000C801DF91CF911F910F91FF90EF90DF908B
:10100000CF900895880F991F880F991F0597019712
:10101000F1F708953FB7F8948091AA039091AB033C
:10102000A091AC03B091AD0326B5A89B05C02F3F9E
:1010300019F00196A11DB11D3FBFBA2FA92F982FFE
:101040008827BC01CD01620F711D811D911D42E0F9
:10105000660F771F881F991F4A95D1F708958F92C1
:101060009F92AF92BF92CF92DF92EF92FF926B016D
:101070007C010E940A084B015C01C114D104E10407
:10108000F104B9F00E940A08681979098A099B09D4
:10109000683E73408105910580F381E0C81AD1084C
:1010A000E108F10828EE820E23E0921EA11CB11C7B
:1010B000E4CFFF90EF90DF90CF90BF90AF909F90E4
:1010C0008F9008952FB7F8946091A6037091A703AD
:1010D0008091A8039091A9032FBF0895209100014A
:1010E00090E4299F900111248E50822B80937C00E4
:1010F00080917A00806480937A0080917A0086FDE6
:10110000FCCF80917800909179000895E0E06150E3
:1011100098F0DC018D918E27E82FEF70F0E0E85811
:10112000FA4F9491E82FE295EF70F0E0E857FA4F0C
:10113000E491E927CD01EBCF8E2F08950F931F93F4
:10114000CF93DF93FC011081C181D281F894898112
:10115000812B89838A81012F009580238A8383E0F4
:1011600090E00E9402088981802389838AE090E0D0
:101170000E940208C881789485E390E00E940208EA
:10118000C12381E009F480E0DF91CF911F910F919D
:1011900008951F93CF93DF93FC011081C181D28109
:1011A000912F909560FF16C0F8948A8189238A83D5
:1011B0008981812B89838AE090E00E9402088A81DC
:1011C000182B1A83789487E390E0DF91CF911F91D9
:1011D0000C940208F8948A8189238A838981812B5F
:1011E000898381E490E00E9402088A81182B1A8387
:1011F000789485E090E0E9CFDF92EF92FF920F9331
:101200001F93CF93DF93EC01D62EE42E08E010E07D
:10121000FF24F39461E08D2D8F2109F460E0CE016D
:101220000E94C908FF0C01501109A1F7E11010C07C
:10123000F894E981FA81918188818095892381835D
:10124000E981FA81928188818095892382837894CB
:10125000DF91CF911F910F91FF90EF90DF90089554
:10126000EF92FF920F931F93CF93DF938C017B013B
:1012700040E065E50E94FC08E70188E0E80EF11C0B
:10128000699140E0C8010E94FC08CE15DF05C1F756
:10129000DF91CF911F910F91FF90EF900895FF92F2
:1012A0000F931F93CF93DF93FC010081C181D28103
:1012B000F8948981F02EF0948F21898378941DE72A
:1012C000115029F182E090E00E9402088881802379
:1012D000B9F3F8948A818F218A838981802B89834D
:1012E000789480EE91E00E940208F89489818F2121
:1012F000898386E490E00E9402088881082311E037
:1013000009F010E078948AE991E00E940208812FA8
:10131000DF91CF911F910F91FF900895AF92BF92EF
:10132000CF92DF92EF92FF920F931F93CF93DF93B1
:101330008B01BC0180913804909139040E943009DE
:1013400040E06EEB80913804909139040E94FC08D3
:10135000E801680189E0C80ED11CA0903804B09063
:10136000390488E0E82EF12C10E001E0C5010E946C
:101370009E088111102B000F81E0E81AF108B1F7E7
:101380001993CC16DD0649F7809138049091390401
:101390000E944F0991E0813009F090E0892FDF91A0
:1013A000CF911F910F91FF90EF90DF90CF90BF9062
:1013B000AF9008950F931F93CF93DF93CDB7DEB710
:1013C00029970FB6F894DEBF0FBECDBF8C01FC018C
:1013D0008081803181F180913804909139040E949C
:1013E0004F0981110CC080E029960FB6F894DEBF3A
:1013F0000FBECDBFDF91CF911F910F910895BE0118
:101400006F5F7F4FC8010E948E09882361F368E0F7
:10141000CE0101960E94860899858913E4CF8D81BB
:101420008F3359F020F48F31F1F689E0DDCF8F351D
:1014300031F08F37C1F68CE0D7CF8AE0D5CF8BE083
:10144000D3CF0895FC016370668B848195812681DA
:101450003781623021F0633039F0613029F09187B3
:1014600080873387228708953187208793878287F3
:1014700008952F923F924F925F926F927F928F9238
:101480009F92AF92BF92CF92DF92EF92FF920F9313
:101490001F93CF93DF93CDB7DEB76A970FB6F8945B
:1014A000DEBF0FBECDBF9A8F898F7A8369834A01D1
:1014B000D22E18870F833701BC2CDC0159962D9151
:1014C0003C915A972115310509F015C118968D9157
:1014D0009C911997681779070CF0D7C11A968D91CE
:1014E0009C91481759070CF0D0C14C2C512CB6E0F8
:1014F000CB9E600D711D11247C876B871616170615
:101500000CF0C3C1EA2DF0E0FA87E98793E0EE0F13
:10151000FF1F9A95E1F7F88BEF87CF01840F951F96
:10152000181619060CF0B1C1A98DBA8D58968C9178
:10153000811104C0BFEABD1508F4D394A98DBA8DFA
:10154000ED91FC9111970284F385E02DCD01099571
:10155000B5E0DB9EC0011124E981FA81FC83EB83B5
:10156000312C212C9C0128583F4F388F2F8B4A2D2E
:1015700050E05E8B4D8BEF89F88DE20DF31D4491A9
:101580009E828D82D12CC12C69817A81620D731D5E
:101590007A8B698B842F90E09C8B8B8BE98DFA8DF5
:1015A000A081B18140FF82C0F1E0BF126FC0AF12D5
:1015B0006DC01C96ED91FC912F813885A4014C0DD6
:1015C0005D1D69897A89898D9A8D0995EB89FC89D8
:1015D000F595E7954E2F5FEFC51AD50A6D817E818F
:1015E0008D899E89680F791F7E836D8398E0C91667
:1015F000D10481F6AFEF2A1A3A0AEB81FC81E40D9F
:10160000F51DFC83EB83F5E02F16310409F0B3CF11
:101610002F81388526153705B9F0A98DBA8DED9142
:10162000FC91B1E0BB1257C0AB1255C069817A8101
:101630006B5F7F4F0088F189E02D830128E030E067
:10164000A401898D9A8D0995A98DBA8DED91FC9192
:1016500011970688F789E02DCD016A960FB6F894A8
:10166000DEBF0FBECDBFDF91CF911F910F91FF90D5
:10167000EF90DF90CF90BF90AF909F908F907F9032
:101680006F905F904F903F902F9009941E96ED9130
:10169000FC91EF80F88409851A8592014D815E8165
:1016A0006B817C81898D9A8D099590CF2F813885AA
:1016B0002615370509F48ACF31E0B31207C0A3120B
:1016C00005C01C96ED91FC91930178CF1E96ED918B
:1016D000FC917301E0CF6B857C85641975090684E4
:1016E000F785E02D73010F8518899201A401898D7A
:1016F0009A8D0995A9CFF901349694913297459125
:101700005491D91AB7E0DB9E400D511D1124F90107
:10171000259134913C8B2B8BFA0125903490FA0162
:101720003296749031963491398B3296649031961A
:10173000449041E04C1518F04A1508F07FC0662D22
:10174000062C000C770B7C836B83842D042C000CFF
:10175000990B9E838D83A98DBA8DED91FC91119784
:101760000284F385E02DCD010995512CD12CC12C9B
:10177000EA2DF0E0FA87E9872B2D30E03C872B87B4
:10178000A401440D511D47FC5A95588F4F8B698118
:101790007A81660D711D67FC7A957E876D877989E0
:1017A000C71608F051CF2C2D30E04D815E81420FDD
:1017B000531FA985BA854A9FC0014B9F900D5A9F20
:1017C000900D1124FC01E80DF91DF88BEF87852D94
:1017D000612C4F89588D420F531F5E8B4D8B6714C0
:1017E00008F050C044244394480E877041F4C1016E
:1017F0000196EB89FC89E20DF31DD4901C01D7FE04
:1018000019C0A98DBA8DED91FC91662D70E0B1E003
:10181000BB1219C0AB1217C02D853E85620F731F16
:101820000484F585E02D2F8138854D895E89898D69
:101830009A8D0995DD0C6394842DD1CF1E821D8273
:101840001C821B8288CF4B815C81640F751FAB8526
:10185000BC856A9FC0016B9F900D7A9F900D1124EB
:1018600069817A81680F791F0684F785E02DEF8002
:10187000F88409851A859D014F855889898D9A8D2F
:101880000995D8CF570CC3948ACF6A960FB6F894AF
:10189000DEBF0FBECDBFDF91CF911F910F91FF90A3
:1018A000EF90DF90CF90BF90AF909F908F907F9000
:1018B0006F905F904F903F902F9008958F929F92DE
:1018C000AF92CF92EF92FF920F931F93CF93DF933C
:1018D000EC01262F898D9A8D009709F051C06A304E
:1018E000D1F41D861C868D8948E0849F90011124C7
:1018F0008E859F85820F931F9F878E8781E090E062
:10190000DF91CF911F910F91FF90EF90CF90AF900B
:101910009F908F9008956D3089F3CC88AD888F8922
:101920008823C1F08C859D8536E0C39E800D911D76
:101930001124488559854817590764F44E855F85F9
:101940001D861C8638E0A39EC0011124840F951FBC
:101950009F878E87EA88FB88088919894E855F856D
:101960006C857D85CE010E94390A2C898C859D85E8
:1019700046E0249F800D911D11249D878C87BECF4A
:101980006A3069F41D861C86FC013896E4912D8925
:101990008E859F85E29F800D911D1124ADCF6D3006
:1019A00009F4ACCFFC0134963491631708F4A6CF48
:1019B0003296E491E61708F4A1CFFC0132968590A7
:1019C0009490462F431B342F47E0349F800C911C8A
:1019D0001124F401329634913196E4913323A9F124
:1019E000EE2399F1CC88F4013596E491AD884F89C6
:1019F000442301F10E2E000CFF0BE30FF11DCE9ED0
:101A0000A001CF9E500D11246C857D85460F571F78
:101A100068857985641775076CF44E855F851D862A
:101A20001C86FC013896E491AE9E400D511D112498
:101A30005F874E87EA88FB88088919894E855F850C
:101A40006C857D85CE010E94390AF4013496E491BB
:101A50002C898C859D85E29F800D911D11248DCF51
:101A6000682F80E694E00C945E0C6F927F928F92C8
:101A70009F92AF92BF92CF92DF92EF92FF920F931D
:101A80001F93CF93DF93EC016B015A013901480199
:101A9000E881F9810284F385E02D0995E881F981D7
:101AA0000288F389E02D87019301A501B601CE01DB
:101AB0000995A501480D591D41505109E881F98149
:101AC0000288F389E02D9301B601CE010995E881E2
:101AD000F9810088F189E02D9401A501B601CE01BC
:101AE0000995C60CD71CB60161507109E881F981CE
:101AF0000088F189E02D9401A501CE010995E881C6
:101B0000F9810688F789E02DCE01DF91CF911F91F1
:101B10000F91FF90EF90DF90CF90BF90AF909F908C
:101B20008F907F906F9009948F929F92AF92BF9207
:101B3000CF92DF92EF92FF920F931F93CF93DF9399
:101B40004C016B015A01E901DC01ED91FC91621736
:101B5000730709F50417150724F48B2D5801042F7A
:101B6000182F0A191B0998012F5F3F4F048CF58D20
:101B7000E02D8701A501B601C4010995DF91CF9140
:101B80001F910F91FF90EF90DF90CF90BF90AF909B
:101B90009F908F9008954017510781F426173707BB
:101BA00024F48D2D6901C62FD82F9E012C193D09D3
:101BB0002F5F3F4F068CF78DE02DDBCF0284F3853E
:101BC000E02D0995D401ED91FC910488F589E02D73
:101BD0009E01A501B601C4010995D401ED91FC91C6
:101BE0000688F789E02DC401DF91CF911F910F91F5
:101BF000FF90EF90DF90CF90BF90AF909F908F902D
:101C00000994EF92FF920F931F93DC011A960D91A6
:101C10001C911B9718962D913C911997ED91FC9171
:101C200000A0F1A1E02D7B0150E040E070E060E019
:101C300009951F910F91FF90EF9008954F925F9239
:101C40006F927F928F929F92AF92BF92CF92DF92CC
:101C5000EF92FF920F931F93CF93DF936C012B01B1
:101C60005A0139014801DC01ED91FC910284F385B0
:101C7000E02D0995E201640C751CD601ED91FC91F3
:101C8000C615D7055CF40088F189E02D8701940121
:101C9000A501BE01C60109952196EFCF0688F789F7
:101CA000E02DC601DF91CF911F910F91FF90EF9032
:101CB000DF90CF90BF90AF909F908F907F906F906C
:101CC0005F904F9009948F929F92AF92BF92CF9264
:101CD000DF92EF92FF920F931F93CF93DF93EC016C
:101CE0005B014A016901E881F9810284F385E02DF5
:101CF000099595012C0D3D1D21503109E881F9818F
:101D00000488F589E02D78018401A401B501CE0194
:101D10000995E881F9810688F789E02DCE01DF91E8
:101D2000CF911F910F91FF90EF90DF90CF90BF90D8
:101D3000AF909F908F9009948F929F92AF92BF9295
:101D4000CF92DF92EF92FF920F931F93CF93DF9387
:101D5000EC015B014A0169017801E881F9810284A3
:101D6000F385E02D0995C80CD91C86010150110995
:101D7000E881F9810488F589E02D9501A401B50178
:101D8000CE010995E881F9810688F789E02DCE0119
:101D9000DF91CF911F910F91FF90EF90DF90CF9047
:101DA000BF90AF909F908F900994EF92FF920F9306
:101DB0001F93DC01ED91FC9100A0F1A1E02D0995AC
:101DC0001F910F91FF90EF9008950F931F93DC01E7
:101DD000ED91FC91068CF78DE02D09951F910F91E7
:101DE00008950F931F93DC01ED91FC91048CF58D08
:101DF000E02D09951F910F910895DC01ED91FC9163
:101E00000084F185E02D09943F924F925F926F928A
:101E10007F928F929F92AF92BF92CF92DF92EF927A
:101E2000FF920F931F93CF93DF935C017B014A01D5
:101E30006901390187E0680E711C93E0759467941D
:101E40009A95E1F72B01400E511E10E000E0312C75
:101E5000D0E0C0E0CE0187709927330C892B59F46C
:101E6000FE0183E0F595E7958A95E1F7E00FF11F14
:101E7000E80DF91D349037FE0AC021E030E0A701DB
:101E8000B5016C0F7D1F80E694E00E94FD0E219647
:101E9000CC16DD06F9F68FEFE81AF80A060D171DC5
:101EA000E414F504A9F6DF91CF911F910F91FF90F3
:101EB000EF90DF90CF90BF90AF909F908F907F90EA
:101EC0006F905F904F903F9008952F923F924F9266
:101ED0005F926F927F928F929F92AF92BF92CF92BA
:101EE000DF92EF92FF920F931F93CF93DF9300D077
:101EF00000D000D0CDB7DEB72C017E836D836A01A0
:101F00005901C801FC82EB824801841A950A97FEA8
:101F100003C091948194910835012D813E81621A0C
:101F2000730A77FE03C07194619471086814790490
:101F30005CF43A2D2B2D5C01832F922F3D812E8155
:101F4000DE82CD82C32ED22EAD81BE81AA16BB0603
:101F50005CF43C2D2D2D6C01832F922F3D812E8121
:101F6000BE82AD82A32EB22E85012D813E81021B41
:101F7000130B1C012C183D0837FE03C0319421942B
:101F80003108780117FF03C03FEFE31AF30AF59415
:101F9000E794C816D90664F18FEF9FEF9A8389837F
:101FA0002D813E81A216B30644F1D201ED91FC9140
:101FB0000484F585E02D2B813C814D815E81B60145
:101FC000681479041CF0A6016D817E81C201099517
:101FD000E218F308F7FE06C029813A81C20ED31E2B
:101FE000E00EF11E8D819E8101969E838D83D8CF58
:101FF000A1E0B0E0BA83A983D3CF26960FB6F894B8
:10200000DEBF0FBECDBFDF91CF911F910F91FF902B
:10201000EF90DF90CF90BF90AF909F908F907F9088
:102020006F905F904F903F902F90089585ED809333
:10203000BC008091BC0084FDFCCF10922104089567
:1020400020918203260F3327331F21323105ECF410
:1020500020912104FC0190E080E0243069F082E0CE
:102060000895A09182032191AC014E595C4FA40FB9
:10207000B52FB11D2C930196861798F3809182039A
:10208000680F6093820380E0089581E00895E091F5
:10209000D9038091D803E81730F4F0E0E552FC4F03
:1020A000808190E008958FEF9FEF08959091D9037C
:1020B0008091D8032FEF3FEF981748F4E92FF0E015
:1020C000E552FC4F208130E09F5F9093D903C90116
:1020D0000895CF92DF92EF92FF920F931F93CF93C9
:1020E000DF937C01CB018A0120912D04222389F00A
:1020F000EB016B01C40ED51ECC15DD0569F06991AD
:10210000D701ED91FC910190F081E02DC701099577
:10211000F3CF642F0E942010C801DF91CF911F914F
:102120000F91FF90EF90DF90CF900895CF93DF93C2
:102130000F92CDB7DEB7698320912D042223F9F0E9
:1021400020912A04203258F021E030E0FC01338352
:10215000228390E080E00F90DF91CF9108958091ED
:102160002B04E82FF0E0EE5BFC4F998190838F5FAA
:1021700080932B0480932A0481E090E0ECCF61E00F
:10218000CE0101960E942010F7CF682F84E594E0DD
:102190000C94961020912A0481E0213208F046C068
:1021A000809121048111FCCF90912C0432E0309376
:1021B000210431E0309320043FEF30931F0410924C
:1021C0001E0420931D0442E453E0ABEFB3E0FA0198
:1021D0003E2F341B321788F110921C0420911C04EE
:1021E000990F922B90931C0490911B04913041F510
:1021F00010921B0490911C049093BB009091BC0022
:1022000093FDF8CF95EC9093BC009091210492300F
:10221000E1F390911F049F3F49F080911F048032A9
:1022200089F080911F04803379F084E010922B04B0
:1022300010922A0410922D04089531913D93C8CF35
:1022400095EEE1CF82E0F2CF83E0F0CFCF9388E646
:102250000E947C0560E084E594E00E94961060E8AE
:1022600084E594E00E94961080912304CAE06C2FCC
:102270000E942B378295807F682F690F84E594E058
:102280000E949610809124046C2F0E942B37829517
:10229000807F682F690F84E594E00E9496108091FA
:1022A00025046C2F0E942B378295807F682F690F41
:1022B00084E594E00E949610809126046C2F0E9481
:1022C0002B378295807F682F690F84E594E00E9408
:1022D0009610809127046C2F0E942B378295807F67
:1022E000682F690F84E594E00E949610809128047D
:1022F0008E516C2F0E942B378295807F682F690F3B
:1023000084E594E00E94961084E594E00E94CA104F
:10231000882329F01092290480E0CF91089581E06C
:102320008093290488E60E947C0560E084E594E0BF
:102330000E949610809122046C2F0E942B37829568
:10234000807F682F690F84E594E00E94961084E5F1
:1023500094E00E94CA108111DDCF81E0DECFBF92F0
:10236000CF92DF92EF92FF920F931F93CF93DF9361
:102370008C017B01E40EF51EEB01B99068018FEF33
:10238000C81AD80A8091C8040E947C05812F90E069
:102390000E94C510C80199270E94C5106B2D84E5C5
:1023A00094E00E94961084E594E00E94CA106AE0CE
:1023B00070E080E090E00E942F08BE018601CE15FB
:1023C000DF05D1F6DF91CF911F910F91FF90EF9034
:1023D000DF90CF90BF9008950F931F93CF93DF931B
:1023E000EC01EC81FD816E177F070CF073C0DA0100
:1023F000A20FB31F57FF03C09D0150E040E08E8144
:102400009F818A179B071CF49C01241B350B121615
:1024100013060CF05FC0922F842F869586958695C3
:102420008E9FD0018F9FB00D1124A60FB71F6F8D07
:1024300078A1A60FB71F477059F188E0841B482F79
:10244000682F70E0FB01E059FF4FE491281708F076
:1024500065C0621B71092FEF30E002C035952795EA
:102460006A95E2F7E2230130110549F001151105E3
:10247000B1F10230110571F58C91E82702C08C9101
:10248000E82BEC93941730F12C813D81A20FB31F00
:10249000E92FE41BE83078F00230110521F58E2F8A
:1024A0009C9190959C932C813D81A20FB31F8850E5
:1024B0008830B0F7E770EE2369F0F0E0E859FF4F9D
:1024C000E49101301105F9F00115110501F1023017
:1024D000110509F1DF91CF911F910F910895E095BA
:1024E0008C91E823CECF81E00115110509F480E03D
:1024F00081959E2F8C932C813D81A20FB31F985004
:102500009830C0F7D7CF8C91E82BEC93E3CFE095D0
:102510008C91E823FACF8C91E827F7CF0130110591
:1025200009F4ADCF01151105D1F20230110509F4FE
:10253000A3CFAACF0F931F93CF93DF93FB01E20F9B
:10254000F31F77FF03C09F0170E060E0DC01149689
:10255000CD91DC91CE17DF071CF49E01261B370BB3
:10256000121613065CF5FA0157FD3796A3E0F595B0
:10257000E795AA95E1F7EC9FD001ED9FB00DFC9F88
:10258000B00D11246A0F7B1FDC015F96ED91FC9169
:10259000E60FF71F4770552781E090E001C0880FD4
:1025A0004A95EAF7482F0130110569F00115110528
:1025B000A9F02E0F3F1F02301105E1F0DF91CF91FE
:1025C0001F910F9108952E0F3F1FE217F307B1F3EC
:1025D000DF018D91842B8083FD01F7CF80952E0F35
:1025E0003F1F2E173F0751F3DF019D9198239083E2
:1025F000FD01F7CFE217F30709F3DF018D9184277F
:102600008083FD01F7CF0F931F93FA01DC015696EB
:102610004C9156974230E9F04330A1F1413061F5D9
:1026200014964D915C91DA01AE1BBF0BFD01E21BCC
:10263000F30B77FD0BC0DC0116964D915C9164178E
:10264000750724F4AB01BF010E949A121F910F91EC
:10265000089514964D915C91DA01A61BB70BBD014C
:1026600061507109DC0116964D915C91DA01AE1B47
:10267000BF0BFD01E21BF30B77FDE8CFAF010E941A
:10268000EC11E4CF16964D915C91DA01A61BB70BC5
:10269000BD0161507109CDCF0F931F93FA01DC0189
:1026A00056964C9156974230A9F0433091F1413003
:1026B00019F514964D915C91DA01AE1BBF0BFD012B
:1026C0003197F7FD04C0AB01BF010E94EC111F91CF
:1026D0000F91089514964D915C91DA01A61BB70BEA
:1026E000BD01DC0116964D915C91DA01AE1BBF0B6A
:1026F000FD013197621B730BF7FDE9CFDC011696E4
:102700004D915C91E417F50714F7AF010E949A12FE
:10271000DECF16964D915C91DA01A61BB70BBD0179
:10272000621B730BCECFFC0177FD66C0808591855F
:10273000681779070CF060C057FD5EC082859385ED
:10274000481759070CF058C086898230C1F0833091
:1027500039F1813041F484819581841B950BAB0163
:10276000BC01615071092130310519F12115310584
:1027700009F443C02230310509F463C0089584810F
:102780009581DC01A61BB70BBD01615071098681E3
:102790009781DC01A41BB50BAD0141505109E3CF7A
:1027A00086819781861B970BBA01AC014150510974
:1027B000DACFCA0157FD0796A3E095958795AA95AC
:1027C000E1F7A481B5818A9F90018B9F300D9A9F7C
:1027D000300D1124620F731F078CF0A1E02DE60F5E
:1027E000F71F4770552721E030E001C0220F4A95BE
:1027F000EAF78081822B80830895CA0157FD0796EE
:1028000033E0959587953A95E1F7A481B5818A9F44
:1028100090018B9F300D9A9F300D1124620F731F12
:10282000078CF0A1E02DE60FF71F4770552781E0D8
:1028300090E001C0880F4A95EAF78095908189233E
:10284000DACFCA0157FD079623E0959587952A951B
:10285000E1F7A481B5818A9F90018B9F300D9A9FEB
:10286000300D1124620F731F078CF0A1E02DE60FCD
:10287000F71F4770552721E030E001C0220F4A952D
:10288000EAF780818227B7CF08958EBD00000DB48E
:1028900007FEFDCF8EB50895FF920F931F93CF9340
:1028A000DF93F82ED92FC62F80917D0490917E045E
:1028B000892B09F447C0809181040E947C05809196
:1028C0007D0490917E04DC01ED91FC910190F081FA
:1028D000E02D60E009950F2D1D2FD1E0C1508091B2
:1028E0007D0490917E04CF3F31F1D03298F00E9468
:1028F000CA10809181040E947C0580917D04909192
:102900007E04DC01ED91FC910190F081E02D60E00E
:102910000995D1E080917D0490917E04F801649145
:10292000DC01ED91FC910190F081E02D0995DF5FD4
:102930000F5F1F4FD3CFDF91CF911F910F91FF906A
:102940000C94CA10E0918D04F0918E0490818091D6
:1029500093048095892380830F2D1D2FC15008F487
:1029600038C0F801849120917B0430917C04232BA2
:1029700029F00E9445140F5F1F4FF0CF28E030E090
:1029800040E8E0918904F0918A0490919104582FD5
:102990005423D9F05081952B9083E0918B04F091D2
:1029A0008C04908150919204952B9083E0918B043C
:1029B000F0918C045081909192049095952390838E
:1029C000469521503109E9F6D6CF5081909595234F
:1029D000E3CFDF91CF911F910F91FF9008951F9347
:1029E000CF93DF93EC01162F8D8D9E8D892BF1F007
:1029F00089A10E947C058D8D9E8DDC01ED91FC915D
:102A00000190F081E02D60E009958D8D9E8DDC01B7
:102A1000ED91FC910190F081E02D612F09958D8D54
:102A20009E8DDF91CF911F910C94CA10EDA5FEA54C
:102A300090818BA98095892380838B8D9C8D892B98
:102A400031F0862FDF91CF911F910C94451428E02F
:102A500030E090E8E9A5FAA589A9412F4923C1F002
:102A60004081842B8083EBA5FCA580814AA9842B1F
:102A70008083EBA5FCA540818AA98095842380836F
:102A800096952150310931F7DF91CF911F9108952B
:102A9000408180958423E6CF8CBD9DBD0895FF9233
:102AA0000F931F93CF93DF9380917D0490917E04C9
:102AB000892B09F472C08CE08093B80065E088E649
:102AC0009AE00E944C1460916404615080E694E0A6
:102AD0000E94EF142091660430916704C9010796A3
:102AE00097FD079623E0959587952A95E1F7209124
:102AF000640430916504829F8001839F100D929F32
:102B0000100D1124C0917F04D091800480917D0428
:102B100090917E040C0F1D1F892B09F47CC08091BD
:102B200081040E947C0580917D0490917E04DC01EB
:102B3000ED91FC910190F081E02D60E40995FF2476
:102B4000F39480917D0490917E04C017D107E1F148
:102B5000BFE1BF15A0F40E94CA10809181040E94B9
:102B60007C0580917D0490917E04DC01ED91FC91C7
:102B70000190F081E02D60E40995FF24F3948091A9
:102B80007D0490917E04DC01ED91FC910190F08137
:102B9000E02D69910995F394D4CF80917B049091B5
:102BA0007C04892B31F080919504909196040E94C9
:102BB0004C15E0918F04F0919004908180919404E1
:102BC0008095892380837ACF0E94CA1080917D04EA
:102BD00090917E04892B09F45FC020919704309175
:102BE00098044091990450919A0460E074E284EF53
:102BF00090E00E94543920513109410951095695FC
:102C00004795379527952093B800DF91CF911F9175
:102C10000F91FF900895E0918D04F0918E048081D2
:102C200090919304892B80830C171D0779F2899169
:102C300020917B0430917C04232B19F00E944514D1
:102C4000F3CF28E030E040E8E0918904F0918A0475
:102C500090919104582F5423D9F05081952B908353
:102C6000E0918B04F0918C04908150919204952B0B
:102C70009083E0918B04F0918C04508190919204A8
:102C8000909595239083469521503109E9F6CCCF54
:102C9000508190959523E3CFE0918F04F0919004BB
:102CA000808190919404892B8083AFCFCF93C0E033
:102CB000811106C080918204CFEC813009F4CFE904
:102CC00080917D0490917E04892B69F18CE0809342
:102CD000B80061E880E694E00E94EF146C2F80E673
:102CE00094E00E94EF1480917D0490917E04892BE2
:102CF00089F1209197043091980440919904509162
:102D00009A0460E074E284EF90E00E94543920510C
:102D100031094109510956954795379527952093D3
:102D2000B800CF91089580917B0490917C04892B09
:102D300031F080919504909196040E944C15E09199
:102D40008F04F09190049081809194048095892360
:102D50008083BFCFE0918F04F091900480819091A7
:102D60009404892B8083DDCF1F93CF93DF93EC01F5
:102D7000162F8D8D9E8D892B29F18CE08093B800C4
:102D800066EA111167EACE010E94EF148D8D9E8DC7
:102D9000892B41F12FA938AD49AD5AAD60E074E2FD
:102DA00084EF90E00E9454392051310941095109C2
:102DB00056954795379527952093B800DF91CF9189
:102DC0001F9108958B8D9C8D892B21F08DA99EA933
:102DD0000E944C15EFA5F8A990818CA980958923B4
:102DE0008083CECFEFA5F8A980819CA9892B808311
:102DF000E5CF089590E080E008958093BB0084E8DB
:102E00008093BC008091BC0087FFFCCF9091B900FB
:102E1000987F81E0983231F0983129F0903419F0A0
:102E200080E008950895089584EA8093BC0080911D
:102E3000BC0087FFFCCF8091B900887F19F080EC3F
:102E40000C94FD1680E008955F926F927F928F92AE
:102E50009F92AF92BF92CF92DF92EF92FF920F9329
:102E60001F93CF93DF93CDB7DEB7582E742E652E08
:102E7000B62E922E0E941417852D0E94FD168D2DC0
:102E80000E94FD168C2D0E94FD168B2D83708A29C1
:102E900090E081109CE0892B0E94FD16862D0E94F7
:102EA000FD16872D0E94FD168CE0F694E794D794CA
:102EB000C7948A95D1F78C2D807FC82E892D8F706D
:102EC0008C290E94FD16812F0E94FD16802F0E94E2
:102ED000FD1684E98093BC008091BC0084FDFCCF8A
:102EE000DF91CF911F910F91FF90EF90DF90CF90E6
:102EF000BF90AF909F908F907F906F905F9008955C
:102F00004F925F926F927F928F929F92AF92BF92F9
:102F1000CF92DF92EF92FF920F931F93CF93C82F20
:102F2000C090BF04D090C004E090C104F090C204EF
:102F3000CB01BA01A70196010E94543949015A01F7
:102F400025E0F694E794D794C7942A95D1F735E015
:102F500096958795779567953A95D1F747E0660FEF
:102F6000771F881F991F4A95D1F7A70196010E94E4
:102F7000543929013A018B019C01B501A40155275F
:102F800066277727E7E0440F551F661F771FEA95EE
:102F9000D1F7525061097109440D551D661D771D09
:102FA000812CA12C8C2F0E942417CF911F910F915F
:102FB000FF90EF90DF90CF90BF90AF909F908F9059
:102FC0007F906F905F904F9008958F92AF92CF92C5
:102FD000DF92EF92FF920F931F93882483944430E3
:102FE00051056105710509F0812C445051096109B1
:102FF0007E4F97E0440F551F661F771F9A95D1F7B4
:10300000A22EC12CD12C7601C39400E010E09801CF
:103010000E9424171F910F91FF90EF90DF90CF90A7
:10302000AF908F900895CF93DF93D82FC62F0E9433
:1030300014178D2F0E94FD168C2F0E94FD1684E917
:103040008093BC008091BC0084FDFCCFDF91CF91C8
:103050000895CF93C82F60E880E18C0F0E94131869
:10306000EC2FF0E0EE0FFF1FE955FB4F11821082AD
:10307000CF9108954F925F926F927F92AF92BF92DD
:10308000CF92DF92EF92FF920F931F93CF93DF9334
:10309000D82F082F10E0F801EE0FFF1FEE0FFF1FD3
:1030A000ED54FB4F40805180628073804114510485
:1030B0006104710489F48D2FDF91CF911F910F91DD
:1030C000FF90EF90DF90CF90BF90AF907F906F9088
:1030D0005F904F900C9429185801AA0CBB1CF50165
:1030E000E955FB4FC080D180F12CE12C09551B4FD5
:1030F000F801C681A3019201C701B6010E941B37E6
:103100009B01AC01EC2FF0E0E55AFE4FA081B0E04E
:103110000E9449399B01AC0120583447424D5A4125
:103120002130334A414E514108F43FC060913A0189
:1031300070913B0180913C0190913D01A30192016E
:103140000E94543969017A0184E0C816D104E1046F
:10315000F10408F4B0CFE6E0CE16D104E104F104A6
:1031600008F470C0C0E0FDE2CF16F1E0DF06E10434
:10317000F10430F0CF5FF694E794D794C794F3CF7F
:10318000C11103C0E894C0F8C0E0A3019201C701D7
:10319000B6010E941B379B01AC01EC2FF0E0E55A11
:1031A000FE4FA081B0E00E9449392AE1D11122E20C
:1031B000AB01BC01822F0E948017F501E955FB4F3E
:1031C00080819181B0E0A0E08C159D05AE05BF0522
:1031D00021F4F80186818C1731F12C2F2295207F64
:1031E000B701A6018D2F880F880F880F865D0E947A
:1031F000E517F801618580E0D11180E2682B6C64ED
:1032000080E18D0F0E941318F501E955FB4FD18223
:10321000C082F801C6838091C70490E2D11190E882
:10322000892B8093C704DF91CF911F910F91FF905D
:10323000EF90DF90CF90BF90AF907F906F905F90B6
:103240004F90089584E0C82ED12CE12CF12C9ACF18
:103250002F923F924F925F926F927F928F929F92A6
:10326000AF92BF92CF92DF92EF92FF920F931F9394
:10327000CF93DF9300D000D00F92CDB7DEB74901D6
:103280005A01270138011092C704C090B704D090AA
:10329000B804E090B904F090BA040091B30410911E
:1032A000B4042091B5043091B60406171707280717
:1032B000390759F06093B3047093B4048093B50454
:1032C0009093B60480E00E943A18C814D904EA0426
:1032D000FB0471F48091BB049091BC04A091BD04E7
:1032E000B091BE0484159505A605B70509F403C180
:1032F0008092B7049092B804A092B904B092BA0434
:103300004092BB045092BC046092BD047092BE0413
:1033100081149104A104B10419F481E00E942918D8
:103320008091BB049091BC04A091BD04B091BE04F7
:10333000892B8A2B8B2B19F482E00E94291840904C
:10334000B7045090B8046090B9047090BA04411466
:1033500051046104710409F473C1C814D904EA0466
:10336000FB0409F4A5C0C090A904D090AA04F12CD4
:10337000E12C2091AE042983A3019201C701B6017B
:103380000E941B379B01AC018981E82FF0E0E55AD0
:10339000FE4FA081B0E00E9449394B015C01DC0185
:1033A000CB0180589447A24DBA418130934AA14E37
:1033B000B14108F446C060913A0170913B0180919F
:1033C0003C0190913D01A30192010E945439690191
:1033D0007A0181E044E0C416D104E104F10408F468
:1033E00088C086E0C816D104E104F10408F4A4C042
:1033F00019829DE2C91691E0D906E104F10440F07A
:1034000029812F5F2983F694E794D794C794F1CF4D
:103410004981411103C0E894C0F81982A3019201C7
:10342000C701B6010E941B379B01AC018981E82FBF
:10343000F0E0E55AFE4FA081B0E00E9449394B010F
:103440005C01B501A40182E20E9480178091A90469
:103450009091AA04B0E0A0E08C159D05AE05BF05D3
:1034600029F48091AE0499818917D1F029812295A0
:10347000207FB701A60182E30E94E5176091B104A5
:103480006C6681E10E941318D092AA04C092A9042C
:1034900029812093AE048091C70480688093C7047B
:1034A0008092C3049092C404A092C504B092C60452
:1034B000C090BB04D090BC04E090BD04F090BE046A
:1034C000C114D104E104F104B1F08090C3049090E0
:1034D000C404A090C504B090C604C501B401A701FE
:1034E00096010E945439283031054105510550F5A7
:1034F00082E00E9429186091C704662319F081EBCD
:103500000E9413188091C7040F900F900F900F9096
:103510000F90DF91CF911F910F91FF90EF90DF906F
:10352000CF90BF90AF909F908F907F906F905F9063
:103530004F903F902F90089504E0C02ED12CE12CA5
:10354000F12C69CF1D82213431054105510560F010
:103550008D818F5F8D83CC0CDD1CEE1CFF1C56957E
:10356000479537952795EFCFC501B401A70196017F
:103570000E94543929833A834B835C832FEF3FEFBA
:103580004FE050E00E944B3756016701E12CF12CCF
:1035900000E010E00E94783729013A019D81929560
:1035A000907F9D83C12CD12C7601C394411451048A
:1035B0006104710431F0CC24CA94DC2CFFE0EF2EBE
:1035C000F12CC301B20127E0660F771F881F991FF6
:1035D0002A95D1F7A70196010E94543949015A0151
:1035E0008B019C0149815A816B817C81552766271B
:1035F0007727E7E0440F551F661F771FEA95D1F73D
:10360000525061097109480D591D6A1D7B1D812C9D
:10361000AD808AE30E9424176CE445284628472899
:1036200009F06CE08091B204682B606282E10E9434
:10363000131881E090E09093AC048093AB045BCFCF
:103640008090BB049090BC04A090BD04B090BE04D8
:1036500081149104A104B10409F44DCFC090AB04CE
:10366000D090AC04F12CE12C2091AF042983A5016A
:103670009401C701B6010E941B379B01AC018981EF
:10368000E82FF0E0E55AFE4FA081B0E00E944939F2
:103690008B019C0100581447224D3A410130134AD6
:1036A000214E314108F443C060913A0170913B01D1
:1036B00080913C0190913D01A50194010E945439F3
:1036C00069017A0184E0C816D104E104F10408F428
:1036D0000FCF96E0C916D104E104F10408F458C0F4
:1036E00019822DE2C21621E0D206E104F10440F075
:1036F00049814F5F4983F694E794D794C794F1CFFB
:103700008981811103C0E894C0F81982A501940150
:10371000C701B6010E941B379B01AC019981E92FBB
:10372000F0E0E55AFE4FA081B0E00E944939AB01BC
:10373000BC0182E20E9480178091AB049091AC049E
:10374000B0E0A0E08C159D05AE05BF0531F4809179
:10375000AF042981821709F4CECE29812295207FDA
:10376000B701A6018AE30E94E5176091B2046C6676
:1037700082E10E941318D092AC04C092AB0449813C
:103780004093AF048091C70480688093C704B3CE90
:1037900084E0C82ED12CE12CF12CB5CFFF920F93F1
:1037A0001F93CF93DF9300D0CDB7DEB7E3E1F1E015
:1037B00010E000E08191080F111D81E0E733F80768
:1037C000C9F744E250E063E171E082E090E00E94DA
:1037D000AF110D5F1F4F1A83098342E050E0BE0115
:1037E0006F5F7F4F90E080E00E94AF11E9E0F1E071
:1037F00083E191E010E000E02191020F111D8E178E
:103800009F07D1F7809114019CE0F92E8F9DC00194
:1038100011244AE050E069E071E088960E94AF11FF
:103820000D5F1F4F1A830983809114018F9DC00182
:10383000112442E050E0BE016F5F7F4F86960E94E8
:10384000AF110F900F90DF91CF911F910F91FF90CB
:1038500008958091230190912401092E000CAA0B58
:10386000BB0B80549340A446BE4F8093BF049093FB
:10387000C004A093C104B093C20480E00E943A182F
:1038800081E00C943A18CF93DF9385E10E946E0893
:10389000809137039091380327E0289FE001299F0A
:1038A000D00D112485E10E946E08DE01A80FB91F1A
:1038B000AA0FBB1F94E0B695A7959A95E1F7B09330
:1038C0003803A09337032091250130E00E94763918
:1038D0002FEF33E040E050E00E942A3920933E036E
:1038E000DF91CF910895CF93DF938FE00E946E0810
:1038F00080913C0390913D03EC01CC0FDD1FC80F7C
:10390000D91F8FE00E946E082196C80FD91FCC0FD7
:10391000DD1FCC0FDD1F44E0D695C7954A95E1F732
:10392000D0933D03C0933C0380E10E946E088091D8
:103930003A0390913B03EC01CC0FDD1FC80FD91F58
:1039400080E10E946E082196C80FD91FCC0FDD1FA1
:10395000CC0FDD1F74E0D695C7957A95E1F7D0932B
:103960003B03C0933A03DF91CF910895DC01ED91C1
:10397000FD918081ED91FD919081ED91FD916C9192
:1039800063708E2309F064609F2309F06860E3EDA3
:10399000FCE1E60FF11D659565956D936D917D9147
:1039A0008D919D91099423C01AC012C016C010C0F9
:1039B0001EC009C014C013C006C019C009C00DC084
:1039C00007C00DC014C062507040804090400BC0D2
:1039D000615070408040904006C06E5F01C06F5FD4
:1039E0007F4F8F4F9F4F9E938E937E936E9308953C
:1039F000BF92CF92DF92EF92FF920F931F93CF93DC
:103A0000DF93EC01B62EC72E8D85811105C0CE0146
:103A10000E944F0981110EC01B861D861C8680E006
:103A2000DF91CF911F910F91FF90EF90DF90CF909A
:103A3000BF90089540E060EFCE010E94FC0801E0D5
:103A4000E12CD12C11E0CE010E949E08F82ECE016F
:103A50000E949E0891E0F91218C0813099F5113446
:103A6000D8F2DB86D11002C081E08D878B8188235C
:103A700099F22396EB2DFC2DCF01089629912193E5
:103A8000E817F907D9F781E0CBCF2E2D30E0F812F7
:103A90000EC08B851817A0F4FE01E20FF31F83817F
:103AA000802381F4F12C193008F41C87D12EFE01FB
:103AB000E20FF31F8381902F9095892383830AC09F
:103AC0008113F0CFFE01EE0DF11D8381802B8383E6
:103AD000FF24F3946F2DCE010E94C9081F5F000FD1
:103AE00011F4E39401E087E08E1508F0ACCFB7CF76
:103AF0004F925F926F927F928F929F92AF92BF92FE
:103B0000CF92DF92EF92FF920F931F93CF93DF93A9
:103B1000CDB7DEB761970FB6F894DEBF0FBECDBF4D
:103B20000E946208C0903303D0903403E0903503C4
:103B3000F09036036C197D098E099F09693873412D
:103B40008105910508F458C080913203811154C059
:103B50001092340480913804909139040E944F09E6
:103B600040E06CEC80913804909139040E94FC088C
:103B70004091320464E480913804909139040E94A9
:103B8000FC0880913404882391F1E0913304E950DA
:103B90000EEE12E0E33038F4F0E0EE0FFF1FE95BC9
:103BA000FE4F0081118180913504882309F481C082
:103BB0008091320481117DC00E9462084B015C013A
:103BC0002801110F66087708809138049091390414
:103BD0000E949E08813059F00E946208641975099C
:103BE00086099709681579058A059B0568F381E0C0
:103BF00080933404809332030E9462086C197D091B
:103C00008E099F0961347F4181059105D8F180912A
:103C100032038823B9F1E0913804F0913904138616
:103C200015861486128611861086178216821582D2
:103C300014821382BE01665F7F4F80913804909199
:103C400039040E94F81C81113BC060E070E08EEFE7
:103C500092EC20E030E040E05FE30E9486390E9471
:103C6000F23980912801680F609339030E9462083D
:103C7000609333037093340380933503909336033A
:103C80001092320361960FB6F894DEBF0FBECDBF1F
:103C9000DF91CF911F910F91FF90EF90DF90CF9028
:103CA000BF90AF909F908F907F906F905F904F905C
:103CB0000895B801110F880B990B0E942F0897CF18
:103CC00067E0CE010A960E94860899898913BDCFC4
:103CD00080913804909139040E944F09882309F497
:103CE000B4CFBE016F5F7F4FCE010A960E948E094E
:103CF000882309F4AACF68E0CE0101960E948608C5
:103D000099858913A2CF6A8170E0762F6627770F95
:103D1000770F770F298158E0259F90011124262BDA
:103D2000372B8A858031D1F4688570E08F81AB01B3
:103D3000481B5109CA019695982F88279795879512
:103D40000E943737CB014097B90153E0660F771FC8
:103D50005A95E1F760789C01260F371F213854EE01
:103D600035070CF472CFB901330F880B990B0E9401
:103D70002A3A20E030E040E05CE30E94B63A69CFA6
:103D80000F931F93CF93DF938091C303882359F040
:103D9000109222040E9426111092C303DF91CF914A
:103DA0001F910F9108950E94620800912E031091B7
:103DB0002F032091300330913103601B710B820B74
:103DC000930B693E73408105910520F4012B022B72
:103DD000032B21F70E94620860932E0370932F0338
:103DE000809330039093310388E60E947C0560E065
:103DF00084E594E00E94961084E594E00E94CA1045
:103E0000882319F010922904C9CF81E080932904F6
:103E100067E088E60E9486051092D9038093D80354
:103E2000873008F461C084E594E00E945610D82FD2
:103E3000982F92959770CAE08D2F8F709C9F800D60
:103E400011248093220484E594E00E945610982F58
:103E500092959F708F709C9F800D112480932304F6
:103E600084E594E00E945610982F929593708F707D
:103E70009C9F800D11248093240484E594E00E948B
:103E80005610982F92959F708F709C9F800D1124D3
:103E90008093250484E594E00E945610982F929513
:103EA0009F708F709C9F800D11248093260484E561
:103EB00094E00E945610982F92959F708F709C9F4F
:103EC000800D11248093270484E594E00E9456100D
:103ED000982F9F70925E82958F708C9F900D112409
:103EE00090932804D7FF5ACF1092240410922304F1
:103EF00010922204DF91CF911F910F910C94261103
:103F0000CF93DF93EC018091C8040E947C058D2F34
:103F100090E00E94C510CE0199270E94C51084E54B
:103F200094E00E94CA1061E08091C8040E94860556
:103F30001092D9038093D803882321F084E594E07C
:103F40000E945610DF91CF910895EF92FF920F9348
:103F50001F93CF93DF938B01040F151F7C012FEF6D
:103F6000E21AF20AEB010E94801F8993C701BE0189
:103F70000C171D0799F7DF91CF911F910F91FF90BB
:103F8000EF900895DF92EF92FF920F931F93CF93DC
:103F9000DF9300D0CDB7DEB71A8219828091140169
:103FA0002CE0829FC001112442E050E0BE016F5F0F
:103FB0007F4F86960E94A51FF12CE12C10E000E0B7
:103FC0008CE0D82E8091140197018D9D200D311D1C
:103FD0001124C90188960E94801F080F111D3FEF10
:103FE000E31AF30A8AE0E816F10461F70D5F1F4F48
:103FF00089819A8108171907B1F4809114018D9D68
:10400000C00111244AE050E069E071E088960E9406
:10401000A51F0F900F90DF91CF911F910F91FF90EF
:10402000EF90DF9008950E94CE1BF3CF0F931F9364
:10403000CF93DF931092400360910A0170910B01BE
:1040400080910C0190910D0120EA36E841E050E0AA
:104050000E94543980912C018217130609F018F43C
:1040600081E08093400380912B018217130609F0B1
:1040700018F482E08093400380912A01821713068E
:1040800009F018F483E0809340038091290182179E
:10409000130609F018F484E0809340032091400354
:1040A00081E090E0A0E0B0E004C0880F991FAA1F53
:1040B000BB1F2A95D2F7809341032091D20322237C
:1040C00059F020913001222339F02091AF032111C2
:1040D00003C080628093410380913501882329F0D9
:1040E000809141038064809341038091360188234D
:1040F00029F0809141038068809341032C980091BE
:104100004103C7E0D0E010E0B8010C2E02C0759565
:1041100067950A94E2F761708BE00E944D062D9A34
:104120002D98219788F72C9ADF91CF911F910F91AD
:1041300008954F925F926F927F928F929F92AF926B
:10414000BF92EF92FF920F931F9320910901E0908D
:104150001701F09018010091190110911A01609156
:104160000A0170910B0180910C0190910D01309129
:10417000D2036E0D7F1D801F911F332339F122233F
:10418000E1F020911F0130912001409121015091D7
:104190002201620F731F841F951F0E9428191F910F
:1041A0000F91FF90EF90BF90AF909F908F907F9076
:1041B0006F905F904F900C94162020911B013091CE
:1041C0001C0140911D0150911E01E3CF80903101EF
:1041D00090903201A0903301B09034012223B9F0C5
:1041E00040901F01509020016090210170902201A9
:1041F000A3019201280D391D4A1D5B1D640D751D1B
:10420000861D971D680D791D8A1D9B1DC6CF409088
:104210001B0150901C0160901D0170901E01E8CFA1
:104220008091BB038823A9F18091BA0381110CC04E
:1042300080913F03882389F1809180008F7C809357
:10424000800010923F0329C080913F03811125C057
:104250008091D303811121C020912E0184E1289FF8
:1042600090011124032E000C440B550B60E472E402
:104270008FE090E00E945439CA01B9010E94CA053A
:10428000809180008F7C80618093800081E08093AA
:104290003F038091BA03882359F20895009769F08B
:1042A000FC0101900020E9F73197AF01481B590B41
:1042B000BC0180E694E00C94D90790E080E008957A
:1042C000CF93DF930E944E21EC0181EA91E00E949E
:1042D0004E218C0F9D1FDF91CF9108950C944E219C
:1042E0008F929F92AF92BF92CF92DF92EF92FF9206
:1042F0000F931F93CF93DF93CDB7DEB7A1970FB680
:10430000F894DEBF0FBECDBF6B017C0119A2423015
:1043100008F44AE08E010F5D1F4F842E912CB12CC2
:10432000A12CC701B601A50194010E9454396A303D
:1043300014F5605DF80162938F01C814D904EA0492
:10434000FB04B0F4CF010E944E21A1960FB6F89461
:10435000DEBF0FBECDBFDF91CF911F910F91FF90B8
:10436000EF90DF90CF90BF90AF909F908F90089587
:1043700069017A01D6CF695CDDCF682F70E090E0EB
:1043800080E04AE00C947021CF92DF92EF92FF928E
:10439000CF93DF936C01990FEE08FF08F7FE17C06B
:1043A0008DE20E94300DEC0166277727CB016C1956
:1043B0007D098E099F094AE00E9470218C0F9D1F84
:1043C000DF91CF91FF90EF90DF90CF9008954AE07A
:1043D000C701B601DF91CF91FF90EF90DF90CF90B2
:1043E0000C947021CF93DF934AE00E947021EC017E
:1043F00081EA91E00E944E218C0F9D1FDF91CF91A9
:104400000895CF93DF930E94C421EC0181EA91E0EB
:104410000E944E218C0F9D1FDF91CF910895CF9365
:10442000DF930E94BD21EC0181EA91E00E944E21C0
:104430008C0F9D1FDF91CF910895209166043091DC
:104440006704C901079697FD079623E09595879520
:104450002A95E1F72091640430916504829FA001C0
:10446000839F500D929F500D112470E060E0809169
:104470007F04909180040C9423398F929F92AF9285
:10448000BF92EF92FF920F931F93CF930E941D2232
:1044900010926D0410926C0410926F0410926E04CE
:1044A00081E090E090937304809372049093710480
:1044B0008093700483E080937404809375048091EA
:1044C000D303882309F4F9C080E00E945616809136
:1044D000D303893109F4ACC408F074C0863009F400
:1044E00037C478F5823009F4C9C388F4882309F405
:1044F000E4C0813009F4BFC2CF911F910F91FF90AA
:10450000EF90BF90AF909F908F900C944F15843098
:1045100009F4EAC308F4CFC380913001882309F479
:1045200014C48CEF91E00E94602181E080937404B8
:10453000809375048091D3030E94BD2183E092E0B3
:10454000CDC3853109F432C400F5873009F417C4AE
:10455000843191F680910E0124E6829FC0011124DE
:104560000E94012281E080937404809375048091FD
:10457000D3030E94BD218FE292E00E946E2180EF62
:104580000E94300D8BE392E093C3873109F438C465
:1045900008F426C4809123048A3020F484EA91E050
:1045A0000E946E21809123040E940F2281E080935B
:1045B0007404809375048091D3030E94BD218FE51C
:1045C00092E076C3873609F4C4C4B8F58C3109F497
:1045D00057C4B0F48A3109F43FC48B3109F08CCF51
:1045E000809127010E940F2281E0809374048093C0
:1045F00075048091D3030E94BD2182E892E058C3E4
:10460000853609F457C408F087C4843609F074CF9E
:1046100080911601882309F44AC481E992E00E943E
:10462000602181E080937404809375048091D303AA
:104630000E94BD2186EA92E051C38B3609F4D1C4B1
:1046400000F5893609F4B2C408F495C482E0809379
:104650007404809375046091170170911801809122
:10466000190190911A010E94F22181E08093740453
:10467000809375048091D3030E94BD2188EE92E05F
:104680005CC38D3609F4D7C408F4C1C48E3609F072
:1046900033CF8091290124E6829FC00111240E941A
:1046A000012281E080937404809375048091D30388
:1046B0000E94BD218CE093E0A7C480910A019091F3
:1046C0000B01A0910C01B0910D0180389649A849C9
:1046D000B10520F486EF92E00E946E2160910A01FC
:1046E00070910B0180910C0190910D01A0E48A2E34
:1046F000A2E49A2EAFE0AA2EB12CA50194010E944B
:104700005439CA01B9014AE00E94702180916C04B9
:1047100090916D04059690936D0480936C04609164
:104720000A0170910B0180910C0190910D01A5017E
:1047300094010E945439603A76488140910520F4F2
:1047400084EA91E00E946E2160910A0170910B0150
:1047500080910C0190910D0120E432E44FE050E093
:104760000E945439603177428105910520F484EA32
:1047700091E00E946E2160910A0170910B0180917D
:104780000C0190910D0120E432E44FE050E00E94D2
:104790005439F8EE8F2EF3E09F2EA12CB12CA501F9
:1047A00094010E945439CA01B9014AE00E94702163
:1047B00082E0809374048093750480916C049091DE
:1047C0006D04059690936D0480936C0487E090E0EF
:1047D00090936F0480936E0460910A0170910B01B5
:1047E00080910C0190910D01A50194010E94543912
:1047F000643671058105910520F484EA91E00E94F8
:104800006E2160910A0170910B0180910C019091D1
:104810000D0128EE33E040E050E00E9454392AE0D8
:1048200030E040E050E00E945439CA01B9010E94D2
:10483000F22181E0809374048093750480913E039B
:10484000843620F486EF92E00E946E2180913E0330
:10485000CAE06C2F0E942B3790E00E94C42186EAA8
:1048600091E00E946E2180913E036C2F0E942B37B5
:10487000892F90E00E94C42186EF92E00E946E2171
:104880008091D203882309F48BC080913001882362
:1048900009F483C088EA91E00E946E2140913C03B4
:1048A00050913D03E0913A03F0913B034E175F07AF
:1048B00071F19A012E0F3F1FA4E6B0E00E947639F5
:1048C0004E1B5F0B9A0150E040E00E942A395901CB
:1048D000283E334024F486EF92E00E946E21C50109
:1048E00064E670E00E9437375C01CB010E94C4216E
:1048F00086EA91E00E946E212AE0A216B10424F417
:1049000084EA91E00E946E21C5010E94C421609159
:104910003C0370913D0390E080E061507109810992
:10492000910937E0660F771F881F991F3A95D1F7D5
:104930004EEF842E43E0942EA12CB12CA5019401BE
:104940000E942A39EE24E394F12C04E010E047E1C0
:1049500050E062E470E080E694E00E941E0E6091F8
:104960003A0370913B0390E080E061507109810946
:104970009109E7E0660F771F881F991FEA95D1F725
:10498000A50194010E942A394CE150E062E470E0F4
:1049900080E694E00E941E0EAFCD88EB91E07CCFC4
:1049A0008091390392E3980F953608F055C087FD42
:1049B00004C086EF92E00E946E2180913903082E98
:1049C000000C990B0E94C42187EF0E94300D8AEAE7
:1049D00091E00E946E218091C903882309F43FC0B1
:1049E00086EF92E00E946E2180E00E945616809130
:1049F00024048A3020F486EF92E00E946E21809198
:104A000024040E94BD218091220480FF2EC082EBED
:104A100091E00E946E21809123048A3020F484EA80
:104A200091E00E946E21809123040E94BD2180911B
:104A300009018823E9F084EB91E00E946E218091C6
:104A400014018A3020F486EF92E00E946E2180915A
:104A500014010E94BD2150CD8CEA91E0BACF86EAC4
:104A600091E00E946E2181E0C0CF86EF92E0D1CF2D
:104A700087EB91E0E2CF809114018A3020F486EF39
:104A800092E00E946E21809114010E94BD2182E07B
:104A9000809374048093750480916E0490916F04E8
:104AA000079627E230E030936D0420936C049093D6
:104AB0006F0480936E0480910A0190910B01A09184
:104AC0000C01B0910D0180389649A849B10520F438
:104AD00086EF92E00E946E2160910A0170910B01B5
:104AE00080910C0190910D0120E4822E22E4922EFF
:104AF0002FE0A22EB12CA50194010E945439CA01C5
:104B0000B9014AE00E94702180916C0490916D047B
:104B1000059690936D0480936C0460910A017091E6
:104B20000B0180910C0190910D01A50194010E944F
:104B30005439603A76488140910520F484EA91E046
:104B40000E946E2160910A0170910B0180910C010D
:104B500090910D0120E432E44FE050E00E9454397E
:104B6000603177428105910520F484EA91E00E944A
:104B70006E2160910A0170910B0180910C0190915E
:104B80000D0120E432E44FE050E00E94543928EE59
:104B900033E040E050E00E945439CA01B9014AE0D4
:104BA0000E94702181E080937404809375048CE6E8
:104BB00090E090936D0480936C0410926F041092B7
:104BC0006E0480910901882309F455C08AEB91E0B5
:104BD0000E9460218CE690E090936D0480936C04B9
:104BE0008EE090E090936F0480936E0460910A01D0
:104BF00070910B0180910C0190910D0128EE33E032
:104C000040E050E00E9454396436710581059105F9
:104C100020F484EA91E00E946E2160910A01709173
:104C20000B0180910C0190910D0128EE33E040E0E2
:104C300050E00E9454392AE030E040E050E00E9409
:104C40005439CA01B9014AE00E94702110926D04E2
:104C500010926C0489E190E090936F0480936E044D
:104C60008091D3030E94BD2182EC91E00E946E21CD
:104C700080911501EECE8EEB91E0AACFE091130169
:104C8000F0E0EE0FFF1FE35BFE4F20813181AAE0D1
:104C9000B0E00E9476390E94F22181E08093740492
:104CA000809375048091D3030E94BD2183ED91E030
:104CB0000E946E2121CC80910901882391F08AEB1A
:104CC00091E00E94602181E08093740480937504D8
:104CD0008091D3030E94BD218DED91E00E9460215F
:104CE0000BCC8EEB91E0EDCF8090310190903201B2
:104CF000A0903301B09034014AE0C501B401B7FE81
:104D00000BC08DE20E94300D66277727CB01681912
:104D100079098A099B094AE00E94702181EA91E0A1
:104D20000E944E2181E080937404809375048091E9
:104D3000D3030E94BD218EEE91E00E946E2180EF90
:104D40000E94300D8FE792E0B3CF8FEF91E0EBCB75
:104D500080913501882381F08CE192E00E946021EE
:104D600081E080937404809375048091D3030E9442
:104D7000BD2181E192E0B2CF8EE092E0EFCF809151
:104D80003601882381F08EE092E00E94602181E06C
:104D900080937404809375048091D3030E94BD2195
:104DA00080E292E09BCF8CE192E0EFCF20910F0167
:104DB000309110014091110150911201A4E6B0E030
:104DC0000E9449390E94F22181E08093740480930B
:104DD00075048091D3030E94BD218FE392E0CDCB77
:104DE000809115010E940F2281E0809374048093CA
:104DF00075048091D3030E94BD218BE492E058CFCB
:104E0000809124048A3020F484EA91E00E946E218B
:104E1000809124040E940F2281E080937404809387
:104E200075048091D3030E94BD2188E592E040CFB4
:104E300080912D012AE0829FC00111240E9401224D
:104E400081E080937404809375048091D3030E9461
:104E5000BD2185E692E02CCF80912E012AE0829F31
:104E6000C00111240E94012281E080937404809388
:104E700075048091D3030E94BD2185E792E018CF8D
:104E800080912601882381F081E992E00E946021CF
:104E900081E080937404809375048091D3030E9411
:104EA000BD2188E992E01ACF85E992E0EFCF85E94C
:104EB00092E0B5CB809125010E940F2281E0809382
:104EC0007404809375048091D3030E94BD2185EB07
:104ED00092E00E946E2180913E03843620F484EAA1
:104EE00091E00E946E2180913E03CAE06C2F0E94E7
:104EF0002B3790E00E94C42186EA91E00E946E2147
:104F000080913E036C2F0E942B37892F90E00E94E6
:104F1000C4218DEB92E0CCCE80912801082E000CAC
:104F2000990B0E94012281E08093740480937504A0
:104F30008091D3030E94BD218FEB92E00E946E21ED
:104F400080EF0E94300D87EF0E94300D8AEA91E0D9
:104F5000AFCE80912301909124010E94012281E033
:104F600080937404809375048091D3030E94BD21C3
:104F70008AEC92E0E2CE82E0809374048093750420
:104F800060911B0170911C0180911D0190911E0187
:104F90000E94F22181E080937404809375048091D3
:104FA000D3030E94BD2186ED92E0C7CE82E08093BC
:104FB00074048093750460911F01709120018091A9
:104FC0002101909122010E94F22181E080937404DA
:104FD000809375048091D3030E94BD218FED92E0F0
:104FE000ACCE80912C0124E6829FC00111240E9446
:104FF000012281E080937404809375048091D3032F
:105000000E94BD218EEE92E00E946E21BBCA80916B
:105010002B0124E6829FC00111240E94012281E01D
:1050200080937404809375048091D3030E94BD2102
:1050300088EF92E0E9CF80912A0124E6829FC001A7
:1050400011240E94012281E08093740480937504EE
:105050008091D3030E94BD2182E093E0D5CF1F92BF
:105060001FB61F9211248F939F93AF93BF9380918C
:10507000A6039091A703A091A803B091A90301965C
:10508000A11DB11D8093A6039093A703A093A8032D
:10509000B093A9038091A50393E0980F9D37E8F49E
:1050A0009093A5038091AA039091AB03A091AC03C8
:1050B000B091AD030196A11DB11D8093AA039093F9
:1050C000AB03A093AC03B093AD03BF91AF919F919D
:1050D0008F911F901FBE1F9018958A578093A5032C
:1050E0008091A6039091A703A091A803B091A90372
:1050F0000196A11DB11D8093A6039093A703A093D1
:10510000A803B093A903CECF1F920F920FB60F92B0
:1051100011242F933F934F935F936F937F938F93BC
:105120009F93AF93BF93EF93FF938091B900887FD4
:10513000803609F44AC0F0F5883209F4A7C018F5A2
:10514000803109F49BC0B8F4882309F4F9C0883091
:1051500009F494C0FF91EF91BF91AF919F918F910E
:105160007F916F915F914F913F912F910F900FBE63
:105170000F901F901895883109F488C0803251F73C
:1051800080931F0414C0803409F49DC040F4803320
:10519000B9F38833F9F680931F0485ECB0C08035ED
:1051A00009F485C0883509F496C0883499F60E94C0
:1051B0001610D0CF883909F48CC038F5883729F01B
:1051C00050F4883611F0803729F683E0809321046B
:1051D0001092A40357C0883809F47BC0803919F0B5
:1051E000803809F0B7CF8091A403803208F071C0F5
:1051F000E091A40381E08E0F8093A4038091BB0013
:10520000F0E0EC57FC4F80833DC0803B39F0E0F488
:10521000803A09F479C0883A09F09CCF84E0809301
:1052200021041092830310928203E091D603F0913F
:10523000D70309958091820381110FC081E080938B
:1052400082031092620309C0803C09F4A6CF883C17
:1052500009F4A3CF883B09F07DCFE091830381E07F
:105260008E0F80938303F0E0EE59FC4F8081809392
:10527000BB00909183038091820329C080911C041C
:105280008093BB0085EC8093BC0064CF90911E049A
:1052900080911D04981758F5E0911E0481E08E0F4F
:1052A00080931E04F0E0E550FC4F8081E9CFE0914F
:1052B0001E0481E08E0F80931E048091BB00F0E0FD
:1052C000E550FC4F808390911E0480911D04981737
:1052D000C8F285E8D8CFE0911E0481E08E0F80935C
:1052E0001E048091BB00F0E0E550FC4F808380916C
:1052F000200481115CCF81E080931B0484EA8093B9
:10530000BC001092210426CF85EC8093BC00109243
:1053100021048091A403803230F4E091A403F0E0F2
:10532000EC57FC4F10826091A40370E0E091D4032D
:10533000F091D50384E893E009951092A4030ACF75
:1053400010921F0434CF1F920F920FB60F921124A8
:105350002F933F934F935F936F937F938F939F937D
:10536000AF93BF93EF93FF938091300490913104FA
:105370000E94B61CFF91EF91BF91AF919F918F91C9
:105380007F916F915F914F913F912F910F900FBE41
:105390000F901F9018951F920F920FB60F92112425
:1053A0002F933F934F935F936F937F938F939F932D
:1053B000AF93BF93EF93FF9380912E0490912F04AE
:1053C0000E94B61CFF91EF91BF91AF919F918F9179
:1053D0007F916F915F914F913F912F910F900FBEF1
:1053E0000F901F901895CF930E94C50610925704F6
:1053F0001092560488EE93E0A0E0B0E08093580449
:1054000090935904A0935A04B0935B0487E691E00B
:10541000909355048093540480E58093C8041092BF
:10542000A8041092A7041092AA041092A904109242
:10543000AC041092AB041092AD041092AE04109222
:10544000AF048091440190914501A0914601809361
:10545000B0049093B104A093B2041092B3041092DC
:10546000B4041092B5041092B6041092B7041092CE
:10547000B8041092B9041092BA041092BB041092AE
:10548000BC041092BD041092BE0480E89FEDA7E119
:10549000B0E18093BF049093C004A093C104B09383
:1054A000C20462E082E00E94F20662E083E00E94B1
:1054B000F206EDE8FAE0E491F0E0EE0FFF1FEF579F
:1054C000F54F8591949190939C0480939B04EFE613
:1054D000FAE0E491E0939F04EEE8FAE0E491F0E072
:1054E000EE0FFF1FEF57F54F8591949190939E0417
:1054F00080939D04E0E7FAE0E491E093A004109229
:10550000A2041092A3041092A4041092A50480EDAA
:1055100097E00E940208E0919B04F0919C04908126
:1055200080919F04982381E009F480E0E0919D043C
:10553000F0919E0490812091A004922309F0826052
:105540002BE934E08093A10430932F0420932E04A0
:10555000809169008C7F816080936900E89AC1E046
:10556000C093A604309331042093300480916900E5
:10557000837F846080936900E99A82E08093A60427
:10558000109263041092620420E830E030936504C6
:105590002093640480E290E0909367048093660413
:1055A000309369042093680490936B0480936A0499
:1055B0001092760410926D0410926C0410926F0495
:1055C00010926E04C0937504C09374048FEF9FEF24
:1055D0009093730480937204909371048093700489
:1055E000C09377041092780410927A041092790490
:1055F00089E791E0909361048093600484E594E0EE
:1056000090937E0480937D041092800410927F0416
:105610008FEF809384048093850480938604809325
:1056200087048093880480E5809395041092960403
:1056300080EA96E8A1E0B0E0809397049093980404
:10564000A0939904B0939A0410927C0410927B0466
:1056500060E08EE00E94F206EBE7FAE0E491E0936E
:105660004604E9E9FAE0E491F0E0EE0FFF1FEF579E
:10567000F54F85919491909348048093470410923C
:10568000510410925304109252041092500410923C
:105690004F0410924E0410924D0410924C0410923C
:1056A0004B0410924A041092490486E494E09093CB
:1056B0003904809338041092360410923704109203
:1056C000320489E080933304C0933404C0933504DA
:1056D0001092450410924404CF910895CDB7DEB7DF
:1056E00060970FB6F894DEBF0FBECDBFF89482E886
:1056F00080937A0013E014BD15BD80916E00816027
:1057000080936E0081E0809380009BE09093810005
:105710008093B00084E08093B1001092C10078942F
:1057200060E086E00E94F206219A209A60E086E01E
:105730000E944D0660E089E00E944D06289860E0D6
:1057400085E00E94F20660E087E00E94F20660E0D9
:1057500085E00E944D065F9860E084E00E94F206BA
:1057600060E08FE00E94F20660E080E10E94F206B5
:10577000229A249A259A239A2C982D9860E08BE0FF
:105780000E944D065C9A1093000180917F049091D5
:105790008004892B11F10E941D2220916604309112
:1057A00067048091640490916504213231050CF006
:1057B000B0C0B9016052710977FF02C06F5F7F4FBF
:1057C000759567958357910997FD019600E210E062
:1057D00023E730E048EC55E0AFC0209166043091FB
:1057E0006704C901079697FD0796B3E095958795DD
:1057F000BA95E1F72091640430916504AC01429FB1
:10580000C001439F900D529F900D11240E94F837C4
:105810009093800480937F04892B09F0BCCF0E9471
:105820001D220E944F15E0913804F091390413862F
:1058300015861486128611861086178216821582A6
:1058400014821382109236041092370411E0BE01C4
:105850006F5F7F4F80913804909139040E94F81C4B
:10586000882309F41EC267E0CE0101960E948608D3
:1058700098858913ECCF80913204811128C08091E2
:105880003804909139040E944F09BE016F5F7F4F29
:1058900080913804909139040E94300940E064EB13
:1058A00080913804909139040E94FC08809138045A
:1058B000909139040E949E08082F8091380490919D
:1058C00039040E944F09011102C010933204009163
:1058D0003304CE0101960E94DA09801708F0D5C181
:1058E0008091330480933304809136048F5F8093DA
:1058F00036048981883239F008F0CCC1803119F042
:10590000823209F0A4CF809137048F5F80933704EF
:105910009ECFB9016054710977FF02C06F5F7F4F5E
:10592000759567958255910997FD019600E410E001
:1059300022E530E048EA57E0959587950E94040FEC
:1059400082E08093820480917D0490917E04892B73
:1059500009F49AC08CE3809381040E94C50680916B
:10596000880487FD1EC061E00E94F20661E080911C
:1059700088040E944D0661E070E080E090E00E94A3
:105980002F0860E0809188040E944D066AE070E074
:1059900080E090E00E942F0861E0809188040E94DE
:1059A0004D0680917D0490917E04892B09F421C1DC
:1059B0008CE08093B80064E08AEB95E00E944C1480
:1059C00060916604615080E694E00E94EF1464E008
:1059D00086EB95E00E944C148091820464E1813052
:1059E00009F460E180E694E00E94EF1464E082EB49
:1059F00095E00E944C148091640490916504803875
:105A0000910509F021C1809166049091670480326C
:105A1000910509F005C164E08EEA95E00E944C14FE
:105A200069ED80E694E00E94EF148091820461EFBA
:105A3000813009F462E280E694E00E94EF1466E0AF
:105A400082EA95E00E944C1480917D0490917E043E
:105A5000892B09F410C1209197043091980440914A
:105A6000990450919A0460E074E284EF90E00E94FF
:105A700054392051310941095109569547953795B7
:105A800027952093B800CBCE61E0809186040E94D8
:105A9000F20661E0809187040E94F20680918604FC
:105AA000082E000C990BFC01E557F54FE491F0E04E
:105AB000EE0FFF1FE254FA4F2591349130938E047C
:105AC00020938D04FC01E359F54FE491E093930496
:105AD00080918704082E000C990BFC01E557F54FC7
