:100000000C94FE010C9447200C941F200C942602A3
:100010000C9426020C9426020C9426020C942602C0
:100020000C9426020C9426020C9426020C942602B0
:100030000C9426020C9426020C9426020C942602A0
:100040000C94AB1E0C9426020C9426020C942602EF
:100050000C9426020C9426020C9426020C94260280
:100060000C94001F0C9426020044445F444400009A
:10007000060F090F06000000000000000000006FDE
:1000800000000007000700147F147F148C92FF9279
:1000900062231308646236495620500000070000AE
:1000A000001C2241000041221C0014083E081408D4
:1000B000083E0808005030000008080808080060E2
:1000C00060000020100804023E5149453E00427F76
:1000D000400042615149462141454B311814127F7D
:1000E0001027454545393C4A494930017109050306
:1000F0003649494936064949291E0036360000006E
:10010000563600000814224100141414141400413F
:1001100022140802015109063E415D494E7E09093B
:10012000097E7F494949363E414141227F41414153
:100130003E7F494949417F090909013E4149497AC0
:100140007F0808087F00417F41002040413F017F38
:10015000081422417F404040407F020C027F7F0410
:1001600008107F3E4141413E7F090909063E415149
:10017000215E7F09192946464949493101017F011C
:10018000013F4040403F0F3040300F3F4030403F44
:100190006314081463070870080761514945430058
:1001A000007F4100020408102000417F000004028B
:1001B0000102044040404040000003040020545429
:1001C00054787F48444438384444442038444448B0
:1001D0007F3854545418087E0901020C5252523E82
:1001E0007F0804047800447D40002040443D000026
:1001F0007F10284400417F40007C041804787C086C
:1002000004047838444444387C1414140808141442
:10021000187C7C080404084854545420043F44408B
:10022000203C4040207C1C2040201C3C4030403C76
:1002300044281028440C5050503C4464544C440012
:100240000836414100007F000041413608000402A9
:100250000408047E1111117E7F494949337F4949C1
:1002600049367F01010103E0514F41FF7F49494970
:100270004177087F087741494949367F1008047F54
:100280007C2112097C7F0814224120413F017F7F9D
:10029000020C027F7F0808087F3E4141413E7F01FA
:1002A00001017F7F090909063E4141412201017F89
:1002B000010147281008071C227F221C6314081420
:1002C000637F404040FF070808087F7F407F407FF2
:1002D0007F407F40FF017F4848307F4830007F00EB
:1002E0007F484830224149493E7F083E413E4629E9
:1002F00019097F20545454783C4A4A49317C54545B
:1003000028007C04040C00E0544C44FC3854545441
:10031000186C107C106C44545428007C2010087C0D
:1003200078422412787C1028440020443C047C7CD1
:100330000810087C7C1010107C38444444387C043D
:1003400004047C7C14141408384444440004047CE1
:1003500004040C5050503C3048FE483044281028CB
:10036000447C40407CC00C1010107C7C407C407C65
:100370007C407C40FC047C5050207C5050207C7C95
:100380005050200028445454387C103844380854C5
:1003900034147C3855545518005EBCE2613FDD834F
:1003A000C29C7E20A3FD1F41009D23BE46DB65F855
:1003B0008C11AF32CA57E974AED5808D142001A1DB
:1003C000C8817FDB40A6AF010204081020408001F5
:1003D000020408102001020408102000000000237D
:1003E0000026002900040404040404040402020298
:1003F000020202030303030303006F2011241FBE44
:10040000CFEFD8E0DEBFCDBF28E0AEECB4E001C056
:100410001D92A135B207E1F714E0A0E0B1E0ECE5F0
:10042000FFE502C005900D92AE3CB107D9F711E08F
:10043000CEEFD1E004C02197FE010E94872DCD3F71
:10044000D107C9F70E94B1210C94AC2F0C94000085
:100450002091CE0581E0213208F046C08091AA05A6
:100460008111FCCF9091CD0532E03093AA0531E0A7
:100470003093A9053FEF3093A8051092A70520936C
:10048000A6054DEA55E0A6E8B5E0FA013E2F341B7B
:10049000321788F11092850520918505990F922BCE
:1004A0009093850590918405913041F510928405D3
:1004B000909185059093BB009091BC0093FDF8CF7F
:1004C00095EC9093BC009091AA059230E1F3909145
:1004D000A8059F3F49F08091A805803289F080915E
:1004E000A805803379F084E01092AC051092CE0517
:1004F0001092AB05089531913D93C8CF95EEE1CFB1
:1005000082E0F2CF83E0F0CF91E09093AB0580934F
:10051000CD051092AC051092CE0508959091AA05D4
:100520009111FCCF91E09093AA059093A9052FEF2C
:100530002093A8051092A705260F2093A605909357
:10054000850590918505880F892B8093850580917D
:100550008405813011F51092840580918505809382
:10056000BB008091BC0083FDF8CF85EC8093BC007C
:100570008091AA058130E1F38091A705861710F4D8
:100580006091A70526E835E0ACE5B5E0F9018E2FCE
:10059000821B861720F0862F089585EEE7CF819184
:1005A0008D93F5CF8F929F92AF92BF92CF92DF92B1
:1005B000EF92FF92CF93611571058105910521F4AA
:1005C00061E070E080E090E024E0660F771F881F14
:1005D000991F2A95D1F76115710521E082079105D0
:1005E00008F44EC06115710528E08207910508F4F2
:1005F0004BC06115710520E48207910508F048C0E1
:1006000020E430E0C3E06901F12CE12CA7010E9455
:10061000DD2D49015A0180918000807F8093800008
:10062000C861C0938100C9010197909387008093AE
:10063000860080918100877080935B0560E074E2A2
:1006400084EF90E0A70196010E94B32DAA24BB2459
:10065000CA01B901A50194010E94B32D60E472E4BE
:100660008FE090E00E94DD2DCA01B901CF91FF908B
:10067000EF90DF90CF90BF90AF909F908F900895B4
:1006800021E030E0C1E0BFCF28E030E0C2E0BBCFE6
:1006900020E031E0C4E0B7CF8091590590915A0530
:1006A000891B990B0895209108062817190668F1EF
:1006B000209107062617170640F110921108109294
:1006C00010081092130810921208FB0123E0F59510
:1006D000E7952A95E1F7880F991F880F991FE80F72
:1006E000F91F6770772781E090E0A0E0B0E004C0D8
:1006F000880F991FAA1FBB1F6A95D2F7EF5FF94FAA
:10070000442321F02285822B82870895809592854B
:100710008923FACFDF92EF92FF920F931F93CF932B
:10072000DF937C01EB018A01D22E10921108109206
:10073000100810921308109212084617570724F455
:100740008D2FEA01062F182F809108068E151F04A1
:10075000C8F0C017D10761F44D2DBE01C701DF916C
:10076000CF911F910F91FF90EF90DF900C94530366
:100770000C171D073CF04D2DBE01C7010E9453030D
:100780002196F6CFDF91CF911F910F91FF90EF90BF
:10079000DF9008950895089510925A051092590512
:1007A0001092AC051092CE051092AA0581E08093BC
:1007B000A90510928405449A459AE9EBF0E08081FE
:1007C0008E7F808380818D7F808388E48093B800D2
:1007D00085E48093BC008AEC93E090935805809365
:1007E00057058BEC93E0909356058093550508953B
:1007F000CF92DF92EF92FF920F931F93CF93DF93ED
:100800007C016A0110E000E00C151D0581F0EB0190
:10081000D701ED91FC910190F081E02D6991C70124
:100820000995892B21F00F5F1F4FBE01EDCFC80145
:10083000DF91CF911F910F91FF90EF90DF90CF90BC
:100840000895880F991F880F991F05970197F1F751
:1008500008953FB7F89480912A0590912B05A091B7
:100860002C05B0912D0526B5A89B05C02F3F19F08A
:100870000196A11DB11D3FBFBA2FA92F982F882720
:10088000BC01CD01620F711D811D911D42E0660FFB
:10089000771F881F991F4A95D1F708958F929F92CD
:1008A000AF92BF92CF92DF92EF92FF926B017C01E9
:1008B0000E9429044B015C01C114D104E104F1043C
:1008C000B9F00E942904681979098A099B09683ED0
:1008D00073408105910580F381E0C81AD108E108D1
:1008E000F10828EE820E23E0921EA11CB11CE4CF79
:1008F000FF90EF90DF90CF90BF90AF909F908F9040
:1009000008952FB7F894609126057091270580917E
:100910002805909129052FBF08952091000190E4AA
:10092000299F900111248E50822B80937C0080910E
:100930007A00806480937A0080917A0086FDFCCFF3
:1009400080917800909179000895E0E0615098F0EE
:10095000DC018D918E27E82FEF70F0E0E856FC4F18
:100960009491E82FE295EF70F0E0E855FC4FE491A8
:10097000E927CD01EBCF8E2F08950F931F93CF93CF
:10098000DF93FC011081C181D281F8948981812B90
:1009900089838A81012F009580238A8383E090E0F8
:1009A0000E9421048981802389838AE090E00E944B
:1009B0002104C881789485E390E00E942104C1233A
:1009C00081E009F480E0DF91CF911F910F910895AC
:1009D0001F93CF93DF93FC011081C181D281912FAE
:1009E000909560FF16C0F8948A8189238A83898153
:1009F000812B89838AE090E00E9421048A81182B50
:100A00001A83789487E390E0DF91CF911F910C9443
:100A10002104F8948A8189238A838981812B89839F
:100A200081E490E00E9421048A81182B1A83789433
:100A300085E090E0E9CFDF92EF92FF920F931F9352
:100A4000CF93DF93EC01D62EE42E08E010E0FF24D4
:100A5000F39461E08D2D8F2109F460E0CE010E94B6
:100A6000E804FF0C01501109A1F7E11010C0F8943F
:100A7000E981FA8191818881809589238183E98147
:100A8000FA81928188818095892382837894DF918D
:100A9000CF911F910F91FF90EF90DF900895EF920B
:100AA000FF920F931F93CF93DF938C017B0140E064
:100AB00065E50E941B05E70188E0E80EF11C6991DD
:100AC00040E0C8010E941B05CE15DF05C1F7DF918C
:100AD000CF911F910F91FF90EF900895FF920F9388
:100AE0001F93CF93DF93FC010081C181D281F894E1
:100AF0008981F02EF0948F21898378941DE711501D
:100B000029F182E090E00E94210488818023B9F3DA
:100B1000F8948A818F218A838981802B89837894B4
:100B200080EE91E00E942104F89489818F218983CD
:100B300086E490E00E9421048881082311E009F0F6
:100B400010E078948AE991E00E942104812FDF91DE
:100B5000CF911F910F91FF900895AF92BF92CF92C6
:100B6000DF92EF92FF920F931F93CF93DF938B014E
:100B7000BC018091E5059091E6050E944F0540E09B
:100B80006EEB8091E5059091E6050E941B05E8015A
:100B9000680189E0C80ED11CA090E505B090E6057B
:100BA00088E0E82EF12C10E001E0C5010E94BD04B0
:100BB0008111102B000F81E0E81AF108B1F71993A9
:100BC000CC16DD0649F78091E5059091E6050E9477
:100BD0006E0591E0813009F090E0892FDF91CF918F
:100BE0001F910F91FF90EF90DF90CF90BF90AF904B
:100BF00008950F931F93CF93DF93CDB7DEB7299757
:100C00000FB6F894DEBF0FBECDBF8C01FC01808112
:100C1000803181F18091E5059091E6050E946E0595
:100C200081110CC080E029960FB6F894DEBF0FBE8C
:100C3000CDBFDF91CF911F910F910895BE016F5FDE
:100C40007F4FC8010E94AD05882361F368E0CE01A3
:100C500001960E94A50499858913E4CF8D818F3375
:100C600059F020F48F31F1F689E0DDCF8F3531F086
:100C70008F37C1F68CE0D7CF8AE0D5CF8BE0D3CFCA
:100C800085ED8093BC008091BC0084FDFCCF109268
:100C9000AA05089520910205260F3327331F21321C
:100CA0003105ECF42091AA05FC0190E080E02430AD
:100CB00069F082E00895A09102052191AC014E51A6
:100CC0005B4FA40FB52FB11D2C930196861798F397
:100CD00080910205680F6093020580E0089581E02D
:100CE00008950895E0915A0580915905E81730F468
:100CF000F0E0E45AFA4F808190E008958FEF9FEF83
:100D0000089590915A05809159052FEF3FEF98175C
:100D100048F4E92FF0E0E45AFA4F208130E09F5F79
:100D200090935A05C9010895CF92DF92EF92FF92F6
:100D30000F931F93CF93DF937C01CB018A01209106
:100D4000AB05222389F0EB016B01C40ED51ECC1537
:100D5000DD0569F06991D701ED91FC910190F08179
:100D6000E02DC7010995F3CF642F0E944A06C80100
:100D7000DF91CF911F910F91FF90EF90DF90CF9077
:100D80000895CF93DF930F92CDB7DEB7698320919B
:100D9000AB052223F9F02091CE05203258F021E056
:100DA00030E0FC013383228390E080E00F90DF91FC
:100DB000CF9108958091AC05E82FF0E0E355FA4F0C
:100DC000998190838F5F8093AC058093CE0581E0FD
:100DD00090E0ECCF61E0CE0101960E944A06F7CF89
:100DE000CF9388E60E94840260E08FEC95E00E9439
:100DF000C10660E88FEC95E00E94C10680917D05F8
:100E0000CAE06C2F0E94C92C8295807F682F690FE1
:100E10008FEC95E00E94C10680917E056C2F0E94A8
:100E2000C92C8295807F682F690F8FEC95E00E9416
:100E3000C10680917F056C2F0E94C92C8295807F0E
:100E4000682F690F8FEC95E00E94C10680918005A4
:100E50006C2F0E94C92C8295807F682F690F8FECC0
:100E600095E00E94C106809181056C2F0E94C92CDB
:100E70008295807F682F690F8FEC95E00E94C106F4
:100E8000809182058E516C2F0E94C92C8295807FA3
:100E9000682F690F8FEC95E00E94C1060E9428021E
:100EA000882329F01092830580E0CF91089581E096
:100EB0008093830588E60E94840260E08FEC95E0D1
:100EC0000E94C10680917C056C2F0E94C92C8295DE
:100ED000807F682F690F8FEC95E00E94C1060E9409
:100EE00028028111DFCF81E0E0CF682F8FEC95E001
:100EF0000C94C106BF92CF92DF92EF92FF920F93B4
:100F00001F93CF93DF938C017B01E40EF51EEB0161
:100F1000B99068018FEFC81AD80A809150080E94D2
:100F20008402812F90E00E947507C80199270E94D2
:100F300075076B2D8FEC95E00E94C1060E94280278
:100F40006AE070E080E090E00E944E04BE018601FD
:100F5000CE15DF05E1F6DF91CF911F910F91FF9044
:100F6000EF90DF90CF90BF9008958093BB0084E80E
:100F70008093BC008091BC0087FFFCCF9091B900AA
:100F8000987F81E0983231F0983129F0903419F04F
:100F900080E008950895089584EA8093BC008091CC
:100FA000BC0087FFFCCF8091B900887F19F080ECEE
:100FB0000C94B50780E008955F926F927F928F92B4
:100FC0009F92AF92BF92CF92DF92EF92FF920F93D8
:100FD0001F93CF93DF93CDB7DEB7582E742E652EB7
:100FE000B62E922E0E94CC07852D0E94B5078D2D1E
:100FF0000E94B5078C2D0E94B5078B2D83708A291E
:1010000090E081109CE0892B0E94B507862D0E94FC
:10101000B507872D0E94B5078CE0F694E794D79426
:10102000C7948A95D1F78C2D807FC82E892D8F701B
:101030008C290E94B507812F0E94B507802F0E943E
:10104000B50784E98093BC008091BC0084FDFCCF8F
:10105000DF91CF911F910F91FF90EF90DF90CF9094
:10106000BF90AF909F908F907F906F905F9008950A
:101070004F925F926F927F928F929F92AF92BF92A8
:10108000CF92DF92EF92FF920F931F93CF93C82FCF
:10109000C0904708D0904808E0904908F0904A086E
:1010A000CB01BA01A70196010E94DD2D49015A0129
:1010B00025E0F694E794D794C7942A95D1F735E0C4
:1010C00096958795779567953A95D1F747E0660F9E
:1010D000771F881F991F4A95D1F7A70196010E9493
:1010E000DD2D29013A018B019C01B501A401552791
:1010F00066277727E7E0440F551F661F771FEA959D
:10110000D1F7525061097109440D551D661D771DB7
:10111000812CA12C8C2F0E94DC07CF911F910F9165
:10112000FF90EF90DF90CF90BF90AF909F908F9007
:101130007F906F905F904F9008958F92AF92CF9273
:10114000DF92EF92FF920F931F9388248394443091
:1011500051056105710509F0812C4450510961095F
:101160007E4F97E0440F551F661F771F9A95D1F762
:10117000A22EC12CD12C7601C39400E010E098017E
:101180000E94DC071F910F91FF90EF90DF90CF90AE
:10119000AF908F900895CF93DF93D82FC62F0E94E2
:1011A000CC078D2F0E94B5078C2F0E94B50784E9CC
:1011B0008093BC008091BC0084FDFCCFDF91CF9177
:1011C0000895CF93C82F60E880E18C0F0E94CB0870
:1011D000EC2FF0E0EE0FFF1FE15DF74F1182108260
:1011E000CF9108954F925F926F927F92AF92BF928C
:1011F000CF92DF92EF92FF920F931F93CF93DF93E3
:10120000D82F082F10E0F801EE0FFF1FEE0FFF1F81
:10121000E55CF74F40805180628073804114510437
:101220006104710489F48D2FDF91CF911F910F918B
:10123000FF90EF90DF90CF90BF90AF907F906F9036
:101240005F904F900C94E1085801AA0CBB1CF5016B
:10125000E15DF74FC080D180F12CE12C015D174F8B
:10126000F801C681A3019201C701B6010E94B92C01
:101270009B01AC01EC2FF0E0E95AFE4FA081B0E0F9
:101280000E94D22D9B01AC0120583447424D5A4157
:101290002130334A414E514108F43FC060913C0136
:1012A00070913D0180913E0190913F01A301920117
:1012B0000E94DD2D69017A0184E0C816D104E104A1
:1012C000F10408F4B0CFE6E0CE16D104E104F10455
:1012D00008F470C0C0E0FDE2CF16F1E0DF06E104E3
:1012E000F10430F0CF5FF694E794D794C794F3CF2E
:1012F000C11103C0E894C0F8C0E0A3019201C70186
:10130000B6010E94B92C9B01AC01EC2FF0E0E95A28
:10131000FE4FA081B0E00E94D22D2AE1D11122E23D
:10132000AB01BC01822F0E943808F501E15DF74F47
:1013300080819181B0E0A0E08C159D05AE05BF05D0
:1013400021F4F80186818C1731F12C2F2295207F12
:10135000B701A6018D2F880F880F880F865D0E9428
:101360009D08F801618580E0D11180E2682B6C64F2
:1013700080E18D0F0E94CB08F501E15DF74FD1822E
:10138000C082F801C68380914F0890E2D11190E8A5
:10139000892B80934F08DF91CF911F910F91FF9080
:1013A000EF90DF90CF90BF90AF907F906F905F9065
:1013B0004F90089584E0C82ED12CE12CF12C9ACFC7
:1013C0002F923F924F925F926F927F928F929F9255
:1013D000AF92BF92CF92DF92EF92FF920F931F9343
:1013E000CF93DF9300D000D00F92CDB7DEB7490185
:1013F0005A012701380110924F08C0903F08D09041
:101400004008E0904108F090420800913B0810919C
:101410003C0820913D0830913E0806171707280721
:10142000390759F060933B0870933C0880933D085E
:1014300090933E0880E00E94F208C814D904EA04A0
:10144000FB0471F48091430890914408A0914508F1
:10145000B091460884159505A605B70509F403C1A2
:1014600080923F0890924008A0924108B0924208B2
:101470004092430850924408609245087092460892
:1014800081149104A104B10419F481E00E94E108DF
:101490008091430890914408A0914508B091460876
:1014A000892B8A2B8B2B19F482E00E94E108409053
:1014B0003F085090400860904108709042084114E5
:1014C00051046104710409F473C1C814D904EA0415
:1014D000FB0409F4A5C0C0903108D0903208F12C6B
:1014E000E12C209136082983A3019201C701B6019E
:1014F0000E94B92C9B01AC018981E82FF0E0E95AE8
:10150000FE4FA081B0E00E94D22D4B015C01DC01B6
:10151000CB0180589447A24DBA418130934AA14EE5
:10152000B14108F446C060913C0170913D01809149
:101530003E0190913F01A30192010E94DD2D6901BE
:101540007A0181E044E0C416D104E104F10408F416
:1015500088C086E0C816D104E104F10408F4A4C0F0
:1015600019829DE2C91691E0D906E104F10440F028
:1015700029812F5F2983F694E794D794C794F1CFFC
:101580004981411103C0E894C0F81982A301920176
:10159000C701B6010E94B92C9B01AC018981E82FDB
:1015A000F0E0E95AFE4FA081B0E00E94D22D4B013D
:1015B0005C01B501A40182E20E94380880913108E3
:1015C00090913208B0E0A0E08C159D05AE05BF05F6
:1015D00029F48091360899818917D1F029812295C3
:1015E000207FB701A60182E30E949D08609139081F
:1015F0006C6681E10E94CB08D0923208C09231081B
:1016000029812093360880914F08806880934F0885
:1016100080924B0890924C08A0924D08B0924E08D0
:10162000C0904308D0904408E0904508F0904608E8
:10163000C114D104E104F104B1F080904B08909002
:101640004C08A0904D08B0904E08C501B401A70108
:1016500096010E94DD2D283031054105510550F5D8
:1016600082E00E94E10860914F08662319F081EB47
:101670000E94CB0880914F080F900F900F900F9011
:101680000F90DF91CF911F910F91FF90EF90DF901E
:10169000CF90BF90AF909F908F907F906F905F9012
:1016A0004F903F902F90089504E0C02ED12CE12C54
:1016B000F12C69CF1D82213431054105510560F0BF
:1016C0008D818F5F8D83CC0CDD1CEE1CFF1C56952D
:1016D000479537952795EFCFC501B401A70196012E
:1016E0000E94DD2D29833A834B835C832FEF3FEFEC
:1016F0004FE050E00E94E92C56016701E12CF12CEB
:1017000000E010E00E94162D29013A019D8192957A
:10171000907F9D83C12CD12C7601C3944114510438
:101720006104710431F0CC24CA94DC2CFFE0EF2E6C
:10173000F12CC301B20127E0660F771F881F991FA4
:101740002A95D1F7A70196010E94DD2D49015A0182
:101750008B019C0149815A816B817C8155276627C9
:101760007727E7E0440F551F661F771FEA95D1F7EB
:10177000525061097109480D591D6A1D7B1D812C4C
:10178000AD808AE30E94DC076CE4452846284728A0
:1017900009F06CE080913A08682B606282E10E9457
:1017A000CB0881E090E090933408809333085BCFBE
:1017B0008090430890904408A0904508B090460857
:1017C00081149104A104B10409F44DCFC0903308F1
:1017D000D0903408F12CE12C209137082983A50101
:1017E0009401C701B6010E94B92C9B01AC0189810B
:1017F000E82FF0E0E95AFE4FA081B0E00E94D22D20
:101800008B019C0100581447224D3A410130134A84
:10181000214E314108F443C060913C0170913D017B
:1018200080913E0190913F01A50194010E94DD2D20
:1018300069017A0184E0C816D104E104F10408F4D6
:101840000FCF96E0C916D104E104F10408F458C0A2
:1018500019822DE2C21621E0D206E104F10440F023
:1018600049814F5F4983F694E794D794C794F1CFA9
:101870008981811103C0E894C0F81982A5019401FF
:10188000C701B6010E94B92C9B01AC019981E92FD7
:10189000F0E0E95AFE4FA081B0E00E94D22DAB01EA
:1018A000BC0182E20E94380880913308909134088C
:1018B000B0E0A0E08C159D05AE05BF0531F4809128
:1018C00037082981821709F4CECE29812295207FFD
:1018D000B701A6018AE30E949D0860913A086C66F0
:1018E00082E10E94CB08D0923408C092330849812B
:1018F0004093370880914F08806880934F08B3CE9B
:1019000084E0C82ED12CE12CF12CB5CF682F8FECC0
:1019100095E00C94C106809105060E94840280E047
:101920000C94860CCF93DF93EC010E94280218825E
:1019300082E090E0DF91CF910C9421040E94860C0C
:10194000809116088F5F80931608803158F086E1E9
:1019500098E00E94920C809105060E94840280E427
:101960000C94860C08950F931F93CF93DF938C01F3
:10197000EB010E948B0C81E20E94860C80E00E94A9
:10198000860C8091080690E0081719070CF4C8012E
:101990000E94860C82E20E94860C80E00E94860CE7
:1019A0008091060690E0C817D9070CF4CE010E947A
:1019B000860C86E198E0DF91CF911F910F910C94F6
:1019C000920CCF93DF936091060670E08091080639
:1019D00090E00E94B30C809105060E94840280E48E
:1019E0000E94860CCBE0D6E089910E949E0C88E094
:1019F000CB30D807C9F786E198E0DF91CF910C94FE
:101A0000920CCF93C82F0E948B0C81E80E94860C09
:101A10008C2F0E94860C86E198E0CF910C94920C5A
:101A20000F931F93E42F0130110541F1023011058E
:101A300009F444C0012BF9F4DC01A15FBD4F4D91C5
:101A40005C911197240F352F311D220F331F220F68
:101A5000331F12964D915C9103E0559547950A9579
:101A6000E1F7240F351FE20FF32FF11DE80FF91FE7
:101A70008285682B62871F910F910895DC01A15F19
:101A8000BD4F4D915C911197240F352F311D220FC1
:101A9000331F220F331F12964D915C91A3E0559591
:101AA0004795AA95E1F7240F351FE20FF32FF11D9B
:101AB000E80FF91F609582856823DCCFDC01A15F08
:101AC000BD4F4D915C911197240F352F311D220F81
:101AD000331F220F331F12964D915C9173E0559581
:101AE00047957A95E1F7820F931F840F951FE80FB2
:101AF000F92FF11DBFCF2F923F924F925F926F92BD
:101B00007F928F929F92AF92BF92CF92DF92EF928D
:101B1000FF920F931F93CF93DF93CDB7DEB72E972E
:101B20000FB6F894DEBF0FBECDBF9E878D87FC0138
:101B3000E25FFD4F808190E0ED85FE85EF5EFD4F19
:101B40002D853E85245F3D4F79016D30E9F52D856A
:101B50003E85215F3D4FD9011D921C9221E060E03E
:101B60004D855E85455F5D4FDA017C917723C9F134
:101B70004D855E85435F5D4FDA013C910D851E8585
:101B8000015F1D4FD8014D915C91B6E03B9F400D28
:101B9000511D1124AD85BE8517963C91341715064D
:101BA00009F0FCF420813181D8011D921C92280F8C
:101BB000391F318320834D855E854D5E5D4F2081C9
:101BC0002770DA012C930FC020E06A3049F620819B
:101BD0003181280F391F3183208321E0D7012C93D5
:101BE000BECF2111E8CF20813181820F931FED8577
:101BF000FE85268130E02F5F3F4F281739070CF410
:101C000060E0D7018C91882349F1772339F1603264
:101C100029F5ED85FE85E15FFD4F80819181892B5E
:101C200009F03FC01C9281E090E02E960FB6F89428
:101C3000DEBF0FBECDBFDF91CF911F910F91FF90FF
:101C4000EF90DF90CF90BF90AF909F908F907F905C
:101C50006F905F904F903F902F90089567FF48C01E
:101C6000ED85FE85EC5EFD4F603C98F48081813D02
:101C700029F46139D9F5608360EC13C0803D29F403
:101C80006138A1F5608365E90CC0823E21F46038BB
:101C900069F56083C8CF803849F5643939F56083C8
:101CA0006DE2ED85FE85E15FFD4FFA83E9832081DA
:101CB00031814D855E85435F5D4F5C834B83DA01E7
:101CC0008C91F90146E0849FE00DF11D1124CF01B4
:101CD000F7FD07C0AD85BE8517964C9142171306D8
:101CE00054F4E981FA81918380839DCF6083D9CFB9
:101CF0006111D7CF98CFF0EEF60FF98725E0F29F6C
:101D0000C0011124AC0148585F4F1A01C12C605822
:101D10006C878D859E85865F9D4F9B878A87AD8565
:101D2000BE85AD5EBD4FBE83AD83ED85FE85EA5EAB
:101D3000FD4FF887EF83F5E060E0CF1661F029856D
:101D4000F101203638F0FC85F03108F05FC0F10178
:101D5000E551FF4F6491AA85BB858C9181116095F7
:101D6000EB81FC819081913009F059C0A981BA8141
:101D70008D919C9197FD35C0ED85FE8527812817B3
:101D800019067CF1AD81BE818C91EF81F8850081CF
:101D900010E020E040E0882301F1E62EF12CB701AD
:101DA00001C0660F8A95EAF720E040E08D859E85A8
:101DB0000E94100DAF81B8850C9110E0ED81FE817D
:101DC000808128E030E0281B3109B70102C07595F9
:101DD00067952A95E2F720E041E08D859E850E9477
:101DE000100DEB81FC818081A981BA812D913C91FC
:101DF0001197820F932F911D8D939C93C394BFEFE6
:101E00002B1A3B0AE6E0CE1296CF0DCF2985F101C1
:101E1000203A18F4E555F1099DCF35979BCF792FDE
:101E200030E020E0812C912C5401E62FF0E0872F48
:101E3000891BAF01022E02C0559547950A94E2F71F
:101E4000417055278717F1F0412C512C32014394F2
:101E5000082E04C0440C551C661C771C0A94D2F74B
:101E60004115510531F084289528A628B7288F5FA1
:101E7000E9CF409450946094709484209520A620DB
:101E8000B720F5CF2F5F3F4F782F790F28303105DE
:101E900071F6E12CA981BA818D919C91EB81FC8135
:101EA0002081E21608F09DCF8E0D911D97FD47C051
:101EB000AD85BE8517962C91281719060CF43FC0E6
:101EC000D12CF12CED81FE812081AB81BC818C91E4
:101ED000D816B0F5B8E0DB9EC0011124240135010D
:101EE00004C076946794579447948A95D2F7EF810B
:101EF000F885008110E0211109C02E2D4D2D642D93
:101F00008D859E850E94100DD394DCCF6F2D70E0DF
:101F100088E090E0821B910902C0759567958A95CB
:101F2000E2F7842D01C0880F2A95EAF7682B2E2D41
:101F30004D2D8D859E850E94100DF42CE5CFF12C42
:101F4000AD81BE818C918823B9F0EF81F885008145
:101F500010E06F2D70E028E030E0281B310902C04E
:101F6000759567952A95E2F72E2DAB81BC814C9132
:101F70008D859E850E94100DE3948CCFAF92BF9209
:101F8000CF92DF92EF92FF920F931F93CF93DF9345
:101F900028E0829FC0011124F12CE12C9C012859DA
:101FA0003F4F690188E0A82EB12CF601EE0DFF1D10
:101FB00064918091100890911108019690931108F6
:101FC00080931008209108062817190664F0809164
:101FD000140881111AC010E000E020E040E081E028
:101FE00096E00E94100D3FEFE31AF30A88E0E8162E
:101FF000F104D9F6DF91CF911F910F91FF90EF90EF
:10200000DF90CF90BF90AF900895C62FD0E0BE0173
:1020100001C0660F8A95EAF710E000E020E040E09A
:1020200081E096E00E94100D809114089501281B14
:102030003109BE0102C0759567952A95E2F720E047
:1020400041E0CDCFFF920F931F93CF93DF9300D04A
:10205000CDB7DEB7E3E1F1E010E000E08191080FD9
:10206000111D81E0E933F807C9F746E250E063E16A
:1020700071E082E090E00E947A070F5F1F4F1A83A1
:10208000098342E050E0BE016F5F7F4F90E080E047
:102090000E947A07E9E0F1E083E191E010E000E0DE
:1020A0002191020F111D8E179F07D1F78091140106
:1020B0009CE0F92E8F9DC00111244AE050E069E0B8
:1020C00071E08A960E947A070F5F1F4F1A83098377
:1020D000809114018F9DC001112442E050E0BE01A7
:1020E0006F5F7F4F88960E947A070F900F90DF9165
:1020F000CF911F910F91FF900895809123019091AE
:102100002401A0912501B091260180934708909366
:102110004808A0934908B0934A0880E00E94F2085A
:1021200081E00C94F208CF93DF938091D7049091D3
:10213000D80427E0289FE001299FD00D112485E1D4
:102140000E948D04DE01A80FB91FAA0FBB1F94E0E7
:10215000B695A7959A95E1F7B093D804A093D704C4
:102160002091270130E00E94FF2D2FEF33E040E067
:1021700050E00E94B32D2093DE04DF91CF910895AB
:10218000CF93DF938FE00E948D048091DC049091C7
:10219000DD04EC01CC0FDD1FC80FD91F8FE00E94BA
:1021A0008D042196C80FD91FCC0FDD1FCC0FDD1F6A
:1021B00044E0D695C7954A95E1F7D093DD04C093E6
:1021C000DC0480E10E948D048091DA049091DB04AC
:1021D000EC01CC0FDD1FC80FD91F80E10E948D04D8
:1021E0002196C80FD91FCC0FDD1FCC0FDD1F74E067
:1021F000D695C7957A95E1F7D093DB04C093DA04BE
:10220000DF91CF910895DC01ED91FD918081ED91F9
:10221000FD919081ED91FD916C9163708E2309F099
:1022200064609F2309F06860E0E2F1E1E60FF11DD0
:10223000659565956D936D917D918D919D910994B5
:1022400023C01AC012C016C010C01EC009C014C0DE
:1022500013C006C019C009C00DC007C00DC014C00E
:1022600062507040804090400BC061507040804090
:10227000904006C06E5F01C06F5F7F4F8F4F9F4FD2
:102280009E938E937E936E930895089590E080E0E0
:102290000895BF92CF92DF92EF92FF920F931F9318
:1022A000CF93DF93EC01B62EC72E8D85811105C02B
:1022B000CE010E946E0581110EC01B861D861C86F4
:1022C00080E0DF91CF911F910F91FF90EF90DF9011
:1022D000CF90BF90089540E060EFCE010E941B05B3
:1022E00001E0E12CD12C11E0CE010E94BD04F82EBA
:1022F000CE010E94BD0491E0F91218C0813099F519
:102300001134D8F2DB86D11002C081E08D878B8139
:10231000882399F22396EB2DFC2DCF010896299165
:102320002193E817F907D9F781E0CBCF2E2D30E0C4
:10233000F8120EC08B851817A0F4FE01E20FF31FF0
:102340008381802381F4F12C193008F41C87D12E6D
:10235000FE01E20FF31F8381902F909589238383E1
:102360000AC08113F0CFFE01EE0DF11D8381802B99
:102370008383FF24F3946F2DCE010E94E8041F5F36
:10238000000F11F4E39401E087E08E1508F0ACCF64
:10239000B7CF4F925F926F927F928F929F92AF9240
:1023A000BF92CF92DF92EF92FF920F931F93CF9342
:1023B000DF93CDB7DEB761970FB6F894DEBF0FBEDF
:1023C000CDBF0E948104C090D304D090D404E0908B
:1023D000D504F090D6046C197D098E099F096938DF
:1023E00073418105910508F458C08091D204811190
:1023F00054C01092E1058091E5059091E6050E9498
:102400006E0540E06CEC8091E5059091E6050E9438
:102410001B054091DF0564E48091E5059091E60598
:102420000E941B058091E105882391F1E091E00570
:10243000E9500EEE12E0E33038F4F0E0EE0FFF1F4B
:10244000ED5BFE4F008111818091E205882309F444
:1024500081C08091DF0581117DC00E9481044B0104
:102460005C012801110F660877088091E5059091BD
:10247000E6050E94BD04813059F00E948104641970
:10248000750986099709681579058A059B0568F31A
:1024900081E08093E1058093D2040E9481046C194D
:1024A0007D098E099F0961347F4181059105D8F12D
:1024B0008091D2048823B9F1E091E505F091E60519
:1024C0001386158614861286118610861782168248
:1024D000158214821382BE01665F7F4F8091E505ED
:1024E0009091E6050E94491181113BC060E070E0C7
:1024F0008EEF92EC20E030E040E05FE30E940F2E90
:102500000E947B2E80912A01680F6093D9040E945B
:1025100081046093D3047093D4048093D504909382
:10252000D6041092D20461960FB6F894DEBF0FBEA7
:10253000CDBFDF91CF911F910F91FF90EF90DF9072
:10254000CF90BF90AF909F908F907F906F905F9053
:102550004F900895B801110F880B990B0E944E04FB
:1025600097CF67E0CE010A960E94A5049989891346
:10257000BDCF8091E5059091E6050E946E05882308
:1025800009F4B4CFBE016F5F7F4FCE010A960E945F
:10259000AD05882309F4AACF68E0CE0101960E9418
:1025A000A50499858913A2CF6A8170E0762F6627EA
:1025B000770F770F770F298158E0259F900111241D
:1025C000262B372B8A858031D1F4688570E08F8186
:1025D000AB01481B5109CA019695982F88279795FA
:1025E00087950E94D52CCB014097B90153E0660F27
:1025F000771F5A95E1F760789C01260F371F213825
:1026000054EE35070CF472CFB901330F880B990BD8
:102610000E94B32E20E030E040E05CE30E943F2FB8
:1026200069CF0F931F93CF93DF9380914405882345
:1026300059F010927C050E94F00610924405DF913B
:10264000CF911F910F9108950E9481040091CE04B3
:102650001091CF042091D0043091D104601B710BF4
:10266000820B930B693E73408105910520F4012B89
:10267000022B032B21F70E9481046093CE047093F8
:10268000CF048093D0049093D10488E60E94840202
:1026900060E08FEC95E00E94C1060E94280288232A
:1026A00019F010928305CBCF81E08093830567E01A
:1026B00088E60E948E0210925A0580935905873051
:1026C00008F461C08FEC95E00E948106D82F982F06
:1026D00092959770CAE08D2F8F709C9F800D11246A
:1026E00080937C058FEC95E00E948106982F92954F
:1026F0009F708F709C9F800D112480937D058FECBF
:1027000095E00E948106982F929593708F709C9F00
:10271000800D112480937E058FEC95E00E94810648
:10272000982F92959F708F709C9F800D112480939D
:102730007F058FEC95E00E948106982F92959F70FF
:102740008F709C9F800D1124809380058FEC95E005
:102750000E948106982F92959F708F709C9F800D8C
:102760001124809381058FEC95E00E948106982FBB
:102770009F70925E82958F708C9F900D1124909324
:102780008205D7FF5CCF10927E0510927D051092D6
:102790007C05DF91CF911F910F910C94F006CF93A0
:1027A000DF93EC01809150080E9484028D2F90E00D
:1027B0000E947507CE0199270E9475070E94280282
:1027C00061E0809150080E948E0210925A05809319
:1027D0005905882321F08FEC95E00E948106DF9156
:1027E000CF910895EF92FF920F931F93CF93DF93B2
:1027F0008B01040F151F7C012FEFE21AF20AEB0187
:102800000E94CF138993C701BE010C171D0799F7CA
:10281000DF91CF911F910F91FF90EF900895DF927C
:10282000EF92FF920F931F93CF93DF9300D0CDB71A
:10283000DEB71A821982809114012CE0829FC001B8
:10284000112442E050E0BE016F5F7F4F88960E94E6
:10285000F213F12CE12C10E000E08CE0D82E8091F6
:10286000140197018D9D200D311D1124C9018A96F7
:102870000E94CF13080F111D3FEFE31AF30A8AE0FD
:10288000E816F10461F70F5F1F4F89819A810817DD
:102890001907B1F4809114018D9DC00111244AE003
:1028A00050E069E071E08A960E94F2130F900F9059
:1028B000DF91CF911F910F91FF90EF90DF900895DE
:1028C0000E942210F3CF5F926F927F928F929F921D
:1028D000AF92BF92CF92DF92EF92FF920F931F932E
:1028E000CF93DF938C01EA01109211081092100827
:1028F000109213081092120822E430E0623471053D
:102900001CF49B0162E470E0C017D1070CF4FEC018
:102910006217730771F50C171D07A9F441E0B801A0
:1029200082E490E0DF91CF911F910F91FF90EF90A3
:10293000DF90CF90BF90AF909F908F907F906F90DF
:102940005F900C94530321E0AE01B80182E490E063
:10295000DF91CF911F910F91FF90EF90DF90CF907B
:10296000BF90AF909F908F907F906F905F900C94EE
:102970008A030C171D0709F0D1C080910706801744
:10298000110684F4DF91CF911F910F91FF90EF908A
:10299000DF90CF90BF90AF909F908F907F906F907F
:1029A0005F9008956F5F7F4FD0E0C0E037FD07C0B4
:1029B000C0910806D0E02C173D070CF4E90177FD23
:1029C000E1CFE0900806F12C6E157F050CF47B0139
:1029D000CE15DF05BCF641E0B801CE010E945303DD
:1029E0002196F6CFAE014F5F5F4FF02FF770A42F07
:1029F000A770E8E0EA1BE83009F4E0E06801A3E032
:102A0000D594C794AA95E1F7BC2CB3E0D595C795AA
:102A1000BA95E1F7DC2FDC197B01861797070CF4D8
:102A20007C01821793070CF49C0137FD20E0C22F34
:102A30006FEF70E0762E0F2E01C0770C0A94EAF744
:102A4000CB0102C095958795EA95E2F7A82E041B65
:102A5000150B085F1F4F02C0759567950A95E2F741
:102A6000662E01C0660CFA95EAF7CE151F0411F028
:102A70000CF088CF8091060690E0D1110EC08C1525
:102A80009D0548F010E000E02C2F4B2D662D81E0D5
:102A900096E00E94100DCF5FE8CF8C159D0548F0A1
:102AA00010E000E02C2F4B2D672D81E096E00E9476
:102AB000100D46018FEF881A980A512C8091060656
:102AC00090E0452D50E030E020E0D13011F021E0E1
:102AD00030E0421753078CF48815990548F010E050
:102AE00000E02C2F482D6FEF81E096E00E94100D42
:102AF00053948FEF881A980AE1CF8815990558F2F8
:102B000010E000E02C2F482D6A2DC1CFCCE1D0E0A1
:102B10000BE110E06217730709F415CF80910806E6
:102B200090E040912208442309F45CCF7B01861792
:102B300097070CF47C01821793070CF49C0137FD76
:102B400020E0D22E8D2D90E0E816F9060CF41ACF75
:102B500021E0AE01B8010E948A03D394F3CF109212
:102B6000E00460910A0170910B0180910C01909139
:102B70000D0120EA36E841E050E00E94DD2D809111
:102B80002E018217130609F018F481E08093E00407
:102B900080912D018217130609F018F482E08093CA
:102BA000E00480912C018217130609F018F483E0E9
:102BB0008093E00480912B018217130609F018F42A
:102BC00084E08093E0042091E00481E090E0A0E0C4
:102BD000B0E004C0880F991FAA1FBB1F2A95D2F727
:102BE0008093E10420915305222359F02091320172
:102BF000222339F020912E05211103C08062809399
:102C0000E10480913701882329F08091E1048064F8
:102C10008093E10480913801882329F08091E104B8
:102C200080688093E1042C982091E10487E090E093
:102C300030E04091B0004F774093B000A901082EDA
:102C400002C0559547950A94E2F740FF07C02B9ABA
:102C50002D9A2D98019768F72C9A08952B98F8CF04
:102C60004F925F926F927F928F929F92AF92BF929C
:102C7000EF92FF920F931F9320910901E0901701AB
:102C8000F09018010091190110911A0160910A0148
:102C900070910B0180910C0190910D0130915305C1
:102CA0006E0D7F1D801F911F332339F12223E1F028
:102CB00020911F013091200140912101509122016A
:102CC000620F731F841F951F0E94E0091F910F91CF
:102CD000FF90EF90BF90AF909F908F907F906F90FC
:102CE0005F904F900C94AF1520911B0130911C0107
:102CF00040911D0150911E01E3CF809033019090CF
:102D00003401A0903501B09036012223B9F04090F3
:102D10001F01509020016090210170902201A301B9
:102D20009201280D391D4A1D5B1D640D751D861D00
:102D3000971D680D791D8A1D9B1DC6CF40901B01F4
:102D400050901C0160901D0170901E01E8CF809191
:102D50003A058823A9F18091390581110CC0809131
:102D6000DF04882389F1809180008F7C809380002C
:102D70001092DF0429C08091DF04811125C0809169
:102D80005405811121C02091300184E1289F9001D8
:102D90001124032E000C440B550B60E472E48FE009
:102DA00090E00E94DD2DCA01B9010E94D2028091FB
:102DB00080008F7C80618093800081E08093DF04BD
:102DC00080913905882359F2089540910906509160
:102DD0000A0670E060E08BE096E00E94962D8091FC
:102DE00012088770809314080895009769F0FC0119
:102DF00001900020E9F73197AF01481B590BBC0146
:102E000081E096E00C94F80390E080E00895CF9381
:102E1000DF930E94F516EC018DE791E00E94F51614
:102E20008C0F9D1FDF91CF9108950C94F5168F9212
:102E30009F92AF92BF92CF92DF92EF92FF920F9349
:102E40001F93CF93DF93CDB7DEB7A1970FB6F8945A
:102E5000DEBF0FBECDBF6B017C0119A2423008F46A
:102E60004AE08E010F5D1F4F842E912CB12CA12CB6
:102E7000C701B601A50194010E94DD2D6A3014F549
:102E8000605DF80162938F01C814D904EA04FB0461
:102E9000B0F4CF010E94F516A1960FB6F894DEBFEC
:102EA0000FBECDBFDF91CF911F910F91FF90EF909B
:102EB000DF90CF90BF90AF909F908F900895690161
:102EC0007A01D6CF695CDDCF682F70E090E080E0BA
:102ED0004AE00C941717CF92DF92EF92FF92CF93B4
:102EE000DF936B017C016DE281E096E00E947B0D37
:102EF000EC0166277727CB016C197D098E099F09A4
:102F00004AE00E9417178C0F9D1FDF91CF91FF9011
:102F1000EF90DF90CF9008959C01BC01990F880B32
:102F2000990B37FD0C946B174AE00C941717CF934D
:102F3000DF934AE00E941717EC018DE791E00E94B1
:102F4000F5168C0F9D1FDF91CF910895CF93DF93DE
:102F50000E946417EC018DE791E00E94F5168C0F3A
:102F60009D1FDF91CF910895CF93DF930E948C171F
:102F7000EC018DE791E00E94F5168C0F9D1FDF910B
:102F8000CF910895CF92DF92EF92FF92CF930E945C
:102F9000E516109211081092100810921308109262
:102FA00012081092140883E080930E0888E1809341
:102FB0000F08C0915405CC2309F41FC18FEF0E9464
:102FC000010DCB3109F454C508F080C0C73009F4B5
:102FD0009FC488F5C33009F42FC468F4C13009F4E4
:102FE000F8C2C23009F405C4CF91FF90EF90DF9092
:102FF000CF900C94E10CC53009F46AC408F43BC4CA
:1030000080913701882309F480C480E292E00E9415
:10301000071781E080930E0888E080930F08809165
:103020001208877080931408809154050E946417D9
:1030300080E392E01AC4C73109F4C4C440F5C53135
:1030400009F483C408F0A8C4C43171F680910E015C
:1030500024E6829FC00111240E94B41781E080936E
:103060000E0888E080930F08809112088770809383
:103070001408809154050E94641781E592E00E9433
:10308000151780E00E94BE0F8AE692E0D2C3C931D4
:1030900009F4D4C408F4B4C4809130012AE0829FBA
:1030A000C00111240E94B41781E080930E0888E0CB
:1030B00080930F0880911208877080931408809184
:1030C00054050E9464178CEE92E0B3C3C93609F42C
:1030D0008EC508F051C0C53609F400C508F5CC31DD
:1030E00009F4DCC4C43609F07FCF8091160188232F
:1030F00009F4F1C485E293E00E94071781E0809310
:103100000E0888E080930F088091120887708093E2
:103110001408809154050E94641780E593E0A5C3CC
:10312000C73609F436C508F411C582E080930E084D
:1031300080E180930F0880911208877080931408B3
:1031400060911B0170911C0180911D0190911E01E5
:103150000E94971781E080930E0888E080930F0803
:1031600080911208877080931408809154050E9402
:10317000641783EC93E033C5CD3609F4A2C5F8F4A7
:10318000CB3609F482C508F459C580912D0124E697
:10319000829FC00111240E94B41781E080930E0821
:1031A00088E080930F08809112088770809314083C
:1031B000809154050E94641785E194E07FC5CF3665
:1031C00009F4B3C508F497C5C03709F00DCF809155
:1031D00042050E94A61781E080930E0888E0809344
:1031E0000F0880911208877080931408809154050D
:1031F0000E9464178BE794E01CC380910A019091B0
:103200000B01A0910C01B0910D0180389649A8499D
:10321000B10520F483E194E00E94151760910A0142
:1032200070910B0180910C0190910D01F0E4CF2E73
:10323000F2E4DF2EFFE0EF2EF12CA70196010E94B1
:10324000DD2DCA01B9014AE00E94171789E290E01A
:10325000909311088093100810921308109212088E
:103260001092140860910A0170910B0180910C0179
:1032700090910D01A70196010E94DD2D603A7648DC
:103280008140910520F480E891E00E94151760913B
:103290000A0170910B0180910C0190910D0120E4C5
:1032A00032E44FE050E00E94DD2D6031774281052D
:1032B000910520F480E891E00E94151760910A01C1
:1032C00070910B0180910C0190910D0120E432E48A
:1032D0004FE050E00E94DD2DE8EECE2EE3E0DE2E42
:1032E000E12CF12CA70196010E94DD2DCA01B90144
:1032F0004AE00E94171782E080930E0880E18093D5
:103300000F0884E690E0909311088093100887E0FE
:1033100090E09093130880931208809314086091B2
:103320000A0170910B0180910C0190910D01A70190
:1033300096010E94DD2D643671058105910520F40A
:1033400080E891E00E94151760910A0170910B01CD
:1033500080910C0190910D0128EE33E040E050E0A7
:103360000E94DD2D2AE030E040E050E00E94DD2D9B
:10337000CA01B9014AE00E94171781E080930E0844
:1033800088E080930F08109211081092100888E1CD
:1033900090E0909313088093120810921408809183
:1033A000DE04843620F483E194E00E9415178091B6
:1033B000DE04CAE06C2F0E94C92C90E00E948C179A
:1033C0008CEC94E00E9415178091DE046C2F0E9413
:1033D000C92C892F90E00E948C1783E194E00E9411
:1033E000151780915305882309F488C08091320114
:1033F000882309F480C082E891E00E94151740916B
:10340000DC045091DD04E091DA04F091DB044E1706
:103410005F0771F19A012E0F3F1FA4E6B0E00E94F2
:10342000FF2D4E1B5F0B9A0150E040E00E94B32D30
:103430007901283E334024F483E194E00E9415177B
:10344000C70164E670E00E94D52C7C01CB010E948C
:103450008C178CEC94E00E9415172AE0E216F10418
:1034600024F480E891E00E941517C7010E948C1790
:103470006091DC047091DD0490E080E0615071099E
:103480008109910937E0660F771F881F991F3A95C8
:10349000D1F74EEFC42E43E0D42EE12CF12CA7013E
:1034A00096010E94B32DB9016E5B7F4F4BE150E056
:1034B00087E190E00E9463146091DA047091DB046C
:1034C00090E080E0615071098109910957E0660F31
:1034D000771F881F991F5A95D1F7A70196010E945F
:1034E000B32DB9016E5B7F4F40E250E08CE190E07C
:1034F0000E94631479CD84E891E07FCF8091D90454
:1035000092E3980F953608F055C087FD04C083E11B
:1035100094E00E9415178091D904082E000C990B95
:103520000E948C1781E00E94BE0F86E891E00E9405
:10353000151780914A05882309F43FC083E194E080
:103540000E9415178FEF0E94010D80917E058A3031
:1035500020F483E194E00E94151780917E050E947B
:10356000641780917C0580FF2EC08EE891E00E9458
:10357000151780917D058A3020F480E891E00E9443
:10358000151780917D050E94641780910901882399
:10359000E9F080E991E00E941517809114018A30CA
:1035A00020F483E194E00E941517809114010E9499
:1035B00064171ACD88E891E0BACF8CEC94E00E94B1
:1035C000151781E0C0CF83E194E0D1CF84E991E089
:1035D000E2CF809114018A3020F483E194E00E94CC
:1035E0001517809114010E94641782E080930E08E1
:1035F00080E180930F0889E290E090931108809316
:10360000100887E090E0909313088093120880934D
:10361000140880910A0190910B01A0910C01B091C6
:103620000D0180389649A849B10520F483E194E062
:103630000E94151760910A0170910B0180910C0195
:1036400090910D0120E4C22E22E4D22E2FE0E22E32
:10365000F12CA70196010E94DD2DCA01B9014AE0B3
:103660000E94171784E490E090931108809310084B
:1036700087E090E0909313088093120880931408D9
:1036800060910A0170910B0180910C0190910D01E4
:10369000A70196010E94DD2D603A76488140910590
:1036A00020F480E891E00E94151760910A01709162
:1036B0000B0180910C0190910D0120E432E44FE068
:1036C00050E00E94DD2D603177428105910520F4A4
:1036D00080E891E00E94151760910A0170910B013A
:1036E00080910C0190910D0120E432E44FE050E014
:1036F0000E94DD2D28EE33E040E050E00E94DD2DF9
:10370000CA01B9014AE00E94171781E080930E08B0
:1037100088E080930F088CE690E0909311088093E6
:103720001008109213081092120810921408809139
:103730000901882309F45AC082EE93E00E9415170C
:103740008CE690E090931108809310088EE090E052
:10375000909313088093120886E080931408609178
:103760000A0170910B0180910C0190910D0128EEDE
:1037700033E040E050E00E94DD2D643671058105A4
:10378000910520F480E891E00E94151760910A01EC
:1037900070910B0180910C0190910D0128EE33E0A6
:1037A00040E050E00E94DD2D2AE030E040E050E0B3
:1037B0000E94DD2DCA01B9014AE00E94171710923C
:1037C00011081092100888E190E0909313088093FC
:1037D000120810921408809154050E94641788E919
:1037E00091E00E94151780911501E1CE8FEC93E0D6
:1037F000A5CFE0911301F0E0EE0FFF1FE75BFE4F56
:1038000020813181AAE0B0E00E94FF2D0E9497172D
:1038100081E080930E0888E080930F088091120861
:10382000877080931408809154050E94641784EB7C
:1038300091E00E941517D8CB809109018823C1F02F
:1038400082EE93E00E94071781E080930E0888E0E3
:1038500080930F08809112088770809314088091DC
:1038600054050E94641781EC91E00E940717BCCBBD
:103870008FEC93E0E7CF6091330170913401809138
:1038800035019091360197FF1FC00E946B178DE79D
:1038900091E00E94F51681E080930E0888E0809305
:1038A0000F08809112088770809314088091540546
:1038B0000E9464178BED91E00E94151780E00E9432
:1038C000BE0F8BEF92E0D1CF4AE00E941717DFCFF7
:1038D000809132018823B1F08DEE91E00E940717AC
:1038E00081E080930E0888E080930F088091120891
:1038F000877080931408809154050E94641789E0B2
:1039000092E0B3CF8CEF91E0E9CF89E292E07FCBF8
:10391000809138018823B1F08FE392E00E9407176D
:1039200081E080930E0888E080930F088091120850
:10393000877080931408809154050E94641782E474
:1039400092E093CF8DE492E0E9CF20910F01309186
:1039500010014091110150911201A4E6B0E00E94C3
:10396000D22D0E94971781E080930E0888E0809303
:103970000F08809112088770809314088091540575
:103980000E94641781E792E00E94151780E00E9470
:10399000BE0F8CE892E04DCF809115010E94A617D2
:1039A00081E080930E0888E080930F0880911208D0
:1039B000877080931408809154050E94641780E9F1
:1039C00092E037CF80917E058A3020F480E891E044
:1039D0000E94151780917E050E94A61781E08093B2
:1039E0000E0888E080930F088091120887708093FA
:1039F0001408809154050E9464178BEA92E019CF55
:103A000080917D058A3020F480E891E00E941517AE
:103A100080917D050E94A61781E080930E0888E0C2
:103A200080930F088091120887708093140880910A
:103A300054050E9464178FEB92E0FBCE80912F011A
:103A40002AE0829FC00111240E94B41781E0809374
:103A50000E0888E080930F08809112088770809389
:103A60001408809154050E94641783ED92E0E1CE22
:103A7000809129010E94A61781E080930E0888E0BA
:103A800080930F08809112088770809314088091AA
:103A900054050E94641780E093E0CBCE809128010A
:103AA0008823B1F085E293E00E94071781E08093BC
:103AB0000E0888E080930F08809112088770809329
:103AC0001408809154050E94641781E393E0CDCEE1
:103AD0008AE293E0E9CF8AE293E00ECB809127015E
:103AE0000E94A61781E080930E0888E080930F085B
:103AF00080911208877080931408809154050E9469
:103B000064178BE693E00E9415178091DE048436DB
:103B100020F480E891E00E9415178091DE04CAE04D
:103B20006C2F0E94C92C90E00E948C178CEC94E0C2
:103B30000E9415178091DE046C2F0E94C92C892FDA
:103B400090E00E948C178CE793E073CE80912A015D
:103B5000082E000C990B0E94B41781E080930E0888
:103B600088E080930F088091120887708093140872
:103B7000809154050E94641788E893E00E9415170D
:103B800081E00E94BE0F80E00E94BE0F86E891E0B7
:103B900050CE82E080930E0880E180930F088091E0
:103BA000120887708093140860912301709124019A
:103BB00080912501909126010E94971781E08093C2
:103BC0000E0888E080930F08809112088770809318
:103BD0001408809154050E94641780EA93E00E94C3
:103BE000151780E00E94BE0F8BEF92E022CE82E09C
:103BF00080930E0880E180930F08809112088770EF
:103C00008093140860911F0170912001809121011F
:103C1000909122010E94971781E080930E0888E01E
:103C200080930F0880911208877080931408809108
:103C300054050E94641786ED93E0D1CF82E0809313
:103C40000E0880E180930F0880911208877080939E
:103C500014086091170170911801809119019091D9
:103C60001A010E94971781E080930E0888E08093E4
:103C70000F08809112088770809314088091540572
:103C80000E94641789EE93E0AACF80912E0124E66A
:103C9000829FC00111240E94B41781E080930E0816
:103CA00088E080930F088091120887708093140831
:103CB000809154050E9464178CEF93E00E941517C1
:103CC00068CE80912C0124E6829FC00111240E94BD
:103CD000B41781E080930E0888E080930F088091EC
:103CE0001208877080931408809154050E9464170D
:103CF0008EE294E0E3CF80912B0124E6829FC00105
:103D000011240E94B41781E080930E0888E080930C
:103D10000F088091120887708093140880915405D1
:103D20000E94641787E494E0C9CF809143050E9404
:103D3000A61781E080930E0888E080930F08809199
:103D40001208877080931408809154050E946417AC
:103D500080E694E06ECD1F921FB61F9211248F93C0
:103D60009F93AF93BF938091260590912705A091D3
:103D70002805B09129050196A11DB11D8093260546
:103D800090932705A0932805B093290580912505D8
:103D900093E0980F9D37E8F49093250580912A05CC
:103DA00090912B05A0912C05B0912D050196A11D98
:103DB000B11D80932A0590932B05A0932C05B093F9
:103DC0002D05BF91AF919F918F911F901FBE1F90A6
:103DD00018958A578093250580912605909127058F
:103DE000A0912805B09129050196A11DB11D8093D0
:103DF000260590932705A0932805B0932905CECFDB
:103E00001F920F920FB60F9211242F933F934F934F
:103E10005F936F937F938F939F93AF93BF93EF9332
:103E2000FF938091B900887F803609F44AC0F0F58D
:103E3000883209F4A7C018F5803109F49BC0B8F4A2
:103E4000882309F4F9C0883009F494C0FF91EF91F8
:103E5000BF91AF919F918F917F916F915F914F91A2
:103E60003F912F910F900FBE0F901F9018958831A2
:103E700009F488C0803251F78093A80514C08034BB
:103E800009F49DC040F48033B9F38833F9F6809388
:103E9000A80585ECB0C0803509F485C0883509F4E3
:103EA00096C0883499F60E944006D0CF883909F42C
:103EB0008CC038F5883729F050F4883611F08037F7
:103EC00029F683E08093AA051092240557C088380C
:103ED00009F47BC0803919F0803809F0B7CF8091A0
:103EE0002405803208F071C0E091240581E08E0F36
:103EF000809324058091BB00F0E0EC5FFA4F808353
:103F00003DC0803B39F0E0F4803A09F479C0883A4A
:103F100009F09CCF84E08093AA05109203051092CB
:103F20000205E0915705F091580509958091020529
:103F300081110FC081E0809302051092E20409C054
:103F4000803C09F4A6CF883C09F4A3CF883B09F054
:103F50007DCFE091030581E08E0F80930305F0E0B3
:103F6000EE51FB4F80818093BB00909103058091BF
:103F7000020529C0809185058093BB0085EC809364
:103F8000BC0064CF9091A7058091A605981758F5BD
:103F9000E091A70581E08E0F8093A705F0E0EA5736
:103FA000FA4F8081E9CFE091A70581E08E0F8093E1
:103FB000A7058091BB00F0E0EA57FA4F808390910B
:103FC000A7058091A6059817C8F285E8D8CFE0919B
:103FD000A70581E08E0F8093A7058091BB00F0E0DC
:103FE000EA57FA4F80838091A90581115CCF81E067
:103FF0008093840584EA8093BC001092AA0526CFA2
:1040000085EC8093BC001092AA0580912405803233
:1040100030F4E0912405F0E0EC5FFA4F10826091FB
:10402000240570E0E0915505F091560584E095E097
:104030000995109224050ACF1092A80534CF1F923B
:104040000F920FB60F9211242F933F934F935F93CC
:104050006F937F938F939F93AF93BF93EF93FF9350
:104060008091DD059091DE050E940311FF91EF9193
:10407000BF91AF919F918F917F916F915F914F9180
:104080003F912F910F900FBE0F901F9018951F9288
:104090000F920FB60F9211242F933F934F935F937C
:1040A0006F937F938F939F93AF93BF93EF93FF9300
:1040B0008091DB059091DC050E940311FF91EF9147
:1040C000BF91AF919F918F917F916F915F914F9130
:1040D0003F912F910F900FBE0F901F9018950E9447
:1040E000CC031092D2051092D10588EE93E0A0E0A7
:1040F000B0E08093D3059093D405A093D505B093F9
:10410000D60583E691E09093D0058093CF0580E5B6
:10411000809350081092300810922F0810923208A5
:10412000109231081092340810923308109235081A
:104130001092360810923708809140019091410109
:10414000A09142018093380890933908A0933A08CF
:1041500010923B0810923C0810923D0810923E08C5
:1041600010923F08109240081092410810924208A5
:104170001092430810924408109245081092460885
:1041800080E89FEDA7E1B0E180934708909348084D
:10419000A0934908B0934A0852985A9A53985B9A48
:1041A000E7EEF3E0E491F0E0EE0FFF1FE552FC4F85
:1041B000859194919093240880932308E9ECF3E08F
:1041C000E491E0932708E8EEF3E0E491F0E0EE0FED
:1041D000FF1FE552FC4F85919491909326088093A0
:1041E0002508EAECF3E0E491E093280810922A080D
:1041F00010922B0810922C0810922D0880ED97E059
:104200000E942104E0912308F0912408908180917C
:104210002708982381E009F480E0E0912508F091D7
:104220002608908120912808922309F0826023E2D9
:1042300038E0809329083093DC052093DB058091DA
:1042400069008C7F816080936900E89A91E0909387
:104250002E083093DE052093DD0580916900837F71
:10426000846080936900E99A82E080932E0810921E
:1042700004061092030625E731E0309302062093EE
:1042800001062CE32093050623E0209306062FE188
:10429000209307062FE72093080620E032E03093B2
:1042A0000A062093090610920B0810920C0810922F
:1042B0000D0890930E0828E020930F081092110823
:1042C00010921008109213081092120810921408FD
:1042D0001092160880931708109222083898469872
:1042E000E5EDF3E0E491E093F305E3EFF3E0E4912F
:1042F000F0E0EE0FFF1FE552FC4F25913491309313
:10430000F5052093F4051092FE0510920006109218
:10431000FF051092FD051092FC051092FB0510920E
:10432000FA051092F9051092F8051092F70510920F
:10433000F60523EF35E03093E6052093E50510926E
:10434000E3051092E4051092DF0589E08093E00513
:104350009093E1059093E2051092F2051092F10519
:104360000895CDB7DEB760970FB6F894DEBF0FBEE5
:10437000CDBFF89482E880937A0083E084BD85BD48
:1043800090916E00916090936E0091E09093800008
:104390002BE0209381009093B00094E09093B100C3
:1043A0001092C100789456985E98219A209A94B5FC
:1043B0009F7794BD5E98909180009F779093800046
:1043C0002998289855985D9857985F9894B59F7D3F
:1043D00094BD5D985F9854985C98399847983A983E
:1043E00098B198B9229A249A259A239A2C982D98B4
:1043F0009091B0009F779093B0002B985C9A809337
:1044000000010E94CC030E948B0C08EB13E0F80122
:1044100084910E949E0C0F5F1F4FF3E0073C1F0723
:10442000B1F786E198E00E94920C0E948B0C8AED15
:104430000E949E0C82E00E949E0C88EA0E949E0CC4
:104440008FE10E949E0C86E198E00E94920C1092EF
:10445000110810921008109213081092120810926E
:1044600014086091060670E08091080690E00E94B2
:10447000B30C0E94E5160E94E10CE091E505F09175
:10448000E605138615861486128611861086178215
:1044900016821582148213821092E3051092E405AD
:1044A00011E0BE016F5F7F4F8091E5059091E605B9
:1044B0000E944911882309F45FC067E0CE0101968C
:1044C0000E94A50498858913ECCF8091DF058111A6
:1044D00028C08091E5059091E6050E946E05BE0119
:1044E0006F5F7F4F8091E5059091E6050E944F0533
:1044F00040E064EB8091E5059091E6050E941B0584
:104500008091E5059091E6050E94BD04082F8091F9
:10451000E5059091E6050E946E05011102C0109319
:10452000DF050091E005CE0101960E94F905801794
:10453000C0F48091E0058093E0058091E3058F5FF2
:104540008093E3058981883231F080F4803119F05D
:10455000823209F0A6CF8091E4058F5F8093E40555
:10456000A0CFCE0101960E94F905E5CF8B3399F3D8
:10457000823409F096CFEFCF1A82198242E050E0E0
:10458000BE016F5F7F4F90E080E00E94F21302E077
:10459000E02EF12C10E000E0C7010E94CF13080FBD
:1045A000111D2FEFE21AF20A38E2E316F104A1F727
:1045B0000F5F1F4F89819A810817190709F0CFC033
:1045C00046E250E063E171E082E090E00E94F21385
:1045D0000E940F14809129018093390110923808AC
:1045E0001092390810923A0860E880E10E94CB08E6
:1045F00060E881E10E94CB0860E882E10E94CB087C
:1046000080E096E4A3ECB3E280933C0190933D01FB
:10461000A0933E01B0933F0162ED87EB0E94CB086F
:104620000E947D100E9430160E9493100E94C010BC
:104630000E94C9110E9411134C9903C084E6809313
:1046400054050E94E516109211081092100810925D
:104650001308109212081092140883E080930E0839
:1046600088E180930F0880915405843609F07AC060
:104670008AE994E00E9407170E94E10C4C9BFECF50
:1046800068EE73E080E090E00E944E040E94C21742
:1046900018EE212E13E0312E04E610E080913A0549
:1046A00081113EC04E9974C0809134058F5F809314
:1046B0003405809134058B3098F18AE0809334057D
:1046C00080913305811103C081E08093330580918F
:1046D0003C05811133C0FF24F394F0923C050E9405
:1046E0003016F0923D05809154058150833030F5AD
:1046F0001092540564E670E080E090E00E944E0461
:1047000068EE73E080E090E00E94D2028091800029
:104710008F7C806180938000F0922E050E94AF15FF
:1047200080913C0581110AC04D9976C080913B056E
:104730008F5F8B3008F0B4C080933B0580915305A8
:10474000882309F4CAC080913D058111D5C08091AC
:1047500080008F77809380002998289ACDC00E948E
:10476000221036CF81E091E00E94071781E080930C
:104770000E0888E080930F0880911208877080935C
:10478000140880EA94E00E9407170E94E10C78CF99
:1047900080913C0510923405882311F280913305F5
:1047A000882361F00E94810460932F057093300587
:1047B0008093310590933205109233050E94810455
:1047C000C0902F05D0903005E0903105F090320573
:1047D0006C197D098E099F09623371058105910568
:1047E00008F49ECF10923C0580912E05882379F025
:1047F000809180008F7C8093800064E670E080E090
:1048000090E00E944E0410922E050E94AF150E9467
:10481000301610923D054DCF10923B0580913A0520
:10482000882309F48BCF80913905882381F00E9479
:104830008104609335057093360580933705909316
:104840003805109239050E9430160E94A7160E9462
:104850008104C0903505D0903605E0903705F09082
:104860003805AB01BC014C195D096E097F098091C7
:104870002F012AE0829FC0011124092E000CAA0BEF
:10488000BB0B481759076A077B0708F457CF1092EC
:104890003A0510923D050E9430160E94A7164ECF91
:1048A0008AE080933B0580913905811107C081E042
:1048B000809339050E9430160E94A71680913A0510
:1048C00081113CCF80913905882309F437CF81E0ED
:1048D00080933A0580933D05DECF80913D05882386
:1048E00059F02898809180008F7780938000299AD2
:1048F00080915305811127CF809108014C99F2C70F
:10490000882361F0109208010E94810460933E05A3
:1049100070933F05809340059093410580912E0848
:10492000823008F042C1F89483E298E00E940311BB
:1049300060912A0870912B0880912C0890912D0885
:1049400078942091390130E050E040E00E94B32D8E
:1049500069017A0190912801992341F0F094E09443
:10496000D094C094C11CD11CE11CF11C8090460560
:1049700090904705A0904805B09049058C149D047F
:10498000AE04BF0409F444C04C9B42C0809154055E
:104990002FEF280F283018F421E0209345058A31A5
:1049A00009F49CC408F03EC1863009F49DC308F0A8
:1049B0000CC1823009F41EC308F0F9C0882309F441
:1049C0002DC2813009F4F5C20E94810460934B0529
:1049D00070934C0580934D0590934E058091160180
:1049E000811103C091E090934A0590915405992359
:1049F00029F0882319F081E080934A050E94C217AC
:104A0000C0924605D0924705E0924805F0924905CC
:104A100080915305339B60C7811109C081E0809369
:104A200053050E94AF150E9430160E94C2170E94C3
:104A300093108091540581115BC0809153058823A8
:104A400009F445C710933B0100933A010E94810489
:104A5000C0904F05D0905005E0905105F090520560
:104A6000AB01BC014C195D096E097F0980913A01C7
:104A700090913B01B0E0A0E084179507A607B70727
:104A8000B8F50E948104C0904B05D0904C05E09091
:104A90004D05F0904E056C197D098E099F09613115
:104AA00077428105910590F080914A05882371F045
:104AB0000E94810460934B0570934C0580934D05D3
:104AC00090934E0510924A050E9422100E94C01039
:104AD0000E94C9110E9411130E94C2170E948104F2
:104AE00060934F0570935005809351059093520544
:104AF00080E090E0892B09F4D1CD0E940000C8CD60
:104B0000F894FFC684E18093540534C0655671095A
:104B100081099109633873408105910558F58091A9
:104B200054059FEF980F983040F5909145059923D3
:104B300021F11092450510925405909115019111A3
:104B400009C080915405813011F0843619F48F5FCB
:104B50008093540580911601882361F0992351F0C8
:104B6000809154058731D0F4843108F000C7825019
:104B70008230C0F00E94C217D1CE91E0980F9730DA
:104B8000D1F28C51873420F484E180935405D5CF41
:104B900090935405913788F284E6F7CF8B51823099
:104BA00048F7E5C610925405E5CFF894C1CE84309D
:104BB00009F446C208F43DC28091320191E0892790
:104BC000809332010E94AF15FFCE863109F418C3DD
:104BD00078F4843109F48FC208F0BCC2873009F040
:104BE000F3CE8091380191E0892780933801EACF94
:104BF000883109F44BC308F429C380912F018C1428
:104C00009D04AE04BF040CF05EC38F3F19F08F5FAC
:104C100080932F0180912F018A3008F48AE08093DD
:104C20002F01D2CE893609F472C408F069C08536E6
:104C300009F49FC378F48C3109F48AC308F46BC378
:104C4000843609F0C1CE8091160191E089278093C6
:104C50001601BACE873609F4CDC308F4ABC38091F0
:104C60001B0190911C01A0911D01B0911E018C149B
:104C70009D04AE04BF040CF02EC4813EF6E39F07F2
:104C8000FFECAF07B105A8F4E0911301F0E0EE0FDF
:104C9000FF1FE75BFE4F20813181820F931FA11D13
:104CA000B11D80931B0190931C01A0931D01B09333
:104CB0001E0180911B0190911C01A0911D01B091DA
:104CC0001E01813E36E393073FECA307B10520F0B8
:104CD00080EE96E3AFECB0E0803A4AE994074EEC00
:104CE000A407B10520F480EA9AE9AEECB0E0809325
:104CF0001B0190931C01A0931D01B0931E0128C1BC
:104D00008D3609F416C500F58B3609F4DAC408F4BB
:104D100069C480912D0190912E018C149D04AE04E4
:104D2000BF040CF0F4C420912C01821718F48F5F9B
:104D300080932D0180912D01981708F4F3C481E030
:104D4000890F80932D013ECF8F3609F43EC508F4BC
:104D500018C5803709F038CE809142058C149D0427
:104D6000AE04BF040CF0A8C58A3018F48F5F80939E
:104D70004205809142058A3009F026CE0E94E51650
:104D80001092110810921008109213081092120835
:104D90001092140882E080930E0880E180930F083F
:104DA00083EC94E00E9415170E94E10C23E1A22EEF
:104DB00021E0B22E912C812CC4010E949D2DD501A1
:104DC0008D935D01BFEF8B1A9B0AE6E28E1691046C
:104DD00099F789E0A82E81E0B82E97E2892E912CD0
:104DE000C4010E949D2DD5018D935D01BFEF8B1AEB
:104DF0009B0AE1E38E16910499F70E9422108FEB33
:104E000094E00E9415170E94E10C68EE73E080E0C8
:104E100090E00E944E040C940000D6CD80911601C3
:104E20008111D2CD40900A0150900B0160900C018D
:104E300070900D0120910F013091100140911101EE
:104E40005091120160EA76E881E090E00E94B92C6E
:104E50006D877E878F87988BA0910E01B0E020EA46
:104E600036E841E050E00E94D22D69877A878B872F
:104E70009C878C149D04AE04BF040CF06CC08D851F
:104E80009E85AF85B88984159505A605B70550F1AF
:104E9000E0911301F0E0EE0FFF1FE75BFE4F208172
:104EA0003181AAE0B0E00E94FF2D4B015C01C301FB
:104EB000B201A50194010E94DD2D480C591C6A1C09
:104EC0007B1C611571058105910521F0461A570A71
:104ED000680A790A40920A0150920B0160920C0113
:104EE00070920D0180910A0190910B01A0910C012B
:104EF000B0910D0129853A854B855C858217930712
:104F0000A407B50760F489859A85AB85BC85809335
:104F10000A0190930B01A0930C01B0930D018091B5
:104F20000A0190910B01A0910C01B0910D012D850A
:104F30003E854F855889281739074A075B0740F493
:104F400020930A0130930B0140930C0150930D0103
:104F50000E94301639CDC814D904EA04FB0414F6B3
:104F600029853A854B855C8542165306640675068D
:104F700050F2E0911301F0E0EE0FFF1FE75BFE4FF0
:104F800020813181AAE0B0E00E94FF2D4B015C013D
:104F9000C301B201A50194010E94DD2D61157105C7
:104FA0008105910509F092CF481859086A087B08D5
:104FB00091CF80911401909115018C149D04AE0441
:104FC000BF047CF4891718F48F5F809314018091DB
:104FD0001401981708F4892F809314010E940F146C
:104FE000B7CFC814D904EA04FB048CF7882379F3FB
:104FF0008150EBCF809113018C149D04AE04BF044B
:1050000034F4863078F48F5F80931301DDCCC814BC
:10501000D904EA04FB0434F4882309F4D5CC815084
:105020008093130180911301873008F4CDCC86E082
:10503000EBCF8091090191E089278093090188CF06
:105040008091330190913401A0913501B0913601E6
:105050008C149D04AE04BF04BCF5893B3BE0930770
:10506000A105B1055CF4C296A11DB11D8093330169
:1050700090933401A0933501B093360180913301B0
:1050800090913401A0913501B0913601893B5BE0EC
:105090009507A105B10524F088EB9BE0A0E0B0E006
:1050A0008834E4EF9E07EFEFAE07BE0724F488E4F0
:1050B00094EFAFEFBFEF8093330190933401A0934F
:1050C0003501B093360144CFC814D904EA04FB0477
:1050D000ACF6883444EF94074FEFA407B40774F29A
:1050E000C297A109B109C2CF8091370191E0892708
:1050F0008093370167CD80910E018C149D04AE041E
:10510000BF04FCF48F5F80930E0140910E018FE08D
:105110004F30A0F080910F0190911001A0911101EA
:10512000B091120150E070E060E00197A109B1096F
:10513000481759076A077B0708F4CA0180930E01D4
:1051400043CCC814D904EA04FB04FCF68F30E8F21F
:105150008150D9CF80910F0190911001A091110140
:10516000B09112018C149D04AE04BF04DCF58D32A5
:10517000F1E09F07A105B10558F40196A11DB11DED
:1051800080930F0190931001A0931101B09312012D
:1051900040910F0150911001609111017091120125
:1051A00080910E0190E00196092E000CAA0BBB0B1A
:1051B000481759076A077B0760F0DB01CA018D3287
:1051C00021E09207A105B10520F08CE291E0A0E07A
:1051D000B0E080930F0190931001A0931101B09360
:1051E0001201F2CBC814D904EA04FB048CF68F3008
:1051F0009105A105B10560F20197A109B109C0CFE0
:10520000809115018C149D04AE04BF047CF48E3192
:10521000B8F48F5F8093150180911501909114016E
:10522000891708F0D1CB80931401CECBC814D904D0
:10523000EA04FB042CF4882379F381508093150150
:10524000809115018F3140F38EE1E4CF80917E058E
:105250008C149D04AE04BF0484F4883138F48F5F4D
:1052600080937E0580917E05883118F087E18093D8
:105270007E0581E080934405A7CBC814D904EA04D5
:10528000FB0484F78823A9F38150EACF80917D0540
:105290008C149D04AE04BF046CF48C3338F48F5F1F
:1052A00080937D0580917D058C3318F38BE380938B
:1052B0007D05DFCFC814D904EA04FB049CF78823DA
:1052C000C1F28150EDCFC814D904EA04FB040CF0FC
:1052D000A1CC823008F49ECC81509ACC80913001D0
:1052E0008C149D04AE04BF046CF48F3F19F08F5FE3
:1052F00080933001809130018A3008F48AE08093F5
:10530000300162CBC814D904EA04FB049CF7823054
:1053100088F38150EDCF809129018C149D04AE0457
:10532000BF046CF48F3F19F08F5F80932901809147
:105330002901811101C081E08093290145CBC81466
:10534000D904EA04FB049CF7823088F38150EDCF46
:10535000992359F010922801F094E094D094C094CD
:10536000C11CD11CE11CF11C2FCB81E080932801D2
:10537000F3CF809127018C149D04AE04BF046CF41C
:105380008F3F19F08F5F809327018091270184362A
:1053900068F08F3F61F48EEF0AC0C814D904EA04A4
:1053A000FB049CF7843688F38150EDCF84E680932C
:1053B00027010ACB80912A018C149D04AE04BF04FE
:1053C00084F48F311CF48F5F80932A0180912A012D
:1053D0008F310CF08EE1823E0CF482EE80932A0134
:1053E000F3CAC814D904EA04FB0484F7823E74F3B8
:1053F0008150EACF8091230190912401A091250151
:10540000B09126018C149D04AE04BF040CF048C07A
:10541000813C3EE0930736E1A30732E0B307A8F4EE
:10542000E0911301F0E0EE0FFF1FE75BFE4F2081DC
:105430003181820F931FA11DB11D80932301909391
:105440002401A0932501B09326018091230190911E
:105450002401A0912501B0912601813C5EE09507D1
:1054600056E1A50752E0B50720F080EC9EE0A6E1EA
:10547000B2E08038E1EB9E07EFE4AE07E1E0BE0763
:1054800020F480E891EBAFE4B1E0809323019093A6
:105490002401A0932501B09326010E947D1058CDD0
:1054A000C814D904EA04FB0484F6803841EB94075D
:1054B0004FE4A40741E0B40740F2E0911301F0E0AB
:1054C000EE0FFF1FE75BFE4F20813181821B930BA4
:1054D000A109B109B2CFC814D904EA04FB040CF045
:1054E000E8CB803A2AE992072EECA207B10508F42E
:1054F000E0CBE0911301F0E0EE0FFF1FE75BFE4F02
:1055000020813181821B930BA109B109CACB809103
:105510001F0190912001A0912101B09122018C14D2
:105520009D04AE04BF040CF043C0813E56E39507D2
:105530005FECA507B105A8F4E0911301F0E0EE0FD0
:10554000FF1FE75BFE4F20813181820F931FA11D5A
:10555000B11D80931F0190932001A0932101B0936E
:10556000220180911F0190912001A0912101B09111
:105570002201813EF6E39F07FFECAF07B10520F063
:1055800080EE96E3AFECB0E0803A2AE992072EEC89
:10559000A207B10520F480EA9AE9AEECB0E080936E
:1055A0001F0190932001A0932101B0932201D0CC40
:1055B000C814D904EA04FB04A4F6803AEAE99E0779
:1055C000EEECAE07B10568F2E0911301F0E0EE0FEA
:1055D000FF1FE75BFE4F20813181821B930BA109E6
:1055E000B109B7CF8091170190911801A0911901CD
:1055F000B0911A018C149D04AE04BF040CF046C097
:10560000813034EB930734ECA30734E0B307A8F4FC
:10561000E0911301F0E0EE0FFF1FE75BFE4F2081EA
:105620003181820F931FA11DB11D809317019093AB
:105630001801A0931901B0931A018091170190915C
:105640001801A0911901B0911A01813054EB95070E
:1056500054ECA50754E0B50720F080E094EBA4ECEF
:10566000B4E08038E3EC9E07E9ECAE07E1E0BE076A
:1056700020F480E893ECA9ECB1E0809317019093BB
:105680001801A0931901B0931A0162CCC814D9046F
:10569000EA04FB0494F6803843EC940749ECA40731
:1056A00041E0B40750F2E0911301F0E0EE0FFF1F6C
:1056B000E75BFE4F20813181821B930BA109B10969
:1056C000B4CF80912E018C149D04AE04BF04A4F4C9
:1056D00090912D01891718F48F5F80932E0180918E
:1056E0002E01803190F090912D01891710F08FEFED
:1056F000890F80932E0166CAC814D904EA04FB04FA
:1057000074F7803160F38150E8CF80E1F2CFC814A4
:10571000D904EA04FB040CF00DCB981708F00ACB6F
:10572000815006CB90912C01891708F40ACB8FEF9A
:1057300007CB80912C0190912D018C149D04AE0417
:10574000BF0484F420912B01821718F48F5F80939B
:105750002C0180912C01981770F081E0890F8093C3
:105760002C0130CAC814D904EA04FB0494F7981732
:1057700080F78150ECCF90912B01891780F38FEF48
:10578000EDCF80912B0190912C018C149D04AE04DF
:10579000BF0474F48D3F18F48F5F80932B018091C8
:1057A0002B01981770F081E0890F80932B010ACAB2
:1057B000C814D904EA04FB0494F7981780F78150C1
:1057C000ECCF8D3F90F38CEFF0CF809143058C149C
:1057D0009D04AE04BF040CF064C08A3018F48F5FDF
:1057E00080934305809143058A3009F0EDC80E94FB
:1057F000E5161092110810921008109213081092DA
:1058000012081092140882E080930E0880E18093C1
:105810000F0885EB94E00E9415170E94E10C53E1FC
:10582000A52E51E0B52E912C812CD5017D905D01E6
:10583000C4010E949D2D781621F0672DC4010E949D
:10584000A52DBFEF8B1A9B0AE6E28E16910469F72D
:1058500039E0A32E31E0B32E47E2842E912CD501FE
:105860007D905D01C4010E949D2D781621F0672D69
:10587000C4010E94A52DBFEF8B1A9B0AE1E38E168F
:10588000910469F78FEB94E00E9415170E94E10CD8
:1058900068EE73E080E090E00E944E0410925405A0
:1058A00093C8C814D904EA04FB040CF09BCF8823E6
:1058B00009F48AC8815094CFC814D904EA04FB04BF
:1058C0000CF057CA882309F47FC8815050CA30921F
:1058D0003B0120923A01BAC8882309F4A8C8109263
:1058E00053059FC881111AC880912E0891E09093AA
:1058F0000801823008F004C9F89483E298E00E941D
:10590000031160912A0870912B0880912C089091C6
:105910002D0878942091390130E050E040E00E9459
:10592000B32D209346053093470540934805509387
:1059300049050E948104C0903E05D0903F05E0904B
:105940004005F09041056C197D098E099F09683E5C
:1059500043E074078105910508F4D8C88091540587
:10596000811120C980911601882309F4CBC887E1F1
:10597000CAC8DB018F939F930E94D22DBF91AF9134
:10598000A29F800D911DA39F900DB29F900D112499
:105990000895991B79E004C0991F961708F0961B8B
:1059A000881F7A95C9F78095089597FB072E16F4FE
:1059B000009407D077FD09D00E94732D07FC05D015
:1059C0003EF4909581959F4F0895709561957F4F16
:1059D0000895E894DF93CF93FC01DB010E94FF2D33
:1059E0007F936F93E9019A01AC01BF93AF933F930B
:1059F0002F93DF010E94FF2D26F46C1B7D0B820B81
:105A0000930B9E01EB01FC010E948D2DAF91BF9184
:105A10002F913F910E948D2DBE01CF01F9012F9151
:105A20003F91CF91DF910895689401C0E8948F92DF
:105A30009F92CF93DF930E94222DDF91CF919F9071
:105A40008F90089588249924F401E401B0E49F9391
:105A5000AA279A158B049C04ED05FE05CF05D007F7
:105A6000A10798F4AD2FDC2FCF2FFE2FE92D982C16
:105A7000892E982F872F762F652F542F432F322F63
:105A80002227B85031F7BF9127C01B2EBF91BB27EB
:105A9000220F331F441F551F661F771F881F991F32
:105AA000881C991CEE1FFF1FCC1FDD1FAA1FBB1FE8
:105AB0008A149B04EC05FD05CE05DF05A007B107A0
:105AC00048F08A189B08EC09FD09CE09DF09A00BF4
:105AD000B10B21601A94E1F62EF49401AF01BE01DE
