:100000000C94FE010C9447200C941F200C942602A3
:100010000C9426020C9426020C9426020C942602C0
:100020000C9426020C9426020C9426020C942602B0
:100030000C9426020C9426020C9426020C942602A0
:100040000C94AB1E0C9426020C9426020C942602EF
:100050000C9426020C9426020C9426020C94260280
:100060000C94001F0C9426020044445F444400009A
:1000700000060F090F060000000000000000006FDE
:1000800000000007000700147F147F148C92FF9279
:1000900062231308646236495620500000070000AE
:1000A000001C2241000041221C0014083E081408D4
:1000B000083E0808005030000008080808080060E2
:1000C00060000020100804023E5149453E00427F76
:1000D000400042615149462141454B311814127F7D
:1000E0001027454545393C4A494930017109050306
:1000F0003649494936064949291E0036360000006E
:10010000563600000814224100141414141400413F
:1001100022140802015109063E415D494E7E09093B
:10012000097E7F494949363E414141227F41414153
:100130003E7F494949417F090909013E4149497AC0
:100140007F0808087F00417F41002040413F017F38
:10015000081422417F404040407F020C027F7F0410
:1001600008107F3E4141413E7F090909063E415149
:10017000215E7F09192946464949493101017F011C
:10018000013F4040403F0F3040300F3F4030403F44
:100190006314081463070870080761514945430058
:1001A000007F4100020408102000417F000004028B
:1001B0000102044040404040000003040020545429
:1001C00054787F48444438384444442038444448B0
:1001D0007F3854545418087E0901020C5252523E82
:1001E0007F0804047800447D40002040443D000026
:1001F0007F10284400417F40007C041804787C086C
:1002000004047838444444387C1414140808141442
:10021000187C7C080404084854545420043F44408B
:10022000203C4040207C1C2040201C3C4030403C76
:1002300044281028440C5050503C4464544C440012
:100240000836414100007F000041413608000402A9
:100250000408047E1111117E7F494949337F4949C1
:1002600049367F01010103E0514F41FF7F49494970
:100270004177087F087741494949367F1008047F54
:100280007C2112097C7F0814224120413F017F7F9D
:10029000020C027F7F0808087F3E4141413E7F01FA
:1002A00001017F7F090909063E4141412201017F89
:1002B000010147281008071C227F221C6314081420
:1002C000637F404040FF070808087F7F407F407FF2
:1002D0007F407F40FF017F4848307F4830007F00EB
:1002E0007F484830224149493E7F083E413E4629E9
:1002F00019097F20545454783C4A4A49317C54545B
:1003000028007C04040C00E0544C44FC3854545441
:10031000186C107C106C44545428007C2010087C0D
:1003200078422412787C1028440020443C047C7CD1
:100330000810087C7C1010107C38444444387C043D
:1003400004047C7C14141408384444440004047CE1
:1003500004040C5050503C3048FE483044281028CB
:10036000447C40407CC00C1010107C7C407C407C65
:100370007C407C40FC047C5050207C5050207C7C95
:100380005050200028445454387C103844380854C5
:1003900034147C3855545518005EBCE2613FDD834F
:1003A000C29C7E20A3FD1F41009D23BE46DB65F855
:1003B0008C11AF32CA57E974AED5808D142001A1DB
:1003C000C8817FDB40A6AF010204081020408001F5
:1003D000020408102001020408102000000000237D
:1003E0000026002900040404040404040402020298
:1003F000020202030303030303006F2011241FBE44
:10040000CFEFD8E0DEBFCDBF27E0AAE6B4E001C061
:100410001D92AD3EB207E1F714E0A0E0B1E0E4E1E7
:10042000FFE502C005900D92AA36B107D9F711E099
:10043000CEEFD1E004C02197FE010E94632DCD3F95
:10044000D107C9F70E94B1210C94882F0C940000A9
:1004500020916A0581E0213208F046C0809146056E
:100460008111FCCF9091690532E03093460531E06F
:10047000309345053FEF3093440510924305209398
:10048000420549E455E0A2E2B5E0FA013E2F341BF3
:10049000321788F11092210520912105990F922B96
:1004A0009093210590912005913041F510922005FF
:1004B000909121059093BB009091BC0093FDF8CFE3
:1004C00095EC9093BC00909146059230E1F39091A9
:1004D00044059F3F49F080914405803289F0809126
:1004E0004405803379F084E01092480510926A0543
:1004F00010924705089531913D93C8CF95EEE1CF15
:1005000082E0F2CF83E0F0CF91E0909347058093B3
:1005100069051092480510926A0508959091460564
:100520009111FCCF91E090934605909345052FEFF4
:100530002093440510924305260F20934205909383
:10054000210590912105880F892B809321058091A9
:100550002005813011F510922005809121058093AE
:10056000BB008091BC0083FDF8CF85EC8093BC007C
:10057000809146058130E1F380914305861710F4A0
:100580006091430522E235E0A8EFB4E0F9018E2F37
:10059000821B861720F0862F089585EEE7CF819184
:1005A0008D93F5CF8F929F92AF92BF92CF92DF92B1
:1005B000EF92FF92CF93611571058105910521F4AA
:1005C00061E070E080E090E024E0660F771F881F14
:1005D000991F2A95D1F76115710521E082079105D0
:1005E00008F44EC06115710528E08207910508F4F2
:1005F0004BC06115710520E48207910508F048C0E1
:1006000020E430E0C3E06901F12CE12CA7010E9455
:10061000B92D49015A0180918000807F809380002C
:10062000C861C0938100C9010197909387008093AE
:1006300086008091810087708093F70460E074E207
:1006400084EF90E0A70196010E948F2DAA24BB247D
:10065000CA01B901A50194010E948F2D60E472E4E2
:100660008FE090E00E94B92DCA01B901CF91FF90AF
:10067000EF90DF90CF90BF90AF909F908F900895B4
:1006800021E030E0C1E0BFCF28E030E0C2E0BBCFE6
:1006900020E031E0C4E0B7CF8091F5049091F604FA
:1006A000891B990B08952091A4052817190668F154
:1006B0002091A3052617170640F11092AD0710925E
:1006C000AC071092AF071092AE07FB0123E0F5953F
:1006D000E7952A95E1F7880F991F880F991FE80F72
:1006E000F91F6770772781E090E0A0E0B0E004C0D8
:1006F000880F991FAA1FBB1F6A95D2F7E356FA4FBE
:10070000442321F02285822B82870895809592854B
:100710008923FACFDF92EF92FF920F931F93CF932B
:10072000DF937C01EB018A01D22E1092AD0710926B
:10073000AC071092AF071092AE074617570724F484
:100740008D2FEA01062F182F8091A4058E151F0406
:10075000C8F0C017D10761F44D2DBE01C701DF916C
:10076000CF911F910F91FF90EF90DF900C94530366
:100770000C171D073CF04D2DBE01C7010E9453030D
:100780002196F6CFDF91CF911F910F91FF90EF90BF
:10079000DF900895089508951092F6041092F504DC
:1007A0001092480510926A051092460581E08093E8
:1007B000450510922005449A459AE9EBF0E08081C6
:1007C0008E7F808380818D7F808388E48093B800D2
:1007D00085E48093BC008AEC93E09093F4048093CA
:1007E000F3048BEC93E09093F2048093F10408956A
:1007F000CF92DF92EF92FF920F931F93CF93DF93ED
:100800007C016A0110E000E00C151D0581F0EB0190
:10081000D701ED91FC910190F081E02D6991C70124
:100820000995892B21F00F5F1F4FBE01EDCFC80145
:10083000DF91CF911F910F91FF90EF90DF90CF90BC
:100840000895880F991F880F991F05970197F1F751
:1008500008953FB7F8948091C6049091C704A09181
:10086000C804B091C90426B5A89B05C02F3F19F054
:100870000196A11DB11D3FBFBA2FA92F982F882720
:10088000BC01CD01620F711D811D911D42E0660FFB
:10089000771F881F991F4A95D1F708958F929F92CD
:1008A000AF92BF92CF92DF92EF92FF926B017C01E9
:1008B0000E9429044B015C01C114D104E104F1043C
:1008C000B9F00E942904681979098A099B09683ED0
:1008D00073408105910580F381E0C81AD108E108D1
:1008E000F10828EE820E23E0921EA11CB11CE4CF79
:1008F000FF90EF90DF90CF90BF90AF909F908F9040
:1009000008952FB7F8946091C2047091C304809148
:10091000C4049091C5042FBF08952091000190E474
:10092000299F900111248E50822B80937C0080910E
:100930007A00806480937A0080917A0086FDFCCFF3
:1009400080917800909179000895E0E0615098F0EE
:10095000DC018D918E27E82FEF70F0E0E856FC4F18
:100960009491E82FE295EF70F0E0E855FC4FE491A8
:10097000E927CD01EBCF8E2F08950F931F93CF93CF
:10098000DF93FC011081C181D281F8948981812B90
:1009900089838A81012F009580238A8383E090E0F8
:1009A0000E9421048981802389838AE090E00E944B
:1009B0002104C881789485E390E00E942104C1233A
:1009C00081E009F480E0DF91CF911F910F910895AC
:1009D0001F93CF93DF93FC011081C181D281912FAE
:1009E000909560FF16C0F8948A8189238A83898153
:1009F000812B89838AE090E00E9421048A81182B50
:100A00001A83789487E390E0DF91CF911F910C9443
:100A10002104F8948A8189238A838981812B89839F
:100A200081E490E00E9421048A81182B1A83789433
:100A300085E090E0E9CFDF92EF92FF920F931F9352
:100A4000CF93DF93EC01D62EE42E08E010E0FF24D4
:100A5000F39461E08D2D8F2109F460E0CE010E94B6
:100A6000E804FF0C01501109A1F7E11010C0F8943F
:100A7000E981FA8191818881809589238183E98147
:100A8000FA81928188818095892382837894DF918D
:100A9000CF911F910F91FF90EF90DF900895EF920B
:100AA000FF920F931F93CF93DF938C017B0140E064
:100AB00065E50E941B05E70188E0E80EF11C6991DD
:100AC00040E0C8010E941B05CE15DF05C1F7DF918C
:100AD000CF911F910F91FF90EF900895FF920F9388
:100AE0001F93CF93DF93FC010081C181D281F894E1
:100AF0008981F02EF0948F21898378941DE711501D
:100B000029F182E090E00E94210488818023B9F3DA
:100B1000F8948A818F218A838981802B89837894B4
:100B200080EE91E00E942104F89489818F218983CD
:100B300086E490E00E9421048881082311E009F0F6
:100B400010E078948AE991E00E942104812FDF91DE
:100B5000CF911F910F91FF900895AF92BF92CF92C6
:100B6000DF92EF92FF920F931F93CF93DF938B014E
:100B7000BC0180918105909182050E944F0540E063
:100B80006EEB80918105909182050E941B05E80122
:100B9000680189E0C80ED11CA0908105B090820543
:100BA00088E0E82EF12C10E001E0C5010E94BD04B0
:100BB0008111102B000F81E0E81AF108B1F71993A9
:100BC000CC16DD0649F780918105909182050E943F
:100BD0006E0591E0813009F090E0892FDF91CF918F
:100BE0001F910F91FF90EF90DF90CF90BF90AF904B
:100BF00008950F931F93CF93DF93CDB7DEB7299757
:100C00000FB6F894DEBF0FBECDBF8C01FC01808112
:100C1000803181F180918105909182050E946E055D
:100C200081110CC080E029960FB6F894DEBF0FBE8C
:100C3000CDBFDF91CF911F910F910895BE016F5FDE
:100C40007F4FC8010E94AD05882361F368E0CE01A3
:100C500001960E94A50499858913E4CF8D818F3375
:100C600059F020F48F31F1F689E0DDCF8F3531F086
:100C70008F37C1F68CE0D7CF8AE0D5CF8BE0D3CFCA
:100C800085ED8093BC008091BC0084FDFCCF109268
:100C90004605089520919E04260F3327331F2132E5
:100CA0003105ECF420914605FC0190E080E0243011
:100CB00069F082E00895A0919E042191AC01425810
:100CC0005B4FA40FB52FB11D2C930196861798F397
:100CD00080919E04680F60939E0480E0089581E0F7
:100CE00008950895E091F6048091F504E81730F432
:100CF000F0E0E850FB4F808190E008958FEF9FEF88
:100D000008959091F6048091F5042FEF3FEF981726
:100D100048F4E92FF0E0E850FB4F208130E09F5F7E
:100D20009093F604C9010895CF92DF92EF92FF925B
:100D30000F931F93CF93DF937C01CB018A01209106
:100D40004705222389F0EB016B01C40ED51ECC159B
:100D5000DD0569F06991D701ED91FC910190F08179
:100D6000E02DC7010995F3CF642F0E944A06C80100
:100D7000DF91CF911F910F91FF90EF90DF90CF9077
:100D80000895CF93DF930F92CDB7DEB7698320919B
:100D900047052223F9F020916A05203258F021E01E
:100DA00030E0FC013383228390E080E00F90DF91FC
:100DB000CF91089580914805E82FF0E0E75BFA4F66
:100DC000998190838F5F8093480580936A0581E0C5
:100DD00090E0ECCF61E0CE0101960E944A06F7CF89
:100DE000CF9388E60E94840260E08BE695E00E9443
:100DF000C10660E88BE695E00E94C1068091190566
:100E0000CAE06C2F0E94A52C8295807F682F690F05
:100E10008BE695E00E94C10680911A056C2F0E9416
:100E2000A52C8295807F682F690F8BE695E00E9444
:100E3000C10680911B056C2F0E94A52C8295807F96
:100E4000682F690F8BE695E00E94C10680911C0512
:100E50006C2F0E94A52C8295807F682F690F8BE6EE
:100E600095E00E94C10680911D056C2F0E94A52C63
:100E70008295807F682F690F8BE695E00E94C106FE
:100E800080911E058E516C2F0E94A52C8295807F2B
:100E9000682F690F8BE695E00E94C1060E94280228
:100EA000882329F010921F0580E0CF91089581E0FA
:100EB00080931F0588E60E94840260E08BE695E03F
:100EC0000E94C106809118056C2F0E94A52C829566
:100ED000807F682F690F8BE695E00E94C1060E9413
:100EE00028028111DFCF81E0E0CF682F8BE695E00B
:100EF0000C94C106BF92CF92DF92EF92FF920F93B4
:100F00001F93CF93DF938C017B01E40EF51EEB0161
:100F1000B99068018FEFC81AD80A8091EC070E9437
:100F20008402812F90E00E947507C80199270E94D2
:100F300075076B2D8BE695E00E94C1060E94280282
:100F40006AE070E080E090E00E944E04BE018601FD
:100F5000CE15DF05E1F6DF91CF911F910F91FF9044
:100F6000EF90DF90CF90BF9008958093BB0084E80E
:100F70008093BC008091BC0087FFFCCF9091B900AA
:100F8000987F81E0983231F0983129F0903419F04F
:100F900080E008950895089584EA8093BC008091CC
:100FA000BC0087FFFCCF8091B900887F19F080ECEE
:100FB0000C94B50780E008955F926F927F928F92B4
:100FC0009F92AF92BF92CF92DF92EF92FF920F93D8
:100FD0001F93CF93DF93CDB7DEB7582E742E652EB7
:100FE000B62E922E0E94CC07852D0E94B5078D2D1E
:100FF0000E94B5078C2D0E94B5078B2D83708A291E
:1010000090E081109CE0892B0E94B507862D0E94FC
:10101000B507872D0E94B5078CE0F694E794D79426
:10102000C7948A95D1F78C2D807FC82E892D8F701B
:101030008C290E94B507812F0E94B507802F0E943E
:10104000B50784E98093BC008091BC0084FDFCCF8F
:10105000DF91CF911F910F91FF90EF90DF90CF9094
:10106000BF90AF909F908F907F906F905F9008950A
:101070004F925F926F927F928F929F92AF92BF92A8
:10108000CF92DF92EF92FF920F931F93CF93C82FCF
:10109000C090E307D090E407E090E507F090E60702
:1010A000CB01BA01A70196010E94B92D49015A014D
:1010B00025E0F694E794D794C7942A95D1F735E0C4
:1010C00096958795779567953A95D1F747E0660F9E
:1010D000771F881F991F4A95D1F7A70196010E9493
:1010E000B92D29013A018B019C01B501A4015527B5
:1010F00066277727E7E0440F551F661F771FEA959D
:10110000D1F7525061097109440D551D661D771DB7
:10111000812CA12C8C2F0E94DC07CF911F910F9165
:10112000FF90EF90DF90CF90BF90AF909F908F9007
:101130007F906F905F904F9008958F92AF92CF9273
:10114000DF92EF92FF920F931F9388248394443091
:1011500051056105710509F0812C4450510961095F
:101160007E4F97E0440F551F661F771F9A95D1F762
:10117000A22EC12CD12C7601C39400E010E098017E
:101180000E94DC071F910F91FF90EF90DF90CF90AE
:10119000AF908F900895CF93DF93D82FC62F0E94E2
:1011A000CC078D2F0E94B5078C2F0E94B50784E9CC
:1011B0008093BC008091BC0084FDFCCFDF91CF9177
:1011C0000895CF93C82F60E880E18C0F0E94CB0870
:1011D000EC2FF0E0EE0FFF1FE553F84F1182108265
:1011E000CF9108954F925F926F927F92AF92BF928C
:1011F000CF92DF92EF92FF920F931F93CF93DF93E3
:10120000D82F082F10E0F801EE0FFF1FEE0FFF1F81
:10121000E952F84F4080518062807380411451043C
:101220006104710489F48D2FDF91CF911F910F918B
:10123000FF90EF90DF90CF90BF90AF907F906F9036
:101240005F904F900C94E1085801AA0CBB1CF5016B
:10125000E553F84FC080D180F12CE12C0553184F95
:10126000F801C681A3019201C701B6010E94952C25
:101270009B01AC01EC2FF0E0E95AFE4FA081B0E0F9
:101280000E94AE2D9B01AC0120583447424D5A417B
:101290002130334A414E514108F43FC060913C0136
:1012A00070913D0180913E0190913F01A301920117
:1012B0000E94B92D69017A0184E0C816D104E104C5
:1012C000F10408F4B0CFE6E0CE16D104E104F10455
:1012D00008F470C0C0E0FDE2CF16F1E0DF06E104E3
:1012E000F10430F0CF5FF694E794D794C794F3CF2E
:1012F000C11103C0E894C0F8C0E0A3019201C70186
:10130000B6010E94952C9B01AC01EC2FF0E0E95A4C
:10131000FE4FA081B0E00E94AE2D2AE1D11122E261
:10132000AB01BC01822F0E943808F501E553F84F4C
:1013300080819181B0E0A0E08C159D05AE05BF05D0
:1013400021F4F80186818C1731F12C2F2295207F12
:10135000B701A6018D2F880F880F880F865D0E9428
:101360009D08F801618580E0D11180E2682B6C64F2
:1013700080E18D0F0E94CB08F501E553F84FD18233
:10138000C082F801C6838091EB0790E2D11190E80A
:10139000892B8093EB07DF91CF911F910F91FF90E5
:1013A000EF90DF90CF90BF90AF907F906F905F9065
:1013B0004F90089584E0C82ED12CE12CF12C9ACFC7
:1013C0002F923F924F925F926F927F928F929F9255
:1013D000AF92BF92CF92DF92EF92FF920F931F9343
:1013E000CF93DF9300D000D00F92CDB7DEB7490185
:1013F0005A01270138011092EB07C090DB07D0900B
:10140000DC07E090DD07F090DE070091D707109130
:10141000D8072091D9073091DA0706171707280750
:10142000390759F06093D7077093D8078093D9078D
:101430009093DA0780E00E94F208C814D904EA0405
:10144000FB0471F48091DF079091E007A091E10720
:10145000B091E20784159505A605B70509F403C107
:101460008092DB079092DC07A092DD07B092DE0746
:101470004092DF075092E0076092E1077092E20726
:1014800081149104A104B10419F481E00E94E108DF
:101490008091DF079091E007A091E107B091E2070A
:1014A000892B8A2B8B2B19F482E00E94E108409053
:1014B000DB075090DC076090DD077090DE07411479
:1014C00051046104710409F473C1C814D904EA0415
:1014D000FB0409F4A5C0C090CD07D090CE07F12C35
:1014E000E12C2091D2072983A3019201C701B60103
:1014F0000E94952C9B01AC018981E82FF0E0E95A0C
:10150000FE4FA081B0E00E94AE2D4B015C01DC01DA
:10151000CB0180589447A24DBA418130934AA14EE5
:10152000B14108F446C060913C0170913D01809149
:101530003E0190913F01A30192010E94B92D6901E2
:101540007A0181E044E0C416D104E104F10408F416
:1015500088C086E0C816D104E104F10408F4A4C0F0
:1015600019829DE2C91691E0D906E104F10440F028
:1015700029812F5F2983F694E794D794C794F1CFFC
:101580004981411103C0E894C0F81982A301920176
:10159000C701B6010E94952C9B01AC018981E82FFF
:1015A000F0E0E95AFE4FA081B0E00E94AE2D4B0161
:1015B0005C01B501A40182E20E9438088091CD0748
:1015C0009091CE07B0E0A0E08C159D05AE05BF055B
:1015D00029F48091D20799818917D1F02981229528
:1015E000207FB701A60182E30E949D086091D50784
:1015F0006C6681E10E94CB08D092CE07C092CD07E5
:1016000029812093D2078091EB0780688093EB07B4
:101610008092E7079092E807A092E907B092EA0764
:10162000C090DF07D090E007E090E107F090E2077C
:10163000C114D104E104F104B1F08090E707909067
:10164000E807A090E907B090EA07C501B401A70137
:1016500096010E94B92D283031054105510550F5FC
:1016600082E00E94E1086091EB07662319F081EBAC
:101670000E94CB088091EB070F900F900F900F9076
:101680000F90DF91CF911F910F91FF90EF90DF901E
:10169000CF90BF90AF909F908F907F906F905F9012
:1016A0004F903F902F90089504E0C02ED12CE12C54
:1016B000F12C69CF1D82213431054105510560F0BF
:1016C0008D818F5F8D83CC0CDD1CEE1CFF1C56952D
:1016D000479537952795EFCFC501B401A70196012E
:1016E0000E94B92D29833A834B835C832FEF3FEF10
:1016F0004FE050E00E94C52C56016701E12CF12C0F
:1017000000E010E00E94F22C29013A019D8192959F
:10171000907F9D83C12CD12C7601C3944114510438
:101720006104710431F0CC24CA94DC2CFFE0EF2E6C
:10173000F12CC301B20127E0660F771F881F991FA4
:101740002A95D1F7A70196010E94B92D49015A01A6
:101750008B019C0149815A816B817C8155276627C9
:101760007727E7E0440F551F661F771FEA95D1F7EB
:10177000525061097109480D591D6A1D7B1D812C4C
:10178000AD808AE30E94DC076CE4452846284728A0
:1017900009F06CE08091D607682B606282E10E94BC
:1017A000CB0881E090E09093D0078093CF075BCF88
:1017B0008090DF079090E007A090E107B090E207EB
:1017C00081149104A104B10409F44DCFC090CF0756
:1017D000D090D007F12CE12C2091D3072983A501CB
:1017E0009401C701B6010E94952C9B01AC0189812F
:1017F000E82FF0E0E95AFE4FA081B0E00E94AE2D44
:101800008B019C0100581447224D3A410130134A84
:10181000214E314108F443C060913C0170913D017B
:1018200080913E0190913F01A50194010E94B92D44
:1018300069017A0184E0C816D104E104F10408F4D6
:101840000FCF96E0C916D104E104F10408F458C0A2
:1018500019822DE2C21621E0D206E104F10440F023
:1018600049814F5F4983F694E794D794C794F1CFA9
:101870008981811103C0E894C0F81982A5019401FF
:10188000C701B6010E94952C9B01AC019981E92FFB
:10189000F0E0E95AFE4FA081B0E00E94AE2DAB010E
:1018A000BC0182E20E9438088091CF079091D00756
:1018B000B0E0A0E08C159D05AE05BF0531F4809128
:1018C000D3072981821709F4CECE29812295207F62
:1018D000B701A6018AE30E949D086091D6076C6655
:1018E00082E10E94CB08D092D007C092CF074981F5
:1018F0004093D3078091EB0780688093EB07B3CECA
:1019000084E0C82ED12CE12CF12CB5CF682F8BE6CA
:1019100095E00C94C1068091A1050E94840280E0AC
:101920000C94860CCF93DF93EC010E94280218825E
:1019300082E090E0DF91CF910C9421040E94860C0C
:101940008091B2078F5F8093B207803158F082EBAD
:1019500097E00E94920C8091A1050E94840280E48D
:101960000C94860C08950F931F93CF93DF938C01F3
:10197000EB010E948B0C81E20E94860C80E00E94A9
:10198000860C8091A40590E0081719070CF4C80193
:101990000E94860C82E20E94860C80E00E94860CE7
:1019A0008091A20590E0C817D9070CF4CE010E94DF
:1019B000860C82EB97E0DF91CF911F910F910C94F1
:1019C000920CCF93DF936091A20570E08091A40503
:1019D00090E00E94B30C8091A1050E94840280E4F3
:1019E0000E94860CC7EAD5E089910E949E0C87E090
:1019F000C73AD807C9F782EB97E0DF91CF910C94F3
:101A0000920CCF93C82F0E948B0C81E80E94860C09
:101A10008C2F0E94860C82EB97E0CF910C94920C55
:101A20000F931F93E42F0130110541F1023011058E
:101A300009F444C0012BF9F4DC01A15FBD4F4D91C5
:101A40005C911197240F352F311D220F331F220F68
:101A5000331F12964D915C9103E0559547950A9579
:101A6000E1F7240F351FE20FF32FF11DE80FF91FE7
:101A70008285682B62871F910F910895DC01A15F19
:101A8000BD4F4D915C911197240F352F311D220FC1
:101A9000331F220F331F12964D915C91A3E0559591
:101AA0004795AA95E1F7240F351FE20FF32FF11D9B
:101AB000E80FF91F609582856823DCCFDC01A15F08
:101AC000BD4F4D915C911197240F352F311D220F81
:101AD000331F220F331F12964D915C9173E0559581
:101AE00047957A95E1F7820F931F840F951FE80FB2
:101AF000F92FF11DBFCF2F923F924F925F926F92BD
:101B00007F928F929F92AF92BF92CF92DF92EF928D
:101B1000FF920F931F93CF93DF93CDB7DEB72E972E
:101B20000FB6F894DEBF0FBECDBF9E878D87FC0138
:101B3000E25FFD4F808190E0ED85FE85EF5EFD4F19
:101B40002D853E85245F3D4F79016D30E9F52D856A
:101B50003E85215F3D4FD9011D921C9221E060E03E
:101B60004D855E85455F5D4FDA017C917723C9F134
:101B70004D855E85435F5D4FDA013C910D851E8585
:101B8000015F1D4FD8014D915C91B6E03B9F400D28
:101B9000511D1124AD85BE8517963C91341715064D
:101BA00009F0FCF420813181D8011D921C92280F8C
:101BB000391F318320834D855E854D5E5D4F2081C9
:101BC0002770DA012C930FC020E06A3049F620819B
:101BD0003181280F391F3183208321E0D7012C93D5
:101BE000BECF2111E8CF20813181820F931FED8577
:101BF000FE85268130E02F5F3F4F281739070CF410
:101C000060E0D7018C91882349F1772339F1603264
:101C100029F5ED85FE85E15FFD4F80819181892B5E
:101C200009F03FC01C9281E090E02E960FB6F89428
:101C3000DEBF0FBECDBFDF91CF911F910F91FF90FF
:101C4000EF90DF90CF90BF90AF909F908F907F905C
:101C50006F905F904F903F902F90089567FF48C01E
:101C6000ED85FE85EC5EFD4F603C98F48081813D02
:101C700029F46139D9F5608360EC13C0803D29F403
:101C80006138A1F5608365E90CC0823E21F46038BB
:101C900069F56083C8CF803849F5643939F56083C8
:101CA0006DE2ED85FE85E15FFD4FFA83E9832081DA
:101CB00031814D855E85435F5D4F5C834B83DA01E7
:101CC0008C91F90146E0849FE00DF11D1124CF01B4
:101CD000F7FD07C0AD85BE8517964C9142171306D8
:101CE00054F4E981FA81918380839DCF6083D9CFB9
:101CF0006111D7CF98CFF0EEF60FF98725E0F29F6C
:101D0000C0011124AC0148585F4F1A01C12C605822
:101D10006C878D859E85865F9D4F9B878A87AD8565
:101D2000BE85AD5EBD4FBE83AD83ED85FE85EA5EAB
:101D3000FD4FF887EF83F5E060E0CF1661F029856D
:101D4000F101203638F0FC85F03108F05FC0F10178
:101D5000E551FF4F6491AA85BB858C9181116095F7
:101D6000EB81FC819081913009F059C0A981BA8141
:101D70008D919C9197FD35C0ED85FE8527812817B3
:101D800019067CF1AD81BE818C91EF81F8850081CF
:101D900010E020E040E0882301F1E62EF12CB701AD
:101DA00001C0660F8A95EAF720E040E08D859E85A8
:101DB0000E94100DAF81B8850C9110E0ED81FE817D
:101DC000808128E030E0281B3109B70102C07595F9
:101DD00067952A95E2F720E041E08D859E850E9477
:101DE000100DEB81FC818081A981BA812D913C91FC
:101DF0001197820F932F911D8D939C93C394BFEFE6
:101E00002B1A3B0AE6E0CE1296CF0DCF2985F101C1
:101E1000203A18F4E555F1099DCF35979BCF792FDE
:101E200030E020E0812C912C5401E62FF0E0872F48
:101E3000891BAF01022E02C0559547950A94E2F71F
:101E4000417055278717F1F0412C512C32014394F2
:101E5000082E04C0440C551C661C771C0A94D2F74B
:101E60004115510531F084289528A628B7288F5FA1
:101E7000E9CF409450946094709484209520A620DB
:101E8000B720F5CF2F5F3F4F782F790F28303105DE
:101E900071F6E12CA981BA818D919C91EB81FC8135
:101EA0002081E21608F09DCF8E0D911D97FD47C051
:101EB000AD85BE8517962C91281719060CF43FC0E6
:101EC000D12CF12CED81FE812081AB81BC818C91E4
:101ED000D816B0F5B8E0DB9EC0011124240135010D
:101EE00004C076946794579447948A95D2F7EF810B
:101EF000F885008110E0211109C02E2D4D2D642D93
:101F00008D859E850E94100DD394DCCF6F2D70E0DF
:101F100088E090E0821B910902C0759567958A95CB
:101F2000E2F7842D01C0880F2A95EAF7682B2E2D41
:101F30004D2D8D859E850E94100DF42CE5CFF12C42
:101F4000AD81BE818C918823B9F0EF81F885008145
:101F500010E06F2D70E028E030E0281B310902C04E
:101F6000759567952A95E2F72E2DAB81BC814C9132
:101F70008D859E850E94100DE3948CCFAF92BF9209
:101F8000CF92DF92EF92FF920F931F93CF93DF9345
:101F900028E0829FC0011124F12CE12C9C012859DA
:101FA0003F4F690188E0A82EB12CF601EE0DFF1D10
:101FB00064918091AC079091AD0701969093AD0725
:101FC0008093AC072091A4052817190664F080912E
:101FD000B00781111AC010E000E020E040E08DE978
:101FE00095E00E94100D3FEFE31AF30A88E0E8162F
:101FF000F104D9F6DF91CF911F910F91FF90EF90EF
:10200000DF90CF90BF90AF900895C62FD0E0BE0173
:1020100001C0660F8A95EAF710E000E020E040E09A
:102020008DE995E00E94100D8091B0079501281B65
:102030003109BE0102C0759567952A95E2F720E047
:1020400041E0CDCFFF920F931F93CF93DF9300D04A
:10205000CDB7DEB7E3E1F1E010E000E08191080FD9
:10206000111D81E0E933F807C9F746E250E063E16A
:1020700071E082E090E00E947A070F5F1F4F1A83A1
:10208000098342E050E0BE016F5F7F4F90E080E047
:102090000E947A07E9E0F1E083E191E010E000E0DE
:1020A0002191020F111D8E179F07D1F78091140106
:1020B0009CE0F92E8F9DC00111244AE050E069E0B8
:1020C00071E08A960E947A070F5F1F4F1A83098377
:1020D000809114018F9DC001112442E050E0BE01A7
:1020E0006F5F7F4F88960E947A070F900F90DF9165
:1020F000CF911F910F91FF900895809123019091AE
:102100002401A0912501B09126018093E3079093CB
:10211000E407A093E507B093E60780E00E94F20889
:1021200081E00C94F208CF93DF9380917304909137
:10213000740427E0289FE001299FD00D112485E138
:102140000E948D04DE01A80FB91FAA0FBB1F94E0E7
:10215000B695A7959A95E1F7B0937404A09373048C
:102160002091270130E00E94DB2D2FEF33E040E08B
:1021700050E00E948F2D20937A04DF91CF91089533
:10218000CF93DF938FE00E948D048091780490912B
:102190007904EC01CC0FDD1FC80FD91F8FE00E941E
:1021A0008D042196C80FD91FCC0FDD1FCC0FDD1F6A
:1021B00044E0D695C7954A95E1F7D0937904C0934A
:1021C000780480E10E948D048091760490917704D8
:1021D000EC01CC0FDD1FC80FD91F80E10E948D04D8
:1021E0002196C80FD91FCC0FDD1FCC0FDD1F74E067
:1021F000D695C7957A95E1F7D0937704C093760486
:10220000DF91CF910895DC01ED91FD918081ED91F9
:10221000FD919081ED91FD916C9163708E2309F099
:1022200064609F2309F06860E0E2F1E1E60FF11DD0
:10223000659565956D936D917D918D919D910994B5
:1022400023C01AC012C016C010C01EC009C014C0DE
:1022500013C006C019C009C00DC007C00DC014C00E
:1022600062507040804090400BC061507040804090
:10227000904006C06E5F01C06F5F7F4F8F4F9F4FD2
:102280009E938E937E936E930895089590E080E0E0
:102290000895BF92CF92DF92EF92FF920F931F9318
:1022A000CF93DF93EC01B62EC72E8D85811105C02B
:1022B000CE010E946E0581110EC01B861D861C86F4
:1022C00080E0DF91CF911F910F91FF90EF90DF9011
:1022D000CF90BF90089540E060EFCE010E941B05B3
:1022E00001E0E12CD12C11E0CE010E94BD04F82EBA
:1022F000CE010E94BD0491E0F91218C0813099F519
:102300001134D8F2DB86D11002C081E08D878B8139
:10231000882399F22396EB2DFC2DCF010896299165
:102320002193E817F907D9F781E0CBCF2E2D30E0C4
:10233000F8120EC08B851817A0F4FE01E20FF31FF0
:102340008381802381F4F12C193008F41C87D12E6D
:10235000FE01E20FF31F8381902F909589238383E1
:102360000AC08113F0CFFE01EE0DF11D8381802B99
:102370008383FF24F3946F2DCE010E94E8041F5F36
:10238000000F11F4E39401E087E08E1508F0ACCF64
:10239000B7CF4F925F926F927F928F929F92AF9240
:1023A000BF92CF92DF92EF92FF920F931F93CF9342
:1023B000DF93CDB7DEB761970FB6F894DEBF0FBEDF
:1023C000CDBF0E948104C0906F04D0907004E09053
:1023D0007104F09072046C197D098E099F096938A7
:1023E00073418105910508F458C080916E048111F4
:1023F00054C010927D0580918105909182050E94C4
:102400006E0540E06CEC80918105909182050E9400
:102410001B0540917B0564E48091810590918205C4
:102420000E941B0580917D05882391F1E0917C0538
:10243000E9500EEE12E0E33038F4F0E0EE0FFF1F4B
:10244000ED5BFE4F0081118180917E05882309F4A8
:1024500081C080917B0581117DC00E9481044B0168
:102460005C012801110F6608770880918105909121
:1024700082050E94BD04813059F00E9481046419D4
:10248000750986099709681579058A059B0568F31A
:1024900081E080937D0580936E040E9481046C1915
:1024A0007D098E099F0961347F4181059105D8F12D
:1024B00080916E048823B9F1E0918105F091820545
:1024C0001386158614861286118610861782168248
:1024D000158214821382BE01665F7F4F8091810551
:1024E000909182050E94491181113BC060E070E02B
:1024F0008EEF92EC20E030E040E05FE30E94EB2DB5
:102500000E94572E80912A01680F609375040E94E3
:10251000810460936F0470937004809371049093AE
:10252000720410926E0461960FB6F894DEBF0FBE6F
:10253000CDBFDF91CF911F910F91FF90EF90DF9072
:10254000CF90BF90AF909F908F907F906F905F9053
:102550004F900895B801110F880B990B0E944E04FB
:1025600097CF67E0CE010A960E94A5049989891346
:10257000BDCF80918105909182050E946E058823D0
:1025800009F4B4CFBE016F5F7F4FCE010A960E945F
:10259000AD05882309F4AACF68E0CE0101960E9418
:1025A000A50499858913A2CF6A8170E0762F6627EA
:1025B000770F770F770F298158E0259F900111241D
:1025C000262B372B8A858031D1F4688570E08F8186
:1025D000AB01481B5109CA019695982F88279795FA
:1025E00087950E94B12CCB014097B90153E0660F4B
:1025F000771F5A95E1F760789C01260F371F213825
:1026000054EE35070CF472CFB901330F880B990BD8
:102610000E948F2E20E030E040E05CE30E941B2F00
:1026200069CF0F931F93CF93DF938091E0048823AA
:1026300059F0109218050E94F0061092E004DF9104
:10264000CF911F910F9108950E94810400916A0417
:1026500010916B0420916C0430916D04601B710B20
:10266000820B930B693E73408105910520F4012B89
:10267000022B032B21F70E94810460936A0470935C
:102680006B0480936C0490936D0488E60E9484022E
:1026900060E08BE695E00E94C1060E942802882334
:1026A00019F010921F05CBCF81E080931F0567E0E2
:1026B00088E60E948E021092F6048093F50487301B
:1026C00008F461C08BE695E00E948106D82F982F10
:1026D00092959770CAE08D2F8F709C9F800D11246A
:1026E000809318058BE695E00E948106982F9295BD
:1026F0009F708F709C9F800D1124809319058BE62D
:1027000095E00E948106982F929593708F709C9F00
:10271000800D112480931A058BE695E00E948106B6
:10272000982F92959F708F709C9F800D112480939D
:102730001B058BE695E00E948106982F92959F706D
:102740008F709C9F800D112480931C058BE695E073
:102750000E948106982F92959F708F709C9F800D8C
:10276000112480931D058BE695E00E948106982F29
:102770009F70925E82958F708C9F900D1124909324
:102780001E05D7FF5CCF10921A0510921905109202
:102790001805DF91CF911F910F910C94F006CF9304
:1027A000DF93EC018091EC070E9484028D2F90E072
:1027B0000E947507CE0199270E9475070E94280282
:1027C00061E08091EC070E948E021092F6048093E3
:1027D000F504882321F08BE695E00E948106DF91C5
:1027E000CF910895EF92FF920F931F93CF93DF93B2
:1027F0008B01040F151F7C012FEFE21AF20AEB0187
:102800000E94CF138993C701BE010C171D0799F7CA
:10281000DF91CF911F910F91FF90EF900895DF927C
:10282000EF92FF920F931F93CF93DF9300D0CDB71A
:10283000DEB71A821982809114012CE0829FC001B8
:10284000112442E050E0BE016F5F7F4F88960E94E6
:10285000F213F12CE12C10E000E08CE0D82E8091F6
:10286000140197018D9D200D311D1124C9018A96F7
:102870000E94CF13080F111D3FEFE31AF30A8AE0FD
:10288000E816F10461F70F5F1F4F89819A810817DD
:102890001907B1F4809114018D9DC00111244AE003
:1028A00050E069E071E08A960E94F2130F900F9059
:1028B000DF91CF911F910F91FF90EF90DF900895DE
:1028C0000E942210F3CF5F926F927F928F929F921D
:1028D000AF92BF92CF92DF92EF92FF920F931F932E
:1028E000CF93DF938C01EA011092AD071092AC07F1
:1028F0001092AF071092AE0722E430E06234710507
:102900001CF49B0162E470E0C017D1070CF4FEC018
:102910006217730771F50C171D07A9F441E0B801A0
:1029200082E490E0DF91CF911F910F91FF90EF90A3
:10293000DF90CF90BF90AF909F908F907F906F90DF
:102940005F900C94530321E0AE01B80182E490E063
:10295000DF91CF911F910F91FF90EF90DF90CF907B
:10296000BF90AF909F908F907F906F905F900C94EE
:102970008A030C171D0709F0D1C08091A3058017A9
:10298000110684F4DF91CF911F910F91FF90EF908A
:10299000DF90CF90BF90AF909F908F907F906F907F
:1029A0005F9008956F5F7F4FD0E0C0E037FD07C0B4
:1029B000C091A405D0E02C173D070CF4E90177FD88
:1029C000E1CFE090A405F12C6E157F050CF47B019E
:1029D000CE15DF05BCF641E0B801CE010E945303DD
:1029E0002196F6CFAE014F5F5F4FF02FF770A42F07
:1029F000A770E8E0EA1BE83009F4E0E06801A3E032
:102A0000D594C794AA95E1F7BC2CB3E0D595C795AA
:102A1000BA95E1F7DC2FDC197B01861797070CF4D8
:102A20007C01821793070CF49C0137FD20E0C22F34
:102A30006FEF70E0762E0F2E01C0770C0A94EAF744
:102A4000CB0102C095958795EA95E2F7A82E041B65
:102A5000150B085F1F4F02C0759567950A95E2F741
:102A6000662E01C0660CFA95EAF7CE151F0411F028
:102A70000CF088CF8091A20590E0D1110EC08C158A
:102A80009D0548F010E000E02C2F4B2D662D8DE9C0
:102A900095E00E94100DCF5FE8CF8C159D0548F0A2
:102AA00010E000E02C2F4B2D672D8DE995E00E9462
:102AB000100D46018FEF881A980A512C8091A205BB
:102AC00090E0452D50E030E020E0D13011F021E0E1
:102AD00030E0421753078CF48815990548F010E050
:102AE00000E02C2F482D6FEF8DE995E00E94100D2E
:102AF00053948FEF881A980AE1CF8815990558F2F8
:102B000010E000E02C2F482D6A2DC1CFCCE1D0E0A1
:102B10000BE110E06217730709F415CF8091A4054B
:102B200090E04091BE07442309F45CCF7B018617F7
:102B300097070CF47C01821793070CF49C0137FD76
:102B400020E0D22E8D2D90E0E816F9060CF41ACF75
:102B500021E0AE01B8010E948A03D394F3CF109212
:102B60007C0460910A0170910B0180910C0190919D
:102B70000D0120EA36E841E050E00E94B92D809135
:102B80002E018217130609F018F481E080937C046B
:102B900080912D018217130609F018F482E08093CA
:102BA0007C0480912C018217130609F018F483E04D
:102BB00080937C0480912B018217130609F018F48E
:102BC00084E080937C0420917C0481E090E0A0E08C
:102BD000B0E004C0880F991FAA1FBB1F2A95D2F727
:102BE00080937D042091EF04222359F0209132013B
:102BF000222339F02091CA04211103C080628093FE
:102C00007D0480913701882329F080917D048064C0
:102C100080937D0480913801882329F080917D0480
:102C2000806880937D042C9820917D0487E090E05B
:102C300030E04091B0004F774093B000A901082EDA
:102C400002C0559547950A94E2F740FF07C02B9ABA
:102C50002D9A2D98019768F72C9A08952B98F8CF04
:102C60004F925F926F927F928F929F92AF92BF929C
:102C7000EF92FF920F931F9320910901E0901701AB
:102C8000F09018010091190110911A0160910A0148
:102C900070910B0180910C0190910D013091EF0426
:102CA0006E0D7F1D801F911F332339F12223E1F028
:102CB00020911F013091200140912101509122016A
:102CC000620F731F841F951F0E94E0091F910F91CF
:102CD000FF90EF90BF90AF909F908F907F906F90FC
:102CE0005F904F900C94AF1520911B0130911C0107
:102CF00040911D0150911E01E3CF809033019090CF
:102D00003401A0903501B09036012223B9F04090F3
:102D10001F01509020016090210170902201A301B9
:102D20009201280D391D4A1D5B1D640D751D861D00
:102D3000971D680D791D8A1D9B1DC6CF40901B01F4
:102D400050901C0160901D0170901E01E8CF809191
:102D5000D6048823A9F18091D50481110CC08091FB
:102D60007B04882389F1809180008F7C8093800090
:102D700010927B0429C080917B04811125C0809131
:102D8000F004811121C02091300184E1289F90013D
:102D90001124032E000C440B550B60E472E48FE009
:102DA00090E00E94B92DCA01B9010E94D20280911F
:102DB00080008F7C80618093800081E080937B0421
:102DC0008091D504882359F208954091A50550912A
:102DD000A60570E060E087EA95E00E94722D809180
:102DE000AE0787708093B0070895009769F0FC01E3
:102DF00001900020E9F73197AF01481B590BBC0146
:102E00008DE995E00C94F80390E080E00895CF936D
:102E1000DF930E94F516EC018DE791E00E94F51614
:102E20008C0F9D1FDF91CF9108950C94F5168F9212
:102E30009F92AF92BF92CF92DF92EF92FF920F9349
:102E40001F93CF93DF93CDB7DEB7A1970FB6F8945A
:102E5000DEBF0FBECDBF6B017C0119A2423008F46A
:102E60004AE08E010F5D1F4F842E912CB12CA12CB6
:102E7000C701B601A50194010E94B92D6A3014F56D
:102E8000605DF80162938F01C814D904EA04FB0461
:102E9000B0F4CF010E94F516A1960FB6F894DEBFEC
:102EA0000FBECDBFDF91CF911F910F91FF90EF909B
:102EB000DF90CF90BF90AF909F908F900895690161
:102EC0007A01D6CF695CDDCF682F70E090E080E0BA
:102ED0004AE00C941717CF92DF92EF92FF92CF93B4
:102EE000DF936B017C016DE28DE995E00E947B0D23
:102EF000EC0166277727CB016C197D098E099F09A4
:102F00004AE00E9417178C0F9D1FDF91CF91FF9011
:102F1000EF90DF90CF9008959C01BC01990F880B32
:102F2000990B37FD0C946B174AE00C941717CF934D
:102F3000DF934AE00E941717EC018DE791E00E94B1
:102F4000F5168C0F9D1FDF91CF910895CF93DF93DE
:102F50000E946417EC018DE791E00E94F5168C0F3A
:102F60009D1FDF91CF910895CF93DF930E948C171F
:102F7000EC018DE791E00E94F5168C0F9D1FDF910B
:102F8000CF910895CF92DF92EF92FF92CF930E945C
:102F9000E5161092AD071092AC071092AF07109291
:102FA000AE071092B00783E08093AA0788E1809370
:102FB000AB07C091F004CC2309F41FC18FEF0E942E
:102FC000010DCB3109F454C508F080C0C73009F4B5
:102FD0009FC488F5C33009F42FC468F4C13009F4E4
:102FE000F8C2C23009F405C4CF91FF90EF90DF9092
:102FF000CF900C94E10CC53009F46AC408F43BC4CA
:1030000080913701882309F480C480E292E00E9415
:10301000071781E08093AA0788E08093AB0780912F
:10302000AE0787708093B0078091F0040E94641708
:103030008CE292E01AC4C73109F4C4C440F5C5312A
:1030400009F483C408F0A8C4C43171F680910E015C
:1030500024E6829FC00111240E94B41781E080936E
:10306000AA0788E08093AB078091AE0787708093B2
:10307000B0078091F0040E94641786E592E00E94F8
:10308000151780E00E94BE0F8FE692E0D2C3C931CF
:1030900009F4D4C408F4B4C4809130012AE0829FBA
:1030A000C00111240E94B41781E08093AA0788E030
:1030B0008093AB078091AE0787708093B0078091B3
:1030C000F0040E94641781EE92E0B3C3C93609F49C
:1030D0008EC508F051C0C53609F400C508F5CC31DD
:1030E00009F4DCC4C43609F07FCF8091160188232F
:1030F00009F4F1C487E292E00E94071781E080930F
:10310000AA0788E08093AB078091AE078770809311
:10311000B0078091F0040E94641789E393E0A5C38F
:10312000C73609F436C508F411C582E08093AA07B2
:1031300080E18093AB078091AE0787708093B007E2
:1031400060911B0170911C0180911D0190911E01E5
:103150000E94971781E08093AA0788E08093AB07CD
:103160008091AE0787708093B0078091F0040E9431
:10317000641780EB93E033C5CD3609F4A2C5F8F4AB
:10318000CB3609F482C508F459C580912D0124E697
:10319000829FC00111240E94B41781E08093AA0786
:1031A00088E08093AB078091AE0787708093B0076B
:1031B0008091F0040E94641783EF93E07FC5CF36BF
:1031C00009F4B3C508F497C5C03709F00DCF809155
:1031D000DE040E94A61781E08093AA0788E080930E
:1031E000AB078091AE0787708093B0078091F004A1
:1031F0000E94641785E294E01CC380910A019091BB
:103200000B01A0910C01B0910D0180389649A8499D
:10321000B10520F481EF93E00E94151760910A0137
:1032200070910B0180910C0190910D01F0E4CF2E73
:10323000F2E4DF2EFFE0EF2EF12CA70196010E94B1
:10324000B92DCA01B9014AE00E94171789E290E03E
:103250009093AD078093AC071092AF071092AE0722
:103260001092B00760910A0170910B0180910C01DE
:1032700090910D01A70196010E94B92D603A764800
:103280008140910520F480E891E00E94151760913B
:103290000A0170910B0180910C0190910D0120E4C5
:1032A00032E44FE050E00E94B92D60317742810551
:1032B000910520F480E891E00E94151760910A01C1
:1032C00070910B0180910C0190910D0120E432E48A
:1032D0004FE050E00E94B92DE8EECE2EE3E0DE2E66
:1032E000E12CF12CA70196010E94B92DCA01B90168
:1032F0004AE00E94171782E08093AA0780E180933A
:10330000AB0784E690E09093AD078093AC0787E02D
:1033100090E09093AF078093AE078093B0076091E1
:103320000A0170910B0180910C0190910D01A70190
:1033300096010E94B92D643671058105910520F42E
:1033400080E891E00E94151760910A0170910B01CD
:1033500080910C0190910D0128EE33E040E050E0A7
:103360000E94B92D2AE030E040E050E00E94B92DE3
:10337000CA01B9014AE00E94171781E08093AA07A9
:1033800088E08093AB071092AD071092AC0788E1FC
:1033900090E09093AF078093AE071092B0078091B2
:1033A0007A04843620F481EF93E00E94151780910F
:1033B0007A04CAE06C2F0E94A52C90E00E948C1722
:1033C00087E694E00E94151780917A046C2F0E9482
:1033D000A52C892F90E00E948C1781EF93E00E942A
:1033E00015178091EF04882309F488C08091320179
:1033F000882309F480C082E891E00E94151740916B
:10340000780450917904E0917604F09177044E1796
:103410005F0771F19A012E0F3F1FA4E6B0E00E94F2
:10342000DB2D4E1B5F0B9A0150E040E00E948F2D78
:103430007901283E334024F481EF93E00E94151770
:10344000C70164E670E00E94B12C7C01CB010E94B0
:103450008C1787E694E00E9415172AE0E216F10423
:1034600024F480E891E00E941517C7010E948C1790
:10347000609178047091790490E080E06150710966
:103480008109910937E0660F771F881F991F3A95C8
:10349000D1F74EEFC42E43E0D42EE12CF12CA7013E
:1034A00096010E948F2DB9016E5B7F4F4BE150E07A
:1034B00087E190E00E946314609176047091770434
:1034C00090E080E0615071098109910957E0660F31
:1034D000771F881F991F5A95D1F7A70196010E945F
:1034E0008F2DB9016E5B7F4F40E250E08CE190E0A0
:1034F0000E94631479CD84E891E07FCF80917504B8
:1035000092E3980F953608F055C087FD04C081EF0F
:1035100093E00E94151780917504082E000C990BFA
:103520000E948C1781E00E94BE0F86E891E00E9405
:1035300015178091E604882309F43FC081EF93E0DA
:103540000E9415178FEF0E94010D80911A058A3095
:1035500020F481EF93E00E94151780911A050E94D4
:1035600064178091180580FF2EC08EE891E00E94BC
:103570001517809119058A3020F480E891E00E94A7
:103580001517809119050E946417809109018823FD
:10359000E9F080E991E00E941517809114018A30CA
:1035A00020F481EF93E00E941517809114010E948E
:1035B00064171ACD88E891E0BACF87E694E00E94BC
:1035C000151788E0C0CF81EF93E0D1CF84E991E077
:1035D000E2CF809114018A3020F481EF93E00E94C1
:1035E0001517809114010E94641782E08093AA0746
:1035F00080E18093AB0789E290E09093AD078093E0
:10360000AC0787E090E09093AF078093AE0780937C
:10361000B00780910A0190910B01A0910C01B0912B
:103620000D0180389649A849B10520F481EF93E057
:103630000E94151760910A0170910B0180910C0195
:1036400090910D0120E4C22E22E4D22E2FE0E22E32
:10365000F12CA70196010E94B92DCA01B9014AE0D7
:103660000E94171784E490E09093AD078093AC0715
:1036700087E090E09093AF078093AE078093B00708
:1036800060910A0170910B0180910C0190910D01E4
:10369000A70196010E94B92D603A764881409105B4
:1036A00020F480E891E00E94151760910A01709162
:1036B0000B0180910C0190910D0120E432E44FE068
:1036C00050E00E94B92D603177428105910520F4C8
:1036D00080E891E00E94151760910A0170910B013A
:1036E00080910C0190910D0120E432E44FE050E014
:1036F0000E94B92D28EE33E040E050E00E94B92D41
:10370000CA01B9014AE00E94171781E08093AA0715
:1037100088E08093AB078CE690E09093AD078093B0
:10372000AC071092AF071092AE071092B0078091CD
:103730000901882309F45AC08FEC93E00E94151701
:103740008CE690E09093AD078093AC078EE090E01C
:103750009093AF078093AE0786E08093B0076091A7
:103760000A0170910B0180910C0190910D0128EEDE
:1037700033E040E050E00E94B92D643671058105C8
:10378000910520F480E891E00E94151760910A01EC
:1037900070910B0180910C0190910D0128EE33E0A6
:1037A00040E050E00E94B92D2AE030E040E050E0D7
:1037B0000E94B92DCA01B9014AE00E941717109260
:1037C000AD071092AC0788E190E09093AF0780932B
:1037D000AE071092B0078091F0040E94641788E948
:1037E00091E00E94151780911501E1CE8CEB93E0DA
:1037F000A5CFE0911301F0E0EE0FFF1FE75BFE4F56
:1038000020813181AAE0B0E00E94DB2D0E94971751
:1038100081E08093AA0788E08093AB078091AE0790
:1038200087708093B0078091F0040E94641784EB46
:1038300091E00E941517D8CB809109018823C1F02F
:103840008FEC93E00E94071781E08093AA0788E03D
:103850008093AB078091AE0787708093B00780910B
:10386000F0040E94641781EC91E00E940717BCCB22
:103870008CEB93E0E7CF609133017091340180913C
:1038800035019091360197FF1FC00E946B178DE79D
:1038900091E00E94F51681E08093AA0788E080936A
:1038A000AB078091AE0787708093B0078091F004DA
:1038B0000E9464178BED91E00E94151780E00E9432
:1038C000BE0F80EF92E0D1CF4AE00E941717DFCF02
:1038D000809132018823B1F08DEE91E00E940717AC
:1038E00081E08093AA0788E08093AB078091AE07C0
:1038F00087708093B0078091F0040E94641789E07C
:1039000092E0B3CF8CEF91E0E9CF87E292E07FCBFA
:10391000809138018823B1F084E492E00E94071777
:1039200081E08093AA0788E08093AB078091AE077F
:1039300087708093B0078091F0040E94641787E439
:1039400092E093CF82E592E0E9CF20910F01309190
:1039500010014091110150911201A4E6B0E00E94C3
:10396000AE2D0E94971781E08093AA0788E080938C
:10397000AB078091AE0787708093B0078091F00409
:103980000E94641786E792E00E94151780E00E946B
:10399000BE0F81E992E04DCF809115010E94A617DC
:1039A00081E08093AA0788E08093AB078091AE07FF
:1039B00087708093B0078091F0040E94641785E9B6
:1039C00092E037CF80911A058A3020F480E891E0A8
:1039D0000E94151780911A050E94A61781E0809316
:1039E000AA0788E08093AB078091AE078770809329
:1039F000B0078091F0040E94641780EB92E019CF29
:103A0000809119058A3020F480E891E00E94151712
:103A1000809119050E94A61781E08093AA0788E08B
:103A20008093AB078091AE0787708093B007809139
:103A3000F0040E9464178AEB92E0FBCE80912F0184
:103A40002AE0829FC00111240E94B41781E0809374
:103A5000AA0788E08093AB078091AE0787708093B8
:103A6000B0078091F0040E94641788EC92E0E1CEE8
:103A7000809129010E94A61781E08093AA0788E01F
:103A80008093AB078091AE0787708093B0078091D9
:103A9000F0040E94641785EF92E0CBCE809128015C
:103AA0008823B1F087E292E00E94071781E08093BB
:103AB000AA0788E08093AB078091AE078770809358
:103AC000B0078091F0040E9464178AE193E0CDCEA4
:103AD00080E292E0E9CF80E292E00ECB8091270174
:103AE0000E94A61781E08093AA0788E08093AB0725
:103AF0008091AE0787708093B0078091F0040E9498
:103B0000641788E593E00E94151780917A04843643
:103B100020F480E891E00E94151780917A04CAE0B1
:103B20006C2F0E94A52C90E00E948C1787E694E0F1
:103B30000E94151780917A046C2F0E94A52C892F62
:103B400090E00E948C1789E693E073CE80912A0161
:103B5000082E000C990B0E94B41781E08093AA07ED
:103B600088E08093AB078091AE0787708093B007A1
:103B70008091F0040E94641785E793E00E94151776
:103B800081E00E94BE0F80E00E94BE0F86E891E0B7
:103B900050CE82E08093AA0780E18093AB078091AA
:103BA000AE0787708093B007609123017091240164
:103BB00080912501909126010E94971781E08093C2
:103BC000AA0788E08093AB078091AE078770809347
:103BD000B0078091F0040E9464178DE893E00E9482
:103BE000151780E00E94BE0F80EF92E022CE82E0A7
:103BF0008093AA0780E18093AB078091AE0787701E
:103C00008093B00760911F01709120018091210184
:103C1000909122010E94971781E08093AA0788E083
:103C20008093AB078091AE0787708093B007809137
:103C3000F0040E94641783EC93E0D1CF82E080937C
:103C4000AA0780E18093AB078091AE0787708093CD
:103C5000B00760911701709118018091190190913E
:103C60001A010E94971781E08093AA0788E0809349
:103C7000AB078091AE0787708093B0078091F00406
:103C80000E94641786ED93E0AACF80912E0124E66E
:103C9000829FC00111240E94B41781E08093AA077B
:103CA00088E08093AB078091AE0787708093B00760
:103CB0008091F0040E94641789EE93E00E9415172A
:103CC00068CE80912C0124E6829FC00111240E94BD
:103CD000B41781E08093AA0788E08093AB078091B6
:103CE000AE0787708093B0078091F0040E9464173C
:103CF0008DEF93E0E3CF80912B0124E6829FC001FA
:103D000011240E94B41781E08093AA0788E0809371
:103D1000AB078091AE0787708093B0078091F00465
:103D20000E94641787E094E0C9CF8091DF040E946D
:103D3000A61781E08093AA0788E08093AB07809163
:103D4000AE0787708093B0078091F0040E946417DB
:103D500081E194E06ECD1F921FB61F9211248F93C4
:103D60009F93AF93BF938091C2049091C304A0919D
:103D7000C404B091C5040196A11DB11D8093C20475
:103D80009093C304A093C404B093C5048091C1046C
:103D900093E0980F9D37E8F49093C1048091C60496
:103DA0009091C704A091C804B091C9040196A11DC7
:103DB000B11D8093C6049093C704A093C804B09328
:103DC000C904BF91AF919F918F911F901FBE1F900B
:103DD00018958A578093C1048091C2049091C304BE
:103DE000A091C404B091C5040196A11DB11D80939A
:103DF000C2049093C304A093C404B093C504CECF6F
:103E00001F920F920FB60F9211242F933F934F934F
:103E10005F936F937F938F939F93AF93BF93EF9332
:103E2000FF938091B900887F803609F44AC0F0F58D
:103E3000883209F4A7C018F5803109F49BC0B8F4A2
:103E4000882309F4F9C0883009F494C0FF91EF91F8
:103E5000BF91AF919F918F917F916F915F914F91A2
:103E60003F912F910F900FBE0F901F9018958831A2
:103E700009F488C0803251F78093440514C080341F
:103E800009F49DC040F48033B9F38833F9F6809388
:103E9000440585ECB0C0803509F485C0883509F447
:103EA00096C0883499F60E944006D0CF883909F42C
:103EB0008CC038F5883729F050F4883611F08037F7
:103EC00029F683E0809346051092C00457C08838D5
:103ED00009F47BC0803919F0803809F0B7CF8091A0
:103EE000C004803208F071C0E091C00481E08E0F00
:103EF0008093C0048091BB00F0E0E056FB4F8083CC
:103F00003DC0803B39F0E0F4803A09F479C0883A4A
:103F100009F09CCF84E08093460510929F04109294
:103F20009E04E091F304F091F404099580919E04BD
:103F300081110FC081E080939E0410927E0409C01D
:103F4000803C09F4A6CF883C09F4A3CF883B09F054
:103F50007DCFE0919F0481E08E0F80939F04F0E07D
:103F6000E258FB4F80818093BB0090919F04809129
:103F70009E0429C0809121058093BB0085EC80932D
:103F8000BC0064CF9091430580914205981758F585
:103F9000E091430581E08E0F80934305F0E0EE5DF4
:103FA000FA4F8081E9CFE091430581E08E0F809345
:103FB00043058091BB00F0E0EE5DFA4F8083909165
:103FC0004305809142059817C8F285E8D8CFE09163
:103FD000430581E08E0F809343058091BB00F0E0A4
:103FE000EE5DFA4F80838091450581115CCF81E0C1
:103FF0008093200584EA8093BC001092460526CF6A
:1040000085EC8093BC00109246058091C0048032FC
:1040100030F4E091C004F0E0E056FB4F1082609174
:10402000C00470E0E091F104F091F20480EA94E0C1
:1040300009951092C0040ACF1092440534CF1F9204
:104040000F920FB60F9211242F933F934F935F93CC
:104050006F937F938F939F93AF93BF93EF93FF9350
:104060008091790590917A050E940311FF91EF915B
:10407000BF91AF919F918F917F916F915F914F9180
:104080003F912F910F900FBE0F901F9018951F9288
:104090000F920FB60F9211242F933F934F935F937C
:1040A0006F937F938F939F93AF93BF93EF93FF9300
:1040B00080917705909178050E940311FF91EF910F
:1040C000BF91AF919F918F917F916F915F914F9130
:1040D0003F912F910F900FBE0F901F9018950E9447
:1040E000CC0310926E0510926D0588EE93E0A0E06F
:1040F000B0E080936F0590937005A0937105B09325
:10410000720583E691E090936C0580936B0580E5E2
:104110008093EC071092CC071092CB071092CE0739
:104120001092CD071092D0071092CF071092D107AE
:104130001092D2071092D3078091400190914101D3
:10414000A09142018093D4079093D507A093D607FE
:104150001092D7071092D8071092D9071092DA0759
:104160001092DB071092DC071092DD071092DE0739
:104170001092DF071092E0071092E1071092E20719
:1041800080E89FEDA7E1B0E18093E3079093E40717
:10419000A093E507B093E60752985A9A53985B9A12
:1041A000E7EEF3E0E491F0E0EE0FFF1FE552FC4F85
:1041B000859194919093C0078093BF07E9ECF3E059
:1041C000E491E093C307E8EEF3E0E491F0E0EE0F52
:1041D000FF1FE552FC4F859194919093C207809305
:1041E000C107EAECF3E0E491E093C4071092C6073C
:1041F0001092C7071092C8071092C90780ED97E088
:104200000E942104E091BF07F091C0079081809146
:10421000C307982381E009F480E0E091C107F091A1
:10422000C20790812091C407922309F082602FEB8E
:1042300037E08093C5073093780520937705809108
:1042400069008C7F816080936900E89A91E0909387
:10425000CA0730937A052093790580916900837F9E
:10426000846080936900E99A82E08093CA07109283
:10427000A00510929F0525E731E030939E0520931D
:104280009D052CE32093A10523E02093A2052FE1B7
:104290002093A3052FE72093A40520E032E030937C
:1042A000A6052093A5051092A7071092A8071092C3
:1042B000A9079093AA0728E02093AB071092AD07B7
:1042C0001092AC071092AF071092AE071092B00791
:1042D0001092B2078093B3071092BE0738984698A1
:1042E000E5EDF3E0E491E0938F05E3EFF3E0E49193
:1042F000F0E0EE0FFF1FE552FC4F25913491309313
:1043000091052093900510929A0510929C051092A9
:104310009B0510929905109298051092970510929E
:10432000960510929505109294051092930510929F
:1043300092052FE835E03093820520938105109295
:104340007F051092800510927B0589E080937C05A3
:1043500090937D0590937E0510928E0510928D05A9
:104360000895CDB7DEB760970FB6F894DEBF0FBEE5
:10437000CDBFF89482E880937A0083E084BD85BD48
:1043800090916E00916090936E0091E09093800008
:104390002BE0209381009093B00094E09093B100C3
:1043A0001092C100789456985E98219A209A94B5FC
:1043B0009F7794BD5E98909180009F779093800046
:1043C0002998289855985D9857985F9894B59F7D3F
:1043D00094BD5D985F9854985C98399847983A983E
:1043E00098B198B9229A249A259A239A2C982D98B4
:1043F0009091B0009F779093B0002B985C9A809337
:1044000000010E94CC030E948B0C08EB13E0F80122
:1044100084910E949E0C0F5F1F4FF3E0073C1F0723
:10442000B1F782EB97E00E94920C0E948B0C8AED10
:104430000E949E0C82E00E949E0C88EA0E949E0CC4
:104440008FE10E949E0C82EB97E00E94920C1092EA
:10445000AD071092AC071092AF071092AE07109202
:10446000B0076091A20570E08091A40590E00E94E1
:10447000B30C0E94E5160E94E10CE0918105F091D9
:104480008205138615861486128611861086178279
:10449000168215821482138210927F051092800575
:1044A00011E0BE016F5F7F4F809181059091820581
:1044B0000E944911882309F45FC067E0CE0101968C
:1044C0000E94A50498858913ECCF80917B0581110A
:1044D00028C080918105909182050E946E05BE01E1
:1044E0006F5F7F4F80918105909182050E944F05FB
:1044F00040E064EB80918105909182050E941B054C
:1045000080918105909182050E94BD04082F8091C1
:104510008105909182050E946E05011102C01093E1
:104520007B0500917C05CE0101960E94F90580175C
:10453000C0F480917C0580937C0580917F058F5F1E
:1045400080937F058981883231F080F4803119F0C1
:10455000823209F0A6CF809180058F5F809380051D
:10456000A0CFCE0101960E94F905E5CF8B3399F3D8
:10457000823409F096CFEFCF1A82198242E050E0E0
:10458000BE016F5F7F4F90E080E00E94F21302E077
:10459000E02EF12C10E000E0C7010E94CF13080FBD
:1045A000111D2FEFE21AF20A38E2E316F104A1F727
:1045B0000F5F1F4F89819A810817190709F0CFC033
:1045C00046E250E063E171E082E090E00E94F21385
:1045D0000E940F1480912901809339011092D40711
:1045E0001092D5071092D60760E880E10E94CB08B0
:1045F00060E881E10E94CB0860E882E10E94CB087C
:1046000080E096E4A3ECB3E280933C0190933D01FB
:10461000A0933E01B0933F0162ED87EB0E94CB086F
:104620000E947D100E9430160E9493100E94C010BC
:104630000E94C9110E9411134C9903C084E6809313
:10464000F0040E94E5161092AD071092AC0710928C
:10465000AF071092AE071092B00783E08093AA07CD
:1046600088E18093AB078091F004843609F07AC02A
:104670008AE394E00E9407170E94E10C4C9BFECF56
:1046800068EE73E080E090E00E944E040E94C21742
:1046900018EE212E13E0312E04E610E08091D604AE
:1046A00081113EC04E9974C08091D0048F5F809379
:1046B000D0048091D0048B3098F18AE08093D004AC
:1046C0008091CF04811103C081E08093CF04809159
:1046D000D804811133C0FF24F394F092D8040E94CF
:1046E0003016F092D9048091F0048150833030F577
:1046F0001092F00464E670E080E090E00E944E04C6
:1047000068EE73E080E090E00E94D2028091800029
:104710008F7C806180938000F092CA040E94AF1564
:104720008091D80481110AC04D9976C08091D70438
:104730008F5F8B3008F0B4C08093D7048091EF0472
:10474000882309F4CAC08091D9048111D5C0809111
:1047500080008F77809380002998289ACDC00E948E
:10476000221036CF81E091E00E94071781E080930C
:10477000AA0788E08093AB078091AE07877080938B
:10478000B00780E494E00E9407170E94E10C78CF04
:104790008091D8041092D004882311F28091CF0424
:1047A000882361F00E9481046093CB047093CC0451
:1047B0008093CD049093CE041092CF040E94810484
:1047C000C090CB04D090CC04E090CD04F090CE0407
:1047D0006C197D098E099F09623371058105910568
:1047E00008F49ECF1092D8048091CA04882379F0EF
:1047F000809180008F7C8093800064E670E080E090
:1048000090E00E944E041092CA040E94AF150E94CC
:1048100030161092D9044DCF1092D7048091D6044F
:10482000882309F48BCF8091D504882381F00E94DE
:1048300081046093D1047093D2048093D304909345
:10484000D4041092D5040E9430160E94A7160E942C
:104850008104C090D104D090D204E090D304F090B1
:10486000D404AB01BC014C195D096E097F0980912C
:104870002F012AE0829FC0011124092E000CAA0BEF
:10488000BB0B481759076A077B0708F457CF1092EC
:10489000D6041092D9040E9430160E94A7164ECF5B
:1048A0008AE08093D7048091D504811107C081E00C
:1048B0008093D5040E9430160E94A7168091D604DA
:1048C00081113CCF8091D504882309F437CF81E052
:1048D0008093D6048093D904DECF8091D9048823B5
:1048E00059F02898809180008F7780938000299AD2
:1048F0008091EF04811127CF809108014C99F0C776
:10490000882361F0109208010E9481046093DA0408
:104910007093DB048093DC049093DD048091CA07DC
:10492000823008F040C1F8948FEB97E00E940311A9
:104930006091C6077091C7078091C8079091C90719
:1049400078942091390130E050E040E00E948F2DB2
:1049500069017A0190912801992341F0F094E09443
:10496000D094C094C11CD11CE11CF11C8090E204C5
:104970009090E304A090E404B090E5048C149D04AE
:10498000AE04BF0409F444C04C9B42C08091F004C3
:104990002FEF280F283018F421E02093E1048A310A
:1049A00009F49AC408F03CC1863009F49BC308F0AE
:1049B0000AC1823009F41CC308F0F7C0882309F447
:1049C0002BC2813009F4F3C20E9481046093E70492
:1049D0007093E8048093E9049093EA0480911601AF
:1049E000811103C091E09093E6049091F004992323
:1049F00029F0882319F081E08093E6040E94C21711
:104A0000C092E204D092E304E092E404F092E50460
:104A10008091EF04339B5EC7811109C081E08093D0
:104A2000EF040E94AF150E9430160E94C2170E9428
:104A300093108091F00481115BC08091EF04882372
:104A400009F443C710933B0100933A010E9481048B
:104A5000C090EB04D090EC04E090ED04F090EE04F4
:104A6000AB01BC014C195D096E097F0980913A01C7
:104A700090913B01B0E0A0E084179507A607B70727
:104A8000B8F50E948104C090E704D090E804E0905B
:104A9000E904F090EA046C197D098E099F096131DF
:104AA00077428105910590F08091E604882371F0AA
:104AB0000E9481046093E7047093E8048093E90402
:104AC0009093EA041092E6040E9422100E94C01003
:104AD0000E94C9110E9411130E94C2170E948104F2
:104AE0006093EB047093EC048093ED049093EE04D8
:104AF00080E090E0892B09F4D1CD0E940000C8CD60
:104B000084E18093F00434C06556710981099109EC
:104B1000633873408105910558F58091F0049FEF4B
:104B2000980F983040F59091E104992321F110926B
:104B3000E1041092F00490911501911109C0809147
:104B4000F004813011F0843619F48F5F8093F00403
:104B500080911601882361F0992351F08091F0042F
:104B60008731D0F4843108F0DEC682508230C0F044
:104B70000E94C217D3CE91E0980F9830D1F28C5199
:104B8000873420F484E18093F004D5CF9093F0042F
:104B9000913788F284E6F7CF8B51823048F7C3C64D
:104BA0001092F004E5CFF894C3CE843009F446C2E5
:104BB00008F43DC28091320191E08927809332014F
:104BC0000E94AF1501CF863109F418C378F48431FF
:104BD00009F48FC208F0BCC2873009F0F5CE80918D
:104BE000380191E0892780933801EACF883109F4B0
:104BF0004BC308F429C380912F018C149D04AE048B
:104C0000BF040CF05EC38F3F19F08F5F80932F01BC
:104C100080912F018A3008F48AE080932F01D4CE4E
:104C2000893609F472C408F069C0853609F49FC357
:104C300078F48C3109F48AC308F46BC3843609F024
:104C4000C3CE8091160191E0892780931601BCCED6
:104C5000873609F4CDC308F4ABC380911B01909152
:104C60001C01A0911D01B0911E018C149D04AE0485
:104C7000BF040CF02EC4813EF6E39F07FFECAF07A4
:104C8000B105A8F4E0911301F0E0EE0FFF1FE75B20
:104C9000FE4F20813181820F931FA11DB11D809392
:104CA0001B0190931C01A0931D01B0931E018091E4
:104CB0001B0190911C01A0911D01B0911E01813E2C
:104CC00036E393073FECA307B10520F080EE96E3AF
:104CD000AFECB0E0803A4AE994074EECA407B10586
:104CE00020F480EA9AE9AEECB0E080931B01909347
:104CF0001C01A0931D01B0931E0128C18D3609F43B
:104D000016C500F58B3609F4DAC408F469C480913D
:104D10002D0190912E018C149D04AE04BF040CF063
:104D2000F4C420912C01821718F48F5F80932D0119
:104D300080912D01981708F4F3C481E0890F8093C6
:104D40002D013ECF8F3609F43EC508F418C58037D3
:104D500009F03ACE8091DE048C149D04AE04BF04A9
:104D60000CF0A8C58A3018F48F5F8093DE04809120
:104D7000DE048A3009F028CE0E94E5161092AD07B5
:104D80001092AC071092AF071092AE071092B007C6
:104D900082E08093AA0780E18093AB078EE594E0E0
:104DA0000E9415170E94E10C23E1A22E21E0B22EF1
:104DB000912C812CC4010E94792DD5018D935D0128
:104DC000BFEF8B1A9B0AE6E28E16910499F789E0F1
:104DD000A82E81E0B82E97E2892E912CC4010E9462
:104DE000792DD5018D935D01BFEF8B1A9B0AE1E30D
:104DF0008E16910499F70E9422108AE594E00E9491
:104E000015170E94E10C68EE73E080E090E00E94CC
:104E10004E040C940000D8CD809116018111D4CDA0
:104E200040900A0150900B0160900C0170900D01B0
:104E300020910F0130911001409111015091120108
:104E400060EA76E881E090E00E94952C69877A8795
:104E50008B879C87A0910E01B0E020EA36E841E004
:104E600050E00E94AE2D6D877E878F87988B8C14C3
:104E70009D04AE04BF040CF06CC089859A85AB8597
:104E8000BC8584159505A605B70550F1E091130181
:104E9000F0E0EE0FFF1FE75BFE4F20813181AAE0BB
:104EA000B0E00E94DB2D4B015C01C301B201A50102
:104EB00094010E94B92D480C591C6A1C7B1C611579
:104EC00071058105910521F0461A570A680A790A89
:104ED00040920A0150920B0160920C0170920D01F8
:104EE00080910A0190910B01A0910C01B0910D01EC
:104EF0002D853E854F85588982179307A407B507EE
:104F000060F48D859E85AF85B88980930A01909362
:104F10000B01A0930C01B0930D0180910A019091B7
:104F20000B01A0910C01B0910D0129853A854B85AB
:104F30005C85281739074A075B0740F420930A016C
:104F400030930B0140930C0150930D010E943016D9
:104F50003BCDC814D904EA04FB0414F62D853E8524
:104F60004F855889421653066406750650F2E09143
:104F70001301F0E0EE0FFF1FE75BFE4F2081318150
:104F8000AAE0B0E00E94DB2D4B015C01C301B2013D
:104F9000A50194010E94B92D611571058105910546
:104FA00009F092CF481859086A087B0891CF809180
:104FB0001401909115018C149D04AE04BF047CF47F
:104FC000891718F48F5F809314018091140198174A
:104FD00008F4892F809314010E940F14B7CFC814CE
:104FE000D904EA04FB048CF7882379F38150EBCFD2
:104FF000809113018C149D04AE04BF0434F48630F8
:1050000078F48F5F80931301DFCCC814D904EA04CD
:10501000FB0434F4882309F4D7CC81508093130126
:1050200080911301873008F4CFCC86E0EBCF8091DC
:10503000090191E089278093090188CF809133018C
:1050400090913401A0913501B09136018C149D04EA
:10505000AE04BF04BCF5893B3BE09307A105B10555
:105060005CF4C296A11DB11D80933301909334016D
:10507000A0933501B09336018091330190913401B2
:10508000A0913501B0913601893B5BE09507A10500
:10509000B10524F088EB9BE0A0E0B0E08834E4EFB9
:1050A0009E07EFEFAE07BE0724F488E494EFAFEF5E
:1050B000BFEF8093330190933401A0933501B093F7
:1050C000360144CFC814D904EA04FB04ACF6883492
:1050D00044EF94074FEFA407B40774F2C297A109F5
:1050E000B109C2CF8091370191E0892780933701C0
:1050F00067CD80910E018C149D04AE04BF04FCF4B6
:105100008F5F80930E0140910E018FE04F30A0F031
:1051100080910F0190911001A0911101B0911201A5
:1051200050E070E060E00197A109B1094817590704
:105130006A077B0708F4CA0180930E0145CCC814A6
:10514000D904EA04FB04FCF68F30E8F28150D9CF91
:1051500080910F0190911001A0911101B091120165
:105160008C149D04AE04BF04DCF58D32F1E09F0782
:10517000A105B10558F40196A11DB11D80930F0141
:1051800090931001A0931101B093120140910F016F
:1051900050911001609111017091120180910E01E6
:1051A00090E00196092E000CAA0BBB0B481759077B
:1051B0006A077B0760F0DB01CA018D3221E09207AC
:1051C000A105B10520F08CE291E0A0E0B0E0809371
:1051D0000F0190931001A0931101B0931201F4CB31
:1051E000C814D904EA04FB048CF68F309105A1059C
:1051F000B10560F20197A109B109C0CF80911501F5
:105200008C149D04AE04BF047CF48E31B8F48F5F1F
:10521000809315018091150190911401891708F070
:10522000D3CB80931401D0CBC814D904EA04FB0477
:105230002CF4882379F38150809315018091150116
:105240008F3140F38EE1E4CF80911A058C149D04D8
:10525000AE04BF0484F4883138F48F5F80931A055C
:1052600080911A05883118F087E180931A0581E052
:105270008093E004A9CBC814D904EA04FB0484F7A2
:105280008823A9F38150EACF809119058C149D04DD
:10529000AE04BF046CF48C3338F48F5F809319052F
:1052A000809119058C3318F38BE380931905DFCFB8
:1052B000C814D904EA04FB049CF78823C1F2815086
:1052C000EDCFC814D904EA04FB040CF0A1CC823061
:1052D00008F49ECC81509ACC809130018C149D04AE
:1052E000AE04BF046CF48F3F19F08F5F80933001E0
:1052F000809130018A3008F48AE08093300164CBD9
:10530000C814D904EA04FB049CF7823088F3815066
:10531000EDCF809129018C149D04AE04BF046CF480
:105320008F3F19F08F5F80932901809129018111AE
:1053300001C081E08093290147CBC814D904EA0455
:10534000FB049CF7823088F38150EDCF992359F00C
:1053500010922801F094E094D094C094C11CD11C08
:10536000E11CF11C31CB81E080932801F3CF8091C7
:1053700027018C149D04AE04BF046CF48F3F19F018
:105380008F5F8093270180912701843668F08F3FDB
:1053900061F48EEF0AC0C814D904EA04FB049CF738
:1053A000843688F38150EDCF84E6809327010CCBBF
:1053B00080912A018C149D04AE04BF0484F48F31C3
:1053C0001CF48F5F80932A0180912A018F310CF0A9
:1053D0008EE1823E0CF482EE80932A01F5CAC81455
:1053E000D904EA04FB0484F7823E74F38150EACFC7
:1053F0008091230190912401A0912501B091260173
:105400008C149D04AE04BF040CF048C0813C3EE007
:10541000930736E1A30732E0B307A8F4E091130144
:10542000F0E0EE0FFF1FE75BFE4F20813181820F1E
:10543000931FA11DB11D8093230190932401A0937C
:105440002501B09326018091230190912401A09120
:105450002501B0912601813C5EE0950756E1A50744
:1054600052E0B50720F080EC9EE0A6E1B2E0803883
:10547000E1EB9E07EFE4AE07E1E0BE0720F480E831
:1054800091EBAFE4B1E08093230190932401A093CA
:105490002501B09326010E947D1058CDC814D9046F
:1054A000EA04FB0484F6803841EB94074FE4A40738
:1054B00041E0B40740F2E0911301F0E0EE0FFF1F6E
:1054C000E75BFE4F20813181821B930BA109B1095B
:1054D000B2CFC814D904EA04FB040CF0E8CB803A3C
:1054E0002AE992072EECA207B10508F4E0CBE0917F
:1054F0001301F0E0EE0FFF1FE75BFE4F20813181CB
:10550000821B930BA109B109CACB80911F01909115
:105510002001A0912101B09122018C149D04AE04C0
:10552000BF040CF043C0813E56E395075FECA5072E
:10553000B105A8F4E0911301F0E0EE0FFF1FE75B67
:10554000FE4F20813181820F931FA11DB11D8093D9
:105550001F0190932001A0932101B093220180911B
:105560001F0190912001A0912101B0912201813E63
:10557000F6E39F07FFECAF07B10520F080EE96E35E
:10558000AFECB0E0803A2AE992072EECA207B10511
:1055900020F480EA9AE9AEECB0E080931F0190938A
:1055A0002001A0932101B0932201D0CCC814D904CA
:1055B000EA04FB04A4F6803AEAE99E07EEECAE07A3
:1055C000B10568F2E0911301F0E0EE0FFF1FE75B19
:1055D000FE4F20813181821B930BA109B109B7CF06
:1055E0008091170190911801A0911901B0911A01B1
:1055F0008C149D04AE04BF040CF046C0813034EB23
:10560000930734ECA30734E0B307A8F4E091130147
:10561000F0E0EE0FFF1FE75BFE4F20813181820F2C
:10562000931FA11DB11D8093170190931801A093A2
:105630001901B0931A018091170190911801A0915E
:105640001901B0911A01813054EB950754ECA5076C
:1056500054E0B50720F080E094EBA4ECB4E080388F
:10566000E3EC9E07E9ECAE07E1E0BE0720F480E83A
:1056700093ECA9ECB1E08093170190931801A093EB
:105680001901B0931A0162CCC814D904EA04FB04CE
:1056900094F6803843EC940749ECA40741E0B40742
:1056A00050F2E0911301F0E0EE0FFF1FE75BFE4FB9
:1056B00020813181821B930BA109B109B4CF809164
:1056C0002E018C149D04AE04BF04A4F490912D010E
:1056D000891718F48F5F80932E0180912E018031FD
:1056E00090F090912D01891710F08FEF890F809322
:1056F0002E0166CAC814D904EA04FB0474F7803189
:1057000060F38150E8CF80E1F2CFC814D904EA04F5
:10571000FB040CF00DCB981708F00ACB815006CB98
:1057200090912C01891708F40ACB8FEF07CB809159
:105730002C0190912D018C149D04AE04BF0484F4BF
:1057400020912B01821718F48F5F80932C01809198
:105750002C01981770F081E0890F80932C0130CADA
:10576000C814D904EA04FB0494F7981780F7815011
:10577000ECCF90912B01891780F38FEFEDCF8091C3
:105780002B0190912C018C149D04AE04BF0474F481
:105790008D3F18F48F5F80932B0180912B01981718
:1057A00070F081E0890F80932B010ACAC814D904D4
:1057B000EA04FB0494F7981780F78150ECCF8D3FF3
:1057C00090F38CEFF0CF8091DF048C149D04AE0435
:1057D000BF040CF064C08A3018F48F5F8093DF043C
:1057E0008091DF048A3009F0EFC80E94E51610921C
:1057F000AD071092AC071092AF071092AE0710924F
:10580000B00782E08093AA0780E18093AB0780E530
:1058100094E00E9415170E94E10C53E1A52E51E07F
:10582000B52E912C812CD5017D905D01C4010E9483
:10583000792D781621F0672DC4010E94812DBFEFCC
:105840008B1A9B0AE6E28E16910469F739E0A32EC3
:1058500031E0B32E47E2842E912CD5017D905D017D
:10586000C4010E94792D781621F0672DC4010E9491
:10587000812DBFEF8B1A9B0AE1E38E16910469F725
:105880008AE594E00E9415170E94E10C68EE73E02F
:1058900080E090E00E944E041092F00495C8C81475
:1058A000D904EA04FB040CF09BCF882309F48CC8CC
:1058B000815094CFC814D904EA04FB040CF057CAF1
:1058C000882309F481C8815050CA30923B0120924C
:1058D0003A01BCC8882309F4AAC81092EF04A1C8F1
:1058E00081111CC881E0809308010E948104C0904E
:1058F000DA04D090DB04E090DC04F090DD046C1955
:105900007D098E099F09683E43E074078105910572
:1059100008F4FAC88091F004811142C980911601FF
:10592000882309F4EDC887E1ECC8DB018F939F93CE
:105930000E94AE2DBF91AF91A29F800D911DA39F9C
:10594000900DB29F900D11240895991B79E004C029
:10595000991F961708F0961B881F7A95C9F78095AE
:10596000089597FB072E16F4009407D077FD09D011
:105970000E944F2D07FC05D03EF4909581959F4FD6
:105980000895709561957F4F0895E894DF93CF93C4
:10599000FC01DB010E94DB2D7F936F93E9019A01EB
:1059A000AC01BF93AF933F932F93DF010E94DB2D98
:1059B00026F46C1B7D0B820B930B9E01EB01FC010B
:1059C0000E94692DAF91BF912F913F910E94692D47
:1059D000BE01CF01F9012F913F91CF91DF91089541
:1059E000689401C0E8948F929F92CF93DF930E94B6
:1059F000FE2CDF91CF919F908F9008958824992459
:105A0000F401E401B0E49F93AA279A158B049C0447
:105A1000ED05FE05CF05D007A10798F4AD2FDC2FCB
:105A2000CF2FFE2FE92D982C892E982F872F762F98
:105A3000652F542F432F322F2227B85031F7BF91B3
:105A400027C01B2EBF91BB27220F331F441F551F9A
:105A5000661F771F881F991F881C991CEE1FFF1F48
:105A6000CC1FDD1FAA1FBB1F8A149B04EC05FD057C
:105A7000CE05DF05A007B10748F08A189B08EC099E
:105A8000FD09CE09DF09A00BB10B21601A94E1F6E4
:105A90002EF49401AF01BE01CD01000C0895AA1BA4
:105AA000BB1B51E107C0AA1FBB1FA617B70710F009
:105AB000A61BB70B881F991F5A95A9F7809590953B
:105AC000BC01CD010895EE0FFF1F0590F491E02D6C
:105AD00009940E94DB2D460F571FC81FD91F08F4D9
